{
  "contractName": "Cap",
  "abi": [
    {
      "inputs": [
        {
          "internalType": "uint256",
          "name": "_cap",
          "type": "uint256"
        }
      ],
      "stateMutability": "nonpayable",
      "type": "constructor"
    },
    {
      "inputs": [],
      "name": "getCap",
      "outputs": [
        {
          "internalType": "uint256",
          "name": "",
          "type": "uint256"
        }
      ],
      "stateMutability": "view",
      "type": "function"
    }
  ],
  "bytecode": "0x608060405234801561001057600080fd5b5060405161022b38038061022b833981810160405281019061003291906100bd565b60008111610075576040517f08c379a000000000000000000000000000000000000000000000000000000000815260040161006c90610147565b60405180910390fd5b8060008190555050610167565b600080fd5b6000819050919050565b61009a81610087565b81146100a557600080fd5b50565b6000815190506100b781610091565b92915050565b6000602082840312156100d3576100d2610082565b5b60006100e1848285016100a8565b91505092915050565b600082825260208201905092915050565b7f43617070656443726f776473616c653a20636170206973203000000000000000600082015250565b60006101316019836100ea565b915061013c826100fb565b602082019050919050565b6000602082019050818103600083015261016081610124565b9050919050565b60b6806101756000396000f3fe6080604052348015600f57600080fd5b506004361060285760003560e01c8063554d578d14602d575b600080fd5b60336047565b604051603e91906067565b60405180910390f35b60008054905090565b6000819050919050565b6061816050565b82525050565b6000602082019050607a6000830184605a565b9291505056fea26469706673582212206348ce6030c5def60e0954e3bf41b35dfdbd55df5c99c5e715aab7c0f70542e564736f6c634300080f0033",
  "immutableReferences": {},
  "source": "// SPDX-License-Identifier: GPL-3.0\r\npragma solidity >=0.7.0 <0.9.0;\r\n\r\nimport \"@openzeppelin/contracts/utils/math/SafeMath.sol\";\r\n\r\n/**\r\n * @title CappedCrowdsale\r\n * @dev Crowdsale with a limit for total contributions.\r\n */\r\ncontract Cap  {\r\n    using SafeMath for uint256;\r\n\r\n    uint256 private cap;\r\n\r\n\r\n    constructor (uint256 _cap) {\r\n        require(_cap > 0, \"CappedCrowdsale: cap is 0\");\r\n        cap = _cap;\r\n    }\r\n\r\n    /**\r\n     * @return the cap of the crowdsale.\r\n     */\r\n    function getCap() public view returns (uint256) {\r\n        return cap;\r\n    }\r\n\r\n}",
  "sourcePath": "H:\\Lectures\\Truffle\\truffleReact_crowdsale\\contracts\\Cap.sol",
  "compiler": {
    "name": "solc",
    "version": "0.8.15+commit.e14f2714.Emscripten.clang"
  },
  "schemaVersion": "3.4.7",
  "updatedAt": "2022-07-13T16:02:14.177Z",
  "devdoc": {
    "details": "Crowdsale with a limit for total contributions.",
    "kind": "dev",
    "methods": {
      "getCap()": {
        "returns": {
          "_0": "the cap of the crowdsale."
        }
      }
    },
    "title": "CappedCrowdsale",
    "version": 1
  },
  "userdoc": {
    "kind": "user",
    "methods": {},
    "version": 1
  }
}