{
  "contractName": "Sale",
  "abi": [
    {
      "inputs": [
        {
          "internalType": "uint256",
          "name": "rate_",
          "type": "uint256"
        },
        {
          "internalType": "address payable",
          "name": "wallet_",
          "type": "address"
        },
        {
          "internalType": "contract IERC20",
          "name": "token_",
          "type": "address"
        },
        {
          "internalType": "uint256",
          "name": "_hardCap",
          "type": "uint256"
        },
        {
          "internalType": "uint256",
          "name": "_openingTime",
          "type": "uint256"
        },
        {
          "internalType": "uint256",
          "name": "_closingTime",
          "type": "uint256"
        },
        {
          "internalType": "address",
          "name": "_deployer",
          "type": "address"
        }
      ],
      "stateMutability": "nonpayable",
      "type": "constructor"
    },
    {
      "anonymous": false,
      "inputs": [
        {
          "indexed": true,
          "internalType": "address",
          "name": "previousOwner",
          "type": "address"
        },
        {
          "indexed": true,
          "internalType": "address",
          "name": "newOwner",
          "type": "address"
        }
      ],
      "name": "OwnershipTransferred",
      "type": "event"
    },
    {
      "anonymous": false,
      "inputs": [
        {
          "indexed": false,
          "internalType": "uint256",
          "name": "prevClosingTime",
          "type": "uint256"
        },
        {
          "indexed": false,
          "internalType": "uint256",
          "name": "newClosingTime",
          "type": "uint256"
        }
      ],
      "name": "TimedCrowdsaleExtended",
      "type": "event"
    },
    {
      "anonymous": false,
      "inputs": [
        {
          "indexed": true,
          "internalType": "address",
          "name": "purchaser",
          "type": "address"
        },
        {
          "indexed": true,
          "internalType": "address",
          "name": "beneficiary",
          "type": "address"
        },
        {
          "indexed": false,
          "internalType": "uint256",
          "name": "value",
          "type": "uint256"
        },
        {
          "indexed": false,
          "internalType": "uint256",
          "name": "amount",
          "type": "uint256"
        }
      ],
      "name": "TokensPurchased",
      "type": "event"
    },
    {
      "inputs": [
        {
          "internalType": "address",
          "name": "_addr",
          "type": "address"
        }
      ],
      "name": "addMyWhitelist",
      "outputs": [],
      "stateMutability": "nonpayable",
      "type": "function"
    },
    {
      "inputs": [
        {
          "internalType": "address[]",
          "name": "_addr",
          "type": "address[]"
        }
      ],
      "name": "addMyWhitelist2",
      "outputs": [],
      "stateMutability": "nonpayable",
      "type": "function"
    },
    {
      "inputs": [
        {
          "internalType": "address",
          "name": "beneficiary",
          "type": "address"
        }
      ],
      "name": "buyTokens",
      "outputs": [],
      "stateMutability": "payable",
      "type": "function",
      "payable": true
    },
    {
      "inputs": [],
      "name": "closingTime",
      "outputs": [
        {
          "internalType": "uint256",
          "name": "",
          "type": "uint256"
        }
      ],
      "stateMutability": "view",
      "type": "function",
      "constant": true
    },
    {
      "inputs": [],
      "name": "getCap",
      "outputs": [
        {
          "internalType": "uint256",
          "name": "",
          "type": "uint256"
        }
      ],
      "stateMutability": "view",
      "type": "function",
      "constant": true
    },
    {
      "inputs": [],
      "name": "hasClosed",
      "outputs": [
        {
          "internalType": "bool",
          "name": "",
          "type": "bool"
        }
      ],
      "stateMutability": "view",
      "type": "function",
      "constant": true
    },
    {
      "inputs": [],
      "name": "isOpen",
      "outputs": [
        {
          "internalType": "bool",
          "name": "",
          "type": "bool"
        }
      ],
      "stateMutability": "view",
      "type": "function",
      "constant": true
    },
    {
      "inputs": [
        {
          "internalType": "address",
          "name": "",
          "type": "address"
        }
      ],
      "name": "myWhitelist",
      "outputs": [
        {
          "internalType": "bool",
          "name": "",
          "type": "bool"
        }
      ],
      "stateMutability": "view",
      "type": "function",
      "constant": true
    },
    {
      "inputs": [],
      "name": "openingTime",
      "outputs": [
        {
          "internalType": "uint256",
          "name": "",
          "type": "uint256"
        }
      ],
      "stateMutability": "view",
      "type": "function",
      "constant": true
    },
    {
      "inputs": [],
      "name": "owner",
      "outputs": [
        {
          "internalType": "address",
          "name": "",
          "type": "address"
        }
      ],
      "stateMutability": "view",
      "type": "function",
      "constant": true
    },
    {
      "inputs": [],
      "name": "rate",
      "outputs": [
        {
          "internalType": "uint256",
          "name": "",
          "type": "uint256"
        }
      ],
      "stateMutability": "view",
      "type": "function",
      "constant": true
    },
    {
      "inputs": [
        {
          "internalType": "address",
          "name": "_addr",
          "type": "address"
        }
      ],
      "name": "removeMyWhitelist",
      "outputs": [],
      "stateMutability": "nonpayable",
      "type": "function"
    },
    {
      "inputs": [],
      "name": "renounceOwnership",
      "outputs": [],
      "stateMutability": "nonpayable",
      "type": "function"
    },
    {
      "inputs": [],
      "name": "token",
      "outputs": [
        {
          "internalType": "contract IERC20",
          "name": "",
          "type": "address"
        }
      ],
      "stateMutability": "view",
      "type": "function",
      "constant": true
    },
    {
      "inputs": [
        {
          "internalType": "address",
          "name": "newOwner",
          "type": "address"
        }
      ],
      "name": "transferOwnership",
      "outputs": [],
      "stateMutability": "nonpayable",
      "type": "function"
    },
    {
      "inputs": [],
      "name": "wallet",
      "outputs": [
        {
          "internalType": "address payable",
          "name": "",
          "type": "address"
        }
      ],
      "stateMutability": "view",
      "type": "function",
      "constant": true
    },
    {
      "inputs": [],
      "name": "weiRaised",
      "outputs": [
        {
          "internalType": "uint256",
          "name": "",
          "type": "uint256"
        }
      ],
      "stateMutability": "view",
      "type": "function",
      "constant": true
    },
    {
      "stateMutability": "payable",
      "type": "receive",
      "payable": true
    }
  ],
  "bytecode": "0x60806040523480156200001157600080fd5b50604051620027eb380380620027eb83398181016040528101906200003791906200054c565b828285898989866001600081905550600084116200008c576040517f08c379a0000000000000000000000000000000000000000000000000000000008152600401620000839062000660565b60405180910390fd5b600073ffffffffffffffffffffffffffffffffffffffff168373ffffffffffffffffffffffffffffffffffffffff1603620000fe576040517f08c379a0000000000000000000000000000000000000000000000000000000008152600401620000f590620006f8565b60405180910390fd5b600073ffffffffffffffffffffffffffffffffffffffff168273ffffffffffffffffffffffffffffffffffffffff160362000170576040517f08c379a0000000000000000000000000000000000000000000000000000000008152600401620001679062000790565b60405180910390fd5b8360038190555082600260006101000a81548173ffffffffffffffffffffffffffffffffffffffff021916908373ffffffffffffffffffffffffffffffffffffffff16021790555081600160006101000a81548173ffffffffffffffffffffffffffffffffffffffff021916908373ffffffffffffffffffffffffffffffffffffffff16021790555080600560006101000a81548173ffffffffffffffffffffffffffffffffffffffff021916908373ffffffffffffffffffffffffffffffffffffffff160217905550505050506200025e620002526200034f60201b60201c565b6200035760201b60201c565b60008111620002a4576040517f08c379a00000000000000000000000000000000000000000000000000000000081526004016200029b9062000802565b60405180910390fd5b8060088190555050818111620002f1576040517f08c379a0000000000000000000000000000000000000000000000000000000008152600401620002e8906200089a565b60405180910390fd5b8160098190555080600a81905550505084600b60006101000a81548173ffffffffffffffffffffffffffffffffffffffff021916908373ffffffffffffffffffffffffffffffffffffffff16021790555050505050505050620008bc565b600033905090565b6000600660009054906101000a900473ffffffffffffffffffffffffffffffffffffffff16905081600660006101000a81548173ffffffffffffffffffffffffffffffffffffffff021916908373ffffffffffffffffffffffffffffffffffffffff1602179055508173ffffffffffffffffffffffffffffffffffffffff168173ffffffffffffffffffffffffffffffffffffffff167f8be0079c531659141344cd1fd0a4f28419497f9722a3daafe3b4186f6b6457e060405160405180910390a35050565b600080fd5b6000819050919050565b620004378162000422565b81146200044357600080fd5b50565b60008151905062000457816200042c565b92915050565b600073ffffffffffffffffffffffffffffffffffffffff82169050919050565b60006200048a826200045d565b9050919050565b6200049c816200047d565b8114620004a857600080fd5b50565b600081519050620004bc8162000491565b92915050565b6000620004cf826200045d565b9050919050565b6000620004e382620004c2565b9050919050565b620004f581620004d6565b81146200050157600080fd5b50565b6000815190506200051581620004ea565b92915050565b6200052681620004c2565b81146200053257600080fd5b50565b60008151905062000546816200051b565b92915050565b600080600080600080600060e0888a0312156200056e576200056d6200041d565b5b60006200057e8a828b0162000446565b9750506020620005918a828b01620004ab565b9650506040620005a48a828b0162000504565b9550506060620005b78a828b0162000446565b9450506080620005ca8a828b0162000446565b93505060a0620005dd8a828b0162000446565b92505060c0620005f08a828b0162000535565b91505092959891949750929550565b600082825260208201905092915050565b7f43726f776473616c653a20726174652069732030000000000000000000000000600082015250565b600062000648601483620005ff565b9150620006558262000610565b602082019050919050565b600060208201905081810360008301526200067b8162000639565b9050919050565b7f43726f776473616c653a2077616c6c657420697320746865207a65726f20616460008201527f6472657373000000000000000000000000000000000000000000000000000000602082015250565b6000620006e0602583620005ff565b9150620006ed8262000682565b604082019050919050565b600060208201905081810360008301526200071381620006d1565b9050919050565b7f43726f776473616c653a20746f6b656e20697320746865207a65726f2061646460008201527f7265737300000000000000000000000000000000000000000000000000000000602082015250565b600062000778602483620005ff565b915062000785826200071a565b604082019050919050565b60006020820190508181036000830152620007ab8162000769565b9050919050565b7f43617070656443726f776473616c653a20636170206973203000000000000000600082015250565b6000620007ea601983620005ff565b9150620007f782620007b2565b602082019050919050565b600060208201905081810360008301526200081d81620007db565b9050919050565b7f54696d656443726f776473616c653a206f70656e696e672074696d652069732060008201527f6e6f74206265666f726520636c6f73696e672074696d65000000000000000000602082015250565b600062000882603783620005ff565b91506200088f8262000824565b604082019050919050565b60006020820190508181036000830152620008b58162000873565b9050919050565b611f1f80620008cc6000396000f3fe6080604052600436106101025760003560e01c8063521eb273116100955780638da5cb5b116100645780638da5cb5b1461034b578063b7a8807c14610376578063ec8ac4d8146103a1578063f2fde38b146103bd578063fc0c546a146103e65761014a565b8063521eb273146102b5578063554d578d146102e0578063715018a61461030b57806373c5b4df146103225761014a565b80632c4e722e116100d15780632c4e722e146102095780634042b66f1461023457806347535d7b1461025f5780634b6753bc1461028a5761014a565b806302ff92b31461014f57806311887c641461017857806314aa88dd146101b55780631515bc2b146101de5761014a565b3661014a576000610148576040517f08c379a000000000000000000000000000000000000000000000000000000000815260040161013f90611244565b60405180910390fd5b005b600080fd5b34801561015b57600080fd5b506101766004803603810190610171919061142f565b610411565b005b34801561018457600080fd5b5061019f600480360381019061019a9190611478565b610522565b6040516101ac91906114c0565b60405180910390f35b3480156101c157600080fd5b506101dc60048036038101906101d79190611478565b610542565b005b3480156101ea57600080fd5b506101f36105ca565b60405161020091906114c0565b60405180910390f35b34801561021557600080fd5b5061021e6105d6565b60405161022b91906114f4565b60405180910390f35b34801561024057600080fd5b506102496105e0565b60405161025691906114f4565b60405180910390f35b34801561026b57600080fd5b506102746105ea565b60405161028191906114c0565b60405180910390f35b34801561029657600080fd5b5061029f610605565b6040516102ac91906114f4565b60405180910390f35b3480156102c157600080fd5b506102ca61060f565b6040516102d79190611530565b60405180910390f35b3480156102ec57600080fd5b506102f5610639565b60405161030291906114f4565b60405180910390f35b34801561031757600080fd5b50610320610643565b005b34801561032e57600080fd5b5061034960048036038101906103449190611478565b6106cb565b005b34801561035757600080fd5b506103606107a2565b60405161036d919061155a565b60405180910390f35b34801561038257600080fd5b5061038b6107cc565b60405161039891906114f4565b60405180910390f35b6103bb60048036038101906103b69190611478565b6107d6565b005b3480156103c957600080fd5b506103e460048036038101906103df9190611478565b61094f565b005b3480156103f257600080fd5b506103fb610a46565b60405161040891906115d4565b60405180910390f35b610419610a70565b73ffffffffffffffffffffffffffffffffffffffff166104376107a2565b73ffffffffffffffffffffffffffffffffffffffff161461048d576040517f08c379a00000000000000000000000000000000000000000000000000000000081526004016104849061163b565b60405180910390fd5b60005b815181101561051e576001600760008484815181106104b2576104b161165b565b5b602002602001015173ffffffffffffffffffffffffffffffffffffffff1673ffffffffffffffffffffffffffffffffffffffff16815260200190815260200160002060006101000a81548160ff0219169083151502179055508080610516906116b9565b915050610490565b5050565b60076020528060005260406000206000915054906101000a900460ff1681565b61054a610a70565b73ffffffffffffffffffffffffffffffffffffffff166105686107a2565b73ffffffffffffffffffffffffffffffffffffffff16146105be576040517f08c379a00000000000000000000000000000000000000000000000000000000081526004016105b59061163b565b60405180910390fd5b6105c781610a78565b50565b6000600a544211905090565b6000600354905090565b6000600454905090565b600060095442101580156106005750600a544211155b905090565b6000600a54905090565b6000600260009054906101000a900473ffffffffffffffffffffffffffffffffffffffff16905090565b6000600854905090565b61064b610a70565b73ffffffffffffffffffffffffffffffffffffffff166106696107a2565b73ffffffffffffffffffffffffffffffffffffffff16146106bf576040517f08c379a00000000000000000000000000000000000000000000000000000000081526004016106b69061163b565b60405180910390fd5b6106c96000610ad3565b565b6106d3610a70565b73ffffffffffffffffffffffffffffffffffffffff166106f16107a2565b73ffffffffffffffffffffffffffffffffffffffff1614610747576040517f08c379a000000000000000000000000000000000000000000000000000000000815260040161073e9061163b565b60405180910390fd5b6001600760008373ffffffffffffffffffffffffffffffffffffffff1673ffffffffffffffffffffffffffffffffffffffff16815260200190815260200160002060006101000a81548160ff02191690831515021790555050565b6000600660009054906101000a900473ffffffffffffffffffffffffffffffffffffffff16905090565b6000600954905090565b60026000540361081b576040517f08c379a00000000000000000000000000000000000000000000000000000000081526004016108129061174d565b60405180910390fd5b6002600081905550670de0b6b3a764000034111561086e576040517f08c379a0000000000000000000000000000000000000000000000000000000008152600401610865906117b9565b60405180910390fd5b600034905061087d8282610b99565b600061088882610cdf565b905061089f82600454610cfd90919063ffffffff16565b6004819055506108af8382610d13565b8273ffffffffffffffffffffffffffffffffffffffff166108ce610a70565b73ffffffffffffffffffffffffffffffffffffffff167f6faf93231a456e552dbc9961f58d9713ee4f2e69d15f1975b050ef0911053a7b84846040516109159291906117d9565b60405180910390a36109278383610d21565b61092f610d25565b6109398383610d90565b61094283610d94565b5050600160008190555050565b610957610a70565b73ffffffffffffffffffffffffffffffffffffffff166109756107a2565b73ffffffffffffffffffffffffffffffffffffffff16146109cb576040517f08c379a00000000000000000000000000000000000000000000000000000000081526004016109c29061163b565b60405180910390fd5b600073ffffffffffffffffffffffffffffffffffffffff168173ffffffffffffffffffffffffffffffffffffffff1603610a3a576040517f08c379a0000000000000000000000000000000000000000000000000000000008152600401610a3190611874565b60405180910390fd5b610a4381610ad3565b50565b6000600160009054906101000a900473ffffffffffffffffffffffffffffffffffffffff16905090565b600033905090565b6000600760008373ffffffffffffffffffffffffffffffffffffffff1673ffffffffffffffffffffffffffffffffffffffff16815260200190815260200160002060006101000a81548160ff02191690831515021790555050565b6000600660009054906101000a900473ffffffffffffffffffffffffffffffffffffffff16905081600660006101000a81548173ffffffffffffffffffffffffffffffffffffffff021916908373ffffffffffffffffffffffffffffffffffffffff1602179055508173ffffffffffffffffffffffffffffffffffffffff168173ffffffffffffffffffffffffffffffffffffffff167f8be0079c531659141344cd1fd0a4f28419497f9722a3daafe3b4186f6b6457e060405160405180910390a35050565b81600760008273ffffffffffffffffffffffffffffffffffffffff1673ffffffffffffffffffffffffffffffffffffffff16815260200190815260200160002060009054906101000a900460ff16610c26576040517f08c379a0000000000000000000000000000000000000000000000000000000008152600401610c1d9061192c565b60405180910390fd5b610c2e6105ea565b610c6d576040517f08c379a0000000000000000000000000000000000000000000000000000000008152600401610c6490611998565b60405180910390fd5b610c75610639565b610c8f83610c816105e0565b610cfd90919063ffffffff16565b1115610cd0576040517f08c379a0000000000000000000000000000000000000000000000000000000008152600401610cc790611a04565b60405180910390fd5b610cda8383610da0565b505050565b6000610cf660035483610e5690919063ffffffff16565b9050919050565b60008183610d0b9190611a24565b905092915050565b610d1d8282610e6c565b5050565b5050565b600260009054906101000a900473ffffffffffffffffffffffffffffffffffffffff1673ffffffffffffffffffffffffffffffffffffffff166108fc349081150290604051600060405180830381858888f19350505050158015610d8d573d6000803e3d6000fd5b50565b5050565b610d9d81610a78565b50565b600073ffffffffffffffffffffffffffffffffffffffff168273ffffffffffffffffffffffffffffffffffffffff1603610e0f576040517f08c379a0000000000000000000000000000000000000000000000000000000008152600401610e0690611aec565b60405180910390fd5b60008103610e52576040517f08c379a0000000000000000000000000000000000000000000000000000000008152600401610e4990611b58565b60405180910390fd5b5050565b60008183610e649190611b78565b905092915050565b610edd600560009054906101000a900473ffffffffffffffffffffffffffffffffffffffff168383600160009054906101000a900473ffffffffffffffffffffffffffffffffffffffff1673ffffffffffffffffffffffffffffffffffffffff16610ee1909392919063ffffffff16565b5050565b610f64846323b872dd60e01b858585604051602401610f0293929190611bd2565b604051602081830303815290604052907bffffffffffffffffffffffffffffffffffffffffffffffffffffffff19166020820180517bffffffffffffffffffffffffffffffffffffffffffffffffffffffff8381831617835250505050610f6a565b50505050565b6000610fcc826040518060400160405280602081526020017f5361666545524332303a206c6f772d6c6576656c2063616c6c206661696c65648152508573ffffffffffffffffffffffffffffffffffffffff166110319092919063ffffffff16565b905060008151111561102c5780806020019051810190610fec9190611c35565b61102b576040517f08c379a000000000000000000000000000000000000000000000000000000000815260040161102290611cd4565b60405180910390fd5b5b505050565b60606110408484600085611049565b90509392505050565b60608247101561108e576040517f08c379a000000000000000000000000000000000000000000000000000000000815260040161108590611d66565b60405180910390fd5b6110978561115d565b6110d6576040517f08c379a00000000000000000000000000000000000000000000000000000000081526004016110cd90611dd2565b60405180910390fd5b6000808673ffffffffffffffffffffffffffffffffffffffff1685876040516110ff9190611e6c565b60006040518083038185875af1925050503d806000811461113c576040519150601f19603f3d011682016040523d82523d6000602084013e611141565b606091505b5091509150611151828286611180565b92505050949350505050565b6000808273ffffffffffffffffffffffffffffffffffffffff163b119050919050565b60608315611190578290506111e0565b6000835111156111a35782518084602001fd5b816040517f08c379a00000000000000000000000000000000000000000000000000000000081526004016111d79190611ec7565b60405180910390fd5b9392505050565b600082825260208201905092915050565b7f446f206e6f742073656e64204574686572000000000000000000000000000000600082015250565b600061122e6011836111e7565b9150611239826111f8565b602082019050919050565b6000602082019050818103600083015261125d81611221565b9050919050565b6000604051905090565b600080fd5b600080fd5b600080fd5b6000601f19601f8301169050919050565b7f4e487b7100000000000000000000000000000000000000000000000000000000600052604160045260246000fd5b6112c68261127d565b810181811067ffffffffffffffff821117156112e5576112e461128e565b5b80604052505050565b60006112f8611264565b905061130482826112bd565b919050565b600067ffffffffffffffff8211156113245761132361128e565b5b602082029050602081019050919050565b600080fd5b600073ffffffffffffffffffffffffffffffffffffffff82169050919050565b60006113658261133a565b9050919050565b6113758161135a565b811461138057600080fd5b50565b6000813590506113928161136c565b92915050565b60006113ab6113a684611309565b6112ee565b905080838252602082019050602084028301858111156113ce576113cd611335565b5b835b818110156113f757806113e38882611383565b8452602084019350506020810190506113d0565b5050509392505050565b600082601f83011261141657611415611278565b5b8135611426848260208601611398565b91505092915050565b6000602082840312156114455761144461126e565b5b600082013567ffffffffffffffff81111561146357611462611273565b5b61146f84828501611401565b91505092915050565b60006020828403121561148e5761148d61126e565b5b600061149c84828501611383565b91505092915050565b60008115159050919050565b6114ba816114a5565b82525050565b60006020820190506114d560008301846114b1565b92915050565b6000819050919050565b6114ee816114db565b82525050565b600060208201905061150960008301846114e5565b92915050565b600061151a8261133a565b9050919050565b61152a8161150f565b82525050565b60006020820190506115456000830184611521565b92915050565b6115548161135a565b82525050565b600060208201905061156f600083018461154b565b92915050565b6000819050919050565b600061159a6115956115908461133a565b611575565b61133a565b9050919050565b60006115ac8261157f565b9050919050565b60006115be826115a1565b9050919050565b6115ce816115b3565b82525050565b60006020820190506115e960008301846115c5565b92915050565b7f4f776e61626c653a2063616c6c6572206973206e6f7420746865206f776e6572600082015250565b60006116256020836111e7565b9150611630826115ef565b602082019050919050565b6000602082019050818103600083015261165481611618565b9050919050565b7f4e487b7100000000000000000000000000000000000000000000000000000000600052603260045260246000fd5b7f4e487b7100000000000000000000000000000000000000000000000000000000600052601160045260246000fd5b60006116c4826114db565b91507fffffffffffffffffffffffffffffffffffffffffffffffffffffffffffffffff82036116f6576116f561168a565b5b600182019050919050565b7f5265656e7472616e637947756172643a207265656e7472616e742063616c6c00600082015250565b6000611737601f836111e7565b915061174282611701565b602082019050919050565b600060208201905081810360008301526117668161172a565b9050919050565b7f6f6e6c7920312065746865720000000000000000000000000000000000000000600082015250565b60006117a3600c836111e7565b91506117ae8261176d565b602082019050919050565b600060208201905081810360008301526117d281611796565b9050919050565b60006040820190506117ee60008301856114e5565b6117fb60208301846114e5565b9392505050565b7f4f776e61626c653a206e6577206f776e657220697320746865207a65726f206160008201527f6464726573730000000000000000000000000000000000000000000000000000602082015250565b600061185e6026836111e7565b915061186982611802565b604082019050919050565b6000602082019050818103600083015261188d81611851565b9050919050565b7f57686974656c69737443726f776473616c653a2062656e65666963696172792060008201527f646f65736e27742068617665207468652057686974656c697374656420726f6c60208201527f6500000000000000000000000000000000000000000000000000000000000000604082015250565b60006119166041836111e7565b915061192182611894565b606082019050919050565b6000602082019050818103600083015261194581611909565b9050919050565b7f54696d656443726f776473616c653a206e6f74206f70656e0000000000000000600082015250565b60006119826018836111e7565b915061198d8261194c565b602082019050919050565b600060208201905081810360008301526119b181611975565b9050919050565b7f43617070656443726f776473616c653a20636170206578636565646564000000600082015250565b60006119ee601d836111e7565b91506119f9826119b8565b602082019050919050565b60006020820190508181036000830152611a1d816119e1565b9050919050565b6000611a2f826114db565b9150611a3a836114db565b9250827fffffffffffffffffffffffffffffffffffffffffffffffffffffffffffffffff03821115611a6f57611a6e61168a565b5b828201905092915050565b7f43726f776473616c653a2062656e656669636961727920697320746865207a6560008201527f726f206164647265737300000000000000000000000000000000000000000000602082015250565b6000611ad6602a836111e7565b9150611ae182611a7a565b604082019050919050565b60006020820190508181036000830152611b0581611ac9565b9050919050565b7f43726f776473616c653a20776569416d6f756e74206973203000000000000000600082015250565b6000611b426019836111e7565b9150611b4d82611b0c565b602082019050919050565b60006020820190508181036000830152611b7181611b35565b9050919050565b6000611b83826114db565b9150611b8e836114db565b9250817fffffffffffffffffffffffffffffffffffffffffffffffffffffffffffffffff0483118215151615611bc757611bc661168a565b5b828202905092915050565b6000606082019050611be7600083018661154b565b611bf4602083018561154b565b611c0160408301846114e5565b949350505050565b611c12816114a5565b8114611c1d57600080fd5b50565b600081519050611c2f81611c09565b92915050565b600060208284031215611c4b57611c4a61126e565b5b6000611c5984828501611c20565b91505092915050565b7f5361666545524332303a204552433230206f7065726174696f6e20646964206e60008201527f6f74207375636365656400000000000000000000000000000000000000000000602082015250565b6000611cbe602a836111e7565b9150611cc982611c62565b604082019050919050565b60006020820190508181036000830152611ced81611cb1565b9050919050565b7f416464726573733a20696e73756666696369656e742062616c616e636520666f60008201527f722063616c6c0000000000000000000000000000000000000000000000000000602082015250565b6000611d506026836111e7565b9150611d5b82611cf4565b604082019050919050565b60006020820190508181036000830152611d7f81611d43565b9050919050565b7f416464726573733a2063616c6c20746f206e6f6e2d636f6e7472616374000000600082015250565b6000611dbc601d836111e7565b9150611dc782611d86565b602082019050919050565b60006020820190508181036000830152611deb81611daf565b9050919050565b600081519050919050565b600081905092915050565b60005b83811015611e26578082015181840152602081019050611e0b565b83811115611e35576000848401525b50505050565b6000611e4682611df2565b611e508185611dfd565b9350611e60818560208601611e08565b80840191505092915050565b6000611e788284611e3b565b915081905092915050565b600081519050919050565b6000611e9982611e83565b611ea381856111e7565b9350611eb3818560208601611e08565b611ebc8161127d565b840191505092915050565b60006020820190508181036000830152611ee18184611e8e565b90509291505056fea2646970667358221220f9834713dc7d5dc44f61806b3609753e0ed894af45740425a1ae9aee44e774e664736f6c634300080f0033",
  "immutableReferences": {},
  "source": "// SPDX-License-Identifier: GPL-3.0\r\npragma solidity >=0.7.0 <0.9.0;\r\nimport \"./crowdsale/Crowdsale.sol\";\r\nimport \"./Whitelist.sol\";\r\nimport \"./Cap.sol\";\r\nimport \"./TimedCrowdsale.sol\";\r\nimport \"@openzeppelin/contracts/utils/math/SafeMath.sol\";\r\n\r\ncontract Sale is Crowdsale, Whitelist, Cap, TimedCrowdsale {\r\n    using SafeMath for uint256;\r\n    IERC20 D_OneToken;\r\n\r\n    constructor(\r\n        uint256 rate_,\r\n        address payable wallet_,\r\n        IERC20 token_,\r\n        uint256 _hardCap,\r\n        uint256 _openingTime,\r\n        uint256 _closingTime,\r\n        address _deployer\r\n    )\r\n        Crowdsale(rate_, wallet_, token_, _deployer)\r\n        Cap(_hardCap)\r\n        TimedCrowdsale(_openingTime, _closingTime)\r\n    {\r\n        D_OneToken = token_;\r\n    }\r\n\r\n    function _preValidatePurchase(address _beneficiary, uint256 _weiAmount)\r\n        internal\r\n        view\r\n        override\r\n        isMywhitelisted(_beneficiary)\r\n        onlyWhileOpen\r\n    {\r\n        require(\r\n            weiRaised().add(_weiAmount) <= getCap(),\r\n            \"CappedCrowdsale: cap exceeded\"\r\n        );\r\n        super._preValidatePurchase(_beneficiary, _weiAmount);\r\n    }\r\n\r\n    function _postValidatePurchase2(address beneficiary) internal override {\r\n        _removeMyWhitelist(beneficiary);\r\n    }\r\n\r\n    /*\r\n    function withdraw() external onlyOwner() {\r\n        D_OneToken.transfer(msg.sender, D_OneToken.balanceOf(address(this)));\r\n    }\r\n    */\r\n}\r\n",
  "sourcePath": "H:\\Lectures\\Truffle\\truffleReact_crowdsale\\contracts\\Sale.sol",
  "compiler": {
    "name": "solc",
    "version": "0.8.15+commit.e14f2714.Emscripten.clang"
  },
  "schemaVersion": "3.4.7",
  "updatedAt": "2022-07-13T16:02:21.029Z",
  "networkType": "ethereum",
  "devdoc": {
    "kind": "dev",
    "methods": {
      "buyTokens(address)": {
        "details": "low level token purchase ***DO NOT OVERRIDE*** This function has a non-reentrancy guard, so it shouldn't be called by another `nonReentrant` function.",
        "params": {
          "beneficiary": "Recipient of the token purchase"
        }
      },
      "getCap()": {
        "returns": {
          "_0": "the cap of the crowdsale."
        }
      },
      "owner()": {
        "details": "Returns the address of the current owner."
      },
      "rate()": {
        "returns": {
          "_0": "the number of token units a buyer gets per wei."
        }
      },
      "renounceOwnership()": {
        "details": "Leaves the contract without owner. It will not be possible to call `onlyOwner` functions anymore. Can only be called by the current owner. NOTE: Renouncing ownership will leave the contract without an owner, thereby removing any functionality that is only available to the owner."
      },
      "token()": {
        "returns": {
          "_0": "the token being sold."
        }
      },
      "transferOwnership(address)": {
        "details": "Transfers ownership of the contract to a new account (`newOwner`). Can only be called by the current owner."
      },
      "wallet()": {
        "returns": {
          "_0": "the address where funds are collected."
        }
      },
      "weiRaised()": {
        "returns": {
          "_0": "the amount of wei raised."
        }
      }
    },
    "version": 1
  },
  "userdoc": {
    "events": {
      "TokensPurchased(address,address,uint256,uint256)": {
        "notice": "Event for token purchase logging"
      }
    },
    "kind": "user",
    "methods": {},
    "version": 1
  }
}