{
  "contractName": "Simple",
  "abi": [
    {
      "inputs": [],
      "name": "return5",
      "outputs": [
        {
          "internalType": "uint256",
          "name": "",
          "type": "uint256"
        }
      ],
      "stateMutability": "pure",
      "type": "function",
      "constant": true
    },
    {
      "inputs": [
        {
          "internalType": "uint256",
          "name": "_num",
          "type": "uint256"
        }
      ],
      "name": "returnParameter",
      "outputs": [
        {
          "internalType": "uint256",
          "name": "",
          "type": "uint256"
        }
      ],
      "stateMutability": "pure",
      "type": "function",
      "constant": true
    }
  ],
  "bytecode": "0x608060405234801561001057600080fd5b50610164806100206000396000f3fe608060405234801561001057600080fd5b50600436106100365760003560e01c80630d754d0d1461003b5780639d41579d1461006b575b600080fd5b610055600480360381019061005091906100d7565b610089565b6040516100629190610113565b60405180910390f35b610073610093565b6040516100809190610113565b60405180910390f35b6000819050919050565b60006005905090565b600080fd5b6000819050919050565b6100b4816100a1565b81146100bf57600080fd5b50565b6000813590506100d1816100ab565b92915050565b6000602082840312156100ed576100ec61009c565b5b60006100fb848285016100c2565b91505092915050565b61010d816100a1565b82525050565b60006020820190506101286000830184610104565b9291505056fea26469706673582212207e1d670aa941429b1f23ac2f86929ed6c8131b1691f78e441d725ff12e640a7b64736f6c634300080b0033",
  "immutableReferences": {},
  "source": "// SPDX-License-Identifier: GPL-3.0\r\npragma solidity >=0.7.0 <0.9.0;\r\n\r\n\r\ncontract Simple {\r\n\r\n    function return5() public pure returns(uint) {\r\n        return 5;\r\n    }\r\n    \r\n    function returnParameter(uint _num) public pure returns(uint) {\r\n        return _num;\r\n    }\r\n}",
  "sourcePath": "C:\\Users\\Daehwan\\Desktop\\Truffle\\truffleExample\\contracts\\Simple.sol",
  "compiler": {
    "name": "solc",
    "version": "0.8.11+commit.d7f03943.Emscripten.clang"
  },
  "schemaVersion": "3.4.6",
  "updatedAt": "2022-03-18T16:51:29.940Z",
  "networkType": "ethereum",
  "devdoc": {
    "kind": "dev",
    "methods": {},
    "version": 1
  },
  "userdoc": {
    "kind": "user",
    "methods": {},
    "version": 1
  }
}