{
  "contractName": "Simple3",
  "abi": [
    {
      "inputs": [
        {
          "internalType": "uint256",
          "name": "_num",
          "type": "uint256"
        }
      ],
      "stateMutability": "nonpayable",
      "type": "constructor"
    },
    {
      "anonymous": false,
      "inputs": [
        {
          "indexed": false,
          "internalType": "bool",
          "name": "resultTrue",
          "type": "bool"
        }
      ],
      "name": "OnlyTrue",
      "type": "event"
    },
    {
      "inputs": [],
      "name": "num",
      "outputs": [
        {
          "internalType": "uint256",
          "name": "",
          "type": "uint256"
        }
      ],
      "stateMutability": "view",
      "type": "function",
      "constant": true
    },
    {
      "inputs": [
        {
          "internalType": "bool",
          "name": "trueOrFalse",
          "type": "bool"
        }
      ],
      "name": "noFalse",
      "outputs": [],
      "stateMutability": "nonpayable",
      "type": "function"
    },
    {
      "inputs": [],
      "name": "return5",
      "outputs": [
        {
          "internalType": "uint256",
          "name": "",
          "type": "uint256"
        }
      ],
      "stateMutability": "pure",
      "type": "function",
      "constant": true
    }
  ],
  "bytecode": "0x608060405234801561001057600080fd5b506040516103583803806103588339818101604052810190610032919061007a565b80600081905550506100a7565b600080fd5b6000819050919050565b61005781610044565b811461006257600080fd5b50565b6000815190506100748161004e565b92915050565b6000602082840312156100905761008f61003f565b5b600061009e84828501610065565b91505092915050565b6102a2806100b66000396000f3fe608060405234801561001057600080fd5b50600436106100415760003560e01c80631c42580d146100465780634e70b1dc146100625780639d41579d14610080575b600080fd5b610060600480360381019061005b9190610164565b61009e565b005b61006a610118565b60405161007791906101aa565b60405180910390f35b61008861011e565b60405161009591906101aa565b60405180910390f35b806100de576040517f08c379a00000000000000000000000000000000000000000000000000000000081526004016100d590610222565b60405180910390fd5b7f7f7c164d314bdf2ae8ad5b7081fc1e0939687df4e7d4a678b429ba11a40eacc68160405161010d9190610251565b60405180910390a150565b60005481565b60006005905090565b600080fd5b60008115159050919050565b6101418161012c565b811461014c57600080fd5b50565b60008135905061015e81610138565b92915050565b60006020828403121561017a57610179610127565b5b60006101888482850161014f565b91505092915050565b6000819050919050565b6101a481610191565b82525050565b60006020820190506101bf600083018461019b565b92915050565b600082825260208201905092915050565b7f4e6f2066616c7365210000000000000000000000000000000000000000000000600082015250565b600061020c6009836101c5565b9150610217826101d6565b602082019050919050565b6000602082019050818103600083015261023b816101ff565b9050919050565b61024b8161012c565b82525050565b60006020820190506102666000830184610242565b9291505056fea26469706673582212202885adc80d21d557229d861bd3aacb33296f7e1e0c27686c2c8cdd2b0645482364736f6c634300080b0033",
  "immutableReferences": {},
  "source": "// SPDX-License-Identifier: GPL-3.0\r\npragma solidity >=0.7.0 <0.9.0;\r\n\r\ncontract Simple3 {\r\n\r\n    event OnlyTrue(bool resultTrue);\r\n    uint public num;\r\n    constructor(uint _num) {\r\n        num = _num;\r\n    }\r\n    function noFalse(bool trueOrFalse) public {\r\n        require(trueOrFalse,\"No false!\");\r\n        emit OnlyTrue(trueOrFalse);\r\n    }\r\n    function return5() public pure returns(uint) {\r\n        return 5;\r\n    }\r\n}\r\n",
  "sourcePath": "C:\\Users\\Daehwan\\Desktop\\Truffle\\truffleExample\\contracts\\Simple3.sol",
  "compiler": {
    "name": "solc",
    "version": "0.8.11+commit.d7f03943.Emscripten.clang"
  },
  "schemaVersion": "3.4.6",
  "updatedAt": "2022-03-18T16:51:41.372Z",
  "networkType": "ethereum",
  "devdoc": {
    "kind": "dev",
    "methods": {},
    "version": 1
  },
  "userdoc": {
    "kind": "user",
    "methods": {},
    "version": 1
  }
}