{
  "contractName": "Ex",
  "abi": [
    {
      "inputs": [
        {
          "internalType": "uint256",
          "name": "",
          "type": "uint256"
        }
      ],
      "name": "array",
      "outputs": [
        {
          "internalType": "uint256",
          "name": "",
          "type": "uint256"
        }
      ],
      "stateMutability": "view",
      "type": "function",
      "constant": true
    },
    {
      "inputs": [
        {
          "internalType": "address",
          "name": "",
          "type": "address"
        }
      ],
      "name": "balances",
      "outputs": [
        {
          "internalType": "uint256",
          "name": "",
          "type": "uint256"
        }
      ],
      "stateMutability": "view",
      "type": "function",
      "constant": true
    },
    {
      "inputs": [
        {
          "internalType": "address",
          "name": "_key",
          "type": "address"
        },
        {
          "internalType": "uint256",
          "name": "newBalance",
          "type": "uint256"
        }
      ],
      "name": "addBalance",
      "outputs": [],
      "stateMutability": "nonpayable",
      "type": "function"
    },
    {
      "inputs": [
        {
          "internalType": "address",
          "name": "_key",
          "type": "address"
        }
      ],
      "name": "deleteBalance",
      "outputs": [],
      "stateMutability": "nonpayable",
      "type": "function"
    },
    {
      "inputs": [
        {
          "internalType": "uint256",
          "name": "_index",
          "type": "uint256"
        }
      ],
      "name": "deleteArray",
      "outputs": [],
      "stateMutability": "nonpayable",
      "type": "function"
    }
  ],
  "bytecode": "0x60806040526040518060600160405280606160ff168152602001606260ff168152602001606360ff16815250600190600361003b92919061004e565b5034801561004857600080fd5b506100bd565b82805482825590600052602060002090810192821561008f579160200282015b8281111561008e578251829060ff1690559160200191906001019061006e565b5b50905061009c91906100a0565b5090565b5b808211156100b95760008160009055506001016100a1565b5090565b6103bf806100cc6000396000f3fe608060405234801561001057600080fd5b50600436106100575760003560e01c80631cba87d61461005c57806321e5383a1461007857806327e235e31461009457806338d94193146100c45780637952deae146100f4575b600080fd5b61007660048036038101906100719190610260565b610110565b005b610092600480360381019061008d91906102c3565b610155565b005b6100ae60048036038101906100a99190610260565b61019c565b6040516100bb9190610312565b60405180910390f35b6100de60048036038101906100d9919061032d565b6101b4565b6040516100eb9190610312565b60405180910390f35b61010e6004803603810190610109919061032d565b6101d8565b005b6000808273ffffffffffffffffffffffffffffffffffffffff1673ffffffffffffffffffffffffffffffffffffffff1681526020019081526020016000206000905550565b806000808473ffffffffffffffffffffffffffffffffffffffff1673ffffffffffffffffffffffffffffffffffffffff168152602001908152602001600020819055505050565b60006020528060005260406000206000915090505481565b600181815481106101c457600080fd5b906000526020600020016000915090505481565b600181815481106101ec576101eb61035a565b5b906000526020600020016000905550565b600080fd5b600073ffffffffffffffffffffffffffffffffffffffff82169050919050565b600061022d82610202565b9050919050565b61023d81610222565b811461024857600080fd5b50565b60008135905061025a81610234565b92915050565b600060208284031215610276576102756101fd565b5b60006102848482850161024b565b91505092915050565b6000819050919050565b6102a08161028d565b81146102ab57600080fd5b50565b6000813590506102bd81610297565b92915050565b600080604083850312156102da576102d96101fd565b5b60006102e88582860161024b565b92505060206102f9858286016102ae565b9150509250929050565b61030c8161028d565b82525050565b60006020820190506103276000830184610303565b92915050565b600060208284031215610343576103426101fd565b5b6000610351848285016102ae565b91505092915050565b7f4e487b7100000000000000000000000000000000000000000000000000000000600052603260045260246000fdfea26469706673582212205b2f0d349f197d39ac8df40bf43f418c672dbce79bbe2339f370729d11592e1864736f6c634300080f0033",
  "immutableReferences": {},
  "source": "// SPDX-License-Identifier: GPL-3.0\r\npragma solidity >=0.7.0 <0.9.0;\r\n\r\ncontract Ex {\r\n    mapping(address => uint) public balances;\r\n    uint[] public array = [97,98,99];\r\n    function addBalance(address _key,uint newBalance) public {\r\n        balances[_key] = newBalance;\r\n    }\r\n\r\n    function deleteBalance(address _key) public {\r\n        delete balances[_key];\r\n    }\r\n    \r\n    function deleteArray(uint _index) public {\r\n       delete array[_index];\r\n    }\r\n}",
  "sourcePath": "C:\\Users\\Daehwan\\Desktop\\Truffle\\truffleReact\\contracts\\Ex.sol",
  "compiler": {
    "name": "solc",
    "version": "0.8.15+commit.e14f2714.Emscripten.clang"
  },
  "schemaVersion": "3.4.6",
  "updatedAt": "2022-06-20T11:32:14.666Z",
  "networkType": "ethereum",
  "devdoc": {
    "kind": "dev",
    "methods": {},
    "version": 1
  },
  "userdoc": {
    "kind": "user",
    "methods": {},
    "version": 1
  }
}