{
  "contractName": "Safe",
  "abi": [
    {
      "inputs": [
        {
          "internalType": "address",
          "name": "_deployer",
          "type": "address"
        }
      ],
      "stateMutability": "nonpayable",
      "type": "constructor"
    },
    {
      "inputs": [
        {
          "internalType": "contract IERC20",
          "name": "token",
          "type": "address"
        },
        {
          "internalType": "address",
          "name": "to",
          "type": "address"
        },
        {
          "internalType": "uint256",
          "name": "amount",
          "type": "uint256"
        }
      ],
      "name": "transfer",
      "outputs": [],
      "stateMutability": "nonpayable",
      "type": "function"
    }
  ],
  "bytecode": "0x608060405234801561001057600080fd5b50604051610524380380610524833981810160405281019061003291906100db565b806000806101000a81548173ffffffffffffffffffffffffffffffffffffffff021916908373ffffffffffffffffffffffffffffffffffffffff16021790555050610108565b600080fd5b600073ffffffffffffffffffffffffffffffffffffffff82169050919050565b60006100a88261007d565b9050919050565b6100b88161009d565b81146100c357600080fd5b50565b6000815190506100d5816100af565b92915050565b6000602082840312156100f1576100f0610078565b5b60006100ff848285016100c6565b91505092915050565b61040d806101176000396000f3fe608060405234801561001057600080fd5b506004361061002b5760003560e01c8063beabacc814610030575b600080fd5b61004a60048036038101906100459190610235565b61004c565b005b60008054906101000a900473ffffffffffffffffffffffffffffffffffffffff1673ffffffffffffffffffffffffffffffffffffffff163373ffffffffffffffffffffffffffffffffffffffff16146100da576040517f08c379a00000000000000000000000000000000000000000000000000000000081526004016100d19061030b565b60405180910390fd5b8273ffffffffffffffffffffffffffffffffffffffff1663a9059cbb83836040518363ffffffff1660e01b8152600401610115929190610349565b6020604051808303816000875af1158015610134573d6000803e3d6000fd5b505050506040513d601f19601f8201168201806040525081019061015891906103aa565b50505050565b600080fd5b600073ffffffffffffffffffffffffffffffffffffffff82169050919050565b600061018e82610163565b9050919050565b60006101a082610183565b9050919050565b6101b081610195565b81146101bb57600080fd5b50565b6000813590506101cd816101a7565b92915050565b6101dc81610183565b81146101e757600080fd5b50565b6000813590506101f9816101d3565b92915050565b6000819050919050565b610212816101ff565b811461021d57600080fd5b50565b60008135905061022f81610209565b92915050565b60008060006060848603121561024e5761024d61015e565b5b600061025c868287016101be565b935050602061026d868287016101ea565b925050604061027e86828701610220565b9150509250925092565b600082825260208201905092915050565b7f4f6e6c792053616c6520736d61727420636f6e74726163742063616e2063616c60008201527f6c20746869732066756e6374696f6e2121210000000000000000000000000000602082015250565b60006102f5603283610288565b915061030082610299565b604082019050919050565b60006020820190508181036000830152610324816102e8565b9050919050565b61033481610183565b82525050565b610343816101ff565b82525050565b600060408201905061035e600083018561032b565b61036b602083018461033a565b9392505050565b60008115159050919050565b61038781610372565b811461039257600080fd5b50565b6000815190506103a48161037e565b92915050565b6000602082840312156103c0576103bf61015e565b5b60006103ce84828501610395565b9150509291505056fea2646970667358221220329ab9bc46a5d417795aa5aff02f2190f1e0281d541756f16a4963244765f16a64736f6c634300080f0033",
  "immutableReferences": {},
  "source": "// SPDX-License-Identifier: GPL-3.0\r\npragma solidity >=0.7.0 <0.9.0;\r\nimport \"./crowdsale/Crowdsale.sol\";\r\nimport \"./Whitelist.sol\";\r\nimport \"./Cap.sol\";\r\nimport \"./TimedCrowdsale.sol\";\r\nimport \"@openzeppelin/contracts/utils/math/SafeMath.sol\";\r\ncontract Sale is Crowdsale, Whitelist, Cap, TimedCrowdsale {\r\n    using SafeMath for uint256;\r\n    IERC20 D_OneToken;\r\n    mapping(address => uint256) private _balances;\r\n    Safe private safe;\r\n    \r\n    constructor (\r\n        uint256 rate_, \r\n        address payable wallet_, \r\n        IERC20 token_, \r\n        uint256 _hardCap, \r\n        uint256 _openingTime, \r\n        uint256 _closingTime,\r\n        address _deployer\r\n    ) \r\n        Crowdsale(rate_,wallet_,token_,_deployer) \r\n        Cap(_hardCap)\r\n        TimedCrowdsale(_openingTime,_closingTime) \r\n    {\r\n\r\n        D_OneToken = token_;\r\n        safe = new Safe(address(this));\r\n    }\r\n\r\n    function _preValidatePurchase(\r\n        address _beneficiary, \r\n        uint256 _weiAmount\r\n    ) \r\n        internal \r\n        override \r\n        view \r\n        isMywhitelisted(_beneficiary) \r\n        onlyWhileOpen \r\n    {\r\n        require(weiRaised().add(_weiAmount) <= getCap(), \"CappedCrowdsale: cap exceeded\");\r\n        super._preValidatePurchase(_beneficiary, _weiAmount);\r\n    }\r\n\r\n    function _postValidatePurchase2(address beneficiary) internal override {\r\n        _removeMyWhitelist(beneficiary); \r\n    }\r\n\r\n    /*\r\n    function withdraw() external onlyOwner() {\r\n        D_OneToken.transfer(msg.sender, D_OneToken.balanceOf(address(this)));\r\n    }\r\n    */\r\n    function _processPurchase(address beneficiary, uint256 tokenAmount) internal override{\r\n        _balances[beneficiary] = _balances[beneficiary].add(tokenAmount);\r\n        _deliverTokens(address(safe), tokenAmount);\r\n    }\r\n    \r\n    function claim(address beneficiary) public {\r\n        require(hasClosed(), \"PostDeliveryCrowdsale: not closed\");\r\n        uint256 amount = _balances[beneficiary];\r\n        require(amount > 0, \"PostDeliveryCrowdsale: beneficiary is not due any tokens\");\r\n\r\n        _balances[beneficiary] = 0;\r\n        safe.transfer(token(), beneficiary, amount);\r\n    }\r\n\r\n}\r\n\r\n    contract Safe  {\r\n        address deployer;\r\n        constructor(address _deployer) {\r\n            deployer = _deployer;\r\n        }\r\n        function transfer(IERC20 token, address to, uint256 amount) public  {\r\n            require(msg.sender == deployer, \"Only Sale smart contract can call this function!!!\");\r\n            token.transfer(to, amount);\r\n        }\r\n    }",
  "sourcePath": "C:\\Users\\Daehwan\\Desktop\\Truffle\\truffleReact\\contracts\\Sale.sol",
  "compiler": {
    "name": "solc",
    "version": "0.8.15+commit.e14f2714.Emscripten.clang"
  },
  "schemaVersion": "3.4.6",
  "updatedAt": "2022-07-09T16:19:35.818Z",
  "devdoc": {
    "kind": "dev",
    "methods": {},
    "version": 1
  },
  "userdoc": {
    "kind": "user",
    "methods": {},
    "version": 1
  }
}