{
  "contractName": "Sale",
  "abi": [
    {
      "inputs": [
        {
          "internalType": "uint256",
          "name": "rate_",
          "type": "uint256"
        },
        {
          "internalType": "address payable",
          "name": "wallet_",
          "type": "address"
        },
        {
          "internalType": "contract IERC20",
          "name": "token_",
          "type": "address"
        },
        {
          "internalType": "uint256",
          "name": "_hardCap",
          "type": "uint256"
        },
        {
          "internalType": "uint256",
          "name": "_openingTime",
          "type": "uint256"
        },
        {
          "internalType": "uint256",
          "name": "_closingTime",
          "type": "uint256"
        },
        {
          "internalType": "address",
          "name": "_deployer",
          "type": "address"
        }
      ],
      "stateMutability": "nonpayable",
      "type": "constructor"
    },
    {
      "anonymous": false,
      "inputs": [
        {
          "indexed": true,
          "internalType": "address",
          "name": "previousOwner",
          "type": "address"
        },
        {
          "indexed": true,
          "internalType": "address",
          "name": "newOwner",
          "type": "address"
        }
      ],
      "name": "OwnershipTransferred",
      "type": "event"
    },
    {
      "anonymous": false,
      "inputs": [
        {
          "indexed": false,
          "internalType": "uint256",
          "name": "prevClosingTime",
          "type": "uint256"
        },
        {
          "indexed": false,
          "internalType": "uint256",
          "name": "newClosingTime",
          "type": "uint256"
        }
      ],
      "name": "TimedCrowdsaleExtended",
      "type": "event"
    },
    {
      "anonymous": false,
      "inputs": [
        {
          "indexed": true,
          "internalType": "address",
          "name": "purchaser",
          "type": "address"
        },
        {
          "indexed": true,
          "internalType": "address",
          "name": "beneficiary",
          "type": "address"
        },
        {
          "indexed": false,
          "internalType": "uint256",
          "name": "value",
          "type": "uint256"
        },
        {
          "indexed": false,
          "internalType": "uint256",
          "name": "amount",
          "type": "uint256"
        }
      ],
      "name": "TokensPurchased",
      "type": "event"
    },
    {
      "inputs": [
        {
          "internalType": "address",
          "name": "_addr",
          "type": "address"
        }
      ],
      "name": "addMyWhitelist",
      "outputs": [],
      "stateMutability": "nonpayable",
      "type": "function"
    },
    {
      "inputs": [
        {
          "internalType": "address[]",
          "name": "_addr",
          "type": "address[]"
        }
      ],
      "name": "addMyWhitelist2",
      "outputs": [],
      "stateMutability": "nonpayable",
      "type": "function"
    },
    {
      "inputs": [
        {
          "internalType": "address",
          "name": "beneficiary",
          "type": "address"
        }
      ],
      "name": "buyTokens",
      "outputs": [],
      "stateMutability": "payable",
      "type": "function",
      "payable": true
    },
    {
      "inputs": [],
      "name": "closingTime",
      "outputs": [
        {
          "internalType": "uint256",
          "name": "",
          "type": "uint256"
        }
      ],
      "stateMutability": "view",
      "type": "function",
      "constant": true
    },
    {
      "inputs": [],
      "name": "getCap",
      "outputs": [
        {
          "internalType": "uint256",
          "name": "",
          "type": "uint256"
        }
      ],
      "stateMutability": "view",
      "type": "function",
      "constant": true
    },
    {
      "inputs": [],
      "name": "hasClosed",
      "outputs": [
        {
          "internalType": "bool",
          "name": "",
          "type": "bool"
        }
      ],
      "stateMutability": "view",
      "type": "function",
      "constant": true
    },
    {
      "inputs": [],
      "name": "isOpen",
      "outputs": [
        {
          "internalType": "bool",
          "name": "",
          "type": "bool"
        }
      ],
      "stateMutability": "view",
      "type": "function",
      "constant": true
    },
    {
      "inputs": [
        {
          "internalType": "address",
          "name": "",
          "type": "address"
        }
      ],
      "name": "myWhitelist",
      "outputs": [
        {
          "internalType": "bool",
          "name": "",
          "type": "bool"
        }
      ],
      "stateMutability": "view",
      "type": "function",
      "constant": true
    },
    {
      "inputs": [],
      "name": "openingTime",
      "outputs": [
        {
          "internalType": "uint256",
          "name": "",
          "type": "uint256"
        }
      ],
      "stateMutability": "view",
      "type": "function",
      "constant": true
    },
    {
      "inputs": [],
      "name": "owner",
      "outputs": [
        {
          "internalType": "address",
          "name": "",
          "type": "address"
        }
      ],
      "stateMutability": "view",
      "type": "function",
      "constant": true
    },
    {
      "inputs": [],
      "name": "rate",
      "outputs": [
        {
          "internalType": "uint256",
          "name": "",
          "type": "uint256"
        }
      ],
      "stateMutability": "view",
      "type": "function",
      "constant": true
    },
    {
      "inputs": [
        {
          "internalType": "address",
          "name": "_addr",
          "type": "address"
        }
      ],
      "name": "removeMyWhitelist",
      "outputs": [],
      "stateMutability": "nonpayable",
      "type": "function"
    },
    {
      "inputs": [],
      "name": "renounceOwnership",
      "outputs": [],
      "stateMutability": "nonpayable",
      "type": "function"
    },
    {
      "inputs": [],
      "name": "token",
      "outputs": [
        {
          "internalType": "contract IERC20",
          "name": "",
          "type": "address"
        }
      ],
      "stateMutability": "view",
      "type": "function",
      "constant": true
    },
    {
      "inputs": [
        {
          "internalType": "address",
          "name": "newOwner",
          "type": "address"
        }
      ],
      "name": "transferOwnership",
      "outputs": [],
      "stateMutability": "nonpayable",
      "type": "function"
    },
    {
      "inputs": [],
      "name": "wallet",
      "outputs": [
        {
          "internalType": "address payable",
          "name": "",
          "type": "address"
        }
      ],
      "stateMutability": "view",
      "type": "function",
      "constant": true
    },
    {
      "inputs": [],
      "name": "weiRaised",
      "outputs": [
        {
          "internalType": "uint256",
          "name": "",
          "type": "uint256"
        }
      ],
      "stateMutability": "view",
      "type": "function",
      "constant": true
    },
    {
      "stateMutability": "payable",
      "type": "receive",
      "payable": true
    },
    {
      "inputs": [
        {
          "internalType": "address",
          "name": "beneficiary",
          "type": "address"
        }
      ],
      "name": "claim",
      "outputs": [],
      "stateMutability": "nonpayable",
      "type": "function"
    }
  ],
  "bytecode": "0x60806040523480156200001157600080fd5b50604051620031b8380380620031b88339818101604052810190620000379190620005d3565b828285898989866001600081905550600084116200008c576040517f08c379a00000000000000000000000000000000000000000000000000000000081526004016200008390620006e7565b60405180910390fd5b600073ffffffffffffffffffffffffffffffffffffffff168373ffffffffffffffffffffffffffffffffffffffff1603620000fe576040517f08c379a0000000000000000000000000000000000000000000000000000000008152600401620000f5906200077f565b60405180910390fd5b600073ffffffffffffffffffffffffffffffffffffffff168273ffffffffffffffffffffffffffffffffffffffff160362000170576040517f08c379a0000000000000000000000000000000000000000000000000000000008152600401620001679062000817565b60405180910390fd5b8360038190555082600260006101000a81548173ffffffffffffffffffffffffffffffffffffffff021916908373ffffffffffffffffffffffffffffffffffffffff16021790555081600160006101000a81548173ffffffffffffffffffffffffffffffffffffffff021916908373ffffffffffffffffffffffffffffffffffffffff16021790555080600560006101000a81548173ffffffffffffffffffffffffffffffffffffffff021916908373ffffffffffffffffffffffffffffffffffffffff160217905550505050506200025e62000252620003c860201b60201c565b620003d060201b60201c565b60008111620002a4576040517f08c379a00000000000000000000000000000000000000000000000000000000081526004016200029b9062000889565b60405180910390fd5b8060088190555050818111620002f1576040517f08c379a0000000000000000000000000000000000000000000000000000000008152600401620002e89062000921565b60405180910390fd5b8160098190555080600a81905550505084600b60006101000a81548173ffffffffffffffffffffffffffffffffffffffff021916908373ffffffffffffffffffffffffffffffffffffffff16021790555030604051620003519062000496565b6200035d919062000954565b604051809103906000f0801580156200037a573d6000803e3d6000fd5b50600d60006101000a81548173ffffffffffffffffffffffffffffffffffffffff021916908373ffffffffffffffffffffffffffffffffffffffff1602179055505050505050505062000971565b600033905090565b6000600660009054906101000a900473ffffffffffffffffffffffffffffffffffffffff16905081600660006101000a81548173ffffffffffffffffffffffffffffffffffffffff021916908373ffffffffffffffffffffffffffffffffffffffff1602179055508173ffffffffffffffffffffffffffffffffffffffff168173ffffffffffffffffffffffffffffffffffffffff167f8be0079c531659141344cd1fd0a4f28419497f9722a3daafe3b4186f6b6457e060405160405180910390a35050565b6105248062002c9483390190565b600080fd5b6000819050919050565b620004be81620004a9565b8114620004ca57600080fd5b50565b600081519050620004de81620004b3565b92915050565b600073ffffffffffffffffffffffffffffffffffffffff82169050919050565b60006200051182620004e4565b9050919050565b620005238162000504565b81146200052f57600080fd5b50565b600081519050620005438162000518565b92915050565b60006200055682620004e4565b9050919050565b60006200056a8262000549565b9050919050565b6200057c816200055d565b81146200058857600080fd5b50565b6000815190506200059c8162000571565b92915050565b620005ad8162000549565b8114620005b957600080fd5b50565b600081519050620005cd81620005a2565b92915050565b600080600080600080600060e0888a031215620005f557620005f4620004a4565b5b6000620006058a828b01620004cd565b9750506020620006188a828b0162000532565b96505060406200062b8a828b016200058b565b95505060606200063e8a828b01620004cd565b9450506080620006518a828b01620004cd565b93505060a0620006648a828b01620004cd565b92505060c0620006778a828b01620005bc565b91505092959891949750929550565b600082825260208201905092915050565b7f43726f776473616c653a20726174652069732030000000000000000000000000600082015250565b6000620006cf60148362000686565b9150620006dc8262000697565b602082019050919050565b600060208201905081810360008301526200070281620006c0565b9050919050565b7f43726f776473616c653a2077616c6c657420697320746865207a65726f20616460008201527f6472657373000000000000000000000000000000000000000000000000000000602082015250565b60006200076760258362000686565b9150620007748262000709565b604082019050919050565b600060208201905081810360008301526200079a8162000758565b9050919050565b7f43726f776473616c653a20746f6b656e20697320746865207a65726f2061646460008201527f7265737300000000000000000000000000000000000000000000000000000000602082015250565b6000620007ff60248362000686565b91506200080c82620007a1565b604082019050919050565b600060208201905081810360008301526200083281620007f0565b9050919050565b7f43617070656443726f776473616c653a20636170206973203000000000000000600082015250565b60006200087160198362000686565b91506200087e8262000839565b602082019050919050565b60006020820190508181036000830152620008a48162000862565b9050919050565b7f54696d656443726f776473616c653a206f70656e696e672074696d652069732060008201527f6e6f74206265666f726520636c6f73696e672074696d65000000000000000000602082015250565b60006200090960378362000686565b91506200091682620008ab565b604082019050919050565b600060208201905081810360008301526200093c81620008fa565b9050919050565b6200094e8162000549565b82525050565b60006020820190506200096b600083018462000943565b92915050565b61231380620009816000396000f3fe60806040526004361061010d5760003560e01c8063521eb273116100955780638da5cb5b116100645780638da5cb5b1461037f578063b7a8807c146103aa578063ec8ac4d8146103d5578063f2fde38b146103f1578063fc0c546a1461041a57610155565b8063521eb273146102e9578063554d578d14610314578063715018a61461033f57806373c5b4df1461035657610155565b80631e83409a116100dc5780631e83409a146102145780632c4e722e1461023d5780634042b66f1461026857806347535d7b146102935780634b6753bc146102be57610155565b806302ff92b31461015a57806311887c641461018357806314aa88dd146101c05780631515bc2b146101e957610155565b36610155576000610153576040517f08c379a000000000000000000000000000000000000000000000000000000000815260040161014a906114dd565b60405180910390fd5b005b600080fd5b34801561016657600080fd5b50610181600480360381019061017c91906116c8565b610445565b005b34801561018f57600080fd5b506101aa60048036038101906101a59190611711565b610556565b6040516101b79190611759565b60405180910390f35b3480156101cc57600080fd5b506101e760048036038101906101e29190611711565b610576565b005b3480156101f557600080fd5b506101fe6105fe565b60405161020b9190611759565b60405180910390f35b34801561022057600080fd5b5061023b60048036038101906102369190611711565b61060a565b005b34801561024957600080fd5b506102526107b9565b60405161025f919061178d565b60405180910390f35b34801561027457600080fd5b5061027d6107c3565b60405161028a919061178d565b60405180910390f35b34801561029f57600080fd5b506102a86107cd565b6040516102b59190611759565b60405180910390f35b3480156102ca57600080fd5b506102d36107e8565b6040516102e0919061178d565b60405180910390f35b3480156102f557600080fd5b506102fe6107f2565b60405161030b91906117c9565b60405180910390f35b34801561032057600080fd5b5061032961081c565b604051610336919061178d565b60405180910390f35b34801561034b57600080fd5b50610354610826565b005b34801561036257600080fd5b5061037d60048036038101906103789190611711565b6108ae565b005b34801561038b57600080fd5b50610394610985565b6040516103a191906117f3565b60405180910390f35b3480156103b657600080fd5b506103bf6109af565b6040516103cc919061178d565b60405180910390f35b6103ef60048036038101906103ea9190611711565b6109b9565b005b3480156103fd57600080fd5b5061041860048036038101906104139190611711565b610b31565b005b34801561042657600080fd5b5061042f610c28565b60405161043c919061186d565b60405180910390f35b61044d610c52565b73ffffffffffffffffffffffffffffffffffffffff1661046b610985565b73ffffffffffffffffffffffffffffffffffffffff16146104c1576040517f08c379a00000000000000000000000000000000000000000000000000000000081526004016104b8906118d4565b60405180910390fd5b60005b8151811015610552576001600760008484815181106104e6576104e56118f4565b5b602002602001015173ffffffffffffffffffffffffffffffffffffffff1673ffffffffffffffffffffffffffffffffffffffff16815260200190815260200160002060006101000a81548160ff021916908315150217905550808061054a90611952565b9150506104c4565b5050565b60076020528060005260406000206000915054906101000a900460ff1681565b61057e610c52565b73ffffffffffffffffffffffffffffffffffffffff1661059c610985565b73ffffffffffffffffffffffffffffffffffffffff16146105f2576040517f08c379a00000000000000000000000000000000000000000000000000000000081526004016105e9906118d4565b60405180910390fd5b6105fb81610c5a565b50565b6000600a544211905090565b6106126105fe565b610651576040517f08c379a000000000000000000000000000000000000000000000000000000000815260040161064890611a0c565b60405180910390fd5b6000600c60008373ffffffffffffffffffffffffffffffffffffffff1673ffffffffffffffffffffffffffffffffffffffff168152602001908152602001600020549050600081116106d8576040517f08c379a00000000000000000000000000000000000000000000000000000000081526004016106cf90611a9e565b60405180910390fd5b6000600c60008473ffffffffffffffffffffffffffffffffffffffff1673ffffffffffffffffffffffffffffffffffffffff16815260200190815260200160002081905550600d60009054906101000a900473ffffffffffffffffffffffffffffffffffffffff1673ffffffffffffffffffffffffffffffffffffffff1663beabacc8610763610c28565b84846040518463ffffffff1660e01b815260040161078393929190611abe565b600060405180830381600087803b15801561079d57600080fd5b505af11580156107b1573d6000803e3d6000fd5b505050505050565b6000600354905090565b6000600454905090565b600060095442101580156107e35750600a544211155b905090565b6000600a54905090565b6000600260009054906101000a900473ffffffffffffffffffffffffffffffffffffffff16905090565b6000600854905090565b61082e610c52565b73ffffffffffffffffffffffffffffffffffffffff1661084c610985565b73ffffffffffffffffffffffffffffffffffffffff16146108a2576040517f08c379a0000000000000000000000000000000000000000000000000000000008152600401610899906118d4565b60405180910390fd5b6108ac6000610cb5565b565b6108b6610c52565b73ffffffffffffffffffffffffffffffffffffffff166108d4610985565b73ffffffffffffffffffffffffffffffffffffffff161461092a576040517f08c379a0000000000000000000000000000000000000000000000000000000008152600401610921906118d4565b60405180910390fd5b6001600760008373ffffffffffffffffffffffffffffffffffffffff1673ffffffffffffffffffffffffffffffffffffffff16815260200190815260200160002060006101000a81548160ff02191690831515021790555050565b6000600660009054906101000a900473ffffffffffffffffffffffffffffffffffffffff16905090565b6000600954905090565b6002600054036109fe576040517f08c379a00000000000000000000000000000000000000000000000000000000081526004016109f590611b41565b60405180910390fd5b6002600081905550670de0b6b3a76400003414610a50576040517f08c379a0000000000000000000000000000000000000000000000000000000008152600401610a4790611bad565b60405180910390fd5b6000349050610a5f8282610d7b565b6000610a6a82610ec1565b9050610a8182600454610edf90919063ffffffff16565b600481905550610a918382610ef5565b8273ffffffffffffffffffffffffffffffffffffffff16610ab0610c52565b73ffffffffffffffffffffffffffffffffffffffff167f6faf93231a456e552dbc9961f58d9713ee4f2e69d15f1975b050ef0911053a7b8484604051610af7929190611bcd565b60405180910390a3610b098383610fba565b610b11610fbe565b610b1b8383611029565b610b248361102d565b5050600160008190555050565b610b39610c52565b73ffffffffffffffffffffffffffffffffffffffff16610b57610985565b73ffffffffffffffffffffffffffffffffffffffff1614610bad576040517f08c379a0000000000000000000000000000000000000000000000000000000008152600401610ba4906118d4565b60405180910390fd5b600073ffffffffffffffffffffffffffffffffffffffff168173ffffffffffffffffffffffffffffffffffffffff1603610c1c576040517f08c379a0000000000000000000000000000000000000000000000000000000008152600401610c1390611c68565b60405180910390fd5b610c2581610cb5565b50565b6000600160009054906101000a900473ffffffffffffffffffffffffffffffffffffffff16905090565b600033905090565b6000600760008373ffffffffffffffffffffffffffffffffffffffff1673ffffffffffffffffffffffffffffffffffffffff16815260200190815260200160002060006101000a81548160ff02191690831515021790555050565b6000600660009054906101000a900473ffffffffffffffffffffffffffffffffffffffff16905081600660006101000a81548173ffffffffffffffffffffffffffffffffffffffff021916908373ffffffffffffffffffffffffffffffffffffffff1602179055508173ffffffffffffffffffffffffffffffffffffffff168173ffffffffffffffffffffffffffffffffffffffff167f8be0079c531659141344cd1fd0a4f28419497f9722a3daafe3b4186f6b6457e060405160405180910390a35050565b81600760008273ffffffffffffffffffffffffffffffffffffffff1673ffffffffffffffffffffffffffffffffffffffff16815260200190815260200160002060009054906101000a900460ff16610e08576040517f08c379a0000000000000000000000000000000000000000000000000000000008152600401610dff90611d20565b60405180910390fd5b610e106107cd565b610e4f576040517f08c379a0000000000000000000000000000000000000000000000000000000008152600401610e4690611d8c565b60405180910390fd5b610e5761081c565b610e7183610e636107c3565b610edf90919063ffffffff16565b1115610eb2576040517f08c379a0000000000000000000000000000000000000000000000000000000008152600401610ea990611df8565b60405180910390fd5b610ebc8383611039565b505050565b6000610ed8600354836110ef90919063ffffffff16565b9050919050565b60008183610eed9190611e18565b905092915050565b610f4781600c60008573ffffffffffffffffffffffffffffffffffffffff1673ffffffffffffffffffffffffffffffffffffffff16815260200190815260200160002054610edf90919063ffffffff16565b600c60008473ffffffffffffffffffffffffffffffffffffffff1673ffffffffffffffffffffffffffffffffffffffff16815260200190815260200160002081905550610fb6600d60009054906101000a900473ffffffffffffffffffffffffffffffffffffffff1682611105565b5050565b5050565b600260009054906101000a900473ffffffffffffffffffffffffffffffffffffffff1673ffffffffffffffffffffffffffffffffffffffff166108fc349081150290604051600060405180830381858888f19350505050158015611026573d6000803e3d6000fd5b50565b5050565b61103681610c5a565b50565b600073ffffffffffffffffffffffffffffffffffffffff168273ffffffffffffffffffffffffffffffffffffffff16036110a8576040517f08c379a000000000000000000000000000000000000000000000000000000000815260040161109f90611ee0565b60405180910390fd5b600081036110eb576040517f08c379a00000000000000000000000000000000000000000000000000000000081526004016110e290611f4c565b60405180910390fd5b5050565b600081836110fd9190611f6c565b905092915050565b611176600560009054906101000a900473ffffffffffffffffffffffffffffffffffffffff168383600160009054906101000a900473ffffffffffffffffffffffffffffffffffffffff1673ffffffffffffffffffffffffffffffffffffffff1661117a909392919063ffffffff16565b5050565b6111fd846323b872dd60e01b85858560405160240161119b93929190611fc6565b604051602081830303815290604052907bffffffffffffffffffffffffffffffffffffffffffffffffffffffff19166020820180517bffffffffffffffffffffffffffffffffffffffffffffffffffffffff8381831617835250505050611203565b50505050565b6000611265826040518060400160405280602081526020017f5361666545524332303a206c6f772d6c6576656c2063616c6c206661696c65648152508573ffffffffffffffffffffffffffffffffffffffff166112ca9092919063ffffffff16565b90506000815111156112c557808060200190518101906112859190612029565b6112c4576040517f08c379a00000000000000000000000000000000000000000000000000000000081526004016112bb906120c8565b60405180910390fd5b5b505050565b60606112d984846000856112e2565b90509392505050565b606082471015611327576040517f08c379a000000000000000000000000000000000000000000000000000000000815260040161131e9061215a565b60405180910390fd5b611330856113f6565b61136f576040517f08c379a0000000000000000000000000000000000000000000000000000000008152600401611366906121c6565b60405180910390fd5b6000808673ffffffffffffffffffffffffffffffffffffffff1685876040516113989190612260565b60006040518083038185875af1925050503d80600081146113d5576040519150601f19603f3d011682016040523d82523d6000602084013e6113da565b606091505b50915091506113ea828286611419565b92505050949350505050565b6000808273ffffffffffffffffffffffffffffffffffffffff163b119050919050565b6060831561142957829050611479565b60008351111561143c5782518084602001fd5b816040517f08c379a000000000000000000000000000000000000000000000000000000000815260040161147091906122bb565b60405180910390fd5b9392505050565b600082825260208201905092915050565b7f446f206e6f742073656e64204574686572000000000000000000000000000000600082015250565b60006114c7601183611480565b91506114d282611491565b602082019050919050565b600060208201905081810360008301526114f6816114ba565b9050919050565b6000604051905090565b600080fd5b600080fd5b600080fd5b6000601f19601f8301169050919050565b7f4e487b7100000000000000000000000000000000000000000000000000000000600052604160045260246000fd5b61155f82611516565b810181811067ffffffffffffffff8211171561157e5761157d611527565b5b80604052505050565b60006115916114fd565b905061159d8282611556565b919050565b600067ffffffffffffffff8211156115bd576115bc611527565b5b602082029050602081019050919050565b600080fd5b600073ffffffffffffffffffffffffffffffffffffffff82169050919050565b60006115fe826115d3565b9050919050565b61160e816115f3565b811461161957600080fd5b50565b60008135905061162b81611605565b92915050565b600061164461163f846115a2565b611587565b90508083825260208201905060208402830185811115611667576116666115ce565b5b835b81811015611690578061167c888261161c565b845260208401935050602081019050611669565b5050509392505050565b600082601f8301126116af576116ae611511565b5b81356116bf848260208601611631565b91505092915050565b6000602082840312156116de576116dd611507565b5b600082013567ffffffffffffffff8111156116fc576116fb61150c565b5b6117088482850161169a565b91505092915050565b60006020828403121561172757611726611507565b5b60006117358482850161161c565b91505092915050565b60008115159050919050565b6117538161173e565b82525050565b600060208201905061176e600083018461174a565b92915050565b6000819050919050565b61178781611774565b82525050565b60006020820190506117a2600083018461177e565b92915050565b60006117b3826115d3565b9050919050565b6117c3816117a8565b82525050565b60006020820190506117de60008301846117ba565b92915050565b6117ed816115f3565b82525050565b600060208201905061180860008301846117e4565b92915050565b6000819050919050565b600061183361182e611829846115d3565b61180e565b6115d3565b9050919050565b600061184582611818565b9050919050565b60006118578261183a565b9050919050565b6118678161184c565b82525050565b6000602082019050611882600083018461185e565b92915050565b7f4f776e61626c653a2063616c6c6572206973206e6f7420746865206f776e6572600082015250565b60006118be602083611480565b91506118c982611888565b602082019050919050565b600060208201905081810360008301526118ed816118b1565b9050919050565b7f4e487b7100000000000000000000000000000000000000000000000000000000600052603260045260246000fd5b7f4e487b7100000000000000000000000000000000000000000000000000000000600052601160045260246000fd5b600061195d82611774565b91507fffffffffffffffffffffffffffffffffffffffffffffffffffffffffffffffff820361198f5761198e611923565b5b600182019050919050565b7f506f737444656c697665727943726f776473616c653a206e6f7420636c6f736560008201527f6400000000000000000000000000000000000000000000000000000000000000602082015250565b60006119f6602183611480565b9150611a018261199a565b604082019050919050565b60006020820190508181036000830152611a25816119e9565b9050919050565b7f506f737444656c697665727943726f776473616c653a2062656e65666963696160008201527f7279206973206e6f742064756520616e7920746f6b656e730000000000000000602082015250565b6000611a88603883611480565b9150611a9382611a2c565b604082019050919050565b60006020820190508181036000830152611ab781611a7b565b9050919050565b6000606082019050611ad3600083018661185e565b611ae060208301856117e4565b611aed604083018461177e565b949350505050565b7f5265656e7472616e637947756172643a207265656e7472616e742063616c6c00600082015250565b6000611b2b601f83611480565b9150611b3682611af5565b602082019050919050565b60006020820190508181036000830152611b5a81611b1e565b9050919050565b7f4f6e6c7920312065746865722121210000000000000000000000000000000000600082015250565b6000611b97600f83611480565b9150611ba282611b61565b602082019050919050565b60006020820190508181036000830152611bc681611b8a565b9050919050565b6000604082019050611be2600083018561177e565b611bef602083018461177e565b9392505050565b7f4f776e61626c653a206e6577206f776e657220697320746865207a65726f206160008201527f6464726573730000000000000000000000000000000000000000000000000000602082015250565b6000611c52602683611480565b9150611c5d82611bf6565b604082019050919050565b60006020820190508181036000830152611c8181611c45565b9050919050565b7f57686974656c69737443726f776473616c653a2062656e65666963696172792060008201527f646f65736e27742068617665207468652057686974656c697374656420726f6c60208201527f6500000000000000000000000000000000000000000000000000000000000000604082015250565b6000611d0a604183611480565b9150611d1582611c88565b606082019050919050565b60006020820190508181036000830152611d3981611cfd565b9050919050565b7f54696d656443726f776473616c653a206e6f74206f70656e0000000000000000600082015250565b6000611d76601883611480565b9150611d8182611d40565b602082019050919050565b60006020820190508181036000830152611da581611d69565b9050919050565b7f43617070656443726f776473616c653a20636170206578636565646564000000600082015250565b6000611de2601d83611480565b9150611ded82611dac565b602082019050919050565b60006020820190508181036000830152611e1181611dd5565b9050919050565b6000611e2382611774565b9150611e2e83611774565b9250827fffffffffffffffffffffffffffffffffffffffffffffffffffffffffffffffff03821115611e6357611e62611923565b5b828201905092915050565b7f43726f776473616c653a2062656e656669636961727920697320746865207a6560008201527f726f206164647265737300000000000000000000000000000000000000000000602082015250565b6000611eca602a83611480565b9150611ed582611e6e565b604082019050919050565b60006020820190508181036000830152611ef981611ebd565b9050919050565b7f43726f776473616c653a20776569416d6f756e74206973203000000000000000600082015250565b6000611f36601983611480565b9150611f4182611f00565b602082019050919050565b60006020820190508181036000830152611f6581611f29565b9050919050565b6000611f7782611774565b9150611f8283611774565b9250817fffffffffffffffffffffffffffffffffffffffffffffffffffffffffffffffff0483118215151615611fbb57611fba611923565b5b828202905092915050565b6000606082019050611fdb60008301866117e4565b611fe860208301856117e4565b611ff5604083018461177e565b949350505050565b6120068161173e565b811461201157600080fd5b50565b60008151905061202381611ffd565b92915050565b60006020828403121561203f5761203e611507565b5b600061204d84828501612014565b91505092915050565b7f5361666545524332303a204552433230206f7065726174696f6e20646964206e60008201527f6f74207375636365656400000000000000000000000000000000000000000000602082015250565b60006120b2602a83611480565b91506120bd82612056565b604082019050919050565b600060208201905081810360008301526120e1816120a5565b9050919050565b7f416464726573733a20696e73756666696369656e742062616c616e636520666f60008201527f722063616c6c0000000000000000000000000000000000000000000000000000602082015250565b6000612144602683611480565b915061214f826120e8565b604082019050919050565b6000602082019050818103600083015261217381612137565b9050919050565b7f416464726573733a2063616c6c20746f206e6f6e2d636f6e7472616374000000600082015250565b60006121b0601d83611480565b91506121bb8261217a565b602082019050919050565b600060208201905081810360008301526121df816121a3565b9050919050565b600081519050919050565b600081905092915050565b60005b8381101561221a5780820151818401526020810190506121ff565b83811115612229576000848401525b50505050565b600061223a826121e6565b61224481856121f1565b93506122548185602086016121fc565b80840191505092915050565b600061226c828461222f565b915081905092915050565b600081519050919050565b600061228d82612277565b6122978185611480565b93506122a78185602086016121fc565b6122b081611516565b840191505092915050565b600060208201905081810360008301526122d58184612282565b90509291505056fea2646970667358221220e15dde38ddea05f0c2b4deaf45995668bedba00ed68adf247506912fccc22c6864736f6c634300080f0033608060405234801561001057600080fd5b50604051610524380380610524833981810160405281019061003291906100db565b806000806101000a81548173ffffffffffffffffffffffffffffffffffffffff021916908373ffffffffffffffffffffffffffffffffffffffff16021790555050610108565b600080fd5b600073ffffffffffffffffffffffffffffffffffffffff82169050919050565b60006100a88261007d565b9050919050565b6100b88161009d565b81146100c357600080fd5b50565b6000815190506100d5816100af565b92915050565b6000602082840312156100f1576100f0610078565b5b60006100ff848285016100c6565b91505092915050565b61040d806101176000396000f3fe608060405234801561001057600080fd5b506004361061002b5760003560e01c8063beabacc814610030575b600080fd5b61004a60048036038101906100459190610235565b61004c565b005b60008054906101000a900473ffffffffffffffffffffffffffffffffffffffff1673ffffffffffffffffffffffffffffffffffffffff163373ffffffffffffffffffffffffffffffffffffffff16146100da576040517f08c379a00000000000000000000000000000000000000000000000000000000081526004016100d19061030b565b60405180910390fd5b8273ffffffffffffffffffffffffffffffffffffffff1663a9059cbb83836040518363ffffffff1660e01b8152600401610115929190610349565b6020604051808303816000875af1158015610134573d6000803e3d6000fd5b505050506040513d601f19601f8201168201806040525081019061015891906103aa565b50505050565b600080fd5b600073ffffffffffffffffffffffffffffffffffffffff82169050919050565b600061018e82610163565b9050919050565b60006101a082610183565b9050919050565b6101b081610195565b81146101bb57600080fd5b50565b6000813590506101cd816101a7565b92915050565b6101dc81610183565b81146101e757600080fd5b50565b6000813590506101f9816101d3565b92915050565b6000819050919050565b610212816101ff565b811461021d57600080fd5b50565b60008135905061022f81610209565b92915050565b60008060006060848603121561024e5761024d61015e565b5b600061025c868287016101be565b935050602061026d868287016101ea565b925050604061027e86828701610220565b9150509250925092565b600082825260208201905092915050565b7f4f6e6c792053616c6520736d61727420636f6e74726163742063616e2063616c60008201527f6c20746869732066756e6374696f6e2121210000000000000000000000000000602082015250565b60006102f5603283610288565b915061030082610299565b604082019050919050565b60006020820190508181036000830152610324816102e8565b9050919050565b61033481610183565b82525050565b610343816101ff565b82525050565b600060408201905061035e600083018561032b565b61036b602083018461033a565b9392505050565b60008115159050919050565b61038781610372565b811461039257600080fd5b50565b6000815190506103a48161037e565b92915050565b6000602082840312156103c0576103bf61015e565b5b60006103ce84828501610395565b9150509291505056fea2646970667358221220329ab9bc46a5d417795aa5aff02f2190f1e0281d541756f16a4963244765f16a64736f6c634300080f0033",
  "immutableReferences": {},
  "source": "// SPDX-License-Identifier: GPL-3.0\r\npragma solidity >=0.7.0 <0.9.0;\r\nimport \"./crowdsale/Crowdsale.sol\";\r\nimport \"./Whitelist.sol\";\r\nimport \"./Cap.sol\";\r\nimport \"./TimedCrowdsale.sol\";\r\nimport \"@openzeppelin/contracts/utils/math/SafeMath.sol\";\r\ncontract Sale is Crowdsale, Whitelist, Cap, TimedCrowdsale {\r\n    using SafeMath for uint256;\r\n    IERC20 D_OneToken;\r\n    mapping(address => uint256) private _balances;\r\n    Safe private safe;\r\n    \r\n    constructor (\r\n        uint256 rate_, \r\n        address payable wallet_, \r\n        IERC20 token_, \r\n        uint256 _hardCap, \r\n        uint256 _openingTime, \r\n        uint256 _closingTime,\r\n        address _deployer\r\n    ) \r\n        Crowdsale(rate_,wallet_,token_,_deployer) \r\n        Cap(_hardCap)\r\n        TimedCrowdsale(_openingTime,_closingTime) \r\n    {\r\n\r\n        D_OneToken = token_;\r\n        safe = new Safe(address(this));\r\n    }\r\n\r\n    function _preValidatePurchase(\r\n        address _beneficiary, \r\n        uint256 _weiAmount\r\n    ) \r\n        internal \r\n        override \r\n        view \r\n        isMywhitelisted(_beneficiary) \r\n        onlyWhileOpen \r\n    {\r\n        require(weiRaised().add(_weiAmount) <= getCap(), \"CappedCrowdsale: cap exceeded\");\r\n        super._preValidatePurchase(_beneficiary, _weiAmount);\r\n    }\r\n\r\n    function _postValidatePurchase2(address beneficiary) internal override {\r\n        _removeMyWhitelist(beneficiary); \r\n    }\r\n\r\n    /*\r\n    function withdraw() external onlyOwner() {\r\n        D_OneToken.transfer(msg.sender, D_OneToken.balanceOf(address(this)));\r\n    }\r\n    */\r\n    function _processPurchase(address beneficiary, uint256 tokenAmount) internal override{\r\n        _balances[beneficiary] = _balances[beneficiary].add(tokenAmount);\r\n        _deliverTokens(address(safe), tokenAmount);\r\n    }\r\n    \r\n    function claim(address beneficiary) public {\r\n        require(hasClosed(), \"PostDeliveryCrowdsale: not closed\");\r\n        uint256 amount = _balances[beneficiary];\r\n        require(amount > 0, \"PostDeliveryCrowdsale: beneficiary is not due any tokens\");\r\n\r\n        _balances[beneficiary] = 0;\r\n        safe.transfer(token(), beneficiary, amount);\r\n    }\r\n\r\n}\r\n\r\n    contract Safe  {\r\n        address deployer;\r\n        constructor(address _deployer) {\r\n            deployer = _deployer;\r\n        }\r\n        function transfer(IERC20 token, address to, uint256 amount) public  {\r\n            require(msg.sender == deployer, \"Only Sale smart contract can call this function!!!\");\r\n            token.transfer(to, amount);\r\n        }\r\n    }",
  "sourcePath": "C:\\Users\\Daehwan\\Desktop\\Truffle\\truffleReact\\contracts\\Sale.sol",
  "compiler": {
    "name": "solc",
    "version": "0.8.15+commit.e14f2714.Emscripten.clang"
  },
  "schemaVersion": "3.4.6",
  "updatedAt": "2022-07-09T16:21:12.036Z",
  "networkType": "ethereum",
  "devdoc": {
    "kind": "dev",
    "methods": {
      "buyTokens(address)": {
        "details": "low level token purchase ***DO NOT OVERRIDE*** This function has a non-reentrancy guard, so it shouldn't be called by another `nonReentrant` function.",
        "params": {
          "beneficiary": "Recipient of the token purchase"
        }
      },
      "getCap()": {
        "returns": {
          "_0": "the cap of the crowdsale."
        }
      },
      "owner()": {
        "details": "Returns the address of the current owner."
      },
      "rate()": {
        "returns": {
          "_0": "the number of token units a buyer gets per wei."
        }
      },
      "renounceOwnership()": {
        "details": "Leaves the contract without owner. It will not be possible to call `onlyOwner` functions anymore. Can only be called by the current owner. NOTE: Renouncing ownership will leave the contract without an owner, thereby removing any functionality that is only available to the owner."
      },
      "token()": {
        "returns": {
          "_0": "the token being sold."
        }
      },
      "transferOwnership(address)": {
        "details": "Transfers ownership of the contract to a new account (`newOwner`). Can only be called by the current owner."
      },
      "wallet()": {
        "returns": {
          "_0": "the address where funds are collected."
        }
      },
      "weiRaised()": {
        "returns": {
          "_0": "the amount of wei raised."
        }
      }
    },
    "version": 1
  },
  "userdoc": {
    "events": {
      "TokensPurchased(address,address,uint256,uint256)": {
        "notice": "Event for token purchase logging"
      }
    },
    "kind": "user",
    "methods": {},
    "version": 1
  }
}