{
  "contractName": "TimedCrowdsale",
  "abi": [
    {
      "inputs": [
        {
          "internalType": "uint256",
          "name": "openingTime_",
          "type": "uint256"
        },
        {
          "internalType": "uint256",
          "name": "closingTime_",
          "type": "uint256"
        }
      ],
      "stateMutability": "nonpayable",
      "type": "constructor"
    },
    {
      "anonymous": false,
      "inputs": [
        {
          "indexed": false,
          "internalType": "uint256",
          "name": "prevClosingTime",
          "type": "uint256"
        },
        {
          "indexed": false,
          "internalType": "uint256",
          "name": "newClosingTime",
          "type": "uint256"
        }
      ],
      "name": "TimedCrowdsaleExtended",
      "type": "event"
    },
    {
      "inputs": [],
      "name": "openingTime",
      "outputs": [
        {
          "internalType": "uint256",
          "name": "",
          "type": "uint256"
        }
      ],
      "stateMutability": "view",
      "type": "function"
    },
    {
      "inputs": [],
      "name": "closingTime",
      "outputs": [
        {
          "internalType": "uint256",
          "name": "",
          "type": "uint256"
        }
      ],
      "stateMutability": "view",
      "type": "function"
    },
    {
      "inputs": [],
      "name": "isOpen",
      "outputs": [
        {
          "internalType": "bool",
          "name": "",
          "type": "bool"
        }
      ],
      "stateMutability": "view",
      "type": "function"
    },
    {
      "inputs": [],
      "name": "hasClosed",
      "outputs": [
        {
          "internalType": "bool",
          "name": "",
          "type": "bool"
        }
      ],
      "stateMutability": "view",
      "type": "function"
    }
  ],
  "bytecode": "0x608060405234801561001057600080fd5b50604051610358380380610358833981810160405281019061003291906100c4565b818111610074576040517f08c379a000000000000000000000000000000000000000000000000000000000815260040161006b90610187565b60405180910390fd5b816000819055508060018190555050506101a7565b600080fd5b6000819050919050565b6100a18161008e565b81146100ac57600080fd5b50565b6000815190506100be81610098565b92915050565b600080604083850312156100db576100da610089565b5b60006100e9858286016100af565b92505060206100fa858286016100af565b9150509250929050565b600082825260208201905092915050565b7f54696d656443726f776473616c653a206f70656e696e672074696d652069732060008201527f6e6f74206265666f726520636c6f73696e672074696d65000000000000000000602082015250565b6000610171603783610104565b915061017c82610115565b604082019050919050565b600060208201905081810360008301526101a081610164565b9050919050565b6101a2806101b66000396000f3fe608060405234801561001057600080fd5b506004361061004c5760003560e01c80631515bc2b1461005157806347535d7b1461006f5780634b6753bc1461008d578063b7a8807c146100ab575b600080fd5b6100596100c9565b604051610066919061011d565b60405180910390f35b6100776100d5565b604051610084919061011d565b60405180910390f35b6100956100ef565b6040516100a29190610151565b60405180910390f35b6100b36100f9565b6040516100c09190610151565b60405180910390f35b60006001544211905090565b6000805442101580156100ea57506001544211155b905090565b6000600154905090565b60008054905090565b60008115159050919050565b61011781610102565b82525050565b6000602082019050610132600083018461010e565b92915050565b6000819050919050565b61014b81610138565b82525050565b60006020820190506101666000830184610142565b9291505056fea26469706673582212200350a0dc60695430fbd299fecacb3aedcdd548fca26281369b3bfe027ad8590a64736f6c634300080f0033",
  "immutableReferences": {},
  "source": "// SPDX-License-Identifier: GPL-3.0\r\npragma solidity >=0.7.0 <0.9.0;\r\n\r\nimport \"@openzeppelin/contracts/utils/math/SafeMath.sol\";\r\n\r\n\r\ncontract TimedCrowdsale  {\r\n    using SafeMath for uint256;\r\n\r\n    uint256 private _openingTime;\r\n    uint256 private _closingTime;\r\n\r\n\r\n    event TimedCrowdsaleExtended(uint256 prevClosingTime, uint256 newClosingTime);\r\n\r\n\r\n    modifier onlyWhileOpen {\r\n        require(isOpen(), \"TimedCrowdsale: not open\");\r\n        _;\r\n    }\r\n\r\n\r\n    constructor (uint256 openingTime_, uint256 closingTime_) {\r\n        // solhint-disable-next-line not-rely-on-time\r\n        //require(openingTime_ >= block.timestamp, \"TimedCrowdsale: opening time is before current time\");\r\n        // solhint-disable-next-line max-line-length\r\n        require(closingTime_ > openingTime_, \"TimedCrowdsale: opening time is not before closing time\");\r\n\r\n        _openingTime = openingTime_;\r\n        _closingTime = closingTime_;\r\n    }\r\n\r\n\r\n    function openingTime() public view returns (uint256) {\r\n        return _openingTime;\r\n    }\r\n\r\n\r\n    function closingTime() public view returns (uint256) {\r\n        return _closingTime;\r\n    }\r\n\r\n\r\n    function isOpen() public view returns (bool) {\r\n        // solhint-disable-next-line not-rely-on-time\r\n        return block.timestamp >= _openingTime && block.timestamp <= _closingTime;\r\n    }\r\n\r\n \r\n    function hasClosed() public view returns (bool) {\r\n        // solhint-disable-next-line not-rely-on-time\r\n        return block.timestamp > _closingTime;\r\n    }\r\n\r\n  \r\n    function _extendTime(uint256 newClosingTime) internal {\r\n        require(!hasClosed(), \"TimedCrowdsale: already closed\");\r\n        // solhint-disable-next-line max-line-length\r\n        require(newClosingTime > _closingTime, \"TimedCrowdsale: new closing time is before current closing time\");\r\n\r\n        emit TimedCrowdsaleExtended(_closingTime, newClosingTime);\r\n        _closingTime = newClosingTime;\r\n    }\r\n}",
  "sourcePath": "C:\\Users\\Daehwan\\Desktop\\Truffle\\truffleReact\\contracts\\TimedCrowdsale.sol",
  "compiler": {
    "name": "solc",
    "version": "0.8.15+commit.e14f2714.Emscripten.clang"
  },
  "schemaVersion": "3.4.6",
  "updatedAt": "2022-07-09T16:19:36.077Z",
  "devdoc": {
    "kind": "dev",
    "methods": {},
    "version": 1
  },
  "userdoc": {
    "kind": "user",
    "methods": {},
    "version": 1
  }
}