{
  "contractName": "Whitelist",
  "abi": [
    {
      "anonymous": false,
      "inputs": [
        {
          "indexed": true,
          "internalType": "address",
          "name": "previousOwner",
          "type": "address"
        },
        {
          "indexed": true,
          "internalType": "address",
          "name": "newOwner",
          "type": "address"
        }
      ],
      "name": "OwnershipTransferred",
      "type": "event"
    },
    {
      "inputs": [
        {
          "internalType": "address",
          "name": "",
          "type": "address"
        }
      ],
      "name": "myWhitelist",
      "outputs": [
        {
          "internalType": "bool",
          "name": "",
          "type": "bool"
        }
      ],
      "stateMutability": "view",
      "type": "function"
    },
    {
      "inputs": [],
      "name": "owner",
      "outputs": [
        {
          "internalType": "address",
          "name": "",
          "type": "address"
        }
      ],
      "stateMutability": "view",
      "type": "function"
    },
    {
      "inputs": [],
      "name": "renounceOwnership",
      "outputs": [],
      "stateMutability": "nonpayable",
      "type": "function"
    },
    {
      "inputs": [
        {
          "internalType": "address",
          "name": "newOwner",
          "type": "address"
        }
      ],
      "name": "transferOwnership",
      "outputs": [],
      "stateMutability": "nonpayable",
      "type": "function"
    },
    {
      "inputs": [
        {
          "internalType": "address",
          "name": "_addr",
          "type": "address"
        }
      ],
      "name": "addMyWhitelist",
      "outputs": [],
      "stateMutability": "nonpayable",
      "type": "function"
    },
    {
      "inputs": [
        {
          "internalType": "address[]",
          "name": "_addr",
          "type": "address[]"
        }
      ],
      "name": "addMyWhitelist2",
      "outputs": [],
      "stateMutability": "nonpayable",
      "type": "function"
    },
    {
      "inputs": [
        {
          "internalType": "address",
          "name": "_addr",
          "type": "address"
        }
      ],
      "name": "removeMyWhitelist",
      "outputs": [],
      "stateMutability": "nonpayable",
      "type": "function"
    }
  ],
  "bytecode": "0x608060405234801561001057600080fd5b5061002d61002261003260201b60201c565b61003a60201b60201c565b6100fe565b600033905090565b60008060009054906101000a900473ffffffffffffffffffffffffffffffffffffffff169050816000806101000a81548173ffffffffffffffffffffffffffffffffffffffff021916908373ffffffffffffffffffffffffffffffffffffffff1602179055508173ffffffffffffffffffffffffffffffffffffffff168173ffffffffffffffffffffffffffffffffffffffff167f8be0079c531659141344cd1fd0a4f28419497f9722a3daafe3b4186f6b6457e060405160405180910390a35050565b610b3d8061010d6000396000f3fe608060405234801561001057600080fd5b506004361061007d5760003560e01c8063715018a61161005b578063715018a6146100ea57806373c5b4df146100f45780638da5cb5b14610110578063f2fde38b1461012e5761007d565b806302ff92b31461008257806311887c641461009e57806314aa88dd146100ce575b600080fd5b61009c60048036038101906100979190610872565b61014a565b005b6100b860048036038101906100b391906108bb565b61025a565b6040516100c59190610903565b60405180910390f35b6100e860048036038101906100e391906108bb565b61027a565b005b6100f2610302565b005b61010e600480360381019061010991906108bb565b61038a565b005b610118610460565b604051610125919061092d565b60405180910390f35b610148600480360381019061014391906108bb565b610489565b005b610152610580565b73ffffffffffffffffffffffffffffffffffffffff16610170610460565b73ffffffffffffffffffffffffffffffffffffffff16146101c6576040517f08c379a00000000000000000000000000000000000000000000000000000000081526004016101bd906109a5565b60405180910390fd5b60005b81518110156102565760018060008484815181106101ea576101e96109c5565b5b602002602001015173ffffffffffffffffffffffffffffffffffffffff1673ffffffffffffffffffffffffffffffffffffffff16815260200190815260200160002060006101000a81548160ff021916908315150217905550808061024e90610a2d565b9150506101c9565b5050565b60016020528060005260406000206000915054906101000a900460ff1681565b610282610580565b73ffffffffffffffffffffffffffffffffffffffff166102a0610460565b73ffffffffffffffffffffffffffffffffffffffff16146102f6576040517f08c379a00000000000000000000000000000000000000000000000000000000081526004016102ed906109a5565b60405180910390fd5b6102ff81610588565b50565b61030a610580565b73ffffffffffffffffffffffffffffffffffffffff16610328610460565b73ffffffffffffffffffffffffffffffffffffffff161461037e576040517f08c379a0000000000000000000000000000000000000000000000000000000008152600401610375906109a5565b60405180910390fd5b61038860006105e3565b565b610392610580565b73ffffffffffffffffffffffffffffffffffffffff166103b0610460565b73ffffffffffffffffffffffffffffffffffffffff1614610406576040517f08c379a00000000000000000000000000000000000000000000000000000000081526004016103fd906109a5565b60405180910390fd5b60018060008373ffffffffffffffffffffffffffffffffffffffff1673ffffffffffffffffffffffffffffffffffffffff16815260200190815260200160002060006101000a81548160ff02191690831515021790555050565b60008060009054906101000a900473ffffffffffffffffffffffffffffffffffffffff16905090565b610491610580565b73ffffffffffffffffffffffffffffffffffffffff166104af610460565b73ffffffffffffffffffffffffffffffffffffffff1614610505576040517f08c379a00000000000000000000000000000000000000000000000000000000081526004016104fc906109a5565b60405180910390fd5b600073ffffffffffffffffffffffffffffffffffffffff168173ffffffffffffffffffffffffffffffffffffffff1603610574576040517f08c379a000000000000000000000000000000000000000000000000000000000815260040161056b90610ae7565b60405180910390fd5b61057d816105e3565b50565b600033905090565b6000600160008373ffffffffffffffffffffffffffffffffffffffff1673ffffffffffffffffffffffffffffffffffffffff16815260200190815260200160002060006101000a81548160ff02191690831515021790555050565b60008060009054906101000a900473ffffffffffffffffffffffffffffffffffffffff169050816000806101000a81548173ffffffffffffffffffffffffffffffffffffffff021916908373ffffffffffffffffffffffffffffffffffffffff1602179055508173ffffffffffffffffffffffffffffffffffffffff168173ffffffffffffffffffffffffffffffffffffffff167f8be0079c531659141344cd1fd0a4f28419497f9722a3daafe3b4186f6b6457e060405160405180910390a35050565b6000604051905090565b600080fd5b600080fd5b600080fd5b6000601f19601f8301169050919050565b7f4e487b7100000000000000000000000000000000000000000000000000000000600052604160045260246000fd5b610709826106c0565b810181811067ffffffffffffffff82111715610728576107276106d1565b5b80604052505050565b600061073b6106a7565b90506107478282610700565b919050565b600067ffffffffffffffff821115610767576107666106d1565b5b602082029050602081019050919050565b600080fd5b600073ffffffffffffffffffffffffffffffffffffffff82169050919050565b60006107a88261077d565b9050919050565b6107b88161079d565b81146107c357600080fd5b50565b6000813590506107d5816107af565b92915050565b60006107ee6107e98461074c565b610731565b9050808382526020820190506020840283018581111561081157610810610778565b5b835b8181101561083a578061082688826107c6565b845260208401935050602081019050610813565b5050509392505050565b600082601f830112610859576108586106bb565b5b81356108698482602086016107db565b91505092915050565b600060208284031215610888576108876106b1565b5b600082013567ffffffffffffffff8111156108a6576108a56106b6565b5b6108b284828501610844565b91505092915050565b6000602082840312156108d1576108d06106b1565b5b60006108df848285016107c6565b91505092915050565b60008115159050919050565b6108fd816108e8565b82525050565b600060208201905061091860008301846108f4565b92915050565b6109278161079d565b82525050565b6000602082019050610942600083018461091e565b92915050565b600082825260208201905092915050565b7f4f776e61626c653a2063616c6c6572206973206e6f7420746865206f776e6572600082015250565b600061098f602083610948565b915061099a82610959565b602082019050919050565b600060208201905081810360008301526109be81610982565b9050919050565b7f4e487b7100000000000000000000000000000000000000000000000000000000600052603260045260246000fd5b7f4e487b7100000000000000000000000000000000000000000000000000000000600052601160045260246000fd5b6000819050919050565b6000610a3882610a23565b91507fffffffffffffffffffffffffffffffffffffffffffffffffffffffffffffffff8203610a6a57610a696109f4565b5b600182019050919050565b7f4f776e61626c653a206e6577206f776e657220697320746865207a65726f206160008201527f6464726573730000000000000000000000000000000000000000000000000000602082015250565b6000610ad1602683610948565b9150610adc82610a75565b604082019050919050565b60006020820190508181036000830152610b0081610ac4565b905091905056fea2646970667358221220707652b22f81082549eee4a20fa0e3ca08d991499febd2fe8415e2262bd95ccd64736f6c634300080f0033",
  "immutableReferences": {},
  "source": "// SPDX-License-Identifier: GPL-3.0\r\npragma solidity >=0.7.0 <0.9.0;\r\nimport \"@openzeppelin/contracts/access/Ownable.sol\";\r\ncontract Whitelist is Ownable {\r\n\r\n    mapping(address => bool) public myWhitelist;\r\n\r\n    modifier isMywhitelisted(address _addr) {\r\n        require(myWhitelist[_addr], \"WhitelistCrowdsale: beneficiary doesn't have the Whitelisted role\");\r\n        _;\r\n    }\r\n\r\n    function addMyWhitelist(address _addr) public onlyOwner() {\r\n        myWhitelist[_addr] = true;\r\n    }\r\n \r\n    function addMyWhitelist2(address[] memory _addr) public onlyOwner() {\r\n         \r\n        for(uint index = 0; index< _addr.length; index++) {\r\n              myWhitelist[_addr[index]] = true;\r\n        }\r\n      \r\n    }\r\n\r\n    function _removeMyWhitelist(address _addr) internal {\r\n        myWhitelist[_addr] = false;\r\n    } \r\n    function removeMyWhitelist(address _addr) public onlyOwner(){\r\n        _removeMyWhitelist(_addr);\r\n    }\r\n\r\n}",
  "sourcePath": "C:\\Users\\Daehwan\\Desktop\\Truffle\\truffleReact\\contracts\\Whitelist.sol",
  "compiler": {
    "name": "solc",
    "version": "0.8.15+commit.e14f2714.Emscripten.clang"
  },
  "schemaVersion": "3.4.6",
  "updatedAt": "2022-07-09T16:19:36.107Z",
  "devdoc": {
    "kind": "dev",
    "methods": {
      "owner()": {
        "details": "Returns the address of the current owner."
      },
      "renounceOwnership()": {
        "details": "Leaves the contract without owner. It will not be possible to call `onlyOwner` functions anymore. Can only be called by the current owner. NOTE: Renouncing ownership will leave the contract without an owner, thereby removing any functionality that is only available to the owner."
      },
      "transferOwnership(address)": {
        "details": "Transfers ownership of the contract to a new account (`newOwner`). Can only be called by the current owner."
      }
    },
    "version": 1
  },
  "userdoc": {
    "kind": "user",
    "methods": {},
    "version": 1
  }
}