{
	"data": {
		"bytecode": {
			"linkReferences": {},
			"object": "608060405234801561001057600080fd5b50610328806100206000396000f3fe6080604052600436106100225760003560e01c80630f3d0204146100955761005e565b3661005e577fea76936da7e733de51185273d52362d5abc78a41b970e52e5a32d35a187566c26040516100549061018e565b60405180910390a1005b7fa34784e3343c15d43f7dcaa7f7575208ff57743c4f087aade7e1f63d9f87b35c60405161008b906101ae565b60405180910390a1005b3480156100a157600080fd5b506100bc60048036038101906100b791906100fd565b6100d2565b6040516100c991906101ce565b60405180910390f35b600081836100e091906101fa565b905092915050565b6000813590506100f7816102db565b92915050565b6000806040838503121561011057600080fd5b600061011e858286016100e8565b925050602061012f858286016100e8565b9150509250929050565b60006101466015836101e9565b915061015182610289565b602082019050919050565b60006101696016836101e9565b9150610174826102b2565b602082019050919050565b61018881610250565b82525050565b600060208201905081810360008301526101a781610139565b9050919050565b600060208201905081810360008301526101c78161015c565b9050919050565b60006020820190506101e3600083018461017f565b92915050565b600082825260208201905092915050565b600061020582610250565b915061021083610250565b9250827fffffffffffffffffffffffffffffffffffffffffffffffffffffffffffffffff038211156102455761024461025a565b5b828201905092915050565b6000819050919050565b7f4e487b7100000000000000000000000000000000000000000000000000000000600052601160045260246000fd5b7f4a757374526563656976652069732063616c6c65640000000000000000000000600082015250565b7f4a75737446616c6c6261636b2069732063616c6c656400000000000000000000600082015250565b6102e481610250565b81146102ef57600080fd5b5056fea26469706673582212207ae1f4e3ceb03d1f903d188d05b1957212cb797f507fe73c25de6de0c0430c1364736f6c63430008030033",
			"opcodes": "PUSH1 0x80 PUSH1 0x40 MSTORE CALLVALUE DUP1 ISZERO PUSH2 0x10 JUMPI PUSH1 0x0 DUP1 REVERT JUMPDEST POP PUSH2 0x328 DUP1 PUSH2 0x20 PUSH1 0x0 CODECOPY PUSH1 0x0 RETURN INVALID PUSH1 0x80 PUSH1 0x40 MSTORE PUSH1 0x4 CALLDATASIZE LT PUSH2 0x22 JUMPI PUSH1 0x0 CALLDATALOAD PUSH1 0xE0 SHR DUP1 PUSH4 0xF3D0204 EQ PUSH2 0x95 JUMPI PUSH2 0x5E JUMP JUMPDEST CALLDATASIZE PUSH2 0x5E JUMPI PUSH32 0xEA76936DA7E733DE51185273D52362D5ABC78A41B970E52E5A32D35A187566C2 PUSH1 0x40 MLOAD PUSH2 0x54 SWAP1 PUSH2 0x18E JUMP JUMPDEST PUSH1 0x40 MLOAD DUP1 SWAP2 SUB SWAP1 LOG1 STOP JUMPDEST PUSH32 0xA34784E3343C15D43F7DCAA7F7575208FF57743C4F087AADE7E1F63D9F87B35C PUSH1 0x40 MLOAD PUSH2 0x8B SWAP1 PUSH2 0x1AE JUMP JUMPDEST PUSH1 0x40 MLOAD DUP1 SWAP2 SUB SWAP1 LOG1 STOP JUMPDEST CALLVALUE DUP1 ISZERO PUSH2 0xA1 JUMPI PUSH1 0x0 DUP1 REVERT JUMPDEST POP PUSH2 0xBC PUSH1 0x4 DUP1 CALLDATASIZE SUB DUP2 ADD SWAP1 PUSH2 0xB7 SWAP2 SWAP1 PUSH2 0xFD JUMP JUMPDEST PUSH2 0xD2 JUMP JUMPDEST PUSH1 0x40 MLOAD PUSH2 0xC9 SWAP2 SWAP1 PUSH2 0x1CE JUMP JUMPDEST PUSH1 0x40 MLOAD DUP1 SWAP2 SUB SWAP1 RETURN JUMPDEST PUSH1 0x0 DUP2 DUP4 PUSH2 0xE0 SWAP2 SWAP1 PUSH2 0x1FA JUMP JUMPDEST SWAP1 POP SWAP3 SWAP2 POP POP JUMP JUMPDEST PUSH1 0x0 DUP2 CALLDATALOAD SWAP1 POP PUSH2 0xF7 DUP2 PUSH2 0x2DB JUMP JUMPDEST SWAP3 SWAP2 POP POP JUMP JUMPDEST PUSH1 0x0 DUP1 PUSH1 0x40 DUP4 DUP6 SUB SLT ISZERO PUSH2 0x110 JUMPI PUSH1 0x0 DUP1 REVERT JUMPDEST PUSH1 0x0 PUSH2 0x11E DUP6 DUP3 DUP7 ADD PUSH2 0xE8 JUMP JUMPDEST SWAP3 POP POP PUSH1 0x20 PUSH2 0x12F DUP6 DUP3 DUP7 ADD PUSH2 0xE8 JUMP JUMPDEST SWAP2 POP POP SWAP3 POP SWAP3 SWAP1 POP JUMP JUMPDEST PUSH1 0x0 PUSH2 0x146 PUSH1 0x15 DUP4 PUSH2 0x1E9 JUMP JUMPDEST SWAP2 POP PUSH2 0x151 DUP3 PUSH2 0x289 JUMP JUMPDEST PUSH1 0x20 DUP3 ADD SWAP1 POP SWAP2 SWAP1 POP JUMP JUMPDEST PUSH1 0x0 PUSH2 0x169 PUSH1 0x16 DUP4 PUSH2 0x1E9 JUMP JUMPDEST SWAP2 POP PUSH2 0x174 DUP3 PUSH2 0x2B2 JUMP JUMPDEST PUSH1 0x20 DUP3 ADD SWAP1 POP SWAP2 SWAP1 POP JUMP JUMPDEST PUSH2 0x188 DUP2 PUSH2 0x250 JUMP JUMPDEST DUP3 MSTORE POP POP JUMP JUMPDEST PUSH1 0x0 PUSH1 0x20 DUP3 ADD SWAP1 POP DUP2 DUP2 SUB PUSH1 0x0 DUP4 ADD MSTORE PUSH2 0x1A7 DUP2 PUSH2 0x139 JUMP JUMPDEST SWAP1 POP SWAP2 SWAP1 POP JUMP JUMPDEST PUSH1 0x0 PUSH1 0x20 DUP3 ADD SWAP1 POP DUP2 DUP2 SUB PUSH1 0x0 DUP4 ADD MSTORE PUSH2 0x1C7 DUP2 PUSH2 0x15C JUMP JUMPDEST SWAP1 POP SWAP2 SWAP1 POP JUMP JUMPDEST PUSH1 0x0 PUSH1 0x20 DUP3 ADD SWAP1 POP PUSH2 0x1E3 PUSH1 0x0 DUP4 ADD DUP5 PUSH2 0x17F JUMP JUMPDEST SWAP3 SWAP2 POP POP JUMP JUMPDEST PUSH1 0x0 DUP3 DUP3 MSTORE PUSH1 0x20 DUP3 ADD SWAP1 POP SWAP3 SWAP2 POP POP JUMP JUMPDEST PUSH1 0x0 PUSH2 0x205 DUP3 PUSH2 0x250 JUMP JUMPDEST SWAP2 POP PUSH2 0x210 DUP4 PUSH2 0x250 JUMP JUMPDEST SWAP3 POP DUP3 PUSH32 0xFFFFFFFFFFFFFFFFFFFFFFFFFFFFFFFFFFFFFFFFFFFFFFFFFFFFFFFFFFFFFFFF SUB DUP3 GT ISZERO PUSH2 0x245 JUMPI PUSH2 0x244 PUSH2 0x25A JUMP JUMPDEST JUMPDEST DUP3 DUP3 ADD SWAP1 POP SWAP3 SWAP2 POP POP JUMP JUMPDEST PUSH1 0x0 DUP2 SWAP1 POP SWAP2 SWAP1 POP JUMP JUMPDEST PUSH32 0x4E487B7100000000000000000000000000000000000000000000000000000000 PUSH1 0x0 MSTORE PUSH1 0x11 PUSH1 0x4 MSTORE PUSH1 0x24 PUSH1 0x0 REVERT JUMPDEST PUSH32 0x4A757374526563656976652069732063616C6C65640000000000000000000000 PUSH1 0x0 DUP3 ADD MSTORE POP JUMP JUMPDEST PUSH32 0x4A75737446616C6C6261636B2069732063616C6C656400000000000000000000 PUSH1 0x0 DUP3 ADD MSTORE POP JUMP JUMPDEST PUSH2 0x2E4 DUP2 PUSH2 0x250 JUMP JUMPDEST DUP2 EQ PUSH2 0x2EF JUMPI PUSH1 0x0 DUP1 REVERT JUMPDEST POP JUMP INVALID LOG2 PUSH5 0x6970667358 0x22 SLT KECCAK256 PUSH27 0xE1F4E3CEB03D1F903D188D05B1957212CB797F507FE73C25DE6DE0 0xC0 NUMBER 0xC SGT PUSH5 0x736F6C6343 STOP ADDMOD SUB STOP CALLER "
		},
		"gasEstimates": {
			"creation": {
				"codeDepositCost": "161600",
				"executionCost": "208",
				"totalCost": "161808"
			},
			"external": {
				"": "1887",
				"addNumber(uint256,uint256)": "infinite"
			}
		},
		"methodIdentifiers": {
			"addNumber(uint256,uint256)": "0f3d0204"
		}
	},
	"abi": [
		{
			"anonymous": false,
			"inputs": [
				{
					"indexed": false,
					"internalType": "string",
					"name": "_str",
					"type": "string"
				}
			],
			"name": "JustFallback",
			"type": "event"
		},
		{
			"anonymous": false,
			"inputs": [
				{
					"indexed": false,
					"internalType": "string",
					"name": "_str",
					"type": "string"
				}
			],
			"name": "JustReceive",
			"type": "event"
		},
		{
			"stateMutability": "payable",
			"type": "fallback"
		},
		{
			"inputs": [
				{
					"internalType": "uint256",
					"name": "_num1",
					"type": "uint256"
				},
				{
					"internalType": "uint256",
					"name": "_num2",
					"type": "uint256"
				}
			],
			"name": "addNumber",
			"outputs": [
				{
					"internalType": "uint256",
					"name": "",
					"type": "uint256"
				}
			],
			"stateMutability": "pure",
			"type": "function"
		},
		{
			"stateMutability": "payable",
			"type": "receive"
		}
	]
}