{
	"data": {
		"bytecode": {
			"linkReferences": {},
			"object": "608060405234801561001057600080fd5b5060016000806101000a81548160ff0219169083600281111561003657610035610040565b5b021790555061006f565b7f4e487b7100000000000000000000000000000000000000000000000000000000600052602160045260246000fd5b6107258061007e6000396000f3fe608060405234801561001057600080fd5b50600436106100575760003560e01c8063263b50cd1461005c5780639edd930b14610066578063af10c81014610070578063ba33ed7d1461007a578063dd6fde7014610084575b600080fd5b6100646100a2565b005b61006e6101a6565b005b6100786102ab565b005b6100826103b0565b005b61008c6104b5565b604051610099919061054d565b60405180910390f35b6002808111156100b5576100b4610631565b5b60008054906101000a900460ff1660028111156100d5576100d4610631565b5b14610115576040517f08c379a000000000000000000000000000000000000000000000000000000000815260040161010c906105b1565b60405180910390fd5b60016000806101000a81548160ff0219169083600281111561013a57610139610631565b5b02179055507fd4f06352cf92b5349e2fa82bb06f38ec4dc9405cbf59deeaafe7b07801fd9c4960008054906101000a900460ff1660008054906101000a900460ff16600281111561018e5761018d610631565b5b60405161019c929190610568565b60405180910390a1565b600160028111156101ba576101b9610631565b5b60008054906101000a900460ff1660028111156101da576101d9610631565b5b1461021a576040517f08c379a0000000000000000000000000000000000000000000000000000000008152600401610211906105d1565b60405180910390fd5b60016000806101000a81548160ff0219169083600281111561023f5761023e610631565b5b02179055507fd4f06352cf92b5349e2fa82bb06f38ec4dc9405cbf59deeaafe7b07801fd9c4960008054906101000a900460ff1660008054906101000a900460ff16600281111561029357610292610631565b5b6040516102a1929190610568565b60405180910390a1565b600060028111156102bf576102be610631565b5b60008054906101000a900460ff1660028111156102df576102de610631565b5b1461031f576040517f08c379a000000000000000000000000000000000000000000000000000000000815260040161031690610591565b60405180910390fd5b60016000806101000a81548160ff0219169083600281111561034457610343610631565b5b02179055507fd4f06352cf92b5349e2fa82bb06f38ec4dc9405cbf59deeaafe7b07801fd9c4960008054906101000a900460ff1660008054906101000a900460ff16600281111561039857610397610631565b5b6040516103a6929190610568565b60405180910390a1565b600160028111156103c4576103c3610631565b5b60008054906101000a900460ff1660028111156103e4576103e3610631565b5b14610424576040517f08c379a000000000000000000000000000000000000000000000000000000000815260040161041b906105d1565b60405180910390fd5b60008060006101000a81548160ff0219169083600281111561044957610448610631565b5b02179055507fd4f06352cf92b5349e2fa82bb06f38ec4dc9405cbf59deeaafe7b07801fd9c4960008054906101000a900460ff1660008054906101000a900460ff16600281111561049d5761049c610631565b5b6040516104ab929190610568565b60405180910390a1565b60008054906101000a900460ff1681565b6104cf8161061f565b82525050565b60006104e26018836105f1565b91506104ed82610660565b602082019050919050565b60006105056017836105f1565b915061051082610689565b602082019050919050565b60006105286019836105f1565b9150610533826106b2565b602082019050919050565b61054781610615565b82525050565b600060208201905061056260008301846104c6565b92915050565b600060408201905061057d60008301856104c6565b61058a602083018461053e565b9392505050565b600060208201905081810360008301526105aa816104d5565b9050919050565b600060208201905081810360008301526105ca816104f8565b9050919050565b600060208201905081810360008301526105ea8161051b565b9050919050565b600082825260208201905092915050565b6000819050610610826106db565b919050565b6000819050919050565b600061062a82610602565b9050919050565b7f4e487b7100000000000000000000000000000000000000000000000000000000600052602160045260246000fd5b7f4c69676874204d757374204265205475726e6564204f6e210000000000000000600082015250565b7f4c69676874204d75737420426520526570616972656421000000000000000000600082015250565b7f4c69676874204d757374204265205475726e6564204f66662100000000000000600082015250565b600381106106ec576106eb610631565b5b5056fea26469706673582212202084753fac14e3256b18aba0052be7fe9140184f66428477b1370d7cb7ab1a4f64736f6c63430008070033",
			"opcodes": "PUSH1 0x80 PUSH1 0x40 MSTORE CALLVALUE DUP1 ISZERO PUSH2 0x10 JUMPI PUSH1 0x0 DUP1 REVERT JUMPDEST POP PUSH1 0x1 PUSH1 0x0 DUP1 PUSH2 0x100 EXP DUP2 SLOAD DUP2 PUSH1 0xFF MUL NOT AND SWAP1 DUP4 PUSH1 0x2 DUP2 GT ISZERO PUSH2 0x36 JUMPI PUSH2 0x35 PUSH2 0x40 JUMP JUMPDEST JUMPDEST MUL OR SWAP1 SSTORE POP PUSH2 0x6F JUMP JUMPDEST PUSH32 0x4E487B7100000000000000000000000000000000000000000000000000000000 PUSH1 0x0 MSTORE PUSH1 0x21 PUSH1 0x4 MSTORE PUSH1 0x24 PUSH1 0x0 REVERT JUMPDEST PUSH2 0x725 DUP1 PUSH2 0x7E PUSH1 0x0 CODECOPY PUSH1 0x0 RETURN INVALID PUSH1 0x80 PUSH1 0x40 MSTORE CALLVALUE DUP1 ISZERO PUSH2 0x10 JUMPI PUSH1 0x0 DUP1 REVERT JUMPDEST POP PUSH1 0x4 CALLDATASIZE LT PUSH2 0x57 JUMPI PUSH1 0x0 CALLDATALOAD PUSH1 0xE0 SHR DUP1 PUSH4 0x263B50CD EQ PUSH2 0x5C JUMPI DUP1 PUSH4 0x9EDD930B EQ PUSH2 0x66 JUMPI DUP1 PUSH4 0xAF10C810 EQ PUSH2 0x70 JUMPI DUP1 PUSH4 0xBA33ED7D EQ PUSH2 0x7A JUMPI DUP1 PUSH4 0xDD6FDE70 EQ PUSH2 0x84 JUMPI JUMPDEST PUSH1 0x0 DUP1 REVERT JUMPDEST PUSH2 0x64 PUSH2 0xA2 JUMP JUMPDEST STOP JUMPDEST PUSH2 0x6E PUSH2 0x1A6 JUMP JUMPDEST STOP JUMPDEST PUSH2 0x78 PUSH2 0x2AB JUMP JUMPDEST STOP JUMPDEST PUSH2 0x82 PUSH2 0x3B0 JUMP JUMPDEST STOP JUMPDEST PUSH2 0x8C PUSH2 0x4B5 JUMP JUMPDEST PUSH1 0x40 MLOAD PUSH2 0x99 SWAP2 SWAP1 PUSH2 0x54D JUMP JUMPDEST PUSH1 0x40 MLOAD DUP1 SWAP2 SUB SWAP1 RETURN JUMPDEST PUSH1 0x2 DUP1 DUP2 GT ISZERO PUSH2 0xB5 JUMPI PUSH2 0xB4 PUSH2 0x631 JUMP JUMPDEST JUMPDEST PUSH1 0x0 DUP1 SLOAD SWAP1 PUSH2 0x100 EXP SWAP1 DIV PUSH1 0xFF AND PUSH1 0x2 DUP2 GT ISZERO PUSH2 0xD5 JUMPI PUSH2 0xD4 PUSH2 0x631 JUMP JUMPDEST JUMPDEST EQ PUSH2 0x115 JUMPI PUSH1 0x40 MLOAD PUSH32 0x8C379A000000000000000000000000000000000000000000000000000000000 DUP2 MSTORE PUSH1 0x4 ADD PUSH2 0x10C SWAP1 PUSH2 0x5B1 JUMP JUMPDEST PUSH1 0x40 MLOAD DUP1 SWAP2 SUB SWAP1 REVERT JUMPDEST PUSH1 0x1 PUSH1 0x0 DUP1 PUSH2 0x100 EXP DUP2 SLOAD DUP2 PUSH1 0xFF MUL NOT AND SWAP1 DUP4 PUSH1 0x2 DUP2 GT ISZERO PUSH2 0x13A JUMPI PUSH2 0x139 PUSH2 0x631 JUMP JUMPDEST JUMPDEST MUL OR SWAP1 SSTORE POP PUSH32 0xD4F06352CF92B5349E2FA82BB06F38EC4DC9405CBF59DEEAAFE7B07801FD9C49 PUSH1 0x0 DUP1 SLOAD SWAP1 PUSH2 0x100 EXP SWAP1 DIV PUSH1 0xFF AND PUSH1 0x0 DUP1 SLOAD SWAP1 PUSH2 0x100 EXP SWAP1 DIV PUSH1 0xFF AND PUSH1 0x2 DUP2 GT ISZERO PUSH2 0x18E JUMPI PUSH2 0x18D PUSH2 0x631 JUMP JUMPDEST JUMPDEST PUSH1 0x40 MLOAD PUSH2 0x19C SWAP3 SWAP2 SWAP1 PUSH2 0x568 JUMP JUMPDEST PUSH1 0x40 MLOAD DUP1 SWAP2 SUB SWAP1 LOG1 JUMP JUMPDEST PUSH1 0x1 PUSH1 0x2 DUP2 GT ISZERO PUSH2 0x1BA JUMPI PUSH2 0x1B9 PUSH2 0x631 JUMP JUMPDEST JUMPDEST PUSH1 0x0 DUP1 SLOAD SWAP1 PUSH2 0x100 EXP SWAP1 DIV PUSH1 0xFF AND PUSH1 0x2 DUP2 GT ISZERO PUSH2 0x1DA JUMPI PUSH2 0x1D9 PUSH2 0x631 JUMP JUMPDEST JUMPDEST EQ PUSH2 0x21A JUMPI PUSH1 0x40 MLOAD PUSH32 0x8C379A000000000000000000000000000000000000000000000000000000000 DUP2 MSTORE PUSH1 0x4 ADD PUSH2 0x211 SWAP1 PUSH2 0x5D1 JUMP JUMPDEST PUSH1 0x40 MLOAD DUP1 SWAP2 SUB SWAP1 REVERT JUMPDEST PUSH1 0x1 PUSH1 0x0 DUP1 PUSH2 0x100 EXP DUP2 SLOAD DUP2 PUSH1 0xFF MUL NOT AND SWAP1 DUP4 PUSH1 0x2 DUP2 GT ISZERO PUSH2 0x23F JUMPI PUSH2 0x23E PUSH2 0x631 JUMP JUMPDEST JUMPDEST MUL OR SWAP1 SSTORE POP PUSH32 0xD4F06352CF92B5349E2FA82BB06F38EC4DC9405CBF59DEEAAFE7B07801FD9C49 PUSH1 0x0 DUP1 SLOAD SWAP1 PUSH2 0x100 EXP SWAP1 DIV PUSH1 0xFF AND PUSH1 0x0 DUP1 SLOAD SWAP1 PUSH2 0x100 EXP SWAP1 DIV PUSH1 0xFF AND PUSH1 0x2 DUP2 GT ISZERO PUSH2 0x293 JUMPI PUSH2 0x292 PUSH2 0x631 JUMP JUMPDEST JUMPDEST PUSH1 0x40 MLOAD PUSH2 0x2A1 SWAP3 SWAP2 SWAP1 PUSH2 0x568 JUMP JUMPDEST PUSH1 0x40 MLOAD DUP1 SWAP2 SUB SWAP1 LOG1 JUMP JUMPDEST PUSH1 0x0 PUSH1 0x2 DUP2 GT ISZERO PUSH2 0x2BF JUMPI PUSH2 0x2BE PUSH2 0x631 JUMP JUMPDEST JUMPDEST PUSH1 0x0 DUP1 SLOAD SWAP1 PUSH2 0x100 EXP SWAP1 DIV PUSH1 0xFF AND PUSH1 0x2 DUP2 GT ISZERO PUSH2 0x2DF JUMPI PUSH2 0x2DE PUSH2 0x631 JUMP JUMPDEST JUMPDEST EQ PUSH2 0x31F JUMPI PUSH1 0x40 MLOAD PUSH32 0x8C379A000000000000000000000000000000000000000000000000000000000 DUP2 MSTORE PUSH1 0x4 ADD PUSH2 0x316 SWAP1 PUSH2 0x591 JUMP JUMPDEST PUSH1 0x40 MLOAD DUP1 SWAP2 SUB SWAP1 REVERT JUMPDEST PUSH1 0x1 PUSH1 0x0 DUP1 PUSH2 0x100 EXP DUP2 SLOAD DUP2 PUSH1 0xFF MUL NOT AND SWAP1 DUP4 PUSH1 0x2 DUP2 GT ISZERO PUSH2 0x344 JUMPI PUSH2 0x343 PUSH2 0x631 JUMP JUMPDEST JUMPDEST MUL OR SWAP1 SSTORE POP PUSH32 0xD4F06352CF92B5349E2FA82BB06F38EC4DC9405CBF59DEEAAFE7B07801FD9C49 PUSH1 0x0 DUP1 SLOAD SWAP1 PUSH2 0x100 EXP SWAP1 DIV PUSH1 0xFF AND PUSH1 0x0 DUP1 SLOAD SWAP1 PUSH2 0x100 EXP SWAP1 DIV PUSH1 0xFF AND PUSH1 0x2 DUP2 GT ISZERO PUSH2 0x398 JUMPI PUSH2 0x397 PUSH2 0x631 JUMP JUMPDEST JUMPDEST PUSH1 0x40 MLOAD PUSH2 0x3A6 SWAP3 SWAP2 SWAP1 PUSH2 0x568 JUMP JUMPDEST PUSH1 0x40 MLOAD DUP1 SWAP2 SUB SWAP1 LOG1 JUMP JUMPDEST PUSH1 0x1 PUSH1 0x2 DUP2 GT ISZERO PUSH2 0x3C4 JUMPI PUSH2 0x3C3 PUSH2 0x631 JUMP JUMPDEST JUMPDEST PUSH1 0x0 DUP1 SLOAD SWAP1 PUSH2 0x100 EXP SWAP1 DIV PUSH1 0xFF AND PUSH1 0x2 DUP2 GT ISZERO PUSH2 0x3E4 JUMPI PUSH2 0x3E3 PUSH2 0x631 JUMP JUMPDEST JUMPDEST EQ PUSH2 0x424 JUMPI PUSH1 0x40 MLOAD PUSH32 0x8C379A000000000000000000000000000000000000000000000000000000000 DUP2 MSTORE PUSH1 0x4 ADD PUSH2 0x41B SWAP1 PUSH2 0x5D1 JUMP JUMPDEST PUSH1 0x40 MLOAD DUP1 SWAP2 SUB SWAP1 REVERT JUMPDEST PUSH1 0x0 DUP1 PUSH1 0x0 PUSH2 0x100 EXP DUP2 SLOAD DUP2 PUSH1 0xFF MUL NOT AND SWAP1 DUP4 PUSH1 0x2 DUP2 GT ISZERO PUSH2 0x449 JUMPI PUSH2 0x448 PUSH2 0x631 JUMP JUMPDEST JUMPDEST MUL OR SWAP1 SSTORE POP PUSH32 0xD4F06352CF92B5349E2FA82BB06F38EC4DC9405CBF59DEEAAFE7B07801FD9C49 PUSH1 0x0 DUP1 SLOAD SWAP1 PUSH2 0x100 EXP SWAP1 DIV PUSH1 0xFF AND PUSH1 0x0 DUP1 SLOAD SWAP1 PUSH2 0x100 EXP SWAP1 DIV PUSH1 0xFF AND PUSH1 0x2 DUP2 GT ISZERO PUSH2 0x49D JUMPI PUSH2 0x49C PUSH2 0x631 JUMP JUMPDEST JUMPDEST PUSH1 0x40 MLOAD PUSH2 0x4AB SWAP3 SWAP2 SWAP1 PUSH2 0x568 JUMP JUMPDEST PUSH1 0x40 MLOAD DUP1 SWAP2 SUB SWAP1 LOG1 JUMP JUMPDEST PUSH1 0x0 DUP1 SLOAD SWAP1 PUSH2 0x100 EXP SWAP1 DIV PUSH1 0xFF AND DUP2 JUMP JUMPDEST PUSH2 0x4CF DUP2 PUSH2 0x61F JUMP JUMPDEST DUP3 MSTORE POP POP JUMP JUMPDEST PUSH1 0x0 PUSH2 0x4E2 PUSH1 0x18 DUP4 PUSH2 0x5F1 JUMP JUMPDEST SWAP2 POP PUSH2 0x4ED DUP3 PUSH2 0x660 JUMP JUMPDEST PUSH1 0x20 DUP3 ADD SWAP1 POP SWAP2 SWAP1 POP JUMP JUMPDEST PUSH1 0x0 PUSH2 0x505 PUSH1 0x17 DUP4 PUSH2 0x5F1 JUMP JUMPDEST SWAP2 POP PUSH2 0x510 DUP3 PUSH2 0x689 JUMP JUMPDEST PUSH1 0x20 DUP3 ADD SWAP1 POP SWAP2 SWAP1 POP JUMP JUMPDEST PUSH1 0x0 PUSH2 0x528 PUSH1 0x19 DUP4 PUSH2 0x5F1 JUMP JUMPDEST SWAP2 POP PUSH2 0x533 DUP3 PUSH2 0x6B2 JUMP JUMPDEST PUSH1 0x20 DUP3 ADD SWAP1 POP SWAP2 SWAP1 POP JUMP JUMPDEST PUSH2 0x547 DUP2 PUSH2 0x615 JUMP JUMPDEST DUP3 MSTORE POP POP JUMP JUMPDEST PUSH1 0x0 PUSH1 0x20 DUP3 ADD SWAP1 POP PUSH2 0x562 PUSH1 0x0 DUP4 ADD DUP5 PUSH2 0x4C6 JUMP JUMPDEST SWAP3 SWAP2 POP POP JUMP JUMPDEST PUSH1 0x0 PUSH1 0x40 DUP3 ADD SWAP1 POP PUSH2 0x57D PUSH1 0x0 DUP4 ADD DUP6 PUSH2 0x4C6 JUMP JUMPDEST PUSH2 0x58A PUSH1 0x20 DUP4 ADD DUP5 PUSH2 0x53E JUMP JUMPDEST SWAP4 SWAP3 POP POP POP JUMP JUMPDEST PUSH1 0x0 PUSH1 0x20 DUP3 ADD SWAP1 POP DUP2 DUP2 SUB PUSH1 0x0 DUP4 ADD MSTORE PUSH2 0x5AA DUP2 PUSH2 0x4D5 JUMP JUMPDEST SWAP1 POP SWAP2 SWAP1 POP JUMP JUMPDEST PUSH1 0x0 PUSH1 0x20 DUP3 ADD SWAP1 POP DUP2 DUP2 SUB PUSH1 0x0 DUP4 ADD MSTORE PUSH2 0x5CA DUP2 PUSH2 0x4F8 JUMP JUMPDEST SWAP1 POP SWAP2 SWAP1 POP JUMP JUMPDEST PUSH1 0x0 PUSH1 0x20 DUP3 ADD SWAP1 POP DUP2 DUP2 SUB PUSH1 0x0 DUP4 ADD MSTORE PUSH2 0x5EA DUP2 PUSH2 0x51B JUMP JUMPDEST SWAP1 POP SWAP2 SWAP1 POP JUMP JUMPDEST PUSH1 0x0 DUP3 DUP3 MSTORE PUSH1 0x20 DUP3 ADD SWAP1 POP SWAP3 SWAP2 POP POP JUMP JUMPDEST PUSH1 0x0 DUP2 SWAP1 POP PUSH2 0x610 DUP3 PUSH2 0x6DB JUMP JUMPDEST SWAP2 SWAP1 POP JUMP JUMPDEST PUSH1 0x0 DUP2 SWAP1 POP SWAP2 SWAP1 POP JUMP JUMPDEST PUSH1 0x0 PUSH2 0x62A DUP3 PUSH2 0x602 JUMP JUMPDEST SWAP1 POP SWAP2 SWAP1 POP JUMP JUMPDEST PUSH32 0x4E487B7100000000000000000000000000000000000000000000000000000000 PUSH1 0x0 MSTORE PUSH1 0x21 PUSH1 0x4 MSTORE PUSH1 0x24 PUSH1 0x0 REVERT JUMPDEST PUSH32 0x4C69676874204D757374204265205475726E6564204F6E210000000000000000 PUSH1 0x0 DUP3 ADD MSTORE POP JUMP JUMPDEST PUSH32 0x4C69676874204D75737420426520526570616972656421000000000000000000 PUSH1 0x0 DUP3 ADD MSTORE POP JUMP JUMPDEST PUSH32 0x4C69676874204D757374204265205475726E6564204F66662100000000000000 PUSH1 0x0 DUP3 ADD MSTORE POP JUMP JUMPDEST PUSH1 0x3 DUP2 LT PUSH2 0x6EC JUMPI PUSH2 0x6EB PUSH2 0x631 JUMP JUMPDEST JUMPDEST POP JUMP INVALID LOG2 PUSH5 0x6970667358 0x22 SLT KECCAK256 KECCAK256 DUP5 PUSH22 0x3FAC14E3256B18ABA0052BE7FE9140184F66428477B1 CALLDATACOPY 0xD PUSH29 0xB7AB1A4F64736F6C634300080700330000000000000000000000000000 "
		},
		"gasEstimates": {
			"creation": {
				"codeDepositCost": "365800",
				"executionCost": "24704",
				"totalCost": "390504"
			},
			"external": {
				"lightStatus()": "2623",
				"rePair()": "32576",
				"rePairDone()": "32554",
				"turnOff()": "32598",
				"turnOn()": "32620"
			}
		},
		"methodIdentifiers": {
			"lightStatus()": "dd6fde70",
			"rePair()": "9edd930b",
			"rePairDone()": "263b50cd",
			"turnOff()": "af10c810",
			"turnOn()": "ba33ed7d"
		}
	},
	"abi": [
		{
			"inputs": [],
			"stateMutability": "nonpayable",
			"type": "constructor"
		},
		{
			"anonymous": false,
			"inputs": [
				{
					"indexed": false,
					"internalType": "enum lec38.Light",
					"name": "_lightStatus",
					"type": "uint8"
				},
				{
					"indexed": false,
					"internalType": "uint256",
					"name": "_lightStatusInInt",
					"type": "uint256"
				}
			],
			"name": "currentStatus",
			"type": "event"
		},
		{
			"inputs": [],
			"name": "lightStatus",
			"outputs": [
				{
					"internalType": "enum lec38.Light",
					"name": "",
					"type": "uint8"
				}
			],
			"stateMutability": "view",
			"type": "function"
		},
		{
			"inputs": [],
			"name": "rePair",
			"outputs": [],
			"stateMutability": "nonpayable",
			"type": "function"
		},
		{
			"inputs": [],
			"name": "rePairDone",
			"outputs": [],
			"stateMutability": "nonpayable",
			"type": "function"
		},
		{
			"inputs": [],
			"name": "turnOff",
			"outputs": [],
			"stateMutability": "nonpayable",
			"type": "function"
		},
		{
			"inputs": [],
			"name": "turnOn",
			"outputs": [],
			"stateMutability": "nonpayable",
			"type": "function"
		}
	]
}