{
	"data": {
		"bytecode": {
			"linkReferences": {},
			"object": "608060405234801561001057600080fd5b506102a7806100206000396000f3fe608060405234801561001057600080fd5b506004361061004c5760003560e01c806337117b83146100515780635867cab5146100815780637a927e8f146100b1578063acd9fd65146100e1575b600080fd5b61006b600480360381019061006691906101f4565b610111565b6040516100789190610230565b60405180910390f35b61009b600480360381019061009691906101f4565b610150565b6040516100a89190610230565b60405180910390f35b6100cb60048036038101906100c691906101f4565b6101a1565b6040516100d89190610230565b60405180910390f35b6100fb60048036038101906100f691906101f4565b6101c0565b6040516101089190610230565b60405180910390f35b600060038214156101265761022b905061014b565b600582101580156101375750600b82105b15610146576103e7905061014b565b600090505b919050565b600060038214156101655761022b905061019c565b600582101580156101765750600b82105b15610185576103e7905061019c565b6007821415610197576007905061019c565b600090505b919050565b600060038214156101b65761022b90506101bb565b606f90505b919050565b600060038214156101d55761022b90506101da565b606f90505b919050565b6000813590506101ee8161025a565b92915050565b60006020828403121561020a57610209610255565b5b6000610218848285016101df565b91505092915050565b61022a8161024b565b82525050565b60006020820190506102456000830184610221565b92915050565b6000819050919050565b600080fd5b6102638161024b565b811461026e57600080fd5b5056fea2646970667358221220523848478f326993b034f63ce44d86a10fc0ccd62fa960f4a6889c3e5e37017364736f6c63430008070033",
			"opcodes": "PUSH1 0x80 PUSH1 0x40 MSTORE CALLVALUE DUP1 ISZERO PUSH2 0x10 JUMPI PUSH1 0x0 DUP1 REVERT JUMPDEST POP PUSH2 0x2A7 DUP1 PUSH2 0x20 PUSH1 0x0 CODECOPY PUSH1 0x0 RETURN INVALID PUSH1 0x80 PUSH1 0x40 MSTORE CALLVALUE DUP1 ISZERO PUSH2 0x10 JUMPI PUSH1 0x0 DUP1 REVERT JUMPDEST POP PUSH1 0x4 CALLDATASIZE LT PUSH2 0x4C JUMPI PUSH1 0x0 CALLDATALOAD PUSH1 0xE0 SHR DUP1 PUSH4 0x37117B83 EQ PUSH2 0x51 JUMPI DUP1 PUSH4 0x5867CAB5 EQ PUSH2 0x81 JUMPI DUP1 PUSH4 0x7A927E8F EQ PUSH2 0xB1 JUMPI DUP1 PUSH4 0xACD9FD65 EQ PUSH2 0xE1 JUMPI JUMPDEST PUSH1 0x0 DUP1 REVERT JUMPDEST PUSH2 0x6B PUSH1 0x4 DUP1 CALLDATASIZE SUB DUP2 ADD SWAP1 PUSH2 0x66 SWAP2 SWAP1 PUSH2 0x1F4 JUMP JUMPDEST PUSH2 0x111 JUMP JUMPDEST PUSH1 0x40 MLOAD PUSH2 0x78 SWAP2 SWAP1 PUSH2 0x230 JUMP JUMPDEST PUSH1 0x40 MLOAD DUP1 SWAP2 SUB SWAP1 RETURN JUMPDEST PUSH2 0x9B PUSH1 0x4 DUP1 CALLDATASIZE SUB DUP2 ADD SWAP1 PUSH2 0x96 SWAP2 SWAP1 PUSH2 0x1F4 JUMP JUMPDEST PUSH2 0x150 JUMP JUMPDEST PUSH1 0x40 MLOAD PUSH2 0xA8 SWAP2 SWAP1 PUSH2 0x230 JUMP JUMPDEST PUSH1 0x40 MLOAD DUP1 SWAP2 SUB SWAP1 RETURN JUMPDEST PUSH2 0xCB PUSH1 0x4 DUP1 CALLDATASIZE SUB DUP2 ADD SWAP1 PUSH2 0xC6 SWAP2 SWAP1 PUSH2 0x1F4 JUMP JUMPDEST PUSH2 0x1A1 JUMP JUMPDEST PUSH1 0x40 MLOAD PUSH2 0xD8 SWAP2 SWAP1 PUSH2 0x230 JUMP JUMPDEST PUSH1 0x40 MLOAD DUP1 SWAP2 SUB SWAP1 RETURN JUMPDEST PUSH2 0xFB PUSH1 0x4 DUP1 CALLDATASIZE SUB DUP2 ADD SWAP1 PUSH2 0xF6 SWAP2 SWAP1 PUSH2 0x1F4 JUMP JUMPDEST PUSH2 0x1C0 JUMP JUMPDEST PUSH1 0x40 MLOAD PUSH2 0x108 SWAP2 SWAP1 PUSH2 0x230 JUMP JUMPDEST PUSH1 0x40 MLOAD DUP1 SWAP2 SUB SWAP1 RETURN JUMPDEST PUSH1 0x0 PUSH1 0x3 DUP3 EQ ISZERO PUSH2 0x126 JUMPI PUSH2 0x22B SWAP1 POP PUSH2 0x14B JUMP JUMPDEST PUSH1 0x5 DUP3 LT ISZERO DUP1 ISZERO PUSH2 0x137 JUMPI POP PUSH1 0xB DUP3 LT JUMPDEST ISZERO PUSH2 0x146 JUMPI PUSH2 0x3E7 SWAP1 POP PUSH2 0x14B JUMP JUMPDEST PUSH1 0x0 SWAP1 POP JUMPDEST SWAP2 SWAP1 POP JUMP JUMPDEST PUSH1 0x0 PUSH1 0x3 DUP3 EQ ISZERO PUSH2 0x165 JUMPI PUSH2 0x22B SWAP1 POP PUSH2 0x19C JUMP JUMPDEST PUSH1 0x5 DUP3 LT ISZERO DUP1 ISZERO PUSH2 0x176 JUMPI POP PUSH1 0xB DUP3 LT JUMPDEST ISZERO PUSH2 0x185 JUMPI PUSH2 0x3E7 SWAP1 POP PUSH2 0x19C JUMP JUMPDEST PUSH1 0x7 DUP3 EQ ISZERO PUSH2 0x197 JUMPI PUSH1 0x7 SWAP1 POP PUSH2 0x19C JUMP JUMPDEST PUSH1 0x0 SWAP1 POP JUMPDEST SWAP2 SWAP1 POP JUMP JUMPDEST PUSH1 0x0 PUSH1 0x3 DUP3 EQ ISZERO PUSH2 0x1B6 JUMPI PUSH2 0x22B SWAP1 POP PUSH2 0x1BB JUMP JUMPDEST PUSH1 0x6F SWAP1 POP JUMPDEST SWAP2 SWAP1 POP JUMP JUMPDEST PUSH1 0x0 PUSH1 0x3 DUP3 EQ ISZERO PUSH2 0x1D5 JUMPI PUSH2 0x22B SWAP1 POP PUSH2 0x1DA JUMP JUMPDEST PUSH1 0x6F SWAP1 POP JUMPDEST SWAP2 SWAP1 POP JUMP JUMPDEST PUSH1 0x0 DUP2 CALLDATALOAD SWAP1 POP PUSH2 0x1EE DUP2 PUSH2 0x25A JUMP JUMPDEST SWAP3 SWAP2 POP POP JUMP JUMPDEST PUSH1 0x0 PUSH1 0x20 DUP3 DUP5 SUB SLT ISZERO PUSH2 0x20A JUMPI PUSH2 0x209 PUSH2 0x255 JUMP JUMPDEST JUMPDEST PUSH1 0x0 PUSH2 0x218 DUP5 DUP3 DUP6 ADD PUSH2 0x1DF JUMP JUMPDEST SWAP2 POP POP SWAP3 SWAP2 POP POP JUMP JUMPDEST PUSH2 0x22A DUP2 PUSH2 0x24B JUMP JUMPDEST DUP3 MSTORE POP POP JUMP JUMPDEST PUSH1 0x0 PUSH1 0x20 DUP3 ADD SWAP1 POP PUSH2 0x245 PUSH1 0x0 DUP4 ADD DUP5 PUSH2 0x221 JUMP JUMPDEST SWAP3 SWAP2 POP POP JUMP JUMPDEST PUSH1 0x0 DUP2 SWAP1 POP SWAP2 SWAP1 POP JUMP JUMPDEST PUSH1 0x0 DUP1 REVERT JUMPDEST PUSH2 0x263 DUP2 PUSH2 0x24B JUMP JUMPDEST DUP2 EQ PUSH2 0x26E JUMPI PUSH1 0x0 DUP1 REVERT JUMPDEST POP JUMP INVALID LOG2 PUSH5 0x6970667358 0x22 SLT KECCAK256 MSTORE CODESIZE BASEFEE SELFBALANCE DUP16 ORIGIN PUSH10 0x93B034F63CE44D86A10F 0xC0 0xCC 0xD6 0x2F 0xA9 PUSH1 0xF4 0xA6 DUP9 SWAP13 RETURNDATACOPY 0x5E CALLDATACOPY ADD PUSH20 0x64736F6C63430008070033000000000000000000 "
		},
		"gasEstimates": {
			"creation": {
				"codeDepositCost": "135800",
				"executionCost": "183",
				"totalCost": "135983"
			},
			"external": {
				"fun1(uint256)": "infinite",
				"fun2(uint256)": "infinite",
				"fun3(uint256)": "infinite",
				"fun4(uint256)": "infinite"
			}
		},
		"methodIdentifiers": {
			"fun1(uint256)": "acd9fd65",
			"fun2(uint256)": "7a927e8f",
			"fun3(uint256)": "37117b83",
			"fun4(uint256)": "5867cab5"
		}
	},
	"abi": [
		{
			"inputs": [
				{
					"internalType": "uint256",
					"name": "_a",
					"type": "uint256"
				}
			],
			"name": "fun1",
			"outputs": [
				{
					"internalType": "uint256",
					"name": "",
					"type": "uint256"
				}
			],
			"stateMutability": "pure",
			"type": "function"
		},
		{
			"inputs": [
				{
					"internalType": "uint256",
					"name": "_a",
					"type": "uint256"
				}
			],
			"name": "fun2",
			"outputs": [
				{
					"internalType": "uint256",
					"name": "",
					"type": "uint256"
				}
			],
			"stateMutability": "pure",
			"type": "function"
		},
		{
			"inputs": [
				{
					"internalType": "uint256",
					"name": "_a",
					"type": "uint256"
				}
			],
			"name": "fun3",
			"outputs": [
				{
					"internalType": "uint256",
					"name": "",
					"type": "uint256"
				}
			],
			"stateMutability": "pure",
			"type": "function"
		},
		{
			"inputs": [
				{
					"internalType": "uint256",
					"name": "_a",
					"type": "uint256"
				}
			],
			"name": "fun4",
			"outputs": [
				{
					"internalType": "uint256",
					"name": "",
					"type": "uint256"
				}
			],
			"stateMutability": "pure",
			"type": "function"
		}
	]
}