{
	"data": {
		"bytecode": {
			"linkReferences": {},
			"object": "608060405234801561001057600080fd5b50610288806100206000396000f3fe608060405234801561001057600080fd5b50600436106100415760003560e01c80634542295f1461004657806360489833146100645780637122615314610082575b600080fd5b61004e6100a0565b60405161005b919061015f565b60405180910390f35b61006c6100da565b604051610079919061015f565b60405180910390f35b61008a610114565b604051610097919061015f565b60405180910390f35b6000806000905060005b60028110156100d25780826100bf919061017a565b9150806100cb906101da565b90506100aa565b508091505090565b600080600090506000600890505b80826100f4919061017a565b91508080610101906101da565b915050600a81116100e857819250505090565b6000806000905060005b6002811015610148578082610133919061017a565b91508080610140906101da565b91505061011e565b819250505090565b610159816101d0565b82525050565b60006020820190506101746000830184610150565b92915050565b6000610185826101d0565b9150610190836101d0565b9250827fffffffffffffffffffffffffffffffffffffffffffffffffffffffffffffffff038211156101c5576101c4610223565b5b828201905092915050565b6000819050919050565b60006101e5826101d0565b91507fffffffffffffffffffffffffffffffffffffffffffffffffffffffffffffffff82141561021857610217610223565b5b600182019050919050565b7f4e487b7100000000000000000000000000000000000000000000000000000000600052601160045260246000fdfea2646970667358221220b40b2fa652eac49f7ad9e6f8272441ab1e973704d4c68aca3698609547dfbab564736f6c63430008070033",
			"opcodes": "PUSH1 0x80 PUSH1 0x40 MSTORE CALLVALUE DUP1 ISZERO PUSH2 0x10 JUMPI PUSH1 0x0 DUP1 REVERT JUMPDEST POP PUSH2 0x288 DUP1 PUSH2 0x20 PUSH1 0x0 CODECOPY PUSH1 0x0 RETURN INVALID PUSH1 0x80 PUSH1 0x40 MSTORE CALLVALUE DUP1 ISZERO PUSH2 0x10 JUMPI PUSH1 0x0 DUP1 REVERT JUMPDEST POP PUSH1 0x4 CALLDATASIZE LT PUSH2 0x41 JUMPI PUSH1 0x0 CALLDATALOAD PUSH1 0xE0 SHR DUP1 PUSH4 0x4542295F EQ PUSH2 0x46 JUMPI DUP1 PUSH4 0x60489833 EQ PUSH2 0x64 JUMPI DUP1 PUSH4 0x71226153 EQ PUSH2 0x82 JUMPI JUMPDEST PUSH1 0x0 DUP1 REVERT JUMPDEST PUSH2 0x4E PUSH2 0xA0 JUMP JUMPDEST PUSH1 0x40 MLOAD PUSH2 0x5B SWAP2 SWAP1 PUSH2 0x15F JUMP JUMPDEST PUSH1 0x40 MLOAD DUP1 SWAP2 SUB SWAP1 RETURN JUMPDEST PUSH2 0x6C PUSH2 0xDA JUMP JUMPDEST PUSH1 0x40 MLOAD PUSH2 0x79 SWAP2 SWAP1 PUSH2 0x15F JUMP JUMPDEST PUSH1 0x40 MLOAD DUP1 SWAP2 SUB SWAP1 RETURN JUMPDEST PUSH2 0x8A PUSH2 0x114 JUMP JUMPDEST PUSH1 0x40 MLOAD PUSH2 0x97 SWAP2 SWAP1 PUSH2 0x15F JUMP JUMPDEST PUSH1 0x40 MLOAD DUP1 SWAP2 SUB SWAP1 RETURN JUMPDEST PUSH1 0x0 DUP1 PUSH1 0x0 SWAP1 POP PUSH1 0x0 JUMPDEST PUSH1 0x2 DUP2 LT ISZERO PUSH2 0xD2 JUMPI DUP1 DUP3 PUSH2 0xBF SWAP2 SWAP1 PUSH2 0x17A JUMP JUMPDEST SWAP2 POP DUP1 PUSH2 0xCB SWAP1 PUSH2 0x1DA JUMP JUMPDEST SWAP1 POP PUSH2 0xAA JUMP JUMPDEST POP DUP1 SWAP2 POP POP SWAP1 JUMP JUMPDEST PUSH1 0x0 DUP1 PUSH1 0x0 SWAP1 POP PUSH1 0x0 PUSH1 0x8 SWAP1 POP JUMPDEST DUP1 DUP3 PUSH2 0xF4 SWAP2 SWAP1 PUSH2 0x17A JUMP JUMPDEST SWAP2 POP DUP1 DUP1 PUSH2 0x101 SWAP1 PUSH2 0x1DA JUMP JUMPDEST SWAP2 POP POP PUSH1 0xA DUP2 GT PUSH2 0xE8 JUMPI DUP2 SWAP3 POP POP POP SWAP1 JUMP JUMPDEST PUSH1 0x0 DUP1 PUSH1 0x0 SWAP1 POP PUSH1 0x0 JUMPDEST PUSH1 0x2 DUP2 LT ISZERO PUSH2 0x148 JUMPI DUP1 DUP3 PUSH2 0x133 SWAP2 SWAP1 PUSH2 0x17A JUMP JUMPDEST SWAP2 POP DUP1 DUP1 PUSH2 0x140 SWAP1 PUSH2 0x1DA JUMP JUMPDEST SWAP2 POP POP PUSH2 0x11E JUMP JUMPDEST DUP2 SWAP3 POP POP POP SWAP1 JUMP JUMPDEST PUSH2 0x159 DUP2 PUSH2 0x1D0 JUMP JUMPDEST DUP3 MSTORE POP POP JUMP JUMPDEST PUSH1 0x0 PUSH1 0x20 DUP3 ADD SWAP1 POP PUSH2 0x174 PUSH1 0x0 DUP4 ADD DUP5 PUSH2 0x150 JUMP JUMPDEST SWAP3 SWAP2 POP POP JUMP JUMPDEST PUSH1 0x0 PUSH2 0x185 DUP3 PUSH2 0x1D0 JUMP JUMPDEST SWAP2 POP PUSH2 0x190 DUP4 PUSH2 0x1D0 JUMP JUMPDEST SWAP3 POP DUP3 PUSH32 0xFFFFFFFFFFFFFFFFFFFFFFFFFFFFFFFFFFFFFFFFFFFFFFFFFFFFFFFFFFFFFFFF SUB DUP3 GT ISZERO PUSH2 0x1C5 JUMPI PUSH2 0x1C4 PUSH2 0x223 JUMP JUMPDEST JUMPDEST DUP3 DUP3 ADD SWAP1 POP SWAP3 SWAP2 POP POP JUMP JUMPDEST PUSH1 0x0 DUP2 SWAP1 POP SWAP2 SWAP1 POP JUMP JUMPDEST PUSH1 0x0 PUSH2 0x1E5 DUP3 PUSH2 0x1D0 JUMP JUMPDEST SWAP2 POP PUSH32 0xFFFFFFFFFFFFFFFFFFFFFFFFFFFFFFFFFFFFFFFFFFFFFFFFFFFFFFFFFFFFFFFF DUP3 EQ ISZERO PUSH2 0x218 JUMPI PUSH2 0x217 PUSH2 0x223 JUMP JUMPDEST JUMPDEST PUSH1 0x1 DUP3 ADD SWAP1 POP SWAP2 SWAP1 POP JUMP JUMPDEST PUSH32 0x4E487B7100000000000000000000000000000000000000000000000000000000 PUSH1 0x0 MSTORE PUSH1 0x11 PUSH1 0x4 MSTORE PUSH1 0x24 PUSH1 0x0 REVERT INVALID LOG2 PUSH5 0x6970667358 0x22 SLT KECCAK256 0xB4 SIGNEXTEND 0x2F 0xA6 MSTORE 0xEA 0xC4 SWAP16 PUSH27 0xD9E6F8272441AB1E973704D4C68ACA3698609547DFBAB564736F6C PUSH4 0x43000807 STOP CALLER "
		},
		"gasEstimates": {
			"creation": {
				"codeDepositCost": "129600",
				"executionCost": "177",
				"totalCost": "129777"
			},
			"external": {
				"do_whilFun()": "infinite",
				"forFun()": "infinite",
				"whileFun()": "infinite"
			}
		},
		"methodIdentifiers": {
			"do_whilFun()": "60489833",
			"forFun()": "4542295f",
			"whileFun()": "71226153"
		}
	},
	"abi": [
		{
			"inputs": [],
			"name": "do_whilFun",
			"outputs": [
				{
					"internalType": "uint256",
					"name": "",
					"type": "uint256"
				}
			],
			"stateMutability": "pure",
			"type": "function"
		},
		{
			"inputs": [],
			"name": "forFun",
			"outputs": [
				{
					"internalType": "uint256",
					"name": "",
					"type": "uint256"
				}
			],
			"stateMutability": "pure",
			"type": "function"
		},
		{
			"inputs": [],
			"name": "whileFun",
			"outputs": [
				{
					"internalType": "uint256",
					"name": "",
					"type": "uint256"
				}
			],
			"stateMutability": "pure",
			"type": "function"
		}
	]
}