{
	"Variable,Function/lec2.sol": {
		"lec2": {
			"abi": [
				{
					"inputs": [],
					"name": "a",
					"outputs": [
						{
							"internalType": "uint256",
							"name": "",
							"type": "uint256"
						}
					],
					"stateMutability": "view",
					"type": "function"
				},
				{
					"inputs": [],
					"name": "fun1",
					"outputs": [],
					"stateMutability": "nonpayable",
					"type": "function"
				},
				{
					"inputs": [
						{
							"internalType": "uint256",
							"name": "_num",
							"type": "uint256"
						}
					],
					"name": "fun2",
					"outputs": [],
					"stateMutability": "nonpayable",
					"type": "function"
				},
				{
					"inputs": [],
					"name": "fun2_1",
					"outputs": [],
					"stateMutability": "nonpayable",
					"type": "function"
				},
				{
					"inputs": [],
					"name": "fun3",
					"outputs": [
						{
							"internalType": "uint256",
							"name": "",
							"type": "uint256"
						}
					],
					"stateMutability": "nonpayable",
					"type": "function"
				},
				{
					"inputs": [
						{
							"internalType": "uint256",
							"name": "_num",
							"type": "uint256"
						}
					],
					"name": "fun4",
					"outputs": [
						{
							"internalType": "uint256",
							"name": "",
							"type": "uint256"
						}
					],
					"stateMutability": "nonpayable",
					"type": "function"
				}
			],
			"devdoc": {
				"kind": "dev",
				"methods": {},
				"version": 1
			},
			"evm": {
				"assembly": "    /* \"Variable,Function/lec2.sol\":74:1698  contract lec2 {\r... */\n  mstore(0x40, 0x80)\n    /* \"Variable,Function/lec2.sol\":1312:1313  1 */\n  0x01\n    /* \"Variable,Function/lec2.sol\":1296:1313  uint public a = 1 */\n  0x00\n  sstore\n    /* \"Variable,Function/lec2.sol\":74:1698  contract lec2 {\r... */\n  callvalue\n  dup1\n  iszero\n  tag_1\n  jumpi\n  0x00\n  dup1\n  revert\ntag_1:\n  pop\n  dataSize(sub_0)\n  dup1\n  dataOffset(sub_0)\n  0x00\n  codecopy\n  0x00\n  return\nstop\n\nsub_0: assembly {\n        /* \"Variable,Function/lec2.sol\":74:1698  contract lec2 {\r... */\n      mstore(0x40, 0x80)\n      callvalue\n      dup1\n      iszero\n      tag_1\n      jumpi\n      0x00\n      dup1\n      revert\n    tag_1:\n      pop\n      jumpi(tag_2, lt(calldatasize, 0x04))\n      shr(0xe0, calldataload(0x00))\n      dup1\n      0x0dbe671f\n      eq\n      tag_3\n      jumpi\n      dup1\n      0x446a45b7\n      eq\n      tag_4\n      jumpi\n      dup1\n      0x5867cab5\n      eq\n      tag_5\n      jumpi\n      dup1\n      0x7a927e8f\n      eq\n      tag_6\n      jumpi\n      dup1\n      0x7b8239fa\n      eq\n      tag_7\n      jumpi\n      dup1\n      0x904a47d8\n      eq\n      tag_8\n      jumpi\n    tag_2:\n      0x00\n      dup1\n      revert\n        /* \"Variable,Function/lec2.sol\":1296:1313  uint public a = 1 */\n    tag_3:\n      tag_9\n      tag_10\n      jump\t// in\n    tag_9:\n      mload(0x40)\n      tag_11\n      swap2\n      swap1\n      tag_12\n      jump\t// in\n    tag_11:\n      mload(0x40)\n      dup1\n      swap2\n      sub\n      swap1\n      return\n        /* \"Variable,Function/lec2.sol\":1327:1374  function fun1() public {\r... */\n    tag_4:\n      tag_13\n      tag_14\n      jump\t// in\n    tag_13:\n      stop\n        /* \"Variable,Function/lec2.sol\":1596:1691  function fun4(uint _num) public returns(uint){\r... */\n    tag_5:\n      tag_15\n      0x04\n      dup1\n      calldatasize\n      sub\n      dup2\n      add\n      swap1\n      tag_16\n      swap2\n      swap1\n      tag_17\n      jump\t// in\n    tag_16:\n      tag_18\n      jump\t// in\n    tag_15:\n      mload(0x40)\n      tag_19\n      swap2\n      swap1\n      tag_12\n      jump\t// in\n    tag_19:\n      mload(0x40)\n      dup1\n      swap2\n      sub\n      swap1\n      return\n        /* \"Variable,Function/lec2.sol\":1382:1443  function fun2(uint _num) external {\r... */\n    tag_6:\n      tag_20\n      0x04\n      dup1\n      calldatasize\n      sub\n      dup2\n      add\n      swap1\n      tag_21\n      swap2\n      swap1\n      tag_17\n      jump\t// in\n    tag_21:\n      tag_22\n      jump\t// in\n    tag_20:\n      stop\n        /* \"Variable,Function/lec2.sol\":1508:1588  function fun3() public returns(uint) {\r... */\n    tag_7:\n      tag_23\n      tag_24\n      jump\t// in\n    tag_23:\n      mload(0x40)\n      tag_25\n      swap2\n      swap1\n      tag_12\n      jump\t// in\n    tag_25:\n      mload(0x40)\n      dup1\n      swap2\n      sub\n      swap1\n      return\n        /* \"Variable,Function/lec2.sol\":1449:1500  function fun2_1() external {\r... */\n    tag_8:\n      tag_26\n      tag_27\n      jump\t// in\n    tag_26:\n      stop\n        /* \"Variable,Function/lec2.sol\":1296:1313  uint public a = 1 */\n    tag_10:\n      sload(0x00)\n      dup2\n      jump\t// out\n        /* \"Variable,Function/lec2.sol\":1327:1374  function fun1() public {\r... */\n    tag_14:\n        /* \"Variable,Function/lec2.sol\":1365:1366  5 */\n      0x05\n        /* \"Variable,Function/lec2.sol\":1361:1362  a */\n      0x00\n        /* \"Variable,Function/lec2.sol\":1361:1366  a = 5 */\n      dup2\n      swap1\n      sstore\n      pop\n        /* \"Variable,Function/lec2.sol\":1327:1374  function fun1() public {\r... */\n      jump\t// out\n        /* \"Variable,Function/lec2.sol\":1596:1691  function fun4(uint _num) public returns(uint){\r... */\n    tag_18:\n        /* \"Variable,Function/lec2.sol\":1636:1640  uint */\n      0x00\n        /* \"Variable,Function/lec2.sol\":1660:1664  _num */\n      dup2\n        /* \"Variable,Function/lec2.sol\":1656:1657  a */\n      sload(0x00)\n        /* \"Variable,Function/lec2.sol\":1656:1664  a + _num */\n      tag_30\n      swap2\n      swap1\n      tag_31\n      jump\t// in\n    tag_30:\n        /* \"Variable,Function/lec2.sol\":1652:1653  a */\n      0x00\n        /* \"Variable,Function/lec2.sol\":1652:1664  a = a + _num */\n      dup2\n      swap1\n      sstore\n      pop\n        /* \"Variable,Function/lec2.sol\":1682:1683  a */\n      sload(0x00)\n        /* \"Variable,Function/lec2.sol\":1675:1683  return a */\n      swap1\n      pop\n        /* \"Variable,Function/lec2.sol\":1596:1691  function fun4(uint _num) public returns(uint){\r... */\n      swap2\n      swap1\n      pop\n      jump\t// out\n        /* \"Variable,Function/lec2.sol\":1382:1443  function fun2(uint _num) external {\r... */\n    tag_22:\n        /* \"Variable,Function/lec2.sol\":1431:1435  _num */\n      dup1\n        /* \"Variable,Function/lec2.sol\":1427:1428  a */\n      0x00\n        /* \"Variable,Function/lec2.sol\":1427:1435  a = _num */\n      dup2\n      swap1\n      sstore\n      pop\n        /* \"Variable,Function/lec2.sol\":1382:1443  function fun2(uint _num) external {\r... */\n      pop\n      jump\t// out\n        /* \"Variable,Function/lec2.sol\":1508:1588  function fun3() public returns(uint) {\r... */\n    tag_24:\n        /* \"Variable,Function/lec2.sol\":1539:1543  uint */\n      0x00\n        /* \"Variable,Function/lec2.sol\":1560:1561  3 */\n      0x03\n        /* \"Variable,Function/lec2.sol\":1556:1557  a */\n      0x00\n        /* \"Variable,Function/lec2.sol\":1556:1561  a = 3 */\n      dup2\n      swap1\n      sstore\n      pop\n        /* \"Variable,Function/lec2.sol\":1579:1580  a */\n      sload(0x00)\n        /* \"Variable,Function/lec2.sol\":1572:1580  return a */\n      swap1\n      pop\n        /* \"Variable,Function/lec2.sol\":1508:1588  function fun3() public returns(uint) {\r... */\n      swap1\n      jump\t// out\n        /* \"Variable,Function/lec2.sol\":1449:1500  function fun2_1() external {\r... */\n    tag_27:\n        /* \"Variable,Function/lec2.sol\":1486:1492  fun1() */\n      tag_35\n        /* \"Variable,Function/lec2.sol\":1486:1490  fun1 */\n      tag_14\n        /* \"Variable,Function/lec2.sol\":1486:1492  fun1() */\n      jump\t// in\n    tag_35:\n        /* \"Variable,Function/lec2.sol\":1449:1500  function fun2_1() external {\r... */\n      jump\t// out\n        /* \"#utility.yul\":7:146   */\n    tag_37:\n        /* \"#utility.yul\":53:58   */\n      0x00\n        /* \"#utility.yul\":91:97   */\n      dup2\n        /* \"#utility.yul\":78:98   */\n      calldataload\n        /* \"#utility.yul\":69:98   */\n      swap1\n      pop\n        /* \"#utility.yul\":107:140   */\n      tag_39\n        /* \"#utility.yul\":134:139   */\n      dup2\n        /* \"#utility.yul\":107:140   */\n      tag_40\n      jump\t// in\n    tag_39:\n        /* \"#utility.yul\":7:146   */\n      swap3\n      swap2\n      pop\n      pop\n      jump\t// out\n        /* \"#utility.yul\":152:481   */\n    tag_17:\n        /* \"#utility.yul\":211:217   */\n      0x00\n        /* \"#utility.yul\":260:262   */\n      0x20\n        /* \"#utility.yul\":248:257   */\n      dup3\n        /* \"#utility.yul\":239:246   */\n      dup5\n        /* \"#utility.yul\":235:258   */\n      sub\n        /* \"#utility.yul\":231:263   */\n      slt\n        /* \"#utility.yul\":228:347   */\n      iszero\n      tag_42\n      jumpi\n        /* \"#utility.yul\":266:345   */\n      tag_43\n      tag_44\n      jump\t// in\n    tag_43:\n        /* \"#utility.yul\":228:347   */\n    tag_42:\n        /* \"#utility.yul\":386:387   */\n      0x00\n        /* \"#utility.yul\":411:464   */\n      tag_45\n        /* \"#utility.yul\":456:463   */\n      dup5\n        /* \"#utility.yul\":447:453   */\n      dup3\n        /* \"#utility.yul\":436:445   */\n      dup6\n        /* \"#utility.yul\":432:454   */\n      add\n        /* \"#utility.yul\":411:464   */\n      tag_37\n      jump\t// in\n    tag_45:\n        /* \"#utility.yul\":401:464   */\n      swap2\n      pop\n        /* \"#utility.yul\":357:474   */\n      pop\n        /* \"#utility.yul\":152:481   */\n      swap3\n      swap2\n      pop\n      pop\n      jump\t// out\n        /* \"#utility.yul\":487:605   */\n    tag_46:\n        /* \"#utility.yul\":574:598   */\n      tag_48\n        /* \"#utility.yul\":592:597   */\n      dup2\n        /* \"#utility.yul\":574:598   */\n      tag_49\n      jump\t// in\n    tag_48:\n        /* \"#utility.yul\":569:572   */\n      dup3\n        /* \"#utility.yul\":562:599   */\n      mstore\n        /* \"#utility.yul\":487:605   */\n      pop\n      pop\n      jump\t// out\n        /* \"#utility.yul\":611:833   */\n    tag_12:\n        /* \"#utility.yul\":704:708   */\n      0x00\n        /* \"#utility.yul\":742:744   */\n      0x20\n        /* \"#utility.yul\":731:740   */\n      dup3\n        /* \"#utility.yul\":727:745   */\n      add\n        /* \"#utility.yul\":719:745   */\n      swap1\n      pop\n        /* \"#utility.yul\":755:826   */\n      tag_51\n        /* \"#utility.yul\":823:824   */\n      0x00\n        /* \"#utility.yul\":812:821   */\n      dup4\n        /* \"#utility.yul\":808:825   */\n      add\n        /* \"#utility.yul\":799:805   */\n      dup5\n        /* \"#utility.yul\":755:826   */\n      tag_46\n      jump\t// in\n    tag_51:\n        /* \"#utility.yul\":611:833   */\n      swap3\n      swap2\n      pop\n      pop\n      jump\t// out\n        /* \"#utility.yul\":920:1225   */\n    tag_31:\n        /* \"#utility.yul\":960:963   */\n      0x00\n        /* \"#utility.yul\":979:999   */\n      tag_55\n        /* \"#utility.yul\":997:998   */\n      dup3\n        /* \"#utility.yul\":979:999   */\n      tag_49\n      jump\t// in\n    tag_55:\n        /* \"#utility.yul\":974:999   */\n      swap2\n      pop\n        /* \"#utility.yul\":1013:1033   */\n      tag_56\n        /* \"#utility.yul\":1031:1032   */\n      dup4\n        /* \"#utility.yul\":1013:1033   */\n      tag_49\n      jump\t// in\n    tag_56:\n        /* \"#utility.yul\":1008:1033   */\n      swap3\n      pop\n        /* \"#utility.yul\":1167:1168   */\n      dup3\n        /* \"#utility.yul\":1099:1165   */\n      0xffffffffffffffffffffffffffffffffffffffffffffffffffffffffffffffff\n        /* \"#utility.yul\":1095:1169   */\n      sub\n        /* \"#utility.yul\":1092:1093   */\n      dup3\n        /* \"#utility.yul\":1089:1170   */\n      gt\n        /* \"#utility.yul\":1086:1193   */\n      iszero\n      tag_57\n      jumpi\n        /* \"#utility.yul\":1173:1191   */\n      tag_58\n      tag_59\n      jump\t// in\n    tag_58:\n        /* \"#utility.yul\":1086:1193   */\n    tag_57:\n        /* \"#utility.yul\":1217:1218   */\n      dup3\n        /* \"#utility.yul\":1214:1215   */\n      dup3\n        /* \"#utility.yul\":1210:1219   */\n      add\n        /* \"#utility.yul\":1203:1219   */\n      swap1\n      pop\n        /* \"#utility.yul\":920:1225   */\n      swap3\n      swap2\n      pop\n      pop\n      jump\t// out\n        /* \"#utility.yul\":1231:1308   */\n    tag_49:\n        /* \"#utility.yul\":1268:1275   */\n      0x00\n        /* \"#utility.yul\":1297:1302   */\n      dup2\n        /* \"#utility.yul\":1286:1302   */\n      swap1\n      pop\n        /* \"#utility.yul\":1231:1308   */\n      swap2\n      swap1\n      pop\n      jump\t// out\n        /* \"#utility.yul\":1314:1494   */\n    tag_59:\n        /* \"#utility.yul\":1362:1439   */\n      0x4e487b7100000000000000000000000000000000000000000000000000000000\n        /* \"#utility.yul\":1359:1360   */\n      0x00\n        /* \"#utility.yul\":1352:1440   */\n      mstore\n        /* \"#utility.yul\":1459:1463   */\n      0x11\n        /* \"#utility.yul\":1456:1457   */\n      0x04\n        /* \"#utility.yul\":1449:1464   */\n      mstore\n        /* \"#utility.yul\":1483:1487   */\n      0x24\n        /* \"#utility.yul\":1480:1481   */\n      0x00\n        /* \"#utility.yul\":1473:1488   */\n      revert\n        /* \"#utility.yul\":1623:1740   */\n    tag_44:\n        /* \"#utility.yul\":1732:1733   */\n      0x00\n        /* \"#utility.yul\":1729:1730   */\n      dup1\n        /* \"#utility.yul\":1722:1734   */\n      revert\n        /* \"#utility.yul\":1746:1868   */\n    tag_40:\n        /* \"#utility.yul\":1819:1843   */\n      tag_66\n        /* \"#utility.yul\":1837:1842   */\n      dup2\n        /* \"#utility.yul\":1819:1843   */\n      tag_49\n      jump\t// in\n    tag_66:\n        /* \"#utility.yul\":1812:1817   */\n      dup2\n        /* \"#utility.yul\":1809:1844   */\n      eq\n        /* \"#utility.yul\":1799:1862   */\n      tag_67\n      jumpi\n        /* \"#utility.yul\":1858:1859   */\n      0x00\n        /* \"#utility.yul\":1855:1856   */\n      dup1\n        /* \"#utility.yul\":1848:1860   */\n      revert\n        /* \"#utility.yul\":1799:1862   */\n    tag_67:\n        /* \"#utility.yul\":1746:1868   */\n      pop\n      jump\t// out\n\n    auxdata: 0xa264697066735822122059c46556cb97f9f90c963abf87f1045db2ee4033bba484ad2980aae8c2c7185a64736f6c63430008070033\n}\n",
				"bytecode": {
					"linkReferences": {},
					"object": "6080604052600160005534801561001557600080fd5b506102a6806100256000396000f3fe608060405234801561001057600080fd5b50600436106100625760003560e01c80630dbe671f14610067578063446a45b7146100855780635867cab51461008f5780637a927e8f146100bf5780637b8239fa146100db578063904a47d8146100f9575b600080fd5b61006f610103565b60405161007c91906101aa565b60405180910390f35b61008d610109565b005b6100a960048036038101906100a4919061016e565b610113565b6040516100b691906101aa565b60405180910390f35b6100d960048036038101906100d4919061016e565b610133565b005b6100e361013d565b6040516100f091906101aa565b60405180910390f35b61010161014f565b005b60005481565b6005600081905550565b60008160005461012391906101c5565b6000819055506000549050919050565b8060008190555050565b60006003600081905550600054905090565b610157610109565b565b60008135905061016881610259565b92915050565b60006020828403121561018457610183610254565b5b600061019284828501610159565b91505092915050565b6101a48161021b565b82525050565b60006020820190506101bf600083018461019b565b92915050565b60006101d08261021b565b91506101db8361021b565b9250827fffffffffffffffffffffffffffffffffffffffffffffffffffffffffffffffff038211156102105761020f610225565b5b828201905092915050565b6000819050919050565b7f4e487b7100000000000000000000000000000000000000000000000000000000600052601160045260246000fd5b600080fd5b6102628161021b565b811461026d57600080fd5b5056fea264697066735822122059c46556cb97f9f90c963abf87f1045db2ee4033bba484ad2980aae8c2c7185a64736f6c63430008070033",
					"opcodes": "PUSH1 0x80 PUSH1 0x40 MSTORE PUSH1 0x1 PUSH1 0x0 SSTORE CALLVALUE DUP1 ISZERO PUSH2 0x15 JUMPI PUSH1 0x0 DUP1 REVERT JUMPDEST POP PUSH2 0x2A6 DUP1 PUSH2 0x25 PUSH1 0x0 CODECOPY PUSH1 0x0 RETURN INVALID PUSH1 0x80 PUSH1 0x40 MSTORE CALLVALUE DUP1 ISZERO PUSH2 0x10 JUMPI PUSH1 0x0 DUP1 REVERT JUMPDEST POP PUSH1 0x4 CALLDATASIZE LT PUSH2 0x62 JUMPI PUSH1 0x0 CALLDATALOAD PUSH1 0xE0 SHR DUP1 PUSH4 0xDBE671F EQ PUSH2 0x67 JUMPI DUP1 PUSH4 0x446A45B7 EQ PUSH2 0x85 JUMPI DUP1 PUSH4 0x5867CAB5 EQ PUSH2 0x8F JUMPI DUP1 PUSH4 0x7A927E8F EQ PUSH2 0xBF JUMPI DUP1 PUSH4 0x7B8239FA EQ PUSH2 0xDB JUMPI DUP1 PUSH4 0x904A47D8 EQ PUSH2 0xF9 JUMPI JUMPDEST PUSH1 0x0 DUP1 REVERT JUMPDEST PUSH2 0x6F PUSH2 0x103 JUMP JUMPDEST PUSH1 0x40 MLOAD PUSH2 0x7C SWAP2 SWAP1 PUSH2 0x1AA JUMP JUMPDEST PUSH1 0x40 MLOAD DUP1 SWAP2 SUB SWAP1 RETURN JUMPDEST PUSH2 0x8D PUSH2 0x109 JUMP JUMPDEST STOP JUMPDEST PUSH2 0xA9 PUSH1 0x4 DUP1 CALLDATASIZE SUB DUP2 ADD SWAP1 PUSH2 0xA4 SWAP2 SWAP1 PUSH2 0x16E JUMP JUMPDEST PUSH2 0x113 JUMP JUMPDEST PUSH1 0x40 MLOAD PUSH2 0xB6 SWAP2 SWAP1 PUSH2 0x1AA JUMP JUMPDEST PUSH1 0x40 MLOAD DUP1 SWAP2 SUB SWAP1 RETURN JUMPDEST PUSH2 0xD9 PUSH1 0x4 DUP1 CALLDATASIZE SUB DUP2 ADD SWAP1 PUSH2 0xD4 SWAP2 SWAP1 PUSH2 0x16E JUMP JUMPDEST PUSH2 0x133 JUMP JUMPDEST STOP JUMPDEST PUSH2 0xE3 PUSH2 0x13D JUMP JUMPDEST PUSH1 0x40 MLOAD PUSH2 0xF0 SWAP2 SWAP1 PUSH2 0x1AA JUMP JUMPDEST PUSH1 0x40 MLOAD DUP1 SWAP2 SUB SWAP1 RETURN JUMPDEST PUSH2 0x101 PUSH2 0x14F JUMP JUMPDEST STOP JUMPDEST PUSH1 0x0 SLOAD DUP2 JUMP JUMPDEST PUSH1 0x5 PUSH1 0x0 DUP2 SWAP1 SSTORE POP JUMP JUMPDEST PUSH1 0x0 DUP2 PUSH1 0x0 SLOAD PUSH2 0x123 SWAP2 SWAP1 PUSH2 0x1C5 JUMP JUMPDEST PUSH1 0x0 DUP2 SWAP1 SSTORE POP PUSH1 0x0 SLOAD SWAP1 POP SWAP2 SWAP1 POP JUMP JUMPDEST DUP1 PUSH1 0x0 DUP2 SWAP1 SSTORE POP POP JUMP JUMPDEST PUSH1 0x0 PUSH1 0x3 PUSH1 0x0 DUP2 SWAP1 SSTORE POP PUSH1 0x0 SLOAD SWAP1 POP SWAP1 JUMP JUMPDEST PUSH2 0x157 PUSH2 0x109 JUMP JUMPDEST JUMP JUMPDEST PUSH1 0x0 DUP2 CALLDATALOAD SWAP1 POP PUSH2 0x168 DUP2 PUSH2 0x259 JUMP JUMPDEST SWAP3 SWAP2 POP POP JUMP JUMPDEST PUSH1 0x0 PUSH1 0x20 DUP3 DUP5 SUB SLT ISZERO PUSH2 0x184 JUMPI PUSH2 0x183 PUSH2 0x254 JUMP JUMPDEST JUMPDEST PUSH1 0x0 PUSH2 0x192 DUP5 DUP3 DUP6 ADD PUSH2 0x159 JUMP JUMPDEST SWAP2 POP POP SWAP3 SWAP2 POP POP JUMP JUMPDEST PUSH2 0x1A4 DUP2 PUSH2 0x21B JUMP JUMPDEST DUP3 MSTORE POP POP JUMP JUMPDEST PUSH1 0x0 PUSH1 0x20 DUP3 ADD SWAP1 POP PUSH2 0x1BF PUSH1 0x0 DUP4 ADD DUP5 PUSH2 0x19B JUMP JUMPDEST SWAP3 SWAP2 POP POP JUMP JUMPDEST PUSH1 0x0 PUSH2 0x1D0 DUP3 PUSH2 0x21B JUMP JUMPDEST SWAP2 POP PUSH2 0x1DB DUP4 PUSH2 0x21B JUMP JUMPDEST SWAP3 POP DUP3 PUSH32 0xFFFFFFFFFFFFFFFFFFFFFFFFFFFFFFFFFFFFFFFFFFFFFFFFFFFFFFFFFFFFFFFF SUB DUP3 GT ISZERO PUSH2 0x210 JUMPI PUSH2 0x20F PUSH2 0x225 JUMP JUMPDEST JUMPDEST DUP3 DUP3 ADD SWAP1 POP SWAP3 SWAP2 POP POP JUMP JUMPDEST PUSH1 0x0 DUP2 SWAP1 POP SWAP2 SWAP1 POP JUMP JUMPDEST PUSH32 0x4E487B7100000000000000000000000000000000000000000000000000000000 PUSH1 0x0 MSTORE PUSH1 0x11 PUSH1 0x4 MSTORE PUSH1 0x24 PUSH1 0x0 REVERT JUMPDEST PUSH1 0x0 DUP1 REVERT JUMPDEST PUSH2 0x262 DUP2 PUSH2 0x21B JUMP JUMPDEST DUP2 EQ PUSH2 0x26D JUMPI PUSH1 0x0 DUP1 REVERT JUMPDEST POP JUMP INVALID LOG2 PUSH5 0x6970667358 0x22 SLT KECCAK256 MSIZE 0xC4 PUSH6 0x56CB97F9F90C SWAP7 GASPRICE 0xBF DUP8 CALL DIV 0x5D 0xB2 0xEE BLOCKHASH CALLER 0xBB LOG4 DUP5 0xAD 0x29 DUP1 0xAA 0xE8 0xC2 0xC7 XOR GAS PUSH5 0x736F6C6343 STOP ADDMOD SMOD STOP CALLER "
				},
				"gasEstimates": {
					"creation": {
						"codeDepositCost": "135600",
						"executionCost": "22289",
						"totalCost": "157889"
					},
					"external": {
						"a()": "2407",
						"fun1()": "22258",
						"fun2(uint256)": "22564",
						"fun2_1()": "22370",
						"fun3()": "24617",
						"fun4(uint256)": "infinite"
					}
				},
				"methodIdentifiers": {
					"a()": "0dbe671f",
					"fun1()": "446a45b7",
					"fun2(uint256)": "7a927e8f",
					"fun2_1()": "904a47d8",
					"fun3()": "7b8239fa",
					"fun4(uint256)": "5867cab5"
				}
			},
			"storageLayout": {
				"storage": [
					{
						"astId": 4,
						"contract": "Variable,Function/lec2.sol:lec2",
						"label": "a",
						"offset": 0,
						"slot": "0",
						"type": "t_uint256"
					}
				],
				"types": {
					"t_uint256": {
						"encoding": "inplace",
						"label": "uint256",
						"numberOfBytes": "32"
					}
				}
			},
			"userdoc": {
				"kind": "user",
				"methods": {},
				"version": 1
			}
		}
	}
}