{
	"Variable,Function/lec2.sol": {
		"lec2": {
			"abi": [
				{
					"inputs": [],
					"name": "a",
					"outputs": [
						{
							"internalType": "uint256",
							"name": "",
							"type": "uint256"
						}
					],
					"stateMutability": "view",
					"type": "function"
				},
				{
					"inputs": [],
					"name": "fun1",
					"outputs": [],
					"stateMutability": "nonpayable",
					"type": "function"
				},
				{
					"inputs": [
						{
							"internalType": "uint256",
							"name": "_num",
							"type": "uint256"
						}
					],
					"name": "fun2",
					"outputs": [],
					"stateMutability": "nonpayable",
					"type": "function"
				},
				{
					"inputs": [],
					"name": "fun2_1",
					"outputs": [],
					"stateMutability": "nonpayable",
					"type": "function"
				}
			],
			"devdoc": {
				"kind": "dev",
				"methods": {},
				"version": 1
			},
			"evm": {
				"assembly": "    /* \"Variable,Function/lec2.sol\":74:1707  contract lec2 {\r... */\n  mstore(0x40, 0x80)\n    /* \"Variable,Function/lec2.sol\":1312:1313  1 */\n  0x01\n    /* \"Variable,Function/lec2.sol\":1296:1313  uint public a = 1 */\n  0x00\n  sstore\n    /* \"Variable,Function/lec2.sol\":74:1707  contract lec2 {\r... */\n  callvalue\n  dup1\n  iszero\n  tag_1\n  jumpi\n  0x00\n  dup1\n  revert\ntag_1:\n  pop\n  dataSize(sub_0)\n  dup1\n  dataOffset(sub_0)\n  0x00\n  codecopy\n  0x00\n  return\nstop\n\nsub_0: assembly {\n        /* \"Variable,Function/lec2.sol\":74:1707  contract lec2 {\r... */\n      mstore(0x40, 0x80)\n      callvalue\n      dup1\n      iszero\n      tag_1\n      jumpi\n      0x00\n      dup1\n      revert\n    tag_1:\n      pop\n      jumpi(tag_2, lt(calldatasize, 0x04))\n      shr(0xe0, calldataload(0x00))\n      dup1\n      0x0dbe671f\n      eq\n      tag_3\n      jumpi\n      dup1\n      0x446a45b7\n      eq\n      tag_4\n      jumpi\n      dup1\n      0x7a927e8f\n      eq\n      tag_5\n      jumpi\n      dup1\n      0x904a47d8\n      eq\n      tag_6\n      jumpi\n    tag_2:\n      0x00\n      dup1\n      revert\n        /* \"Variable,Function/lec2.sol\":1296:1313  uint public a = 1 */\n    tag_3:\n      tag_7\n      tag_8\n      jump\t// in\n    tag_7:\n      mload(0x40)\n      tag_9\n      swap2\n      swap1\n      tag_10\n      jump\t// in\n    tag_9:\n      mload(0x40)\n      dup1\n      swap2\n      sub\n      swap1\n      return\n        /* \"Variable,Function/lec2.sol\":1327:1374  function fun1() public {\r... */\n    tag_4:\n      tag_11\n      tag_12\n      jump\t// in\n    tag_11:\n      stop\n        /* \"Variable,Function/lec2.sol\":1382:1443  function fun2(uint _num) external {\r... */\n    tag_5:\n      tag_13\n      0x04\n      dup1\n      calldatasize\n      sub\n      dup2\n      add\n      swap1\n      tag_14\n      swap2\n      swap1\n      tag_15\n      jump\t// in\n    tag_14:\n      tag_16\n      jump\t// in\n    tag_13:\n      stop\n        /* \"Variable,Function/lec2.sol\":1449:1506  function fun2_1() external {\r... */\n    tag_6:\n      tag_17\n      tag_18\n      jump\t// in\n    tag_17:\n      stop\n        /* \"Variable,Function/lec2.sol\":1296:1313  uint public a = 1 */\n    tag_8:\n      sload(0x00)\n      dup2\n      jump\t// out\n        /* \"Variable,Function/lec2.sol\":1327:1374  function fun1() public {\r... */\n    tag_12:\n        /* \"Variable,Function/lec2.sol\":1365:1366  5 */\n      0x05\n        /* \"Variable,Function/lec2.sol\":1361:1362  a */\n      0x00\n        /* \"Variable,Function/lec2.sol\":1361:1366  a = 5 */\n      dup2\n      swap1\n      sstore\n      pop\n        /* \"Variable,Function/lec2.sol\":1327:1374  function fun1() public {\r... */\n      jump\t// out\n        /* \"Variable,Function/lec2.sol\":1382:1443  function fun2(uint _num) external {\r... */\n    tag_16:\n        /* \"Variable,Function/lec2.sol\":1431:1435  _num */\n      dup1\n        /* \"Variable,Function/lec2.sol\":1427:1428  a */\n      0x00\n        /* \"Variable,Function/lec2.sol\":1427:1435  a = _num */\n      dup2\n      swap1\n      sstore\n      pop\n        /* \"Variable,Function/lec2.sol\":1382:1443  function fun2(uint _num) external {\r... */\n      pop\n      jump\t// out\n        /* \"Variable,Function/lec2.sol\":1449:1506  function fun2_1() external {\r... */\n    tag_18:\n        /* \"Variable,Function/lec2.sol\":1486:1490  this */\n      address\n        /* \"Variable,Function/lec2.sol\":1486:1495  this.fun2 */\n      0xffffffffffffffffffffffffffffffffffffffff\n      and\n      0x7a927e8f\n        /* \"Variable,Function/lec2.sol\":1496:1497  5 */\n      0x05\n        /* \"Variable,Function/lec2.sol\":1486:1498  this.fun2(5) */\n      mload(0x40)\n      dup3\n      0xffffffff\n      and\n      0xe0\n      shl\n      dup2\n      mstore\n      0x04\n      add\n      tag_22\n      swap2\n      swap1\n      tag_23\n      jump\t// in\n    tag_22:\n      0x00\n      mload(0x40)\n      dup1\n      dup4\n      sub\n      dup2\n      0x00\n      dup8\n      dup1\n      extcodesize\n      iszero\n      dup1\n      iszero\n      tag_24\n      jumpi\n      0x00\n      dup1\n      revert\n    tag_24:\n      pop\n      gas\n      call\n      iszero\n      dup1\n      iszero\n      tag_26\n      jumpi\n      returndatasize\n      0x00\n      dup1\n      returndatacopy\n      revert(0x00, returndatasize)\n    tag_26:\n      pop\n      pop\n      pop\n      pop\n        /* \"Variable,Function/lec2.sol\":1449:1506  function fun2_1() external {\r... */\n      jump\t// out\n        /* \"#utility.yul\":7:146   */\n    tag_28:\n        /* \"#utility.yul\":53:58   */\n      0x00\n        /* \"#utility.yul\":91:97   */\n      dup2\n        /* \"#utility.yul\":78:98   */\n      calldataload\n        /* \"#utility.yul\":69:98   */\n      swap1\n      pop\n        /* \"#utility.yul\":107:140   */\n      tag_30\n        /* \"#utility.yul\":134:139   */\n      dup2\n        /* \"#utility.yul\":107:140   */\n      tag_31\n      jump\t// in\n    tag_30:\n        /* \"#utility.yul\":7:146   */\n      swap3\n      swap2\n      pop\n      pop\n      jump\t// out\n        /* \"#utility.yul\":152:481   */\n    tag_15:\n        /* \"#utility.yul\":211:217   */\n      0x00\n        /* \"#utility.yul\":260:262   */\n      0x20\n        /* \"#utility.yul\":248:257   */\n      dup3\n        /* \"#utility.yul\":239:246   */\n      dup5\n        /* \"#utility.yul\":235:258   */\n      sub\n        /* \"#utility.yul\":231:263   */\n      slt\n        /* \"#utility.yul\":228:347   */\n      iszero\n      tag_33\n      jumpi\n        /* \"#utility.yul\":266:345   */\n      tag_34\n      tag_35\n      jump\t// in\n    tag_34:\n        /* \"#utility.yul\":228:347   */\n    tag_33:\n        /* \"#utility.yul\":386:387   */\n      0x00\n        /* \"#utility.yul\":411:464   */\n      tag_36\n        /* \"#utility.yul\":456:463   */\n      dup5\n        /* \"#utility.yul\":447:453   */\n      dup3\n        /* \"#utility.yul\":436:445   */\n      dup6\n        /* \"#utility.yul\":432:454   */\n      add\n        /* \"#utility.yul\":411:464   */\n      tag_28\n      jump\t// in\n    tag_36:\n        /* \"#utility.yul\":401:464   */\n      swap2\n      pop\n        /* \"#utility.yul\":357:474   */\n      pop\n        /* \"#utility.yul\":152:481   */\n      swap3\n      swap2\n      pop\n      pop\n      jump\t// out\n        /* \"#utility.yul\":487:634   */\n    tag_37:\n        /* \"#utility.yul\":582:627   */\n      tag_39\n        /* \"#utility.yul\":621:626   */\n      dup2\n        /* \"#utility.yul\":582:627   */\n      tag_40\n      jump\t// in\n    tag_39:\n        /* \"#utility.yul\":577:580   */\n      dup3\n        /* \"#utility.yul\":570:628   */\n      mstore\n        /* \"#utility.yul\":487:634   */\n      pop\n      pop\n      jump\t// out\n        /* \"#utility.yul\":640:758   */\n    tag_41:\n        /* \"#utility.yul\":727:751   */\n      tag_43\n        /* \"#utility.yul\":745:750   */\n      dup2\n        /* \"#utility.yul\":727:751   */\n      tag_44\n      jump\t// in\n    tag_43:\n        /* \"#utility.yul\":722:725   */\n      dup3\n        /* \"#utility.yul\":715:752   */\n      mstore\n        /* \"#utility.yul\":640:758   */\n      pop\n      pop\n      jump\t// out\n        /* \"#utility.yul\":764:1002   */\n    tag_23:\n        /* \"#utility.yul\":865:869   */\n      0x00\n        /* \"#utility.yul\":903:905   */\n      0x20\n        /* \"#utility.yul\":892:901   */\n      dup3\n        /* \"#utility.yul\":888:906   */\n      add\n        /* \"#utility.yul\":880:906   */\n      swap1\n      pop\n        /* \"#utility.yul\":916:995   */\n      tag_46\n        /* \"#utility.yul\":992:993   */\n      0x00\n        /* \"#utility.yul\":981:990   */\n      dup4\n        /* \"#utility.yul\":977:994   */\n      add\n        /* \"#utility.yul\":968:974   */\n      dup5\n        /* \"#utility.yul\":916:995   */\n      tag_37\n      jump\t// in\n    tag_46:\n        /* \"#utility.yul\":764:1002   */\n      swap3\n      swap2\n      pop\n      pop\n      jump\t// out\n        /* \"#utility.yul\":1008:1230   */\n    tag_10:\n        /* \"#utility.yul\":1101:1105   */\n      0x00\n        /* \"#utility.yul\":1139:1141   */\n      0x20\n        /* \"#utility.yul\":1128:1137   */\n      dup3\n        /* \"#utility.yul\":1124:1142   */\n      add\n        /* \"#utility.yul\":1116:1142   */\n      swap1\n      pop\n        /* \"#utility.yul\":1152:1223   */\n      tag_48\n        /* \"#utility.yul\":1220:1221   */\n      0x00\n        /* \"#utility.yul\":1209:1218   */\n      dup4\n        /* \"#utility.yul\":1205:1222   */\n      add\n        /* \"#utility.yul\":1196:1202   */\n      dup5\n        /* \"#utility.yul\":1152:1223   */\n      tag_41\n      jump\t// in\n    tag_48:\n        /* \"#utility.yul\":1008:1230   */\n      swap3\n      swap2\n      pop\n      pop\n      jump\t// out\n        /* \"#utility.yul\":1317:1394   */\n    tag_44:\n        /* \"#utility.yul\":1354:1361   */\n      0x00\n        /* \"#utility.yul\":1383:1388   */\n      dup2\n        /* \"#utility.yul\":1372:1388   */\n      swap1\n      pop\n        /* \"#utility.yul\":1317:1394   */\n      swap2\n      swap1\n      pop\n      jump\t// out\n        /* \"#utility.yul\":1400:1521   */\n    tag_40:\n        /* \"#utility.yul\":1458:1467   */\n      0x00\n        /* \"#utility.yul\":1491:1515   */\n      tag_53\n        /* \"#utility.yul\":1509:1514   */\n      dup3\n        /* \"#utility.yul\":1491:1515   */\n      tag_44\n      jump\t// in\n    tag_53:\n        /* \"#utility.yul\":1478:1515   */\n      swap1\n      pop\n        /* \"#utility.yul\":1400:1521   */\n      swap2\n      swap1\n      pop\n      jump\t// out\n        /* \"#utility.yul\":1650:1767   */\n    tag_35:\n        /* \"#utility.yul\":1759:1760   */\n      0x00\n        /* \"#utility.yul\":1756:1757   */\n      dup1\n        /* \"#utility.yul\":1749:1761   */\n      revert\n        /* \"#utility.yul\":1773:1895   */\n    tag_31:\n        /* \"#utility.yul\":1846:1870   */\n      tag_58\n        /* \"#utility.yul\":1864:1869   */\n      dup2\n        /* \"#utility.yul\":1846:1870   */\n      tag_44\n      jump\t// in\n    tag_58:\n        /* \"#utility.yul\":1839:1844   */\n      dup2\n        /* \"#utility.yul\":1836:1871   */\n      eq\n        /* \"#utility.yul\":1826:1889   */\n      tag_59\n      jumpi\n        /* \"#utility.yul\":1885:1886   */\n      0x00\n        /* \"#utility.yul\":1882:1883   */\n      dup1\n        /* \"#utility.yul\":1875:1887   */\n      revert\n        /* \"#utility.yul\":1826:1889   */\n    tag_59:\n        /* \"#utility.yul\":1773:1895   */\n      pop\n      jump\t// out\n\n    auxdata: 0xa2646970667358221220ad35dfc8e543eeef88116d89f50cdacfb33ff16849327931be91a456bb8961fd64736f6c63430008070033\n}\n",
				"bytecode": {
					"linkReferences": {},
					"object": "6080604052600160005534801561001557600080fd5b5061022b806100256000396000f3fe608060405234801561001057600080fd5b506004361061004c5760003560e01c80630dbe671f14610051578063446a45b71461006f5780637a927e8f14610079578063904a47d814610095575b600080fd5b61005961009f565b60405161006691906101a2565b60405180910390f35b6100776100a5565b005b610093600480360381019061008e919061013c565b6100af565b005b61009d6100b9565b005b60005481565b6005600081905550565b8060008190555050565b3073ffffffffffffffffffffffffffffffffffffffff16637a927e8f60056040518263ffffffff1660e01b81526004016100f39190610187565b600060405180830381600087803b15801561010d57600080fd5b505af1158015610121573d6000803e3d6000fd5b50505050565b600081359050610136816101de565b92915050565b600060208284031215610152576101516101d9565b5b600061016084828501610127565b91505092915050565b610172816101c7565b82525050565b610181816101bd565b82525050565b600060208201905061019c6000830184610169565b92915050565b60006020820190506101b76000830184610178565b92915050565b6000819050919050565b60006101d2826101bd565b9050919050565b600080fd5b6101e7816101bd565b81146101f257600080fd5b5056fea2646970667358221220ad35dfc8e543eeef88116d89f50cdacfb33ff16849327931be91a456bb8961fd64736f6c63430008070033",
					"opcodes": "PUSH1 0x80 PUSH1 0x40 MSTORE PUSH1 0x1 PUSH1 0x0 SSTORE CALLVALUE DUP1 ISZERO PUSH2 0x15 JUMPI PUSH1 0x0 DUP1 REVERT JUMPDEST POP PUSH2 0x22B DUP1 PUSH2 0x25 PUSH1 0x0 CODECOPY PUSH1 0x0 RETURN INVALID PUSH1 0x80 PUSH1 0x40 MSTORE CALLVALUE DUP1 ISZERO PUSH2 0x10 JUMPI PUSH1 0x0 DUP1 REVERT JUMPDEST POP PUSH1 0x4 CALLDATASIZE LT PUSH2 0x4C JUMPI PUSH1 0x0 CALLDATALOAD PUSH1 0xE0 SHR DUP1 PUSH4 0xDBE671F EQ PUSH2 0x51 JUMPI DUP1 PUSH4 0x446A45B7 EQ PUSH2 0x6F JUMPI DUP1 PUSH4 0x7A927E8F EQ PUSH2 0x79 JUMPI DUP1 PUSH4 0x904A47D8 EQ PUSH2 0x95 JUMPI JUMPDEST PUSH1 0x0 DUP1 REVERT JUMPDEST PUSH2 0x59 PUSH2 0x9F JUMP JUMPDEST PUSH1 0x40 MLOAD PUSH2 0x66 SWAP2 SWAP1 PUSH2 0x1A2 JUMP JUMPDEST PUSH1 0x40 MLOAD DUP1 SWAP2 SUB SWAP1 RETURN JUMPDEST PUSH2 0x77 PUSH2 0xA5 JUMP JUMPDEST STOP JUMPDEST PUSH2 0x93 PUSH1 0x4 DUP1 CALLDATASIZE SUB DUP2 ADD SWAP1 PUSH2 0x8E SWAP2 SWAP1 PUSH2 0x13C JUMP JUMPDEST PUSH2 0xAF JUMP JUMPDEST STOP JUMPDEST PUSH2 0x9D PUSH2 0xB9 JUMP JUMPDEST STOP JUMPDEST PUSH1 0x0 SLOAD DUP2 JUMP JUMPDEST PUSH1 0x5 PUSH1 0x0 DUP2 SWAP1 SSTORE POP JUMP JUMPDEST DUP1 PUSH1 0x0 DUP2 SWAP1 SSTORE POP POP JUMP JUMPDEST ADDRESS PUSH20 0xFFFFFFFFFFFFFFFFFFFFFFFFFFFFFFFFFFFFFFFF AND PUSH4 0x7A927E8F PUSH1 0x5 PUSH1 0x40 MLOAD DUP3 PUSH4 0xFFFFFFFF AND PUSH1 0xE0 SHL DUP2 MSTORE PUSH1 0x4 ADD PUSH2 0xF3 SWAP2 SWAP1 PUSH2 0x187 JUMP JUMPDEST PUSH1 0x0 PUSH1 0x40 MLOAD DUP1 DUP4 SUB DUP2 PUSH1 0x0 DUP8 DUP1 EXTCODESIZE ISZERO DUP1 ISZERO PUSH2 0x10D JUMPI PUSH1 0x0 DUP1 REVERT JUMPDEST POP GAS CALL ISZERO DUP1 ISZERO PUSH2 0x121 JUMPI RETURNDATASIZE PUSH1 0x0 DUP1 RETURNDATACOPY RETURNDATASIZE PUSH1 0x0 REVERT JUMPDEST POP POP POP POP JUMP JUMPDEST PUSH1 0x0 DUP2 CALLDATALOAD SWAP1 POP PUSH2 0x136 DUP2 PUSH2 0x1DE JUMP JUMPDEST SWAP3 SWAP2 POP POP JUMP JUMPDEST PUSH1 0x0 PUSH1 0x20 DUP3 DUP5 SUB SLT ISZERO PUSH2 0x152 JUMPI PUSH2 0x151 PUSH2 0x1D9 JUMP JUMPDEST JUMPDEST PUSH1 0x0 PUSH2 0x160 DUP5 DUP3 DUP6 ADD PUSH2 0x127 JUMP JUMPDEST SWAP2 POP POP SWAP3 SWAP2 POP POP JUMP JUMPDEST PUSH2 0x172 DUP2 PUSH2 0x1C7 JUMP JUMPDEST DUP3 MSTORE POP POP JUMP JUMPDEST PUSH2 0x181 DUP2 PUSH2 0x1BD JUMP JUMPDEST DUP3 MSTORE POP POP JUMP JUMPDEST PUSH1 0x0 PUSH1 0x20 DUP3 ADD SWAP1 POP PUSH2 0x19C PUSH1 0x0 DUP4 ADD DUP5 PUSH2 0x169 JUMP JUMPDEST SWAP3 SWAP2 POP POP JUMP JUMPDEST PUSH1 0x0 PUSH1 0x20 DUP3 ADD SWAP1 POP PUSH2 0x1B7 PUSH1 0x0 DUP4 ADD DUP5 PUSH2 0x178 JUMP JUMPDEST SWAP3 SWAP2 POP POP JUMP JUMPDEST PUSH1 0x0 DUP2 SWAP1 POP SWAP2 SWAP1 POP JUMP JUMPDEST PUSH1 0x0 PUSH2 0x1D2 DUP3 PUSH2 0x1BD JUMP JUMPDEST SWAP1 POP SWAP2 SWAP1 POP JUMP JUMPDEST PUSH1 0x0 DUP1 REVERT JUMPDEST PUSH2 0x1E7 DUP2 PUSH2 0x1BD JUMP JUMPDEST DUP2 EQ PUSH2 0x1F2 JUMPI PUSH1 0x0 DUP1 REVERT JUMPDEST POP JUMP INVALID LOG2 PUSH5 0x6970667358 0x22 SLT KECCAK256 0xAD CALLDATALOAD 0xDF 0xC8 0xE5 NUMBER 0xEE 0xEF DUP9 GT PUSH14 0x89F50CDACFB33FF16849327931BE SWAP2 LOG4 JUMP 0xBB DUP10 PUSH2 0xFD64 PUSH20 0x6F6C634300080700330000000000000000000000 "
				},
				"gasEstimates": {
					"creation": {
						"codeDepositCost": "111000",
						"executionCost": "22265",
						"totalCost": "133265"
					},
					"external": {
						"a()": "2407",
						"fun1()": "22258",
						"fun2(uint256)": "22542",
						"fun2_1()": "infinite"
					},
					"internal": {
						"fun3()": "infinite",
						"fun4(uint256)": "infinite"
					}
				},
				"methodIdentifiers": {
					"a()": "0dbe671f",
					"fun1()": "446a45b7",
					"fun2(uint256)": "7a927e8f",
					"fun2_1()": "904a47d8"
				}
			},
			"storageLayout": {
				"storage": [
					{
						"astId": 4,
						"contract": "Variable,Function/lec2.sol:lec2",
						"label": "a",
						"offset": 0,
						"slot": "0",
						"type": "t_uint256"
					}
				],
				"types": {
					"t_uint256": {
						"encoding": "inplace",
						"label": "uint256",
						"numberOfBytes": "32"
					}
				}
			},
			"userdoc": {
				"kind": "user",
				"methods": {},
				"version": 1
			}
		}
	}
}