{
	"Variable,Function/lec2.sol": {
		"lec2": {
			"abi": [
				{
					"inputs": [],
					"name": "a",
					"outputs": [
						{
							"internalType": "uint256",
							"name": "",
							"type": "uint256"
						}
					],
					"stateMutability": "view",
					"type": "function"
				},
				{
					"inputs": [],
					"name": "fun1",
					"outputs": [],
					"stateMutability": "nonpayable",
					"type": "function"
				},
				{
					"inputs": [
						{
							"internalType": "uint256",
							"name": "_num",
							"type": "uint256"
						}
					],
					"name": "fun2",
					"outputs": [],
					"stateMutability": "nonpayable",
					"type": "function"
				},
				{
					"inputs": [],
					"name": "fun2_1",
					"outputs": [],
					"stateMutability": "nonpayable",
					"type": "function"
				},
				{
					"inputs": [],
					"name": "fun3_1",
					"outputs": [
						{
							"internalType": "uint256",
							"name": "",
							"type": "uint256"
						}
					],
					"stateMutability": "nonpayable",
					"type": "function"
				},
				{
					"inputs": [
						{
							"internalType": "uint256",
							"name": "_num",
							"type": "uint256"
						}
					],
					"name": "fun4_1",
					"outputs": [
						{
							"internalType": "uint256",
							"name": "",
							"type": "uint256"
						}
					],
					"stateMutability": "nonpayable",
					"type": "function"
				}
			],
			"devdoc": {
				"kind": "dev",
				"methods": {},
				"version": 1
			},
			"evm": {
				"assembly": "    /* \"Variable,Function/lec2.sol\":74:1870  contract lec2 {\r... */\n  mstore(0x40, 0x80)\n    /* \"Variable,Function/lec2.sol\":1312:1313  1 */\n  0x01\n    /* \"Variable,Function/lec2.sol\":1296:1313  uint public a = 1 */\n  0x00\n  sstore\n    /* \"Variable,Function/lec2.sol\":74:1870  contract lec2 {\r... */\n  callvalue\n  dup1\n  iszero\n  tag_1\n  jumpi\n  0x00\n  dup1\n  revert\ntag_1:\n  pop\n  dataSize(sub_0)\n  dup1\n  dataOffset(sub_0)\n  0x00\n  codecopy\n  0x00\n  return\nstop\n\nsub_0: assembly {\n        /* \"Variable,Function/lec2.sol\":74:1870  contract lec2 {\r... */\n      mstore(0x40, 0x80)\n      callvalue\n      dup1\n      iszero\n      tag_1\n      jumpi\n      0x00\n      dup1\n      revert\n    tag_1:\n      pop\n      jumpi(tag_2, lt(calldatasize, 0x04))\n      shr(0xe0, calldataload(0x00))\n      dup1\n      0x054c8e09\n      eq\n      tag_3\n      jumpi\n      dup1\n      0x0dbe671f\n      eq\n      tag_4\n      jumpi\n      dup1\n      0x446a45b7\n      eq\n      tag_5\n      jumpi\n      dup1\n      0x7a927e8f\n      eq\n      tag_6\n      jumpi\n      dup1\n      0x904a47d8\n      eq\n      tag_7\n      jumpi\n      dup1\n      0xe26e3482\n      eq\n      tag_8\n      jumpi\n    tag_2:\n      0x00\n      dup1\n      revert\n        /* \"Variable,Function/lec2.sol\":1601:1670  function fun3_1() public returns(uint) {\r... */\n    tag_3:\n      tag_9\n      tag_10\n      jump\t// in\n    tag_9:\n      mload(0x40)\n      tag_11\n      swap2\n      swap1\n      tag_12\n      jump\t// in\n    tag_11:\n      mload(0x40)\n      dup1\n      swap2\n      sub\n      swap1\n      return\n        /* \"Variable,Function/lec2.sol\":1296:1313  uint public a = 1 */\n    tag_4:\n      tag_13\n      tag_14\n      jump\t// in\n    tag_13:\n      mload(0x40)\n      tag_15\n      swap2\n      swap1\n      tag_12\n      jump\t// in\n    tag_15:\n      mload(0x40)\n      dup1\n      swap2\n      sub\n      swap1\n      return\n        /* \"Variable,Function/lec2.sol\":1327:1374  function fun1() public {\r... */\n    tag_5:\n      tag_16\n      tag_17\n      jump\t// in\n    tag_16:\n      stop\n        /* \"Variable,Function/lec2.sol\":1382:1443  function fun2(uint _num) external {\r... */\n    tag_6:\n      tag_18\n      0x04\n      dup1\n      calldatasize\n      sub\n      dup2\n      add\n      swap1\n      tag_19\n      swap2\n      swap1\n      tag_20\n      jump\t// in\n    tag_19:\n      tag_21\n      jump\t// in\n    tag_18:\n      stop\n        /* \"Variable,Function/lec2.sol\":1449:1506  function fun2_1() external {\r... */\n    tag_7:\n      tag_22\n      tag_23\n      jump\t// in\n    tag_22:\n      stop\n        /* \"Variable,Function/lec2.sol\":1781:1863  function fun4_1(uint _num) public returns(uint) {\r... */\n    tag_8:\n      tag_24\n      0x04\n      dup1\n      calldatasize\n      sub\n      dup2\n      add\n      swap1\n      tag_25\n      swap2\n      swap1\n      tag_20\n      jump\t// in\n    tag_25:\n      tag_26\n      jump\t// in\n    tag_24:\n      mload(0x40)\n      tag_27\n      swap2\n      swap1\n      tag_12\n      jump\t// in\n    tag_27:\n      mload(0x40)\n      dup1\n      swap2\n      sub\n      swap1\n      return\n        /* \"Variable,Function/lec2.sol\":1601:1670  function fun3_1() public returns(uint) {\r... */\n    tag_10:\n        /* \"Variable,Function/lec2.sol\":1634:1638  uint */\n      0x00\n        /* \"Variable,Function/lec2.sol\":1656:1662  fun3() */\n      tag_29\n        /* \"Variable,Function/lec2.sol\":1656:1660  fun3 */\n      tag_30\n        /* \"Variable,Function/lec2.sol\":1656:1662  fun3() */\n      jump\t// in\n    tag_29:\n        /* \"Variable,Function/lec2.sol\":1649:1662  return fun3() */\n      swap1\n      pop\n        /* \"Variable,Function/lec2.sol\":1601:1670  function fun3_1() public returns(uint) {\r... */\n      swap1\n      jump\t// out\n        /* \"Variable,Function/lec2.sol\":1296:1313  uint public a = 1 */\n    tag_14:\n      sload(0x00)\n      dup2\n      jump\t// out\n        /* \"Variable,Function/lec2.sol\":1327:1374  function fun1() public {\r... */\n    tag_17:\n        /* \"Variable,Function/lec2.sol\":1365:1366  5 */\n      0x05\n        /* \"Variable,Function/lec2.sol\":1361:1362  a */\n      0x00\n        /* \"Variable,Function/lec2.sol\":1361:1366  a = 5 */\n      dup2\n      swap1\n      sstore\n      pop\n        /* \"Variable,Function/lec2.sol\":1327:1374  function fun1() public {\r... */\n      jump\t// out\n        /* \"Variable,Function/lec2.sol\":1382:1443  function fun2(uint _num) external {\r... */\n    tag_21:\n        /* \"Variable,Function/lec2.sol\":1431:1435  _num */\n      dup1\n        /* \"Variable,Function/lec2.sol\":1427:1428  a */\n      0x00\n        /* \"Variable,Function/lec2.sol\":1427:1435  a = _num */\n      dup2\n      swap1\n      sstore\n      pop\n        /* \"Variable,Function/lec2.sol\":1382:1443  function fun2(uint _num) external {\r... */\n      pop\n      jump\t// out\n        /* \"Variable,Function/lec2.sol\":1449:1506  function fun2_1() external {\r... */\n    tag_23:\n        /* \"Variable,Function/lec2.sol\":1486:1490  this */\n      address\n        /* \"Variable,Function/lec2.sol\":1486:1495  this.fun2 */\n      0xffffffffffffffffffffffffffffffffffffffff\n      and\n      0x7a927e8f\n        /* \"Variable,Function/lec2.sol\":1496:1497  5 */\n      0x05\n        /* \"Variable,Function/lec2.sol\":1486:1498  this.fun2(5) */\n      mload(0x40)\n      dup3\n      0xffffffff\n      and\n      0xe0\n      shl\n      dup2\n      mstore\n      0x04\n      add\n      tag_34\n      swap2\n      swap1\n      tag_35\n      jump\t// in\n    tag_34:\n      0x00\n      mload(0x40)\n      dup1\n      dup4\n      sub\n      dup2\n      0x00\n      dup8\n      dup1\n      extcodesize\n      iszero\n      dup1\n      iszero\n      tag_36\n      jumpi\n      0x00\n      dup1\n      revert\n    tag_36:\n      pop\n      gas\n      call\n      iszero\n      dup1\n      iszero\n      tag_38\n      jumpi\n      returndatasize\n      0x00\n      dup1\n      returndatacopy\n      revert(0x00, returndatasize)\n    tag_38:\n      pop\n      pop\n      pop\n      pop\n        /* \"Variable,Function/lec2.sol\":1449:1506  function fun2_1() external {\r... */\n      jump\t// out\n        /* \"Variable,Function/lec2.sol\":1781:1863  function fun4_1(uint _num) public returns(uint) {\r... */\n    tag_26:\n        /* \"Variable,Function/lec2.sol\":1823:1827  uint */\n      0x00\n        /* \"Variable,Function/lec2.sol\":1847:1855  fun4(55) */\n      tag_40\n        /* \"Variable,Function/lec2.sol\":1852:1854  55 */\n      0x37\n        /* \"Variable,Function/lec2.sol\":1847:1851  fun4 */\n      tag_41\n        /* \"Variable,Function/lec2.sol\":1847:1855  fun4(55) */\n      jump\t// in\n    tag_40:\n        /* \"Variable,Function/lec2.sol\":1840:1855  return fun4(55) */\n      swap1\n      pop\n        /* \"Variable,Function/lec2.sol\":1781:1863  function fun4_1(uint _num) public returns(uint) {\r... */\n      swap2\n      swap1\n      pop\n      jump\t// out\n        /* \"Variable,Function/lec2.sol\":1514:1595  function fun3() private returns(uint) {\r... */\n    tag_30:\n        /* \"Variable,Function/lec2.sol\":1546:1550  uint */\n      0x00\n        /* \"Variable,Function/lec2.sol\":1567:1568  3 */\n      0x03\n        /* \"Variable,Function/lec2.sol\":1563:1564  a */\n      0x00\n        /* \"Variable,Function/lec2.sol\":1563:1568  a = 3 */\n      dup2\n      swap1\n      sstore\n      pop\n        /* \"Variable,Function/lec2.sol\":1586:1587  a */\n      sload(0x00)\n        /* \"Variable,Function/lec2.sol\":1579:1587  return a */\n      swap1\n      pop\n        /* \"Variable,Function/lec2.sol\":1514:1595  function fun3() private returns(uint) {\r... */\n      swap1\n      jump\t// out\n        /* \"Variable,Function/lec2.sol\":1676:1773  function fun4(uint _num) internal returns(uint){\r... */\n    tag_41:\n        /* \"Variable,Function/lec2.sol\":1718:1722  uint */\n      0x00\n        /* \"Variable,Function/lec2.sol\":1742:1746  _num */\n      dup2\n        /* \"Variable,Function/lec2.sol\":1738:1739  a */\n      sload(0x00)\n        /* \"Variable,Function/lec2.sol\":1738:1746  a + _num */\n      tag_44\n      swap2\n      swap1\n      tag_45\n      jump\t// in\n    tag_44:\n        /* \"Variable,Function/lec2.sol\":1734:1735  a */\n      0x00\n        /* \"Variable,Function/lec2.sol\":1734:1746  a = a + _num */\n      dup2\n      swap1\n      sstore\n      pop\n        /* \"Variable,Function/lec2.sol\":1764:1765  a */\n      sload(0x00)\n        /* \"Variable,Function/lec2.sol\":1757:1765  return a */\n      swap1\n      pop\n        /* \"Variable,Function/lec2.sol\":1676:1773  function fun4(uint _num) internal returns(uint){\r... */\n      swap2\n      swap1\n      pop\n      jump\t// out\n        /* \"#utility.yul\":7:146   */\n    tag_47:\n        /* \"#utility.yul\":53:58   */\n      0x00\n        /* \"#utility.yul\":91:97   */\n      dup2\n        /* \"#utility.yul\":78:98   */\n      calldataload\n        /* \"#utility.yul\":69:98   */\n      swap1\n      pop\n        /* \"#utility.yul\":107:140   */\n      tag_49\n        /* \"#utility.yul\":134:139   */\n      dup2\n        /* \"#utility.yul\":107:140   */\n      tag_50\n      jump\t// in\n    tag_49:\n        /* \"#utility.yul\":7:146   */\n      swap3\n      swap2\n      pop\n      pop\n      jump\t// out\n        /* \"#utility.yul\":152:481   */\n    tag_20:\n        /* \"#utility.yul\":211:217   */\n      0x00\n        /* \"#utility.yul\":260:262   */\n      0x20\n        /* \"#utility.yul\":248:257   */\n      dup3\n        /* \"#utility.yul\":239:246   */\n      dup5\n        /* \"#utility.yul\":235:258   */\n      sub\n        /* \"#utility.yul\":231:263   */\n      slt\n        /* \"#utility.yul\":228:347   */\n      iszero\n      tag_52\n      jumpi\n        /* \"#utility.yul\":266:345   */\n      tag_53\n      tag_54\n      jump\t// in\n    tag_53:\n        /* \"#utility.yul\":228:347   */\n    tag_52:\n        /* \"#utility.yul\":386:387   */\n      0x00\n        /* \"#utility.yul\":411:464   */\n      tag_55\n        /* \"#utility.yul\":456:463   */\n      dup5\n        /* \"#utility.yul\":447:453   */\n      dup3\n        /* \"#utility.yul\":436:445   */\n      dup6\n        /* \"#utility.yul\":432:454   */\n      add\n        /* \"#utility.yul\":411:464   */\n      tag_47\n      jump\t// in\n    tag_55:\n        /* \"#utility.yul\":401:464   */\n      swap2\n      pop\n        /* \"#utility.yul\":357:474   */\n      pop\n        /* \"#utility.yul\":152:481   */\n      swap3\n      swap2\n      pop\n      pop\n      jump\t// out\n        /* \"#utility.yul\":487:634   */\n    tag_56:\n        /* \"#utility.yul\":582:627   */\n      tag_58\n        /* \"#utility.yul\":621:626   */\n      dup2\n        /* \"#utility.yul\":582:627   */\n      tag_59\n      jump\t// in\n    tag_58:\n        /* \"#utility.yul\":577:580   */\n      dup3\n        /* \"#utility.yul\":570:628   */\n      mstore\n        /* \"#utility.yul\":487:634   */\n      pop\n      pop\n      jump\t// out\n        /* \"#utility.yul\":640:758   */\n    tag_60:\n        /* \"#utility.yul\":727:751   */\n      tag_62\n        /* \"#utility.yul\":745:750   */\n      dup2\n        /* \"#utility.yul\":727:751   */\n      tag_63\n      jump\t// in\n    tag_62:\n        /* \"#utility.yul\":722:725   */\n      dup3\n        /* \"#utility.yul\":715:752   */\n      mstore\n        /* \"#utility.yul\":640:758   */\n      pop\n      pop\n      jump\t// out\n        /* \"#utility.yul\":764:1002   */\n    tag_35:\n        /* \"#utility.yul\":865:869   */\n      0x00\n        /* \"#utility.yul\":903:905   */\n      0x20\n        /* \"#utility.yul\":892:901   */\n      dup3\n        /* \"#utility.yul\":888:906   */\n      add\n        /* \"#utility.yul\":880:906   */\n      swap1\n      pop\n        /* \"#utility.yul\":916:995   */\n      tag_65\n        /* \"#utility.yul\":992:993   */\n      0x00\n        /* \"#utility.yul\":981:990   */\n      dup4\n        /* \"#utility.yul\":977:994   */\n      add\n        /* \"#utility.yul\":968:974   */\n      dup5\n        /* \"#utility.yul\":916:995   */\n      tag_56\n      jump\t// in\n    tag_65:\n        /* \"#utility.yul\":764:1002   */\n      swap3\n      swap2\n      pop\n      pop\n      jump\t// out\n        /* \"#utility.yul\":1008:1230   */\n    tag_12:\n        /* \"#utility.yul\":1101:1105   */\n      0x00\n        /* \"#utility.yul\":1139:1141   */\n      0x20\n        /* \"#utility.yul\":1128:1137   */\n      dup3\n        /* \"#utility.yul\":1124:1142   */\n      add\n        /* \"#utility.yul\":1116:1142   */\n      swap1\n      pop\n        /* \"#utility.yul\":1152:1223   */\n      tag_67\n        /* \"#utility.yul\":1220:1221   */\n      0x00\n        /* \"#utility.yul\":1209:1218   */\n      dup4\n        /* \"#utility.yul\":1205:1222   */\n      add\n        /* \"#utility.yul\":1196:1202   */\n      dup5\n        /* \"#utility.yul\":1152:1223   */\n      tag_60\n      jump\t// in\n    tag_67:\n        /* \"#utility.yul\":1008:1230   */\n      swap3\n      swap2\n      pop\n      pop\n      jump\t// out\n        /* \"#utility.yul\":1317:1622   */\n    tag_45:\n        /* \"#utility.yul\":1357:1360   */\n      0x00\n        /* \"#utility.yul\":1376:1396   */\n      tag_71\n        /* \"#utility.yul\":1394:1395   */\n      dup3\n        /* \"#utility.yul\":1376:1396   */\n      tag_63\n      jump\t// in\n    tag_71:\n        /* \"#utility.yul\":1371:1396   */\n      swap2\n      pop\n        /* \"#utility.yul\":1410:1430   */\n      tag_72\n        /* \"#utility.yul\":1428:1429   */\n      dup4\n        /* \"#utility.yul\":1410:1430   */\n      tag_63\n      jump\t// in\n    tag_72:\n        /* \"#utility.yul\":1405:1430   */\n      swap3\n      pop\n        /* \"#utility.yul\":1564:1565   */\n      dup3\n        /* \"#utility.yul\":1496:1562   */\n      0xffffffffffffffffffffffffffffffffffffffffffffffffffffffffffffffff\n        /* \"#utility.yul\":1492:1566   */\n      sub\n        /* \"#utility.yul\":1489:1490   */\n      dup3\n        /* \"#utility.yul\":1486:1567   */\n      gt\n        /* \"#utility.yul\":1483:1590   */\n      iszero\n      tag_73\n      jumpi\n        /* \"#utility.yul\":1570:1588   */\n      tag_74\n      tag_75\n      jump\t// in\n    tag_74:\n        /* \"#utility.yul\":1483:1590   */\n    tag_73:\n        /* \"#utility.yul\":1614:1615   */\n      dup3\n        /* \"#utility.yul\":1611:1612   */\n      dup3\n        /* \"#utility.yul\":1607:1616   */\n      add\n        /* \"#utility.yul\":1600:1616   */\n      swap1\n      pop\n        /* \"#utility.yul\":1317:1622   */\n      swap3\n      swap2\n      pop\n      pop\n      jump\t// out\n        /* \"#utility.yul\":1628:1705   */\n    tag_63:\n        /* \"#utility.yul\":1665:1672   */\n      0x00\n        /* \"#utility.yul\":1694:1699   */\n      dup2\n        /* \"#utility.yul\":1683:1699   */\n      swap1\n      pop\n        /* \"#utility.yul\":1628:1705   */\n      swap2\n      swap1\n      pop\n      jump\t// out\n        /* \"#utility.yul\":1711:1832   */\n    tag_59:\n        /* \"#utility.yul\":1769:1778   */\n      0x00\n        /* \"#utility.yul\":1802:1826   */\n      tag_78\n        /* \"#utility.yul\":1820:1825   */\n      dup3\n        /* \"#utility.yul\":1802:1826   */\n      tag_63\n      jump\t// in\n    tag_78:\n        /* \"#utility.yul\":1789:1826   */\n      swap1\n      pop\n        /* \"#utility.yul\":1711:1832   */\n      swap2\n      swap1\n      pop\n      jump\t// out\n        /* \"#utility.yul\":1838:2018   */\n    tag_75:\n        /* \"#utility.yul\":1886:1963   */\n      0x4e487b7100000000000000000000000000000000000000000000000000000000\n        /* \"#utility.yul\":1883:1884   */\n      0x00\n        /* \"#utility.yul\":1876:1964   */\n      mstore\n        /* \"#utility.yul\":1983:1987   */\n      0x11\n        /* \"#utility.yul\":1980:1981   */\n      0x04\n        /* \"#utility.yul\":1973:1988   */\n      mstore\n        /* \"#utility.yul\":2007:2011   */\n      0x24\n        /* \"#utility.yul\":2004:2005   */\n      0x00\n        /* \"#utility.yul\":1997:2012   */\n      revert\n        /* \"#utility.yul\":2147:2264   */\n    tag_54:\n        /* \"#utility.yul\":2256:2257   */\n      0x00\n        /* \"#utility.yul\":2253:2254   */\n      dup1\n        /* \"#utility.yul\":2246:2258   */\n      revert\n        /* \"#utility.yul\":2270:2392   */\n    tag_50:\n        /* \"#utility.yul\":2343:2367   */\n      tag_84\n        /* \"#utility.yul\":2361:2366   */\n      dup2\n        /* \"#utility.yul\":2343:2367   */\n      tag_63\n      jump\t// in\n    tag_84:\n        /* \"#utility.yul\":2336:2341   */\n      dup2\n        /* \"#utility.yul\":2333:2368   */\n      eq\n        /* \"#utility.yul\":2323:2386   */\n      tag_85\n      jumpi\n        /* \"#utility.yul\":2382:2383   */\n      0x00\n        /* \"#utility.yul\":2379:2380   */\n      dup1\n        /* \"#utility.yul\":2372:2384   */\n      revert\n        /* \"#utility.yul\":2323:2386   */\n    tag_85:\n        /* \"#utility.yul\":2270:2392   */\n      pop\n      jump\t// out\n\n    auxdata: 0xa2646970667358221220202764b7405cf04496822d72befca7eb09133252a0db3ce49e2e17bcb4504e0564736f6c63430008070033\n}\n",
				"bytecode": {
					"linkReferences": {},
					"object": "6080604052600160005534801561001557600080fd5b50610368806100256000396000f3fe608060405234801561001057600080fd5b50600436106100625760003560e01c8063054c8e09146100675780630dbe671f14610085578063446a45b7146100a35780637a927e8f146100ad578063904a47d8146100c9578063e26e3482146100d3575b600080fd5b61006f610103565b60405161007c919061025a565b60405180910390f35b61008d610112565b60405161009a919061025a565b60405180910390f35b6100ab610118565b005b6100c760048036038101906100c291906101f4565b610122565b005b6100d161012c565b005b6100ed60048036038101906100e891906101f4565b61019a565b6040516100fa919061025a565b60405180910390f35b600061010d6101ad565b905090565b60005481565b6005600081905550565b8060008190555050565b3073ffffffffffffffffffffffffffffffffffffffff16637a927e8f60056040518263ffffffff1660e01b8152600401610166919061023f565b600060405180830381600087803b15801561018057600080fd5b505af1158015610194573d6000803e3d6000fd5b50505050565b60006101a660376101bf565b9050919050565b60006003600081905550600054905090565b6000816000546101cf9190610275565b6000819055506000549050919050565b6000813590506101ee8161031b565b92915050565b60006020828403121561020a57610209610316565b5b6000610218848285016101df565b91505092915050565b61022a816102d5565b82525050565b610239816102cb565b82525050565b60006020820190506102546000830184610221565b92915050565b600060208201905061026f6000830184610230565b92915050565b6000610280826102cb565b915061028b836102cb565b9250827fffffffffffffffffffffffffffffffffffffffffffffffffffffffffffffffff038211156102c0576102bf6102e7565b5b828201905092915050565b6000819050919050565b60006102e0826102cb565b9050919050565b7f4e487b7100000000000000000000000000000000000000000000000000000000600052601160045260246000fd5b600080fd5b610324816102cb565b811461032f57600080fd5b5056fea2646970667358221220202764b7405cf04496822d72befca7eb09133252a0db3ce49e2e17bcb4504e0564736f6c63430008070033",
					"opcodes": "PUSH1 0x80 PUSH1 0x40 MSTORE PUSH1 0x1 PUSH1 0x0 SSTORE CALLVALUE DUP1 ISZERO PUSH2 0x15 JUMPI PUSH1 0x0 DUP1 REVERT JUMPDEST POP PUSH2 0x368 DUP1 PUSH2 0x25 PUSH1 0x0 CODECOPY PUSH1 0x0 RETURN INVALID PUSH1 0x80 PUSH1 0x40 MSTORE CALLVALUE DUP1 ISZERO PUSH2 0x10 JUMPI PUSH1 0x0 DUP1 REVERT JUMPDEST POP PUSH1 0x4 CALLDATASIZE LT PUSH2 0x62 JUMPI PUSH1 0x0 CALLDATALOAD PUSH1 0xE0 SHR DUP1 PUSH4 0x54C8E09 EQ PUSH2 0x67 JUMPI DUP1 PUSH4 0xDBE671F EQ PUSH2 0x85 JUMPI DUP1 PUSH4 0x446A45B7 EQ PUSH2 0xA3 JUMPI DUP1 PUSH4 0x7A927E8F EQ PUSH2 0xAD JUMPI DUP1 PUSH4 0x904A47D8 EQ PUSH2 0xC9 JUMPI DUP1 PUSH4 0xE26E3482 EQ PUSH2 0xD3 JUMPI JUMPDEST PUSH1 0x0 DUP1 REVERT JUMPDEST PUSH2 0x6F PUSH2 0x103 JUMP JUMPDEST PUSH1 0x40 MLOAD PUSH2 0x7C SWAP2 SWAP1 PUSH2 0x25A JUMP JUMPDEST PUSH1 0x40 MLOAD DUP1 SWAP2 SUB SWAP1 RETURN JUMPDEST PUSH2 0x8D PUSH2 0x112 JUMP JUMPDEST PUSH1 0x40 MLOAD PUSH2 0x9A SWAP2 SWAP1 PUSH2 0x25A JUMP JUMPDEST PUSH1 0x40 MLOAD DUP1 SWAP2 SUB SWAP1 RETURN JUMPDEST PUSH2 0xAB PUSH2 0x118 JUMP JUMPDEST STOP JUMPDEST PUSH2 0xC7 PUSH1 0x4 DUP1 CALLDATASIZE SUB DUP2 ADD SWAP1 PUSH2 0xC2 SWAP2 SWAP1 PUSH2 0x1F4 JUMP JUMPDEST PUSH2 0x122 JUMP JUMPDEST STOP JUMPDEST PUSH2 0xD1 PUSH2 0x12C JUMP JUMPDEST STOP JUMPDEST PUSH2 0xED PUSH1 0x4 DUP1 CALLDATASIZE SUB DUP2 ADD SWAP1 PUSH2 0xE8 SWAP2 SWAP1 PUSH2 0x1F4 JUMP JUMPDEST PUSH2 0x19A JUMP JUMPDEST PUSH1 0x40 MLOAD PUSH2 0xFA SWAP2 SWAP1 PUSH2 0x25A JUMP JUMPDEST PUSH1 0x40 MLOAD DUP1 SWAP2 SUB SWAP1 RETURN JUMPDEST PUSH1 0x0 PUSH2 0x10D PUSH2 0x1AD JUMP JUMPDEST SWAP1 POP SWAP1 JUMP JUMPDEST PUSH1 0x0 SLOAD DUP2 JUMP JUMPDEST PUSH1 0x5 PUSH1 0x0 DUP2 SWAP1 SSTORE POP JUMP JUMPDEST DUP1 PUSH1 0x0 DUP2 SWAP1 SSTORE POP POP JUMP JUMPDEST ADDRESS PUSH20 0xFFFFFFFFFFFFFFFFFFFFFFFFFFFFFFFFFFFFFFFF AND PUSH4 0x7A927E8F PUSH1 0x5 PUSH1 0x40 MLOAD DUP3 PUSH4 0xFFFFFFFF AND PUSH1 0xE0 SHL DUP2 MSTORE PUSH1 0x4 ADD PUSH2 0x166 SWAP2 SWAP1 PUSH2 0x23F JUMP JUMPDEST PUSH1 0x0 PUSH1 0x40 MLOAD DUP1 DUP4 SUB DUP2 PUSH1 0x0 DUP8 DUP1 EXTCODESIZE ISZERO DUP1 ISZERO PUSH2 0x180 JUMPI PUSH1 0x0 DUP1 REVERT JUMPDEST POP GAS CALL ISZERO DUP1 ISZERO PUSH2 0x194 JUMPI RETURNDATASIZE PUSH1 0x0 DUP1 RETURNDATACOPY RETURNDATASIZE PUSH1 0x0 REVERT JUMPDEST POP POP POP POP JUMP JUMPDEST PUSH1 0x0 PUSH2 0x1A6 PUSH1 0x37 PUSH2 0x1BF JUMP JUMPDEST SWAP1 POP SWAP2 SWAP1 POP JUMP JUMPDEST PUSH1 0x0 PUSH1 0x3 PUSH1 0x0 DUP2 SWAP1 SSTORE POP PUSH1 0x0 SLOAD SWAP1 POP SWAP1 JUMP JUMPDEST PUSH1 0x0 DUP2 PUSH1 0x0 SLOAD PUSH2 0x1CF SWAP2 SWAP1 PUSH2 0x275 JUMP JUMPDEST PUSH1 0x0 DUP2 SWAP1 SSTORE POP PUSH1 0x0 SLOAD SWAP1 POP SWAP2 SWAP1 POP JUMP JUMPDEST PUSH1 0x0 DUP2 CALLDATALOAD SWAP1 POP PUSH2 0x1EE DUP2 PUSH2 0x31B JUMP JUMPDEST SWAP3 SWAP2 POP POP JUMP JUMPDEST PUSH1 0x0 PUSH1 0x20 DUP3 DUP5 SUB SLT ISZERO PUSH2 0x20A JUMPI PUSH2 0x209 PUSH2 0x316 JUMP JUMPDEST JUMPDEST PUSH1 0x0 PUSH2 0x218 DUP5 DUP3 DUP6 ADD PUSH2 0x1DF JUMP JUMPDEST SWAP2 POP POP SWAP3 SWAP2 POP POP JUMP JUMPDEST PUSH2 0x22A DUP2 PUSH2 0x2D5 JUMP JUMPDEST DUP3 MSTORE POP POP JUMP JUMPDEST PUSH2 0x239 DUP2 PUSH2 0x2CB JUMP JUMPDEST DUP3 MSTORE POP POP JUMP JUMPDEST PUSH1 0x0 PUSH1 0x20 DUP3 ADD SWAP1 POP PUSH2 0x254 PUSH1 0x0 DUP4 ADD DUP5 PUSH2 0x221 JUMP JUMPDEST SWAP3 SWAP2 POP POP JUMP JUMPDEST PUSH1 0x0 PUSH1 0x20 DUP3 ADD SWAP1 POP PUSH2 0x26F PUSH1 0x0 DUP4 ADD DUP5 PUSH2 0x230 JUMP JUMPDEST SWAP3 SWAP2 POP POP JUMP JUMPDEST PUSH1 0x0 PUSH2 0x280 DUP3 PUSH2 0x2CB JUMP JUMPDEST SWAP2 POP PUSH2 0x28B DUP4 PUSH2 0x2CB JUMP JUMPDEST SWAP3 POP DUP3 PUSH32 0xFFFFFFFFFFFFFFFFFFFFFFFFFFFFFFFFFFFFFFFFFFFFFFFFFFFFFFFFFFFFFFFF SUB DUP3 GT ISZERO PUSH2 0x2C0 JUMPI PUSH2 0x2BF PUSH2 0x2E7 JUMP JUMPDEST JUMPDEST DUP3 DUP3 ADD SWAP1 POP SWAP3 SWAP2 POP POP JUMP JUMPDEST PUSH1 0x0 DUP2 SWAP1 POP SWAP2 SWAP1 POP JUMP JUMPDEST PUSH1 0x0 PUSH2 0x2E0 DUP3 PUSH2 0x2CB JUMP JUMPDEST SWAP1 POP SWAP2 SWAP1 POP JUMP JUMPDEST PUSH32 0x4E487B7100000000000000000000000000000000000000000000000000000000 PUSH1 0x0 MSTORE PUSH1 0x11 PUSH1 0x4 MSTORE PUSH1 0x24 PUSH1 0x0 REVERT JUMPDEST PUSH1 0x0 DUP1 REVERT JUMPDEST PUSH2 0x324 DUP2 PUSH2 0x2CB JUMP JUMPDEST DUP2 EQ PUSH2 0x32F JUMPI PUSH1 0x0 DUP1 REVERT JUMPDEST POP JUMP INVALID LOG2 PUSH5 0x6970667358 0x22 SLT KECCAK256 KECCAK256 0x27 PUSH5 0xB7405CF044 SWAP7 DUP3 0x2D PUSH19 0xBEFCA7EB09133252A0DB3CE49E2E17BCB4504E SDIV PUSH5 0x736F6C6343 STOP ADDMOD SMOD STOP CALLER "
				},
				"gasEstimates": {
					"creation": {
						"codeDepositCost": "174400",
						"executionCost": "22326",
						"totalCost": "196726"
					},
					"external": {
						"a()": "2429",
						"fun1()": "22280",
						"fun2(uint256)": "22564",
						"fun2_1()": "infinite",
						"fun3_1()": "24564",
						"fun4_1(uint256)": "infinite"
					},
					"internal": {
						"fun3()": "24237",
						"fun4(uint256)": "infinite"
					}
				},
				"methodIdentifiers": {
					"a()": "0dbe671f",
					"fun1()": "446a45b7",
					"fun2(uint256)": "7a927e8f",
					"fun2_1()": "904a47d8",
					"fun3_1()": "054c8e09",
					"fun4_1(uint256)": "e26e3482"
				}
			},
			"storageLayout": {
				"storage": [
					{
						"astId": 4,
						"contract": "Variable,Function/lec2.sol:lec2",
						"label": "a",
						"offset": 0,
						"slot": "0",
						"type": "t_uint256"
					}
				],
				"types": {
					"t_uint256": {
						"encoding": "inplace",
						"label": "uint256",
						"numberOfBytes": "32"
					}
				}
			},
			"userdoc": {
				"kind": "user",
				"methods": {},
				"version": 1
			}
		}
	}
}