{
	"send, transfer, call,/lec15.sol": {
		"safe": {
			"abi": [
				{
					"anonymous": false,
					"inputs": [
						{
							"indexed": false,
							"internalType": "string",
							"name": "_str",
							"type": "string"
						}
					],
					"name": "justFallback",
					"type": "event"
				},
				{
					"anonymous": false,
					"inputs": [
						{
							"indexed": false,
							"internalType": "address",
							"name": "_from",
							"type": "address"
						},
						{
							"indexed": false,
							"internalType": "uint256",
							"name": "_amount",
							"type": "uint256"
						}
					],
					"name": "received",
					"type": "event"
				},
				{
					"stateMutability": "nonpayable",
					"type": "fallback"
				},
				{
					"inputs": [],
					"name": "checkMybalance",
					"outputs": [
						{
							"internalType": "uint256",
							"name": "",
							"type": "uint256"
						}
					],
					"stateMutability": "view",
					"type": "function"
				},
				{
					"stateMutability": "payable",
					"type": "receive"
				}
			],
			"devdoc": {
				"kind": "dev",
				"methods": {},
				"version": 1
			},
			"evm": {
				"assembly": "    /* \"send, transfer, call,/lec15.sol\":764:1147  contract safe{\r... */\n  mstore(0x40, 0x80)\n  callvalue\n  dup1\n  iszero\n  tag_1\n  jumpi\n  0x00\n  dup1\n  revert\ntag_1:\n  pop\n  dataSize(sub_0)\n  dup1\n  dataOffset(sub_0)\n  0x00\n  codecopy\n  0x00\n  return\nstop\n\nsub_0: assembly {\n        /* \"send, transfer, call,/lec15.sol\":764:1147  contract safe{\r... */\n      mstore(0x40, 0x80)\n      jumpi(tag_1, lt(calldatasize, 0x04))\n      shr(0xe0, calldataload(0x00))\n      dup1\n      0x4d7a552a\n      eq\n      tag_3\n      jumpi\n      jump(tag_2)\n    tag_1:\n      jumpi(tag_2, calldatasize)\n        /* \"send, transfer, call,/lec15.sol\":996:1027  received(msg.sender, msg.value) */\n      0xf11e547d796cc64acdf758e7cee90439494fd886a19159454aa61e473fdbafef\n        /* \"send, transfer, call,/lec15.sol\":1005:1015  msg.sender */\n      caller\n        /* \"send, transfer, call,/lec15.sol\":1017:1026  msg.value */\n      callvalue\n        /* \"send, transfer, call,/lec15.sol\":996:1027  received(msg.sender, msg.value) */\n      mload(0x40)\n      tag_6\n      swap3\n      swap2\n      swap1\n      tag_7\n      jump\t// in\n    tag_6:\n      mload(0x40)\n      dup1\n      swap2\n      sub\n      swap1\n      log1\n        /* \"send, transfer, call,/lec15.sol\":764:1147  contract safe{\r... */\n      stop\n    tag_2:\n      callvalue\n      dup1\n      iszero\n      tag_8\n      jumpi\n      0x00\n      dup1\n      revert\n    tag_8:\n      pop\n        /* \"send, transfer, call,/lec15.sol\":913:940  justFallback(\"No function\") */\n      0x63936c72745972aa928092a01f002fdcd7735cd27e6d7fd81ab1c69453c0afd5\n      mload(0x40)\n      tag_11\n      swap1\n      tag_12\n      jump\t// in\n    tag_11:\n      mload(0x40)\n      dup1\n      swap2\n      sub\n      swap1\n      log1\n        /* \"send, transfer, call,/lec15.sol\":764:1147  contract safe{\r... */\n      stop\n        /* \"send, transfer, call,/lec15.sol\":1043:1140  function checkMybalance() public view returns(uint){\r... */\n    tag_3:\n      callvalue\n      dup1\n      iszero\n      tag_13\n      jumpi\n      0x00\n      dup1\n      revert\n    tag_13:\n      pop\n      tag_14\n      tag_15\n      jump\t// in\n    tag_14:\n      mload(0x40)\n      tag_16\n      swap2\n      swap1\n      tag_17\n      jump\t// in\n    tag_16:\n      mload(0x40)\n      dup1\n      swap2\n      sub\n      swap1\n      return\n    tag_15:\n        /* \"send, transfer, call,/lec15.sol\":1089:1093  uint */\n      0x00\n        /* \"send, transfer, call,/lec15.sol\":1111:1132  address(this).balance */\n      selfbalance\n        /* \"send, transfer, call,/lec15.sol\":1104:1132  return address(this).balance */\n      swap1\n      pop\n        /* \"send, transfer, call,/lec15.sol\":1043:1140  function checkMybalance() public view returns(uint){\r... */\n      swap1\n      jump\t// out\n        /* \"#utility.yul\":7:125   */\n    tag_20:\n        /* \"#utility.yul\":94:118   */\n      tag_22\n        /* \"#utility.yul\":112:117   */\n      dup2\n        /* \"#utility.yul\":94:118   */\n      tag_23\n      jump\t// in\n    tag_22:\n        /* \"#utility.yul\":89:92   */\n      dup3\n        /* \"#utility.yul\":82:119   */\n      mstore\n        /* \"#utility.yul\":7:125   */\n      pop\n      pop\n      jump\t// out\n        /* \"#utility.yul\":131:497   */\n    tag_24:\n        /* \"#utility.yul\":273:276   */\n      0x00\n        /* \"#utility.yul\":294:361   */\n      tag_26\n        /* \"#utility.yul\":358:360   */\n      0x0b\n        /* \"#utility.yul\":353:356   */\n      dup4\n        /* \"#utility.yul\":294:361   */\n      tag_27\n      jump\t// in\n    tag_26:\n        /* \"#utility.yul\":287:361   */\n      swap2\n      pop\n        /* \"#utility.yul\":370:463   */\n      tag_28\n        /* \"#utility.yul\":459:462   */\n      dup3\n        /* \"#utility.yul\":370:463   */\n      tag_29\n      jump\t// in\n    tag_28:\n        /* \"#utility.yul\":488:490   */\n      0x20\n        /* \"#utility.yul\":483:486   */\n      dup3\n        /* \"#utility.yul\":479:491   */\n      add\n        /* \"#utility.yul\":472:491   */\n      swap1\n      pop\n        /* \"#utility.yul\":131:497   */\n      swap2\n      swap1\n      pop\n      jump\t// out\n        /* \"#utility.yul\":503:621   */\n    tag_30:\n        /* \"#utility.yul\":590:614   */\n      tag_32\n        /* \"#utility.yul\":608:613   */\n      dup2\n        /* \"#utility.yul\":590:614   */\n      tag_33\n      jump\t// in\n    tag_32:\n        /* \"#utility.yul\":585:588   */\n      dup3\n        /* \"#utility.yul\":578:615   */\n      mstore\n        /* \"#utility.yul\":503:621   */\n      pop\n      pop\n      jump\t// out\n        /* \"#utility.yul\":627:959   */\n    tag_7:\n        /* \"#utility.yul\":748:752   */\n      0x00\n        /* \"#utility.yul\":786:788   */\n      0x40\n        /* \"#utility.yul\":775:784   */\n      dup3\n        /* \"#utility.yul\":771:789   */\n      add\n        /* \"#utility.yul\":763:789   */\n      swap1\n      pop\n        /* \"#utility.yul\":799:870   */\n      tag_35\n        /* \"#utility.yul\":867:868   */\n      0x00\n        /* \"#utility.yul\":856:865   */\n      dup4\n        /* \"#utility.yul\":852:869   */\n      add\n        /* \"#utility.yul\":843:849   */\n      dup6\n        /* \"#utility.yul\":799:870   */\n      tag_20\n      jump\t// in\n    tag_35:\n        /* \"#utility.yul\":880:952   */\n      tag_36\n        /* \"#utility.yul\":948:950   */\n      0x20\n        /* \"#utility.yul\":937:946   */\n      dup4\n        /* \"#utility.yul\":933:951   */\n      add\n        /* \"#utility.yul\":924:930   */\n      dup5\n        /* \"#utility.yul\":880:952   */\n      tag_30\n      jump\t// in\n    tag_36:\n        /* \"#utility.yul\":627:959   */\n      swap4\n      swap3\n      pop\n      pop\n      pop\n      jump\t// out\n        /* \"#utility.yul\":965:1384   */\n    tag_12:\n        /* \"#utility.yul\":1131:1135   */\n      0x00\n        /* \"#utility.yul\":1169:1171   */\n      0x20\n        /* \"#utility.yul\":1158:1167   */\n      dup3\n        /* \"#utility.yul\":1154:1172   */\n      add\n        /* \"#utility.yul\":1146:1172   */\n      swap1\n      pop\n        /* \"#utility.yul\":1218:1227   */\n      dup2\n        /* \"#utility.yul\":1212:1216   */\n      dup2\n        /* \"#utility.yul\":1208:1228   */\n      sub\n        /* \"#utility.yul\":1204:1205   */\n      0x00\n        /* \"#utility.yul\":1193:1202   */\n      dup4\n        /* \"#utility.yul\":1189:1206   */\n      add\n        /* \"#utility.yul\":1182:1229   */\n      mstore\n        /* \"#utility.yul\":1246:1377   */\n      tag_38\n        /* \"#utility.yul\":1372:1376   */\n      dup2\n        /* \"#utility.yul\":1246:1377   */\n      tag_24\n      jump\t// in\n    tag_38:\n        /* \"#utility.yul\":1238:1377   */\n      swap1\n      pop\n        /* \"#utility.yul\":965:1384   */\n      swap2\n      swap1\n      pop\n      jump\t// out\n        /* \"#utility.yul\":1390:1612   */\n    tag_17:\n        /* \"#utility.yul\":1483:1487   */\n      0x00\n        /* \"#utility.yul\":1521:1523   */\n      0x20\n        /* \"#utility.yul\":1510:1519   */\n      dup3\n        /* \"#utility.yul\":1506:1524   */\n      add\n        /* \"#utility.yul\":1498:1524   */\n      swap1\n      pop\n        /* \"#utility.yul\":1534:1605   */\n      tag_40\n        /* \"#utility.yul\":1602:1603   */\n      0x00\n        /* \"#utility.yul\":1591:1600   */\n      dup4\n        /* \"#utility.yul\":1587:1604   */\n      add\n        /* \"#utility.yul\":1578:1584   */\n      dup5\n        /* \"#utility.yul\":1534:1605   */\n      tag_30\n      jump\t// in\n    tag_40:\n        /* \"#utility.yul\":1390:1612   */\n      swap3\n      swap2\n      pop\n      pop\n      jump\t// out\n        /* \"#utility.yul\":1618:1787   */\n    tag_27:\n        /* \"#utility.yul\":1702:1713   */\n      0x00\n        /* \"#utility.yul\":1736:1742   */\n      dup3\n        /* \"#utility.yul\":1731:1734   */\n      dup3\n        /* \"#utility.yul\":1724:1743   */\n      mstore\n        /* \"#utility.yul\":1776:1780   */\n      0x20\n        /* \"#utility.yul\":1771:1774   */\n      dup3\n        /* \"#utility.yul\":1767:1781   */\n      add\n        /* \"#utility.yul\":1752:1781   */\n      swap1\n      pop\n        /* \"#utility.yul\":1618:1787   */\n      swap3\n      swap2\n      pop\n      pop\n      jump\t// out\n        /* \"#utility.yul\":1793:1889   */\n    tag_23:\n        /* \"#utility.yul\":1830:1837   */\n      0x00\n        /* \"#utility.yul\":1859:1883   */\n      tag_43\n        /* \"#utility.yul\":1877:1882   */\n      dup3\n        /* \"#utility.yul\":1859:1883   */\n      tag_44\n      jump\t// in\n    tag_43:\n        /* \"#utility.yul\":1848:1883   */\n      swap1\n      pop\n        /* \"#utility.yul\":1793:1889   */\n      swap2\n      swap1\n      pop\n      jump\t// out\n        /* \"#utility.yul\":1895:2021   */\n    tag_44:\n        /* \"#utility.yul\":1932:1939   */\n      0x00\n        /* \"#utility.yul\":1972:2014   */\n      0xffffffffffffffffffffffffffffffffffffffff\n        /* \"#utility.yul\":1965:1970   */\n      dup3\n        /* \"#utility.yul\":1961:2015   */\n      and\n        /* \"#utility.yul\":1950:2015   */\n      swap1\n      pop\n        /* \"#utility.yul\":1895:2021   */\n      swap2\n      swap1\n      pop\n      jump\t// out\n        /* \"#utility.yul\":2027:2104   */\n    tag_33:\n        /* \"#utility.yul\":2064:2071   */\n      0x00\n        /* \"#utility.yul\":2093:2098   */\n      dup2\n        /* \"#utility.yul\":2082:2098   */\n      swap1\n      pop\n        /* \"#utility.yul\":2027:2104   */\n      swap2\n      swap1\n      pop\n      jump\t// out\n        /* \"#utility.yul\":2110:2271   */\n    tag_29:\n        /* \"#utility.yul\":2250:2263   */\n      0x4e6f2066756e6374696f6e000000000000000000000000000000000000000000\n        /* \"#utility.yul\":2246:2247   */\n      0x00\n        /* \"#utility.yul\":2238:2244   */\n      dup3\n        /* \"#utility.yul\":2234:2248   */\n      add\n        /* \"#utility.yul\":2227:2264   */\n      mstore\n        /* \"#utility.yul\":2110:2271   */\n      pop\n      jump\t// out\n\n    auxdata: 0xa26469706673582212206307ee1250ce6163b38f85baa02ce22d470cdd5e72b6e3fc8bd62590453993ae64736f6c63430008070033\n}\n",
				"bytecode": {
					"linkReferences": {},
					"object": "608060405234801561001057600080fd5b5061022a806100206000396000f3fe6080604052600436106100225760003560e01c80634d7a552a146100a657610062565b36610062577ff11e547d796cc64acdf758e7cee90439494fd886a19159454aa61e473fdbafef333460405161005892919061011a565b60405180910390a1005b34801561006e57600080fd5b507f63936c72745972aa928092a01f002fdcd7735cd27e6d7fd81ab1c69453c0afd560405161009c90610143565b60405180910390a1005b3480156100b257600080fd5b506100bb6100d1565b6040516100c89190610163565b60405180910390f35b600047905090565b6100e28161018f565b82525050565b60006100f5600b8361017e565b9150610100826101cb565b602082019050919050565b610114816101c1565b82525050565b600060408201905061012f60008301856100d9565b61013c602083018461010b565b9392505050565b6000602082019050818103600083015261015c816100e8565b9050919050565b6000602082019050610178600083018461010b565b92915050565b600082825260208201905092915050565b600061019a826101a1565b9050919050565b600073ffffffffffffffffffffffffffffffffffffffff82169050919050565b6000819050919050565b7f4e6f2066756e6374696f6e00000000000000000000000000000000000000000060008201525056fea26469706673582212206307ee1250ce6163b38f85baa02ce22d470cdd5e72b6e3fc8bd62590453993ae64736f6c63430008070033",
					"opcodes": "PUSH1 0x80 PUSH1 0x40 MSTORE CALLVALUE DUP1 ISZERO PUSH2 0x10 JUMPI PUSH1 0x0 DUP1 REVERT JUMPDEST POP PUSH2 0x22A DUP1 PUSH2 0x20 PUSH1 0x0 CODECOPY PUSH1 0x0 RETURN INVALID PUSH1 0x80 PUSH1 0x40 MSTORE PUSH1 0x4 CALLDATASIZE LT PUSH2 0x22 JUMPI PUSH1 0x0 CALLDATALOAD PUSH1 0xE0 SHR DUP1 PUSH4 0x4D7A552A EQ PUSH2 0xA6 JUMPI PUSH2 0x62 JUMP JUMPDEST CALLDATASIZE PUSH2 0x62 JUMPI PUSH32 0xF11E547D796CC64ACDF758E7CEE90439494FD886A19159454AA61E473FDBAFEF CALLER CALLVALUE PUSH1 0x40 MLOAD PUSH2 0x58 SWAP3 SWAP2 SWAP1 PUSH2 0x11A JUMP JUMPDEST PUSH1 0x40 MLOAD DUP1 SWAP2 SUB SWAP1 LOG1 STOP JUMPDEST CALLVALUE DUP1 ISZERO PUSH2 0x6E JUMPI PUSH1 0x0 DUP1 REVERT JUMPDEST POP PUSH32 0x63936C72745972AA928092A01F002FDCD7735CD27E6D7FD81AB1C69453C0AFD5 PUSH1 0x40 MLOAD PUSH2 0x9C SWAP1 PUSH2 0x143 JUMP JUMPDEST PUSH1 0x40 MLOAD DUP1 SWAP2 SUB SWAP1 LOG1 STOP JUMPDEST CALLVALUE DUP1 ISZERO PUSH2 0xB2 JUMPI PUSH1 0x0 DUP1 REVERT JUMPDEST POP PUSH2 0xBB PUSH2 0xD1 JUMP JUMPDEST PUSH1 0x40 MLOAD PUSH2 0xC8 SWAP2 SWAP1 PUSH2 0x163 JUMP JUMPDEST PUSH1 0x40 MLOAD DUP1 SWAP2 SUB SWAP1 RETURN JUMPDEST PUSH1 0x0 SELFBALANCE SWAP1 POP SWAP1 JUMP JUMPDEST PUSH2 0xE2 DUP2 PUSH2 0x18F JUMP JUMPDEST DUP3 MSTORE POP POP JUMP JUMPDEST PUSH1 0x0 PUSH2 0xF5 PUSH1 0xB DUP4 PUSH2 0x17E JUMP JUMPDEST SWAP2 POP PUSH2 0x100 DUP3 PUSH2 0x1CB JUMP JUMPDEST PUSH1 0x20 DUP3 ADD SWAP1 POP SWAP2 SWAP1 POP JUMP JUMPDEST PUSH2 0x114 DUP2 PUSH2 0x1C1 JUMP JUMPDEST DUP3 MSTORE POP POP JUMP JUMPDEST PUSH1 0x0 PUSH1 0x40 DUP3 ADD SWAP1 POP PUSH2 0x12F PUSH1 0x0 DUP4 ADD DUP6 PUSH2 0xD9 JUMP JUMPDEST PUSH2 0x13C PUSH1 0x20 DUP4 ADD DUP5 PUSH2 0x10B JUMP JUMPDEST SWAP4 SWAP3 POP POP POP JUMP JUMPDEST PUSH1 0x0 PUSH1 0x20 DUP3 ADD SWAP1 POP DUP2 DUP2 SUB PUSH1 0x0 DUP4 ADD MSTORE PUSH2 0x15C DUP2 PUSH2 0xE8 JUMP JUMPDEST SWAP1 POP SWAP2 SWAP1 POP JUMP JUMPDEST PUSH1 0x0 PUSH1 0x20 DUP3 ADD SWAP1 POP PUSH2 0x178 PUSH1 0x0 DUP4 ADD DUP5 PUSH2 0x10B JUMP JUMPDEST SWAP3 SWAP2 POP POP JUMP JUMPDEST PUSH1 0x0 DUP3 DUP3 MSTORE PUSH1 0x20 DUP3 ADD SWAP1 POP SWAP3 SWAP2 POP POP JUMP JUMPDEST PUSH1 0x0 PUSH2 0x19A DUP3 PUSH2 0x1A1 JUMP JUMPDEST SWAP1 POP SWAP2 SWAP1 POP JUMP JUMPDEST PUSH1 0x0 PUSH20 0xFFFFFFFFFFFFFFFFFFFFFFFFFFFFFFFFFFFFFFFF DUP3 AND SWAP1 POP SWAP2 SWAP1 POP JUMP JUMPDEST PUSH1 0x0 DUP2 SWAP1 POP SWAP2 SWAP1 POP JUMP JUMPDEST PUSH32 0x4E6F2066756E6374696F6E000000000000000000000000000000000000000000 PUSH1 0x0 DUP3 ADD MSTORE POP JUMP INVALID LOG2 PUSH5 0x6970667358 0x22 SLT KECCAK256 PUSH4 0x7EE1250 0xCE PUSH2 0x63B3 DUP16 DUP6 0xBA LOG0 0x2C 0xE2 0x2D SELFBALANCE 0xC 0xDD 0x5E PUSH19 0xB6E3FC8BD62590453993AE64736F6C63430008 SMOD STOP CALLER "
				},
				"gasEstimates": {
					"creation": {
						"codeDepositCost": "110800",
						"executionCost": "159",
						"totalCost": "110959"
					},
					"external": {
						"": "1911",
						"checkMybalance()": "317"
					}
				},
				"methodIdentifiers": {
					"checkMybalance()": "4d7a552a"
				}
			},
			"storageLayout": {
				"storage": [],
				"types": null
			},
			"userdoc": {
				"kind": "user",
				"methods": {},
				"version": 1
			}
		}
	}
}