{
	"send, transfer, call,/lec15.sol": {
		"lec15": {
			"abi": [
				{
					"inputs": [
						{
							"internalType": "address payable",
							"name": "_to",
							"type": "address"
						}
					],
					"name": "callNow",
					"outputs": [],
					"stateMutability": "payable",
					"type": "function"
				},
				{
					"inputs": [
						{
							"internalType": "address",
							"name": "_safeAddress",
							"type": "address"
						}
					],
					"name": "callWrong",
					"outputs": [
						{
							"internalType": "bool",
							"name": "",
							"type": "bool"
						},
						{
							"internalType": "bytes",
							"name": "",
							"type": "bytes"
						}
					],
					"stateMutability": "nonpayable",
					"type": "function"
				},
				{
					"inputs": [
						{
							"internalType": "address",
							"name": "_safeAddress",
							"type": "address"
						}
					],
					"name": "callWrong2",
					"outputs": [
						{
							"internalType": "bool",
							"name": "",
							"type": "bool"
						},
						{
							"internalType": "bytes",
							"name": "",
							"type": "bytes"
						}
					],
					"stateMutability": "payable",
					"type": "function"
				},
				{
					"inputs": [
						{
							"internalType": "address payable",
							"name": "_to",
							"type": "address"
						}
					],
					"name": "sendNow",
					"outputs": [],
					"stateMutability": "payable",
					"type": "function"
				},
				{
					"inputs": [
						{
							"internalType": "address payable",
							"name": "_to",
							"type": "address"
						}
					],
					"name": "transferNow",
					"outputs": [],
					"stateMutability": "payable",
					"type": "function"
				}
			],
			"devdoc": {
				"kind": "dev",
				"methods": {},
				"version": 1
			},
			"evm": {
				"assembly": "    /* \"send, transfer, call,/lec15.sol\":1153:2459  contract lec15 {\r... */\n  mstore(0x40, 0x80)\n  callvalue\n  dup1\n  iszero\n  tag_1\n  jumpi\n  0x00\n  dup1\n  revert\ntag_1:\n  pop\n  dataSize(sub_0)\n  dup1\n  dataOffset(sub_0)\n  0x00\n  codecopy\n  0x00\n  return\nstop\n\nsub_0: assembly {\n        /* \"send, transfer, call,/lec15.sol\":1153:2459  contract lec15 {\r... */\n      mstore(0x40, 0x80)\n      jumpi(tag_1, lt(calldatasize, 0x04))\n      shr(0xe0, calldataload(0x00))\n      dup1\n      0x0b1fa23f\n      eq\n      tag_2\n      jumpi\n      dup1\n      0x56a967b4\n      eq\n      tag_3\n      jumpi\n      dup1\n      0x75a4624d\n      eq\n      tag_4\n      jumpi\n      dup1\n      0xa94952fe\n      eq\n      tag_5\n      jumpi\n      dup1\n      0xb5d2657c\n      eq\n      tag_6\n      jumpi\n    tag_1:\n      0x00\n      dup1\n      revert\n        /* \"send, transfer, call,/lec15.sol\":1177:1351  function sendNow(address payable _to) public payable{\r... */\n    tag_2:\n      tag_7\n      0x04\n      dup1\n      calldatasize\n      sub\n      dup2\n      add\n      swap1\n      tag_8\n      swap2\n      swap1\n      tag_9\n      jump\t// in\n    tag_8:\n      tag_10\n      jump\t// in\n    tag_7:\n      stop\n        /* \"send, transfer, call,/lec15.sol\":1363:1461  function transferNow(address payable _to) public payable{\r... */\n    tag_3:\n      tag_11\n      0x04\n      dup1\n      calldatasize\n      sub\n      dup2\n      add\n      swap1\n      tag_12\n      swap2\n      swap1\n      tag_9\n      jump\t// in\n    tag_12:\n      tag_13\n      jump\t// in\n    tag_11:\n      stop\n        /* \"send, transfer, call,/lec15.sol\":1473:1803  function callNow (address payable _to) public payable{\r... */\n    tag_4:\n      tag_14\n      0x04\n      dup1\n      calldatasize\n      sub\n      dup2\n      add\n      swap1\n      tag_15\n      swap2\n      swap1\n      tag_9\n      jump\t// in\n    tag_15:\n      tag_16\n      jump\t// in\n    tag_14:\n      stop\n        /* \"send, transfer, call,/lec15.sol\":2124:2456  function callWrong2 (address _safeAddress) public payable returns(bool,bytes memory) {\r... */\n    tag_5:\n      tag_17\n      0x04\n      dup1\n      calldatasize\n      sub\n      dup2\n      add\n      swap1\n      tag_18\n      swap2\n      swap1\n      tag_19\n      jump\t// in\n    tag_18:\n      tag_20\n      jump\t// in\n    tag_17:\n      mload(0x40)\n      tag_21\n      swap3\n      swap2\n      swap1\n      tag_22\n      jump\t// in\n    tag_21:\n      mload(0x40)\n      dup1\n      swap2\n      sub\n      swap1\n      return\n        /* \"send, transfer, call,/lec15.sol\":1811:2116  function callWrong (address _safeAddress) public returns(bool,bytes memory) {\r... */\n    tag_6:\n      callvalue\n      dup1\n      iszero\n      tag_23\n      jumpi\n      0x00\n      dup1\n      revert\n    tag_23:\n      pop\n      tag_24\n      0x04\n      dup1\n      calldatasize\n      sub\n      dup2\n      add\n      swap1\n      tag_25\n      swap2\n      swap1\n      tag_19\n      jump\t// in\n    tag_25:\n      tag_26\n      jump\t// in\n    tag_24:\n      mload(0x40)\n      tag_27\n      swap3\n      swap2\n      swap1\n      tag_22\n      jump\t// in\n    tag_27:\n      mload(0x40)\n      dup1\n      swap2\n      sub\n      swap1\n      return\n        /* \"send, transfer, call,/lec15.sol\":1177:1351  function sendNow(address payable _to) public payable{\r... */\n    tag_10:\n        /* \"send, transfer, call,/lec15.sol\":1240:1249  bool sent */\n      0x00\n        /* \"send, transfer, call,/lec15.sol\":1252:1255  _to */\n      dup2\n        /* \"send, transfer, call,/lec15.sol\":1252:1260  _to.send */\n      0xffffffffffffffffffffffffffffffffffffffff\n      and\n        /* \"send, transfer, call,/lec15.sol\":1252:1271  _to.send(msg.value) */\n      0x08fc\n        /* \"send, transfer, call,/lec15.sol\":1261:1270  msg.value */\n      callvalue\n        /* \"send, transfer, call,/lec15.sol\":1252:1271  _to.send(msg.value) */\n      swap1\n      dup2\n      iszero\n      mul\n      swap1\n      mload(0x40)\n      0x00\n      mload(0x40)\n      dup1\n      dup4\n      sub\n      dup2\n      dup6\n      dup9\n      dup9\n      call\n      swap4\n      pop\n      pop\n      pop\n      pop\n        /* \"send, transfer, call,/lec15.sol\":1240:1271  bool sent = _to.send(msg.value) */\n      swap1\n      pop\n        /* \"send, transfer, call,/lec15.sol\":1314:1318  sent */\n      dup1\n        /* \"send, transfer, call,/lec15.sol\":1306:1343  require(sent,\"Failed to send either\") */\n      tag_30\n      jumpi\n      mload(0x40)\n      0x08c379a000000000000000000000000000000000000000000000000000000000\n      dup2\n      mstore\n      0x04\n      add\n      tag_31\n      swap1\n      tag_32\n      jump\t// in\n    tag_31:\n      mload(0x40)\n      dup1\n      swap2\n      sub\n      swap1\n      revert\n    tag_30:\n        /* \"send, transfer, call,/lec15.sol\":1229:1351  {\r... */\n      pop\n        /* \"send, transfer, call,/lec15.sol\":1177:1351  function sendNow(address payable _to) public payable{\r... */\n      pop\n      jump\t// out\n        /* \"send, transfer, call,/lec15.sol\":1363:1461  function transferNow(address payable _to) public payable{\r... */\n    tag_13:\n        /* \"send, transfer, call,/lec15.sol\":1430:1433  _to */\n      dup1\n        /* \"send, transfer, call,/lec15.sol\":1430:1442  _to.transfer */\n      0xffffffffffffffffffffffffffffffffffffffff\n      and\n        /* \"send, transfer, call,/lec15.sol\":1430:1453  _to.transfer(msg.value) */\n      0x08fc\n        /* \"send, transfer, call,/lec15.sol\":1443:1452  msg.value */\n      callvalue\n        /* \"send, transfer, call,/lec15.sol\":1430:1453  _to.transfer(msg.value) */\n      swap1\n      dup2\n      iszero\n      mul\n      swap1\n      mload(0x40)\n      0x00\n      mload(0x40)\n      dup1\n      dup4\n      sub\n      dup2\n      dup6\n      dup9\n      dup9\n      call\n      swap4\n      pop\n      pop\n      pop\n      pop\n      iszero\n      dup1\n      iszero\n      tag_35\n      jumpi\n      returndatasize\n      0x00\n      dup1\n      returndatacopy\n      revert(0x00, returndatasize)\n    tag_35:\n      pop\n        /* \"send, transfer, call,/lec15.sol\":1363:1461  function transferNow(address payable _to) public payable{\r... */\n      pop\n      jump\t// out\n        /* \"send, transfer, call,/lec15.sol\":1473:1803  function callNow (address payable _to) public payable{\r... */\n    tag_16:\n        /* \"send, transfer, call,/lec15.sol\":1694:1703  bool sent */\n      0x00\n        /* \"send, transfer, call,/lec15.sol\":1709:1712  _to */\n      dup2\n        /* \"send, transfer, call,/lec15.sol\":1709:1717  _to.call */\n      0xffffffffffffffffffffffffffffffffffffffff\n      and\n        /* \"send, transfer, call,/lec15.sol\":1725:1734  msg.value */\n      callvalue\n        /* \"send, transfer, call,/lec15.sol\":1709:1739  _to.call{value: msg.value}(\"\") */\n      mload(0x40)\n      tag_37\n      swap1\n      tag_38\n      jump\t// in\n    tag_37:\n      0x00\n      mload(0x40)\n      dup1\n      dup4\n      sub\n      dup2\n      dup6\n      dup8\n      gas\n      call\n      swap3\n      pop\n      pop\n      pop\n      returndatasize\n      dup1\n      0x00\n      dup2\n      eq\n      tag_41\n      jumpi\n      mload(0x40)\n      swap2\n      pop\n      and(add(returndatasize, 0x3f), not(0x1f))\n      dup3\n      add\n      0x40\n      mstore\n      returndatasize\n      dup3\n      mstore\n      returndatasize\n      0x00\n      0x20\n      dup5\n      add\n      returndatacopy\n      jump(tag_40)\n    tag_41:\n      0x60\n      swap2\n      pop\n    tag_40:\n      pop\n        /* \"send, transfer, call,/lec15.sol\":1693:1739  (bool sent, ) = _to.call{value: msg.value}(\"\") */\n      pop\n      swap1\n      pop\n        /* \"send, transfer, call,/lec15.sol\":1758:1762  sent */\n      dup1\n        /* \"send, transfer, call,/lec15.sol\":1750:1787  require(sent, \"Failed to send Ether\") */\n      tag_42\n      jumpi\n      mload(0x40)\n      0x08c379a000000000000000000000000000000000000000000000000000000000\n      dup2\n      mstore\n      0x04\n      add\n      tag_43\n      swap1\n      tag_44\n      jump\t// in\n    tag_43:\n      mload(0x40)\n      dup1\n      swap2\n      sub\n      swap1\n      revert\n    tag_42:\n        /* \"send, transfer, call,/lec15.sol\":1526:1803  {\r... */\n      pop\n        /* \"send, transfer, call,/lec15.sol\":1473:1803  function callNow (address payable _to) public payable{\r... */\n      pop\n      jump\t// out\n        /* \"send, transfer, call,/lec15.sol\":2124:2456  function callWrong2 (address _safeAddress) public payable returns(bool,bytes memory) {\r... */\n    tag_20:\n        /* \"send, transfer, call,/lec15.sol\":2190:2194  bool */\n      0x00\n        /* \"send, transfer, call,/lec15.sol\":2195:2207  bytes memory */\n      0x60\n        /* \"send, transfer, call,/lec15.sol\":2221:2230  bool sent */\n      0x00\n        /* \"send, transfer, call,/lec15.sol\":2231:2268  bytes memory outputFromCalledFunction */\n      dup1\n        /* \"send, transfer, call,/lec15.sol\":2272:2284  _safeAddress */\n      dup5\n        /* \"send, transfer, call,/lec15.sol\":2272:2289  _safeAddress.call */\n      0xffffffffffffffffffffffffffffffffffffffff\n      and\n        /* \"send, transfer, call,/lec15.sol\":2297:2306  msg.value */\n      callvalue\n        /* \"send, transfer, call,/lec15.sol\":2322:2356  abi.encodeWithSignature(\"wrong()\") */\n      add(0x24, mload(0x40))\n      mload(0x40)\n      0x20\n      dup2\n      dup4\n      sub\n      sub\n      dup2\n      mstore\n      swap1\n      0x40\n      mstore\n      and(not(0xffffffffffffffffffffffffffffffffffffffffffffffffffffffff), 0x2c23d2b400000000000000000000000000000000000000000000000000000000)\n      0x20\n      dup3\n      add\n      dup1\n      mload\n      0xffffffffffffffffffffffffffffffffffffffffffffffffffffffff\n      dup4\n      dup2\n      dup4\n      and\n      or\n      dup4\n      mstore\n      pop\n      pop\n      pop\n      pop\n        /* \"send, transfer, call,/lec15.sol\":2272:2367  _safeAddress.call{value :msg.value}(\r... */\n      mload(0x40)\n      tag_46\n      swap2\n      swap1\n      tag_47\n      jump\t// in\n    tag_46:\n      0x00\n      mload(0x40)\n      dup1\n      dup4\n      sub\n      dup2\n      dup6\n      dup8\n      gas\n      call\n      swap3\n      pop\n      pop\n      pop\n      returndatasize\n      dup1\n      0x00\n      dup2\n      eq\n      tag_50\n      jumpi\n      mload(0x40)\n      swap2\n      pop\n      and(add(returndatasize, 0x3f), not(0x1f))\n      dup3\n      add\n      0x40\n      mstore\n      returndatasize\n      dup3\n      mstore\n      returndatasize\n      0x00\n      0x20\n      dup5\n      add\n      returndatacopy\n      jump(tag_49)\n    tag_50:\n      0x60\n      swap2\n      pop\n    tag_49:\n      pop\n        /* \"send, transfer, call,/lec15.sol\":2220:2367  (bool sent,bytes memory outputFromCalledFunction) = _safeAddress.call{value :msg.value}(\r... */\n      swap2\n      pop\n      swap2\n      pop\n        /* \"send, transfer, call,/lec15.sol\":2386:2390  sent */\n      dup2\n        /* \"send, transfer, call,/lec15.sol\":2378:2400  require(sent,\"failed\") */\n      tag_51\n      jumpi\n      mload(0x40)\n      0x08c379a000000000000000000000000000000000000000000000000000000000\n      dup2\n      mstore\n      0x04\n      add\n      tag_52\n      swap1\n      tag_53\n      jump\t// in\n    tag_52:\n      mload(0x40)\n      dup1\n      swap2\n      sub\n      swap1\n      revert\n    tag_51:\n        /* \"send, transfer, call,/lec15.sol\":2418:2422  sent */\n      dup2\n        /* \"send, transfer, call,/lec15.sol\":2423:2447  outputFromCalledFunction */\n      dup2\n        /* \"send, transfer, call,/lec15.sol\":2411:2448  return(sent,outputFromCalledFunction) */\n      swap4\n      pop\n      swap4\n      pop\n      pop\n      pop\n        /* \"send, transfer, call,/lec15.sol\":2124:2456  function callWrong2 (address _safeAddress) public payable returns(bool,bytes memory) {\r... */\n      swap2\n      pop\n      swap2\n      jump\t// out\n        /* \"send, transfer, call,/lec15.sol\":1811:2116  function callWrong (address _safeAddress) public returns(bool,bytes memory) {\r... */\n    tag_26:\n        /* \"send, transfer, call,/lec15.sol\":1868:1872  bool */\n      0x00\n        /* \"send, transfer, call,/lec15.sol\":1873:1885  bytes memory */\n      0x60\n        /* \"send, transfer, call,/lec15.sol\":1899:1908  bool sent */\n      0x00\n        /* \"send, transfer, call,/lec15.sol\":1909:1946  bytes memory outputFromCalledFunction */\n      dup1\n        /* \"send, transfer, call,/lec15.sol\":1950:1962  _safeAddress */\n      dup5\n        /* \"send, transfer, call,/lec15.sol\":1950:1967  _safeAddress.call */\n      0xffffffffffffffffffffffffffffffffffffffff\n      and\n        /* \"send, transfer, call,/lec15.sol\":1982:2016  abi.encodeWithSignature(\"wrong()\") */\n      add(0x24, mload(0x40))\n      mload(0x40)\n      0x20\n      dup2\n      dup4\n      sub\n      sub\n      dup2\n      mstore\n      swap1\n      0x40\n      mstore\n      and(not(0xffffffffffffffffffffffffffffffffffffffffffffffffffffffff), 0x2c23d2b400000000000000000000000000000000000000000000000000000000)\n      0x20\n      dup3\n      add\n      dup1\n      mload\n      0xffffffffffffffffffffffffffffffffffffffffffffffffffffffff\n      dup4\n      dup2\n      dup4\n      and\n      or\n      dup4\n      mstore\n      pop\n      pop\n      pop\n      pop\n        /* \"send, transfer, call,/lec15.sol\":1950:2027  _safeAddress.call(\r... */\n      mload(0x40)\n      tag_55\n      swap2\n      swap1\n      tag_47\n      jump\t// in\n    tag_55:\n      0x00\n      mload(0x40)\n      dup1\n      dup4\n      sub\n      dup2\n      0x00\n      dup7\n      gas\n      call\n      swap2\n      pop\n      pop\n      returndatasize\n      dup1\n      0x00\n      dup2\n      eq\n      tag_58\n      jumpi\n      mload(0x40)\n      swap2\n      pop\n      and(add(returndatasize, 0x3f), not(0x1f))\n      dup3\n      add\n      0x40\n      mstore\n      returndatasize\n      dup3\n      mstore\n      returndatasize\n      0x00\n      0x20\n      dup5\n      add\n      returndatacopy\n      jump(tag_57)\n    tag_58:\n      0x60\n      swap2\n      pop\n    tag_57:\n      pop\n        /* \"send, transfer, call,/lec15.sol\":1898:2027  (bool sent,bytes memory outputFromCalledFunction) = _safeAddress.call(\r... */\n      swap2\n      pop\n      swap2\n      pop\n        /* \"send, transfer, call,/lec15.sol\":2046:2050  sent */\n      dup2\n        /* \"send, transfer, call,/lec15.sol\":2038:2060  require(sent,\"failed\") */\n      tag_59\n      jumpi\n      mload(0x40)\n      0x08c379a000000000000000000000000000000000000000000000000000000000\n      dup2\n      mstore\n      0x04\n      add\n      tag_60\n      swap1\n      tag_53\n      jump\t// in\n    tag_60:\n      mload(0x40)\n      dup1\n      swap2\n      sub\n      swap1\n      revert\n    tag_59:\n        /* \"send, transfer, call,/lec15.sol\":2078:2082  sent */\n      dup2\n        /* \"send, transfer, call,/lec15.sol\":2083:2107  outputFromCalledFunction */\n      dup2\n        /* \"send, transfer, call,/lec15.sol\":2071:2108  return(sent,outputFromCalledFunction) */\n      swap4\n      pop\n      swap4\n      pop\n      pop\n      pop\n        /* \"send, transfer, call,/lec15.sol\":1811:2116  function callWrong (address _safeAddress) public returns(bool,bytes memory) {\r... */\n      swap2\n      pop\n      swap2\n      jump\t// out\n        /* \"#utility.yul\":7:146   */\n    tag_62:\n        /* \"#utility.yul\":53:58   */\n      0x00\n        /* \"#utility.yul\":91:97   */\n      dup2\n        /* \"#utility.yul\":78:98   */\n      calldataload\n        /* \"#utility.yul\":69:98   */\n      swap1\n      pop\n        /* \"#utility.yul\":107:140   */\n      tag_64\n        /* \"#utility.yul\":134:139   */\n      dup2\n        /* \"#utility.yul\":107:140   */\n      tag_65\n      jump\t// in\n    tag_64:\n        /* \"#utility.yul\":7:146   */\n      swap3\n      swap2\n      pop\n      pop\n      jump\t// out\n        /* \"#utility.yul\":152:307   */\n    tag_66:\n        /* \"#utility.yul\":206:211   */\n      0x00\n        /* \"#utility.yul\":244:250   */\n      dup2\n        /* \"#utility.yul\":231:251   */\n      calldataload\n        /* \"#utility.yul\":222:251   */\n      swap1\n      pop\n        /* \"#utility.yul\":260:301   */\n      tag_68\n        /* \"#utility.yul\":295:300   */\n      dup2\n        /* \"#utility.yul\":260:301   */\n      tag_69\n      jump\t// in\n    tag_68:\n        /* \"#utility.yul\":152:307   */\n      swap3\n      swap2\n      pop\n      pop\n      jump\t// out\n        /* \"#utility.yul\":313:642   */\n    tag_19:\n        /* \"#utility.yul\":372:378   */\n      0x00\n        /* \"#utility.yul\":421:423   */\n      0x20\n        /* \"#utility.yul\":409:418   */\n      dup3\n        /* \"#utility.yul\":400:407   */\n      dup5\n        /* \"#utility.yul\":396:419   */\n      sub\n        /* \"#utility.yul\":392:424   */\n      slt\n        /* \"#utility.yul\":389:508   */\n      iszero\n      tag_71\n      jumpi\n        /* \"#utility.yul\":427:506   */\n      tag_72\n      tag_73\n      jump\t// in\n    tag_72:\n        /* \"#utility.yul\":389:508   */\n    tag_71:\n        /* \"#utility.yul\":547:548   */\n      0x00\n        /* \"#utility.yul\":572:625   */\n      tag_74\n        /* \"#utility.yul\":617:624   */\n      dup5\n        /* \"#utility.yul\":608:614   */\n      dup3\n        /* \"#utility.yul\":597:606   */\n      dup6\n        /* \"#utility.yul\":593:615   */\n      add\n        /* \"#utility.yul\":572:625   */\n      tag_62\n      jump\t// in\n    tag_74:\n        /* \"#utility.yul\":562:625   */\n      swap2\n      pop\n        /* \"#utility.yul\":518:635   */\n      pop\n        /* \"#utility.yul\":313:642   */\n      swap3\n      swap2\n      pop\n      pop\n      jump\t// out\n        /* \"#utility.yul\":648:993   */\n    tag_9:\n        /* \"#utility.yul\":715:721   */\n      0x00\n        /* \"#utility.yul\":764:766   */\n      0x20\n        /* \"#utility.yul\":752:761   */\n      dup3\n        /* \"#utility.yul\":743:750   */\n      dup5\n        /* \"#utility.yul\":739:762   */\n      sub\n        /* \"#utility.yul\":735:767   */\n      slt\n        /* \"#utility.yul\":732:851   */\n      iszero\n      tag_76\n      jumpi\n        /* \"#utility.yul\":770:849   */\n      tag_77\n      tag_73\n      jump\t// in\n    tag_77:\n        /* \"#utility.yul\":732:851   */\n    tag_76:\n        /* \"#utility.yul\":890:891   */\n      0x00\n        /* \"#utility.yul\":915:976   */\n      tag_78\n        /* \"#utility.yul\":968:975   */\n      dup5\n        /* \"#utility.yul\":959:965   */\n      dup3\n        /* \"#utility.yul\":948:957   */\n      dup6\n        /* \"#utility.yul\":944:966   */\n      add\n        /* \"#utility.yul\":915:976   */\n      tag_66\n      jump\t// in\n    tag_78:\n        /* \"#utility.yul\":905:976   */\n      swap2\n      pop\n        /* \"#utility.yul\":861:986   */\n      pop\n        /* \"#utility.yul\":648:993   */\n      swap3\n      swap2\n      pop\n      pop\n      jump\t// out\n        /* \"#utility.yul\":999:1108   */\n    tag_79:\n        /* \"#utility.yul\":1080:1101   */\n      tag_81\n        /* \"#utility.yul\":1095:1100   */\n      dup2\n        /* \"#utility.yul\":1080:1101   */\n      tag_82\n      jump\t// in\n    tag_81:\n        /* \"#utility.yul\":1075:1078   */\n      dup3\n        /* \"#utility.yul\":1068:1102   */\n      mstore\n        /* \"#utility.yul\":999:1108   */\n      pop\n      pop\n      jump\t// out\n        /* \"#utility.yul\":1114:1474   */\n    tag_83:\n        /* \"#utility.yul\":1200:1203   */\n      0x00\n        /* \"#utility.yul\":1228:1266   */\n      tag_85\n        /* \"#utility.yul\":1260:1265   */\n      dup3\n        /* \"#utility.yul\":1228:1266   */\n      tag_86\n      jump\t// in\n    tag_85:\n        /* \"#utility.yul\":1282:1352   */\n      tag_87\n        /* \"#utility.yul\":1345:1351   */\n      dup2\n        /* \"#utility.yul\":1340:1343   */\n      dup6\n        /* \"#utility.yul\":1282:1352   */\n      tag_88\n      jump\t// in\n    tag_87:\n        /* \"#utility.yul\":1275:1352   */\n      swap4\n      pop\n        /* \"#utility.yul\":1361:1413   */\n      tag_89\n        /* \"#utility.yul\":1406:1412   */\n      dup2\n        /* \"#utility.yul\":1401:1404   */\n      dup6\n        /* \"#utility.yul\":1394:1398   */\n      0x20\n        /* \"#utility.yul\":1387:1392   */\n      dup7\n        /* \"#utility.yul\":1383:1399   */\n      add\n        /* \"#utility.yul\":1361:1413   */\n      tag_90\n      jump\t// in\n    tag_89:\n        /* \"#utility.yul\":1438:1467   */\n      tag_91\n        /* \"#utility.yul\":1460:1466   */\n      dup2\n        /* \"#utility.yul\":1438:1467   */\n      tag_92\n      jump\t// in\n    tag_91:\n        /* \"#utility.yul\":1433:1436   */\n      dup5\n        /* \"#utility.yul\":1429:1468   */\n      add\n        /* \"#utility.yul\":1422:1468   */\n      swap2\n      pop\n        /* \"#utility.yul\":1204:1474   */\n      pop\n        /* \"#utility.yul\":1114:1474   */\n      swap3\n      swap2\n      pop\n      pop\n      jump\t// out\n        /* \"#utility.yul\":1480:1853   */\n    tag_93:\n        /* \"#utility.yul\":1584:1587   */\n      0x00\n        /* \"#utility.yul\":1612:1650   */\n      tag_95\n        /* \"#utility.yul\":1644:1649   */\n      dup3\n        /* \"#utility.yul\":1612:1650   */\n      tag_86\n      jump\t// in\n    tag_95:\n        /* \"#utility.yul\":1666:1754   */\n      tag_96\n        /* \"#utility.yul\":1747:1753   */\n      dup2\n        /* \"#utility.yul\":1742:1745   */\n      dup6\n        /* \"#utility.yul\":1666:1754   */\n      tag_97\n      jump\t// in\n    tag_96:\n        /* \"#utility.yul\":1659:1754   */\n      swap4\n      pop\n        /* \"#utility.yul\":1763:1815   */\n      tag_98\n        /* \"#utility.yul\":1808:1814   */\n      dup2\n        /* \"#utility.yul\":1803:1806   */\n      dup6\n        /* \"#utility.yul\":1796:1800   */\n      0x20\n        /* \"#utility.yul\":1789:1794   */\n      dup7\n        /* \"#utility.yul\":1785:1801   */\n      add\n        /* \"#utility.yul\":1763:1815   */\n      tag_90\n      jump\t// in\n    tag_98:\n        /* \"#utility.yul\":1840:1846   */\n      dup1\n        /* \"#utility.yul\":1835:1838   */\n      dup5\n        /* \"#utility.yul\":1831:1847   */\n      add\n        /* \"#utility.yul\":1824:1847   */\n      swap2\n      pop\n        /* \"#utility.yul\":1588:1853   */\n      pop\n        /* \"#utility.yul\":1480:1853   */\n      swap3\n      swap2\n      pop\n      pop\n      jump\t// out\n        /* \"#utility.yul\":1859:2225   */\n    tag_99:\n        /* \"#utility.yul\":2001:2004   */\n      0x00\n        /* \"#utility.yul\":2022:2089   */\n      tag_101\n        /* \"#utility.yul\":2086:2088   */\n      0x14\n        /* \"#utility.yul\":2081:2084   */\n      dup4\n        /* \"#utility.yul\":2022:2089   */\n      tag_102\n      jump\t// in\n    tag_101:\n        /* \"#utility.yul\":2015:2089   */\n      swap2\n      pop\n        /* \"#utility.yul\":2098:2191   */\n      tag_103\n        /* \"#utility.yul\":2187:2190   */\n      dup3\n        /* \"#utility.yul\":2098:2191   */\n      tag_104\n      jump\t// in\n    tag_103:\n        /* \"#utility.yul\":2216:2218   */\n      0x20\n        /* \"#utility.yul\":2211:2214   */\n      dup3\n        /* \"#utility.yul\":2207:2219   */\n      add\n        /* \"#utility.yul\":2200:2219   */\n      swap1\n      pop\n        /* \"#utility.yul\":1859:2225   */\n      swap2\n      swap1\n      pop\n      jump\t// out\n        /* \"#utility.yul\":2231:2596   */\n    tag_105:\n        /* \"#utility.yul\":2373:2376   */\n      0x00\n        /* \"#utility.yul\":2394:2460   */\n      tag_107\n        /* \"#utility.yul\":2458:2459   */\n      0x06\n        /* \"#utility.yul\":2453:2456   */\n      dup4\n        /* \"#utility.yul\":2394:2460   */\n      tag_102\n      jump\t// in\n    tag_107:\n        /* \"#utility.yul\":2387:2460   */\n      swap2\n      pop\n        /* \"#utility.yul\":2469:2562   */\n      tag_108\n        /* \"#utility.yul\":2558:2561   */\n      dup3\n        /* \"#utility.yul\":2469:2562   */\n      tag_109\n      jump\t// in\n    tag_108:\n        /* \"#utility.yul\":2587:2589   */\n      0x20\n        /* \"#utility.yul\":2582:2585   */\n      dup3\n        /* \"#utility.yul\":2578:2590   */\n      add\n        /* \"#utility.yul\":2571:2590   */\n      swap1\n      pop\n        /* \"#utility.yul\":2231:2596   */\n      swap2\n      swap1\n      pop\n      jump\t// out\n        /* \"#utility.yul\":2602:3000   */\n    tag_110:\n        /* \"#utility.yul\":2761:2764   */\n      0x00\n        /* \"#utility.yul\":2782:2865   */\n      tag_112\n        /* \"#utility.yul\":2863:2864   */\n      0x00\n        /* \"#utility.yul\":2858:2861   */\n      dup4\n        /* \"#utility.yul\":2782:2865   */\n      tag_97\n      jump\t// in\n    tag_112:\n        /* \"#utility.yul\":2775:2865   */\n      swap2\n      pop\n        /* \"#utility.yul\":2874:2967   */\n      tag_113\n        /* \"#utility.yul\":2963:2966   */\n      dup3\n        /* \"#utility.yul\":2874:2967   */\n      tag_114\n      jump\t// in\n    tag_113:\n        /* \"#utility.yul\":2992:2993   */\n      0x00\n        /* \"#utility.yul\":2987:2990   */\n      dup3\n        /* \"#utility.yul\":2983:2994   */\n      add\n        /* \"#utility.yul\":2976:2994   */\n      swap1\n      pop\n        /* \"#utility.yul\":2602:3000   */\n      swap2\n      swap1\n      pop\n      jump\t// out\n        /* \"#utility.yul\":3006:3372   */\n    tag_115:\n        /* \"#utility.yul\":3148:3151   */\n      0x00\n        /* \"#utility.yul\":3169:3236   */\n      tag_117\n        /* \"#utility.yul\":3233:3235   */\n      0x15\n        /* \"#utility.yul\":3228:3231   */\n      dup4\n        /* \"#utility.yul\":3169:3236   */\n      tag_102\n      jump\t// in\n    tag_117:\n        /* \"#utility.yul\":3162:3236   */\n      swap2\n      pop\n        /* \"#utility.yul\":3245:3338   */\n      tag_118\n        /* \"#utility.yul\":3334:3337   */\n      dup3\n        /* \"#utility.yul\":3245:3338   */\n      tag_119\n      jump\t// in\n    tag_118:\n        /* \"#utility.yul\":3363:3365   */\n      0x20\n        /* \"#utility.yul\":3358:3361   */\n      dup3\n        /* \"#utility.yul\":3354:3366   */\n      add\n        /* \"#utility.yul\":3347:3366   */\n      swap1\n      pop\n        /* \"#utility.yul\":3006:3372   */\n      swap2\n      swap1\n      pop\n      jump\t// out\n        /* \"#utility.yul\":3378:3649   */\n    tag_47:\n        /* \"#utility.yul\":3508:3511   */\n      0x00\n        /* \"#utility.yul\":3530:3623   */\n      tag_121\n        /* \"#utility.yul\":3619:3622   */\n      dup3\n        /* \"#utility.yul\":3610:3616   */\n      dup5\n        /* \"#utility.yul\":3530:3623   */\n      tag_93\n      jump\t// in\n    tag_121:\n        /* \"#utility.yul\":3523:3623   */\n      swap2\n      pop\n        /* \"#utility.yul\":3640:3643   */\n      dup2\n        /* \"#utility.yul\":3633:3643   */\n      swap1\n      pop\n        /* \"#utility.yul\":3378:3649   */\n      swap3\n      swap2\n      pop\n      pop\n      jump\t// out\n        /* \"#utility.yul\":3655:4034   */\n    tag_38:\n        /* \"#utility.yul\":3839:3842   */\n      0x00\n        /* \"#utility.yul\":3861:4008   */\n      tag_123\n        /* \"#utility.yul\":4004:4007   */\n      dup3\n        /* \"#utility.yul\":3861:4008   */\n      tag_110\n      jump\t// in\n    tag_123:\n        /* \"#utility.yul\":3854:4008   */\n      swap2\n      pop\n        /* \"#utility.yul\":4025:4028   */\n      dup2\n        /* \"#utility.yul\":4018:4028   */\n      swap1\n      pop\n        /* \"#utility.yul\":3655:4034   */\n      swap2\n      swap1\n      pop\n      jump\t// out\n        /* \"#utility.yul\":4040:4447   */\n    tag_22:\n        /* \"#utility.yul\":4173:4177   */\n      0x00\n        /* \"#utility.yul\":4211:4213   */\n      0x40\n        /* \"#utility.yul\":4200:4209   */\n      dup3\n        /* \"#utility.yul\":4196:4214   */\n      add\n        /* \"#utility.yul\":4188:4214   */\n      swap1\n      pop\n        /* \"#utility.yul\":4224:4289   */\n      tag_125\n        /* \"#utility.yul\":4286:4287   */\n      0x00\n        /* \"#utility.yul\":4275:4284   */\n      dup4\n        /* \"#utility.yul\":4271:4288   */\n      add\n        /* \"#utility.yul\":4262:4268   */\n      dup6\n        /* \"#utility.yul\":4224:4289   */\n      tag_79\n      jump\t// in\n    tag_125:\n        /* \"#utility.yul\":4336:4345   */\n      dup2\n        /* \"#utility.yul\":4330:4334   */\n      dup2\n        /* \"#utility.yul\":4326:4346   */\n      sub\n        /* \"#utility.yul\":4321:4323   */\n      0x20\n        /* \"#utility.yul\":4310:4319   */\n      dup4\n        /* \"#utility.yul\":4306:4324   */\n      add\n        /* \"#utility.yul\":4299:4347   */\n      mstore\n        /* \"#utility.yul\":4364:4440   */\n      tag_126\n        /* \"#utility.yul\":4435:4439   */\n      dup2\n        /* \"#utility.yul\":4426:4432   */\n      dup5\n        /* \"#utility.yul\":4364:4440   */\n      tag_83\n      jump\t// in\n    tag_126:\n        /* \"#utility.yul\":4356:4440   */\n      swap1\n      pop\n        /* \"#utility.yul\":4040:4447   */\n      swap4\n      swap3\n      pop\n      pop\n      pop\n      jump\t// out\n        /* \"#utility.yul\":4453:4872   */\n    tag_44:\n        /* \"#utility.yul\":4619:4623   */\n      0x00\n        /* \"#utility.yul\":4657:4659   */\n      0x20\n        /* \"#utility.yul\":4646:4655   */\n      dup3\n        /* \"#utility.yul\":4642:4660   */\n      add\n        /* \"#utility.yul\":4634:4660   */\n      swap1\n      pop\n        /* \"#utility.yul\":4706:4715   */\n      dup2\n        /* \"#utility.yul\":4700:4704   */\n      dup2\n        /* \"#utility.yul\":4696:4716   */\n      sub\n        /* \"#utility.yul\":4692:4693   */\n      0x00\n        /* \"#utility.yul\":4681:4690   */\n      dup4\n        /* \"#utility.yul\":4677:4694   */\n      add\n        /* \"#utility.yul\":4670:4717   */\n      mstore\n        /* \"#utility.yul\":4734:4865   */\n      tag_128\n        /* \"#utility.yul\":4860:4864   */\n      dup2\n        /* \"#utility.yul\":4734:4865   */\n      tag_99\n      jump\t// in\n    tag_128:\n        /* \"#utility.yul\":4726:4865   */\n      swap1\n      pop\n        /* \"#utility.yul\":4453:4872   */\n      swap2\n      swap1\n      pop\n      jump\t// out\n        /* \"#utility.yul\":4878:5297   */\n    tag_53:\n        /* \"#utility.yul\":5044:5048   */\n      0x00\n        /* \"#utility.yul\":5082:5084   */\n      0x20\n        /* \"#utility.yul\":5071:5080   */\n      dup3\n        /* \"#utility.yul\":5067:5085   */\n      add\n        /* \"#utility.yul\":5059:5085   */\n      swap1\n      pop\n        /* \"#utility.yul\":5131:5140   */\n      dup2\n        /* \"#utility.yul\":5125:5129   */\n      dup2\n        /* \"#utility.yul\":5121:5141   */\n      sub\n        /* \"#utility.yul\":5117:5118   */\n      0x00\n        /* \"#utility.yul\":5106:5115   */\n      dup4\n        /* \"#utility.yul\":5102:5119   */\n      add\n        /* \"#utility.yul\":5095:5142   */\n      mstore\n        /* \"#utility.yul\":5159:5290   */\n      tag_130\n        /* \"#utility.yul\":5285:5289   */\n      dup2\n        /* \"#utility.yul\":5159:5290   */\n      tag_105\n      jump\t// in\n    tag_130:\n        /* \"#utility.yul\":5151:5290   */\n      swap1\n      pop\n        /* \"#utility.yul\":4878:5297   */\n      swap2\n      swap1\n      pop\n      jump\t// out\n        /* \"#utility.yul\":5303:5722   */\n    tag_32:\n        /* \"#utility.yul\":5469:5473   */\n      0x00\n        /* \"#utility.yul\":5507:5509   */\n      0x20\n        /* \"#utility.yul\":5496:5505   */\n      dup3\n        /* \"#utility.yul\":5492:5510   */\n      add\n        /* \"#utility.yul\":5484:5510   */\n      swap1\n      pop\n        /* \"#utility.yul\":5556:5565   */\n      dup2\n        /* \"#utility.yul\":5550:5554   */\n      dup2\n        /* \"#utility.yul\":5546:5566   */\n      sub\n        /* \"#utility.yul\":5542:5543   */\n      0x00\n        /* \"#utility.yul\":5531:5540   */\n      dup4\n        /* \"#utility.yul\":5527:5544   */\n      add\n        /* \"#utility.yul\":5520:5567   */\n      mstore\n        /* \"#utility.yul\":5584:5715   */\n      tag_132\n        /* \"#utility.yul\":5710:5714   */\n      dup2\n        /* \"#utility.yul\":5584:5715   */\n      tag_115\n      jump\t// in\n    tag_132:\n        /* \"#utility.yul\":5576:5715   */\n      swap1\n      pop\n        /* \"#utility.yul\":5303:5722   */\n      swap2\n      swap1\n      pop\n      jump\t// out\n        /* \"#utility.yul\":5809:5907   */\n    tag_86:\n        /* \"#utility.yul\":5860:5866   */\n      0x00\n        /* \"#utility.yul\":5894:5899   */\n      dup2\n        /* \"#utility.yul\":5888:5900   */\n      mload\n        /* \"#utility.yul\":5878:5900   */\n      swap1\n      pop\n        /* \"#utility.yul\":5809:5907   */\n      swap2\n      swap1\n      pop\n      jump\t// out\n        /* \"#utility.yul\":5913:6081   */\n    tag_88:\n        /* \"#utility.yul\":5996:6007   */\n      0x00\n        /* \"#utility.yul\":6030:6036   */\n      dup3\n        /* \"#utility.yul\":6025:6028   */\n      dup3\n        /* \"#utility.yul\":6018:6037   */\n      mstore\n        /* \"#utility.yul\":6070:6074   */\n      0x20\n        /* \"#utility.yul\":6065:6068   */\n      dup3\n        /* \"#utility.yul\":6061:6075   */\n      add\n        /* \"#utility.yul\":6046:6075   */\n      swap1\n      pop\n        /* \"#utility.yul\":5913:6081   */\n      swap3\n      swap2\n      pop\n      pop\n      jump\t// out\n        /* \"#utility.yul\":6087:6234   */\n    tag_97:\n        /* \"#utility.yul\":6188:6199   */\n      0x00\n        /* \"#utility.yul\":6225:6228   */\n      dup2\n        /* \"#utility.yul\":6210:6228   */\n      swap1\n      pop\n        /* \"#utility.yul\":6087:6234   */\n      swap3\n      swap2\n      pop\n      pop\n      jump\t// out\n        /* \"#utility.yul\":6240:6409   */\n    tag_102:\n        /* \"#utility.yul\":6324:6335   */\n      0x00\n        /* \"#utility.yul\":6358:6364   */\n      dup3\n        /* \"#utility.yul\":6353:6356   */\n      dup3\n        /* \"#utility.yul\":6346:6365   */\n      mstore\n        /* \"#utility.yul\":6398:6402   */\n      0x20\n        /* \"#utility.yul\":6393:6396   */\n      dup3\n        /* \"#utility.yul\":6389:6403   */\n      add\n        /* \"#utility.yul\":6374:6403   */\n      swap1\n      pop\n        /* \"#utility.yul\":6240:6409   */\n      swap3\n      swap2\n      pop\n      pop\n      jump\t// out\n        /* \"#utility.yul\":6415:6511   */\n    tag_139:\n        /* \"#utility.yul\":6452:6459   */\n      0x00\n        /* \"#utility.yul\":6481:6505   */\n      tag_141\n        /* \"#utility.yul\":6499:6504   */\n      dup3\n        /* \"#utility.yul\":6481:6505   */\n      tag_142\n      jump\t// in\n    tag_141:\n        /* \"#utility.yul\":6470:6505   */\n      swap1\n      pop\n        /* \"#utility.yul\":6415:6511   */\n      swap2\n      swap1\n      pop\n      jump\t// out\n        /* \"#utility.yul\":6517:6621   */\n    tag_143:\n        /* \"#utility.yul\":6562:6569   */\n      0x00\n        /* \"#utility.yul\":6591:6615   */\n      tag_145\n        /* \"#utility.yul\":6609:6614   */\n      dup3\n        /* \"#utility.yul\":6591:6615   */\n      tag_142\n      jump\t// in\n    tag_145:\n        /* \"#utility.yul\":6580:6615   */\n      swap1\n      pop\n        /* \"#utility.yul\":6517:6621   */\n      swap2\n      swap1\n      pop\n      jump\t// out\n        /* \"#utility.yul\":6627:6717   */\n    tag_82:\n        /* \"#utility.yul\":6661:6668   */\n      0x00\n        /* \"#utility.yul\":6704:6709   */\n      dup2\n        /* \"#utility.yul\":6697:6710   */\n      iszero\n        /* \"#utility.yul\":6690:6711   */\n      iszero\n        /* \"#utility.yul\":6679:6711   */\n      swap1\n      pop\n        /* \"#utility.yul\":6627:6717   */\n      swap2\n      swap1\n      pop\n      jump\t// out\n        /* \"#utility.yul\":6723:6849   */\n    tag_142:\n        /* \"#utility.yul\":6760:6767   */\n      0x00\n        /* \"#utility.yul\":6800:6842   */\n      0xffffffffffffffffffffffffffffffffffffffff\n        /* \"#utility.yul\":6793:6798   */\n      dup3\n        /* \"#utility.yul\":6789:6843   */\n      and\n        /* \"#utility.yul\":6778:6843   */\n      swap1\n      pop\n        /* \"#utility.yul\":6723:6849   */\n      swap2\n      swap1\n      pop\n      jump\t// out\n        /* \"#utility.yul\":6855:7162   */\n    tag_90:\n        /* \"#utility.yul\":6923:6924   */\n      0x00\n        /* \"#utility.yul\":6933:7046   */\n    tag_149:\n        /* \"#utility.yul\":6947:6953   */\n      dup4\n        /* \"#utility.yul\":6944:6945   */\n      dup2\n        /* \"#utility.yul\":6941:6954   */\n      lt\n        /* \"#utility.yul\":6933:7046   */\n      iszero\n      tag_151\n      jumpi\n        /* \"#utility.yul\":7032:7033   */\n      dup1\n        /* \"#utility.yul\":7027:7030   */\n      dup3\n        /* \"#utility.yul\":7023:7034   */\n      add\n        /* \"#utility.yul\":7017:7035   */\n      mload\n        /* \"#utility.yul\":7013:7014   */\n      dup2\n        /* \"#utility.yul\":7008:7011   */\n      dup5\n        /* \"#utility.yul\":7004:7015   */\n      add\n        /* \"#utility.yul\":6997:7036   */\n      mstore\n        /* \"#utility.yul\":6969:6971   */\n      0x20\n        /* \"#utility.yul\":6966:6967   */\n      dup2\n        /* \"#utility.yul\":6962:6972   */\n      add\n        /* \"#utility.yul\":6957:6972   */\n      swap1\n      pop\n        /* \"#utility.yul\":6933:7046   */\n      jump(tag_149)\n    tag_151:\n        /* \"#utility.yul\":7064:7070   */\n      dup4\n        /* \"#utility.yul\":7061:7062   */\n      dup2\n        /* \"#utility.yul\":7058:7071   */\n      gt\n        /* \"#utility.yul\":7055:7156   */\n      iszero\n      tag_152\n      jumpi\n        /* \"#utility.yul\":7144:7145   */\n      0x00\n        /* \"#utility.yul\":7135:7141   */\n      dup5\n        /* \"#utility.yul\":7130:7133   */\n      dup5\n        /* \"#utility.yul\":7126:7142   */\n      add\n        /* \"#utility.yul\":7119:7146   */\n      mstore\n        /* \"#utility.yul\":7055:7156   */\n    tag_152:\n        /* \"#utility.yul\":6904:7162   */\n      pop\n        /* \"#utility.yul\":6855:7162   */\n      pop\n      pop\n      pop\n      jump\t// out\n        /* \"#utility.yul\":7291:7408   */\n    tag_73:\n        /* \"#utility.yul\":7400:7401   */\n      0x00\n        /* \"#utility.yul\":7397:7398   */\n      dup1\n        /* \"#utility.yul\":7390:7402   */\n      revert\n        /* \"#utility.yul\":7414:7516   */\n    tag_92:\n        /* \"#utility.yul\":7455:7461   */\n      0x00\n        /* \"#utility.yul\":7506:7508   */\n      0x1f\n        /* \"#utility.yul\":7502:7509   */\n      not\n        /* \"#utility.yul\":7497:7499   */\n      0x1f\n        /* \"#utility.yul\":7490:7495   */\n      dup4\n        /* \"#utility.yul\":7486:7500   */\n      add\n        /* \"#utility.yul\":7482:7510   */\n      and\n        /* \"#utility.yul\":7472:7510   */\n      swap1\n      pop\n        /* \"#utility.yul\":7414:7516   */\n      swap2\n      swap1\n      pop\n      jump\t// out\n        /* \"#utility.yul\":7522:7692   */\n    tag_104:\n        /* \"#utility.yul\":7662:7684   */\n      0x4661696c656420746f2073656e64204574686572000000000000000000000000\n        /* \"#utility.yul\":7658:7659   */\n      0x00\n        /* \"#utility.yul\":7650:7656   */\n      dup3\n        /* \"#utility.yul\":7646:7660   */\n      add\n        /* \"#utility.yul\":7639:7685   */\n      mstore\n        /* \"#utility.yul\":7522:7692   */\n      pop\n      jump\t// out\n        /* \"#utility.yul\":7698:7854   */\n    tag_109:\n        /* \"#utility.yul\":7838:7846   */\n      0x6661696c65640000000000000000000000000000000000000000000000000000\n        /* \"#utility.yul\":7834:7835   */\n      0x00\n        /* \"#utility.yul\":7826:7832   */\n      dup3\n        /* \"#utility.yul\":7822:7836   */\n      add\n        /* \"#utility.yul\":7815:7847   */\n      mstore\n        /* \"#utility.yul\":7698:7854   */\n      pop\n      jump\t// out\n        /* \"#utility.yul\":7860:7974   */\n    tag_114:\n      pop\n      jump\t// out\n        /* \"#utility.yul\":7980:8151   */\n    tag_119:\n        /* \"#utility.yul\":8120:8143   */\n      0x4661696c656420746f2073656e64206569746865720000000000000000000000\n        /* \"#utility.yul\":8116:8117   */\n      0x00\n        /* \"#utility.yul\":8108:8114   */\n      dup3\n        /* \"#utility.yul\":8104:8118   */\n      add\n        /* \"#utility.yul\":8097:8144   */\n      mstore\n        /* \"#utility.yul\":7980:8151   */\n      pop\n      jump\t// out\n        /* \"#utility.yul\":8157:8279   */\n    tag_65:\n        /* \"#utility.yul\":8230:8254   */\n      tag_162\n        /* \"#utility.yul\":8248:8253   */\n      dup2\n        /* \"#utility.yul\":8230:8254   */\n      tag_139\n      jump\t// in\n    tag_162:\n        /* \"#utility.yul\":8223:8228   */\n      dup2\n        /* \"#utility.yul\":8220:8255   */\n      eq\n        /* \"#utility.yul\":8210:8273   */\n      tag_163\n      jumpi\n        /* \"#utility.yul\":8269:8270   */\n      0x00\n        /* \"#utility.yul\":8266:8267   */\n      dup1\n        /* \"#utility.yul\":8259:8271   */\n      revert\n        /* \"#utility.yul\":8210:8273   */\n    tag_163:\n        /* \"#utility.yul\":8157:8279   */\n      pop\n      jump\t// out\n        /* \"#utility.yul\":8285:8423   */\n    tag_69:\n        /* \"#utility.yul\":8366:8398   */\n      tag_165\n        /* \"#utility.yul\":8392:8397   */\n      dup2\n        /* \"#utility.yul\":8366:8398   */\n      tag_143\n      jump\t// in\n    tag_165:\n        /* \"#utility.yul\":8359:8364   */\n      dup2\n        /* \"#utility.yul\":8356:8399   */\n      eq\n        /* \"#utility.yul\":8346:8417   */\n      tag_166\n      jumpi\n        /* \"#utility.yul\":8413:8414   */\n      0x00\n        /* \"#utility.yul\":8410:8411   */\n      dup1\n        /* \"#utility.yul\":8403:8415   */\n      revert\n        /* \"#utility.yul\":8346:8417   */\n    tag_166:\n        /* \"#utility.yul\":8285:8423   */\n      pop\n      jump\t// out\n\n    auxdata: 0xa2646970667358221220bb131891e26a917979e11cdd8d1581fa4c26f94cec37edf39ccb098c01bf443964736f6c63430008070033\n}\n",
				"bytecode": {
					"linkReferences": {},
					"object": "608060405234801561001057600080fd5b50610906806100206000396000f3fe60806040526004361061004a5760003560e01c80630b1fa23f1461004f57806356a967b41461006b57806375a4624d14610087578063a94952fe146100a3578063b5d2657c146100d4575b600080fd5b61006960048036038101906100649190610565565b610112565b005b61008560048036038101906100809190610565565b61018f565b005b6100a1600480360381019061009c9190610565565b6101d9565b005b6100bd60048036038101906100b89190610538565b610289565b6040516100cb9291906106c3565b60405180910390f35b3480156100e057600080fd5b506100fb60048036038101906100f69190610538565b6103cc565b6040516101099291906106c3565b60405180910390f35b60008173ffffffffffffffffffffffffffffffffffffffff166108fc349081150290604051600060405180830381858888f1935050505090508061018b576040517f08c379a000000000000000000000000000000000000000000000000000000000815260040161018290610733565b60405180910390fd5b5050565b8073ffffffffffffffffffffffffffffffffffffffff166108fc349081150290604051600060405180830381858888f193505050501580156101d5573d6000803e3d6000fd5b5050565b60008173ffffffffffffffffffffffffffffffffffffffff16346040516101ff906106ae565b60006040518083038185875af1925050503d806000811461023c576040519150601f19603f3d011682016040523d82523d6000602084013e610241565b606091505b5050905080610285576040517f08c379a000000000000000000000000000000000000000000000000000000000815260040161027c906106f3565b60405180910390fd5b5050565b600060606000808473ffffffffffffffffffffffffffffffffffffffff16346040516024016040516020818303038152906040527f2c23d2b4000000000000000000000000000000000000000000000000000000007bffffffffffffffffffffffffffffffffffffffffffffffffffffffff19166020820180517bffffffffffffffffffffffffffffffffffffffffffffffffffffffff83818316178352505050506040516103389190610697565b60006040518083038185875af1925050503d8060008114610375576040519150601f19603f3d011682016040523d82523d6000602084013e61037a565b606091505b5091509150816103bf576040517f08c379a00000000000000000000000000000000000000000000000000000000081526004016103b690610713565b60405180910390fd5b8181935093505050915091565b600060606000808473ffffffffffffffffffffffffffffffffffffffff166040516024016040516020818303038152906040527f2c23d2b4000000000000000000000000000000000000000000000000000000007bffffffffffffffffffffffffffffffffffffffffffffffffffffffff19166020820180517bffffffffffffffffffffffffffffffffffffffffffffffffffffffff838183161783525050505060405161047a9190610697565b6000604051808303816000865af19150503d80600081146104b7576040519150601f19603f3d011682016040523d82523d6000602084013e6104bc565b606091505b509150915081610501576040517f08c379a00000000000000000000000000000000000000000000000000000000081526004016104f890610713565b60405180910390fd5b8181935093505050915091565b60008135905061051d816108a2565b92915050565b600081359050610532816108b9565b92915050565b60006020828403121561054e5761054d61080e565b5b600061055c8482850161050e565b91505092915050565b60006020828403121561057b5761057a61080e565b5b600061058984828501610523565b91505092915050565b61059b816107af565b82525050565b60006105ac82610753565b6105b6818561075e565b93506105c68185602086016107db565b6105cf81610813565b840191505092915050565b60006105e582610753565b6105ef818561076f565b93506105ff8185602086016107db565b80840191505092915050565b600061061860148361077a565b915061062382610824565b602082019050919050565b600061063b60068361077a565b91506106468261084d565b602082019050919050565b600061065e60008361076f565b915061066982610876565b600082019050919050565b600061068160158361077a565b915061068c82610879565b602082019050919050565b60006106a382846105da565b915081905092915050565b60006106b982610651565b9150819050919050565b60006040820190506106d86000830185610592565b81810360208301526106ea81846105a1565b90509392505050565b6000602082019050818103600083015261070c8161060b565b9050919050565b6000602082019050818103600083015261072c8161062e565b9050919050565b6000602082019050818103600083015261074c81610674565b9050919050565b600081519050919050565b600082825260208201905092915050565b600081905092915050565b600082825260208201905092915050565b6000610796826107bb565b9050919050565b60006107a8826107bb565b9050919050565b60008115159050919050565b600073ffffffffffffffffffffffffffffffffffffffff82169050919050565b60005b838110156107f95780820151818401526020810190506107de565b83811115610808576000848401525b50505050565b600080fd5b6000601f19601f8301169050919050565b7f4661696c656420746f2073656e64204574686572000000000000000000000000600082015250565b7f6661696c65640000000000000000000000000000000000000000000000000000600082015250565b50565b7f4661696c656420746f2073656e64206569746865720000000000000000000000600082015250565b6108ab8161078b565b81146108b657600080fd5b50565b6108c28161079d565b81146108cd57600080fd5b5056fea2646970667358221220bb131891e26a917979e11cdd8d1581fa4c26f94cec37edf39ccb098c01bf443964736f6c63430008070033",
					"opcodes": "PUSH1 0x80 PUSH1 0x40 MSTORE CALLVALUE DUP1 ISZERO PUSH2 0x10 JUMPI PUSH1 0x0 DUP1 REVERT JUMPDEST POP PUSH2 0x906 DUP1 PUSH2 0x20 PUSH1 0x0 CODECOPY PUSH1 0x0 RETURN INVALID PUSH1 0x80 PUSH1 0x40 MSTORE PUSH1 0x4 CALLDATASIZE LT PUSH2 0x4A JUMPI PUSH1 0x0 CALLDATALOAD PUSH1 0xE0 SHR DUP1 PUSH4 0xB1FA23F EQ PUSH2 0x4F JUMPI DUP1 PUSH4 0x56A967B4 EQ PUSH2 0x6B JUMPI DUP1 PUSH4 0x75A4624D EQ PUSH2 0x87 JUMPI DUP1 PUSH4 0xA94952FE EQ PUSH2 0xA3 JUMPI DUP1 PUSH4 0xB5D2657C EQ PUSH2 0xD4 JUMPI JUMPDEST PUSH1 0x0 DUP1 REVERT JUMPDEST PUSH2 0x69 PUSH1 0x4 DUP1 CALLDATASIZE SUB DUP2 ADD SWAP1 PUSH2 0x64 SWAP2 SWAP1 PUSH2 0x565 JUMP JUMPDEST PUSH2 0x112 JUMP JUMPDEST STOP JUMPDEST PUSH2 0x85 PUSH1 0x4 DUP1 CALLDATASIZE SUB DUP2 ADD SWAP1 PUSH2 0x80 SWAP2 SWAP1 PUSH2 0x565 JUMP JUMPDEST PUSH2 0x18F JUMP JUMPDEST STOP JUMPDEST PUSH2 0xA1 PUSH1 0x4 DUP1 CALLDATASIZE SUB DUP2 ADD SWAP1 PUSH2 0x9C SWAP2 SWAP1 PUSH2 0x565 JUMP JUMPDEST PUSH2 0x1D9 JUMP JUMPDEST STOP JUMPDEST PUSH2 0xBD PUSH1 0x4 DUP1 CALLDATASIZE SUB DUP2 ADD SWAP1 PUSH2 0xB8 SWAP2 SWAP1 PUSH2 0x538 JUMP JUMPDEST PUSH2 0x289 JUMP JUMPDEST PUSH1 0x40 MLOAD PUSH2 0xCB SWAP3 SWAP2 SWAP1 PUSH2 0x6C3 JUMP JUMPDEST PUSH1 0x40 MLOAD DUP1 SWAP2 SUB SWAP1 RETURN JUMPDEST CALLVALUE DUP1 ISZERO PUSH2 0xE0 JUMPI PUSH1 0x0 DUP1 REVERT JUMPDEST POP PUSH2 0xFB PUSH1 0x4 DUP1 CALLDATASIZE SUB DUP2 ADD SWAP1 PUSH2 0xF6 SWAP2 SWAP1 PUSH2 0x538 JUMP JUMPDEST PUSH2 0x3CC JUMP JUMPDEST PUSH1 0x40 MLOAD PUSH2 0x109 SWAP3 SWAP2 SWAP1 PUSH2 0x6C3 JUMP JUMPDEST PUSH1 0x40 MLOAD DUP1 SWAP2 SUB SWAP1 RETURN JUMPDEST PUSH1 0x0 DUP2 PUSH20 0xFFFFFFFFFFFFFFFFFFFFFFFFFFFFFFFFFFFFFFFF AND PUSH2 0x8FC CALLVALUE SWAP1 DUP2 ISZERO MUL SWAP1 PUSH1 0x40 MLOAD PUSH1 0x0 PUSH1 0x40 MLOAD DUP1 DUP4 SUB DUP2 DUP6 DUP9 DUP9 CALL SWAP4 POP POP POP POP SWAP1 POP DUP1 PUSH2 0x18B JUMPI PUSH1 0x40 MLOAD PUSH32 0x8C379A000000000000000000000000000000000000000000000000000000000 DUP2 MSTORE PUSH1 0x4 ADD PUSH2 0x182 SWAP1 PUSH2 0x733 JUMP JUMPDEST PUSH1 0x40 MLOAD DUP1 SWAP2 SUB SWAP1 REVERT JUMPDEST POP POP JUMP JUMPDEST DUP1 PUSH20 0xFFFFFFFFFFFFFFFFFFFFFFFFFFFFFFFFFFFFFFFF AND PUSH2 0x8FC CALLVALUE SWAP1 DUP2 ISZERO MUL SWAP1 PUSH1 0x40 MLOAD PUSH1 0x0 PUSH1 0x40 MLOAD DUP1 DUP4 SUB DUP2 DUP6 DUP9 DUP9 CALL SWAP4 POP POP POP POP ISZERO DUP1 ISZERO PUSH2 0x1D5 JUMPI RETURNDATASIZE PUSH1 0x0 DUP1 RETURNDATACOPY RETURNDATASIZE PUSH1 0x0 REVERT JUMPDEST POP POP JUMP JUMPDEST PUSH1 0x0 DUP2 PUSH20 0xFFFFFFFFFFFFFFFFFFFFFFFFFFFFFFFFFFFFFFFF AND CALLVALUE PUSH1 0x40 MLOAD PUSH2 0x1FF SWAP1 PUSH2 0x6AE JUMP JUMPDEST PUSH1 0x0 PUSH1 0x40 MLOAD DUP1 DUP4 SUB DUP2 DUP6 DUP8 GAS CALL SWAP3 POP POP POP RETURNDATASIZE DUP1 PUSH1 0x0 DUP2 EQ PUSH2 0x23C JUMPI PUSH1 0x40 MLOAD SWAP2 POP PUSH1 0x1F NOT PUSH1 0x3F RETURNDATASIZE ADD AND DUP3 ADD PUSH1 0x40 MSTORE RETURNDATASIZE DUP3 MSTORE RETURNDATASIZE PUSH1 0x0 PUSH1 0x20 DUP5 ADD RETURNDATACOPY PUSH2 0x241 JUMP JUMPDEST PUSH1 0x60 SWAP2 POP JUMPDEST POP POP SWAP1 POP DUP1 PUSH2 0x285 JUMPI PUSH1 0x40 MLOAD PUSH32 0x8C379A000000000000000000000000000000000000000000000000000000000 DUP2 MSTORE PUSH1 0x4 ADD PUSH2 0x27C SWAP1 PUSH2 0x6F3 JUMP JUMPDEST PUSH1 0x40 MLOAD DUP1 SWAP2 SUB SWAP1 REVERT JUMPDEST POP POP JUMP JUMPDEST PUSH1 0x0 PUSH1 0x60 PUSH1 0x0 DUP1 DUP5 PUSH20 0xFFFFFFFFFFFFFFFFFFFFFFFFFFFFFFFFFFFFFFFF AND CALLVALUE PUSH1 0x40 MLOAD PUSH1 0x24 ADD PUSH1 0x40 MLOAD PUSH1 0x20 DUP2 DUP4 SUB SUB DUP2 MSTORE SWAP1 PUSH1 0x40 MSTORE PUSH32 0x2C23D2B400000000000000000000000000000000000000000000000000000000 PUSH28 0xFFFFFFFFFFFFFFFFFFFFFFFFFFFFFFFFFFFFFFFFFFFFFFFFFFFFFFFF NOT AND PUSH1 0x20 DUP3 ADD DUP1 MLOAD PUSH28 0xFFFFFFFFFFFFFFFFFFFFFFFFFFFFFFFFFFFFFFFFFFFFFFFFFFFFFFFF DUP4 DUP2 DUP4 AND OR DUP4 MSTORE POP POP POP POP PUSH1 0x40 MLOAD PUSH2 0x338 SWAP2 SWAP1 PUSH2 0x697 JUMP JUMPDEST PUSH1 0x0 PUSH1 0x40 MLOAD DUP1 DUP4 SUB DUP2 DUP6 DUP8 GAS CALL SWAP3 POP POP POP RETURNDATASIZE DUP1 PUSH1 0x0 DUP2 EQ PUSH2 0x375 JUMPI PUSH1 0x40 MLOAD SWAP2 POP PUSH1 0x1F NOT PUSH1 0x3F RETURNDATASIZE ADD AND DUP3 ADD PUSH1 0x40 MSTORE RETURNDATASIZE DUP3 MSTORE RETURNDATASIZE PUSH1 0x0 PUSH1 0x20 DUP5 ADD RETURNDATACOPY PUSH2 0x37A JUMP JUMPDEST PUSH1 0x60 SWAP2 POP JUMPDEST POP SWAP2 POP SWAP2 POP DUP2 PUSH2 0x3BF JUMPI PUSH1 0x40 MLOAD PUSH32 0x8C379A000000000000000000000000000000000000000000000000000000000 DUP2 MSTORE PUSH1 0x4 ADD PUSH2 0x3B6 SWAP1 PUSH2 0x713 JUMP JUMPDEST PUSH1 0x40 MLOAD DUP1 SWAP2 SUB SWAP1 REVERT JUMPDEST DUP2 DUP2 SWAP4 POP SWAP4 POP POP POP SWAP2 POP SWAP2 JUMP JUMPDEST PUSH1 0x0 PUSH1 0x60 PUSH1 0x0 DUP1 DUP5 PUSH20 0xFFFFFFFFFFFFFFFFFFFFFFFFFFFFFFFFFFFFFFFF AND PUSH1 0x40 MLOAD PUSH1 0x24 ADD PUSH1 0x40 MLOAD PUSH1 0x20 DUP2 DUP4 SUB SUB DUP2 MSTORE SWAP1 PUSH1 0x40 MSTORE PUSH32 0x2C23D2B400000000000000000000000000000000000000000000000000000000 PUSH28 0xFFFFFFFFFFFFFFFFFFFFFFFFFFFFFFFFFFFFFFFFFFFFFFFFFFFFFFFF NOT AND PUSH1 0x20 DUP3 ADD DUP1 MLOAD PUSH28 0xFFFFFFFFFFFFFFFFFFFFFFFFFFFFFFFFFFFFFFFFFFFFFFFFFFFFFFFF DUP4 DUP2 DUP4 AND OR DUP4 MSTORE POP POP POP POP PUSH1 0x40 MLOAD PUSH2 0x47A SWAP2 SWAP1 PUSH2 0x697 JUMP JUMPDEST PUSH1 0x0 PUSH1 0x40 MLOAD DUP1 DUP4 SUB DUP2 PUSH1 0x0 DUP7 GAS CALL SWAP2 POP POP RETURNDATASIZE DUP1 PUSH1 0x0 DUP2 EQ PUSH2 0x4B7 JUMPI PUSH1 0x40 MLOAD SWAP2 POP PUSH1 0x1F NOT PUSH1 0x3F RETURNDATASIZE ADD AND DUP3 ADD PUSH1 0x40 MSTORE RETURNDATASIZE DUP3 MSTORE RETURNDATASIZE PUSH1 0x0 PUSH1 0x20 DUP5 ADD RETURNDATACOPY PUSH2 0x4BC JUMP JUMPDEST PUSH1 0x60 SWAP2 POP JUMPDEST POP SWAP2 POP SWAP2 POP DUP2 PUSH2 0x501 JUMPI PUSH1 0x40 MLOAD PUSH32 0x8C379A000000000000000000000000000000000000000000000000000000000 DUP2 MSTORE PUSH1 0x4 ADD PUSH2 0x4F8 SWAP1 PUSH2 0x713 JUMP JUMPDEST PUSH1 0x40 MLOAD DUP1 SWAP2 SUB SWAP1 REVERT JUMPDEST DUP2 DUP2 SWAP4 POP SWAP4 POP POP POP SWAP2 POP SWAP2 JUMP JUMPDEST PUSH1 0x0 DUP2 CALLDATALOAD SWAP1 POP PUSH2 0x51D DUP2 PUSH2 0x8A2 JUMP JUMPDEST SWAP3 SWAP2 POP POP JUMP JUMPDEST PUSH1 0x0 DUP2 CALLDATALOAD SWAP1 POP PUSH2 0x532 DUP2 PUSH2 0x8B9 JUMP JUMPDEST SWAP3 SWAP2 POP POP JUMP JUMPDEST PUSH1 0x0 PUSH1 0x20 DUP3 DUP5 SUB SLT ISZERO PUSH2 0x54E JUMPI PUSH2 0x54D PUSH2 0x80E JUMP JUMPDEST JUMPDEST PUSH1 0x0 PUSH2 0x55C DUP5 DUP3 DUP6 ADD PUSH2 0x50E JUMP JUMPDEST SWAP2 POP POP SWAP3 SWAP2 POP POP JUMP JUMPDEST PUSH1 0x0 PUSH1 0x20 DUP3 DUP5 SUB SLT ISZERO PUSH2 0x57B JUMPI PUSH2 0x57A PUSH2 0x80E JUMP JUMPDEST JUMPDEST PUSH1 0x0 PUSH2 0x589 DUP5 DUP3 DUP6 ADD PUSH2 0x523 JUMP JUMPDEST SWAP2 POP POP SWAP3 SWAP2 POP POP JUMP JUMPDEST PUSH2 0x59B DUP2 PUSH2 0x7AF JUMP JUMPDEST DUP3 MSTORE POP POP JUMP JUMPDEST PUSH1 0x0 PUSH2 0x5AC DUP3 PUSH2 0x753 JUMP JUMPDEST PUSH2 0x5B6 DUP2 DUP6 PUSH2 0x75E JUMP JUMPDEST SWAP4 POP PUSH2 0x5C6 DUP2 DUP6 PUSH1 0x20 DUP7 ADD PUSH2 0x7DB JUMP JUMPDEST PUSH2 0x5CF DUP2 PUSH2 0x813 JUMP JUMPDEST DUP5 ADD SWAP2 POP POP SWAP3 SWAP2 POP POP JUMP JUMPDEST PUSH1 0x0 PUSH2 0x5E5 DUP3 PUSH2 0x753 JUMP JUMPDEST PUSH2 0x5EF DUP2 DUP6 PUSH2 0x76F JUMP JUMPDEST SWAP4 POP PUSH2 0x5FF DUP2 DUP6 PUSH1 0x20 DUP7 ADD PUSH2 0x7DB JUMP JUMPDEST DUP1 DUP5 ADD SWAP2 POP POP SWAP3 SWAP2 POP POP JUMP JUMPDEST PUSH1 0x0 PUSH2 0x618 PUSH1 0x14 DUP4 PUSH2 0x77A JUMP JUMPDEST SWAP2 POP PUSH2 0x623 DUP3 PUSH2 0x824 JUMP JUMPDEST PUSH1 0x20 DUP3 ADD SWAP1 POP SWAP2 SWAP1 POP JUMP JUMPDEST PUSH1 0x0 PUSH2 0x63B PUSH1 0x6 DUP4 PUSH2 0x77A JUMP JUMPDEST SWAP2 POP PUSH2 0x646 DUP3 PUSH2 0x84D JUMP JUMPDEST PUSH1 0x20 DUP3 ADD SWAP1 POP SWAP2 SWAP1 POP JUMP JUMPDEST PUSH1 0x0 PUSH2 0x65E PUSH1 0x0 DUP4 PUSH2 0x76F JUMP JUMPDEST SWAP2 POP PUSH2 0x669 DUP3 PUSH2 0x876 JUMP JUMPDEST PUSH1 0x0 DUP3 ADD SWAP1 POP SWAP2 SWAP1 POP JUMP JUMPDEST PUSH1 0x0 PUSH2 0x681 PUSH1 0x15 DUP4 PUSH2 0x77A JUMP JUMPDEST SWAP2 POP PUSH2 0x68C DUP3 PUSH2 0x879 JUMP JUMPDEST PUSH1 0x20 DUP3 ADD SWAP1 POP SWAP2 SWAP1 POP JUMP JUMPDEST PUSH1 0x0 PUSH2 0x6A3 DUP3 DUP5 PUSH2 0x5DA JUMP JUMPDEST SWAP2 POP DUP2 SWAP1 POP SWAP3 SWAP2 POP POP JUMP JUMPDEST PUSH1 0x0 PUSH2 0x6B9 DUP3 PUSH2 0x651 JUMP JUMPDEST SWAP2 POP DUP2 SWAP1 POP SWAP2 SWAP1 POP JUMP JUMPDEST PUSH1 0x0 PUSH1 0x40 DUP3 ADD SWAP1 POP PUSH2 0x6D8 PUSH1 0x0 DUP4 ADD DUP6 PUSH2 0x592 JUMP JUMPDEST DUP2 DUP2 SUB PUSH1 0x20 DUP4 ADD MSTORE PUSH2 0x6EA DUP2 DUP5 PUSH2 0x5A1 JUMP JUMPDEST SWAP1 POP SWAP4 SWAP3 POP POP POP JUMP JUMPDEST PUSH1 0x0 PUSH1 0x20 DUP3 ADD SWAP1 POP DUP2 DUP2 SUB PUSH1 0x0 DUP4 ADD MSTORE PUSH2 0x70C DUP2 PUSH2 0x60B JUMP JUMPDEST SWAP1 POP SWAP2 SWAP1 POP JUMP JUMPDEST PUSH1 0x0 PUSH1 0x20 DUP3 ADD SWAP1 POP DUP2 DUP2 SUB PUSH1 0x0 DUP4 ADD MSTORE PUSH2 0x72C DUP2 PUSH2 0x62E JUMP JUMPDEST SWAP1 POP SWAP2 SWAP1 POP JUMP JUMPDEST PUSH1 0x0 PUSH1 0x20 DUP3 ADD SWAP1 POP DUP2 DUP2 SUB PUSH1 0x0 DUP4 ADD MSTORE PUSH2 0x74C DUP2 PUSH2 0x674 JUMP JUMPDEST SWAP1 POP SWAP2 SWAP1 POP JUMP JUMPDEST PUSH1 0x0 DUP2 MLOAD SWAP1 POP SWAP2 SWAP1 POP JUMP JUMPDEST PUSH1 0x0 DUP3 DUP3 MSTORE PUSH1 0x20 DUP3 ADD SWAP1 POP SWAP3 SWAP2 POP POP JUMP JUMPDEST PUSH1 0x0 DUP2 SWAP1 POP SWAP3 SWAP2 POP POP JUMP JUMPDEST PUSH1 0x0 DUP3 DUP3 MSTORE PUSH1 0x20 DUP3 ADD SWAP1 POP SWAP3 SWAP2 POP POP JUMP JUMPDEST PUSH1 0x0 PUSH2 0x796 DUP3 PUSH2 0x7BB JUMP JUMPDEST SWAP1 POP SWAP2 SWAP1 POP JUMP JUMPDEST PUSH1 0x0 PUSH2 0x7A8 DUP3 PUSH2 0x7BB JUMP JUMPDEST SWAP1 POP SWAP2 SWAP1 POP JUMP JUMPDEST PUSH1 0x0 DUP2 ISZERO ISZERO SWAP1 POP SWAP2 SWAP1 POP JUMP JUMPDEST PUSH1 0x0 PUSH20 0xFFFFFFFFFFFFFFFFFFFFFFFFFFFFFFFFFFFFFFFF DUP3 AND SWAP1 POP SWAP2 SWAP1 POP JUMP JUMPDEST PUSH1 0x0 JUMPDEST DUP4 DUP2 LT ISZERO PUSH2 0x7F9 JUMPI DUP1 DUP3 ADD MLOAD DUP2 DUP5 ADD MSTORE PUSH1 0x20 DUP2 ADD SWAP1 POP PUSH2 0x7DE JUMP JUMPDEST DUP4 DUP2 GT ISZERO PUSH2 0x808 JUMPI PUSH1 0x0 DUP5 DUP5 ADD MSTORE JUMPDEST POP POP POP POP JUMP JUMPDEST PUSH1 0x0 DUP1 REVERT JUMPDEST PUSH1 0x0 PUSH1 0x1F NOT PUSH1 0x1F DUP4 ADD AND SWAP1 POP SWAP2 SWAP1 POP JUMP JUMPDEST PUSH32 0x4661696C656420746F2073656E64204574686572000000000000000000000000 PUSH1 0x0 DUP3 ADD MSTORE POP JUMP JUMPDEST PUSH32 0x6661696C65640000000000000000000000000000000000000000000000000000 PUSH1 0x0 DUP3 ADD MSTORE POP JUMP JUMPDEST POP JUMP JUMPDEST PUSH32 0x4661696C656420746F2073656E64206569746865720000000000000000000000 PUSH1 0x0 DUP3 ADD MSTORE POP JUMP JUMPDEST PUSH2 0x8AB DUP2 PUSH2 0x78B JUMP JUMPDEST DUP2 EQ PUSH2 0x8B6 JUMPI PUSH1 0x0 DUP1 REVERT JUMPDEST POP JUMP JUMPDEST PUSH2 0x8C2 DUP2 PUSH2 0x79D JUMP JUMPDEST DUP2 EQ PUSH2 0x8CD JUMPI PUSH1 0x0 DUP1 REVERT JUMPDEST POP JUMP INVALID LOG2 PUSH5 0x6970667358 0x22 SLT KECCAK256 0xBB SGT XOR SWAP2 0xE2 PUSH11 0x917979E11CDD8D1581FA4C 0x26 0xF9 0x4C 0xEC CALLDATACOPY 0xED RETURN SWAP13 0xCB MULMOD DUP13 ADD 0xBF DIFFICULTY CODECOPY PUSH5 0x736F6C6343 STOP ADDMOD SMOD STOP CALLER "
				},
				"gasEstimates": {
					"creation": {
						"codeDepositCost": "462000",
						"executionCost": "499",
						"totalCost": "462499"
					},
					"external": {
						"callNow(address)": "infinite",
						"callWrong(address)": "infinite",
						"callWrong2(address)": "infinite",
						"sendNow(address)": "infinite",
						"transferNow(address)": "infinite"
					}
				},
				"methodIdentifiers": {
					"callNow(address)": "75a4624d",
					"callWrong(address)": "b5d2657c",
					"callWrong2(address)": "a94952fe",
					"sendNow(address)": "0b1fa23f",
					"transferNow(address)": "56a967b4"
				}
			},
			"storageLayout": {
				"storage": [],
				"types": null
			},
			"userdoc": {
				"kind": "user",
				"methods": {},
				"version": 1
			}
		}
	}
}