{
	"send, transfer, call,/lec15.sol": {
		"lec14": {
			"abi": [
				{
					"inputs": [
						{
							"internalType": "address payable",
							"name": "_to",
							"type": "address"
						}
					],
					"name": "callNow",
					"outputs": [],
					"stateMutability": "payable",
					"type": "function"
				},
				{
					"inputs": [
						{
							"internalType": "address",
							"name": "_safeAddress",
							"type": "address"
						}
					],
					"name": "callWrong",
					"outputs": [
						{
							"internalType": "bool",
							"name": "",
							"type": "bool"
						},
						{
							"internalType": "bytes",
							"name": "",
							"type": "bytes"
						}
					],
					"stateMutability": "nonpayable",
					"type": "function"
				},
				{
					"inputs": [
						{
							"internalType": "address",
							"name": "_safeAddress",
							"type": "address"
						}
					],
					"name": "callWrong2",
					"outputs": [
						{
							"internalType": "bool",
							"name": "",
							"type": "bool"
						},
						{
							"internalType": "bytes",
							"name": "",
							"type": "bytes"
						}
					],
					"stateMutability": "payable",
					"type": "function"
				}
			],
			"devdoc": {
				"kind": "dev",
				"methods": {},
				"version": 1
			},
			"evm": {
				"assembly": "    /* \"send, transfer, call,/lec15.sol\":1148:2004  contract lec14 {\r... */\n  mstore(0x40, 0x80)\n  callvalue\n  dup1\n  iszero\n  tag_1\n  jumpi\n  0x00\n  dup1\n  revert\ntag_1:\n  pop\n  dataSize(sub_0)\n  dup1\n  dataOffset(sub_0)\n  0x00\n  codecopy\n  0x00\n  return\nstop\n\nsub_0: assembly {\n        /* \"send, transfer, call,/lec15.sol\":1148:2004  contract lec14 {\r... */\n      mstore(0x40, 0x80)\n      jumpi(tag_1, lt(calldatasize, 0x04))\n      shr(0xe0, calldataload(0x00))\n      dup1\n      0x75a4624d\n      eq\n      tag_2\n      jumpi\n      dup1\n      0xa94952fe\n      eq\n      tag_3\n      jumpi\n      dup1\n      0xb5d2657c\n      eq\n      tag_4\n      jumpi\n    tag_1:\n      0x00\n      dup1\n      revert\n        /* \"send, transfer, call,/lec15.sol\":1174:1348  function callNow (address payable _to) public payable{\r... */\n    tag_2:\n      tag_5\n      0x04\n      dup1\n      calldatasize\n      sub\n      dup2\n      add\n      swap1\n      tag_6\n      swap2\n      swap1\n      tag_7\n      jump\t// in\n    tag_6:\n      tag_8\n      jump\t// in\n    tag_5:\n      stop\n        /* \"send, transfer, call,/lec15.sol\":1669:2001  function callWrong2 (address _safeAddress) public payable returns(bool,bytes memory) {\r... */\n    tag_3:\n      tag_9\n      0x04\n      dup1\n      calldatasize\n      sub\n      dup2\n      add\n      swap1\n      tag_10\n      swap2\n      swap1\n      tag_11\n      jump\t// in\n    tag_10:\n      tag_12\n      jump\t// in\n    tag_9:\n      mload(0x40)\n      tag_13\n      swap3\n      swap2\n      swap1\n      tag_14\n      jump\t// in\n    tag_13:\n      mload(0x40)\n      dup1\n      swap2\n      sub\n      swap1\n      return\n        /* \"send, transfer, call,/lec15.sol\":1356:1661  function callWrong (address _safeAddress) public returns(bool,bytes memory) {\r... */\n    tag_4:\n      callvalue\n      dup1\n      iszero\n      tag_15\n      jumpi\n      0x00\n      dup1\n      revert\n    tag_15:\n      pop\n      tag_16\n      0x04\n      dup1\n      calldatasize\n      sub\n      dup2\n      add\n      swap1\n      tag_17\n      swap2\n      swap1\n      tag_11\n      jump\t// in\n    tag_17:\n      tag_18\n      jump\t// in\n    tag_16:\n      mload(0x40)\n      tag_19\n      swap3\n      swap2\n      swap1\n      tag_14\n      jump\t// in\n    tag_19:\n      mload(0x40)\n      dup1\n      swap2\n      sub\n      swap1\n      return\n        /* \"send, transfer, call,/lec15.sol\":1174:1348  function callNow (address payable _to) public payable{\r... */\n    tag_8:\n        /* \"send, transfer, call,/lec15.sol\":1239:1248  bool sent */\n      0x00\n        /* \"send, transfer, call,/lec15.sol\":1254:1257  _to */\n      dup2\n        /* \"send, transfer, call,/lec15.sol\":1254:1262  _to.call */\n      0xffffffffffffffffffffffffffffffffffffffff\n      and\n        /* \"send, transfer, call,/lec15.sol\":1270:1279  msg.value */\n      callvalue\n        /* \"send, transfer, call,/lec15.sol\":1254:1284  _to.call{value: msg.value}(\"\") */\n      mload(0x40)\n      tag_21\n      swap1\n      tag_22\n      jump\t// in\n    tag_21:\n      0x00\n      mload(0x40)\n      dup1\n      dup4\n      sub\n      dup2\n      dup6\n      dup8\n      gas\n      call\n      swap3\n      pop\n      pop\n      pop\n      returndatasize\n      dup1\n      0x00\n      dup2\n      eq\n      tag_25\n      jumpi\n      mload(0x40)\n      swap2\n      pop\n      and(add(returndatasize, 0x3f), not(0x1f))\n      dup3\n      add\n      0x40\n      mstore\n      returndatasize\n      dup3\n      mstore\n      returndatasize\n      0x00\n      0x20\n      dup5\n      add\n      returndatacopy\n      jump(tag_24)\n    tag_25:\n      0x60\n      swap2\n      pop\n    tag_24:\n      pop\n        /* \"send, transfer, call,/lec15.sol\":1238:1284  (bool sent, ) = _to.call{value: msg.value}(\"\") */\n      pop\n      swap1\n      pop\n        /* \"send, transfer, call,/lec15.sol\":1303:1307  sent */\n      dup1\n        /* \"send, transfer, call,/lec15.sol\":1295:1332  require(sent, \"Failed to send Ether\") */\n      tag_26\n      jumpi\n      mload(0x40)\n      0x08c379a000000000000000000000000000000000000000000000000000000000\n      dup2\n      mstore\n      0x04\n      add\n      tag_27\n      swap1\n      tag_28\n      jump\t// in\n    tag_27:\n      mload(0x40)\n      dup1\n      swap2\n      sub\n      swap1\n      revert\n    tag_26:\n        /* \"send, transfer, call,/lec15.sol\":1227:1348  {\r... */\n      pop\n        /* \"send, transfer, call,/lec15.sol\":1174:1348  function callNow (address payable _to) public payable{\r... */\n      pop\n      jump\t// out\n        /* \"send, transfer, call,/lec15.sol\":1669:2001  function callWrong2 (address _safeAddress) public payable returns(bool,bytes memory) {\r... */\n    tag_12:\n        /* \"send, transfer, call,/lec15.sol\":1735:1739  bool */\n      0x00\n        /* \"send, transfer, call,/lec15.sol\":1740:1752  bytes memory */\n      0x60\n        /* \"send, transfer, call,/lec15.sol\":1766:1775  bool sent */\n      0x00\n        /* \"send, transfer, call,/lec15.sol\":1776:1813  bytes memory outputFromCalledFunction */\n      dup1\n        /* \"send, transfer, call,/lec15.sol\":1817:1829  _safeAddress */\n      dup5\n        /* \"send, transfer, call,/lec15.sol\":1817:1834  _safeAddress.call */\n      0xffffffffffffffffffffffffffffffffffffffff\n      and\n        /* \"send, transfer, call,/lec15.sol\":1842:1851  msg.value */\n      callvalue\n        /* \"send, transfer, call,/lec15.sol\":1867:1901  abi.encodeWithSignature(\"wrong()\") */\n      add(0x24, mload(0x40))\n      mload(0x40)\n      0x20\n      dup2\n      dup4\n      sub\n      sub\n      dup2\n      mstore\n      swap1\n      0x40\n      mstore\n      and(not(0xffffffffffffffffffffffffffffffffffffffffffffffffffffffff), 0x2c23d2b400000000000000000000000000000000000000000000000000000000)\n      0x20\n      dup3\n      add\n      dup1\n      mload\n      0xffffffffffffffffffffffffffffffffffffffffffffffffffffffff\n      dup4\n      dup2\n      dup4\n      and\n      or\n      dup4\n      mstore\n      pop\n      pop\n      pop\n      pop\n        /* \"send, transfer, call,/lec15.sol\":1817:1912  _safeAddress.call{value :msg.value}(\r... */\n      mload(0x40)\n      tag_30\n      swap2\n      swap1\n      tag_31\n      jump\t// in\n    tag_30:\n      0x00\n      mload(0x40)\n      dup1\n      dup4\n      sub\n      dup2\n      dup6\n      dup8\n      gas\n      call\n      swap3\n      pop\n      pop\n      pop\n      returndatasize\n      dup1\n      0x00\n      dup2\n      eq\n      tag_34\n      jumpi\n      mload(0x40)\n      swap2\n      pop\n      and(add(returndatasize, 0x3f), not(0x1f))\n      dup3\n      add\n      0x40\n      mstore\n      returndatasize\n      dup3\n      mstore\n      returndatasize\n      0x00\n      0x20\n      dup5\n      add\n      returndatacopy\n      jump(tag_33)\n    tag_34:\n      0x60\n      swap2\n      pop\n    tag_33:\n      pop\n        /* \"send, transfer, call,/lec15.sol\":1765:1912  (bool sent,bytes memory outputFromCalledFunction) = _safeAddress.call{value :msg.value}(\r... */\n      swap2\n      pop\n      swap2\n      pop\n        /* \"send, transfer, call,/lec15.sol\":1931:1935  sent */\n      dup2\n        /* \"send, transfer, call,/lec15.sol\":1923:1945  require(sent,\"failed\") */\n      tag_35\n      jumpi\n      mload(0x40)\n      0x08c379a000000000000000000000000000000000000000000000000000000000\n      dup2\n      mstore\n      0x04\n      add\n      tag_36\n      swap1\n      tag_37\n      jump\t// in\n    tag_36:\n      mload(0x40)\n      dup1\n      swap2\n      sub\n      swap1\n      revert\n    tag_35:\n        /* \"send, transfer, call,/lec15.sol\":1963:1967  sent */\n      dup2\n        /* \"send, transfer, call,/lec15.sol\":1968:1992  outputFromCalledFunction */\n      dup2\n        /* \"send, transfer, call,/lec15.sol\":1956:1993  return(sent,outputFromCalledFunction) */\n      swap4\n      pop\n      swap4\n      pop\n      pop\n      pop\n        /* \"send, transfer, call,/lec15.sol\":1669:2001  function callWrong2 (address _safeAddress) public payable returns(bool,bytes memory) {\r... */\n      swap2\n      pop\n      swap2\n      jump\t// out\n        /* \"send, transfer, call,/lec15.sol\":1356:1661  function callWrong (address _safeAddress) public returns(bool,bytes memory) {\r... */\n    tag_18:\n        /* \"send, transfer, call,/lec15.sol\":1413:1417  bool */\n      0x00\n        /* \"send, transfer, call,/lec15.sol\":1418:1430  bytes memory */\n      0x60\n        /* \"send, transfer, call,/lec15.sol\":1444:1453  bool sent */\n      0x00\n        /* \"send, transfer, call,/lec15.sol\":1454:1491  bytes memory outputFromCalledFunction */\n      dup1\n        /* \"send, transfer, call,/lec15.sol\":1495:1507  _safeAddress */\n      dup5\n        /* \"send, transfer, call,/lec15.sol\":1495:1512  _safeAddress.call */\n      0xffffffffffffffffffffffffffffffffffffffff\n      and\n        /* \"send, transfer, call,/lec15.sol\":1527:1561  abi.encodeWithSignature(\"wrong()\") */\n      add(0x24, mload(0x40))\n      mload(0x40)\n      0x20\n      dup2\n      dup4\n      sub\n      sub\n      dup2\n      mstore\n      swap1\n      0x40\n      mstore\n      and(not(0xffffffffffffffffffffffffffffffffffffffffffffffffffffffff), 0x2c23d2b400000000000000000000000000000000000000000000000000000000)\n      0x20\n      dup3\n      add\n      dup1\n      mload\n      0xffffffffffffffffffffffffffffffffffffffffffffffffffffffff\n      dup4\n      dup2\n      dup4\n      and\n      or\n      dup4\n      mstore\n      pop\n      pop\n      pop\n      pop\n        /* \"send, transfer, call,/lec15.sol\":1495:1572  _safeAddress.call(\r... */\n      mload(0x40)\n      tag_39\n      swap2\n      swap1\n      tag_31\n      jump\t// in\n    tag_39:\n      0x00\n      mload(0x40)\n      dup1\n      dup4\n      sub\n      dup2\n      0x00\n      dup7\n      gas\n      call\n      swap2\n      pop\n      pop\n      returndatasize\n      dup1\n      0x00\n      dup2\n      eq\n      tag_42\n      jumpi\n      mload(0x40)\n      swap2\n      pop\n      and(add(returndatasize, 0x3f), not(0x1f))\n      dup3\n      add\n      0x40\n      mstore\n      returndatasize\n      dup3\n      mstore\n      returndatasize\n      0x00\n      0x20\n      dup5\n      add\n      returndatacopy\n      jump(tag_41)\n    tag_42:\n      0x60\n      swap2\n      pop\n    tag_41:\n      pop\n        /* \"send, transfer, call,/lec15.sol\":1443:1572  (bool sent,bytes memory outputFromCalledFunction) = _safeAddress.call(\r... */\n      swap2\n      pop\n      swap2\n      pop\n        /* \"send, transfer, call,/lec15.sol\":1591:1595  sent */\n      dup2\n        /* \"send, transfer, call,/lec15.sol\":1583:1605  require(sent,\"failed\") */\n      tag_43\n      jumpi\n      mload(0x40)\n      0x08c379a000000000000000000000000000000000000000000000000000000000\n      dup2\n      mstore\n      0x04\n      add\n      tag_44\n      swap1\n      tag_37\n      jump\t// in\n    tag_44:\n      mload(0x40)\n      dup1\n      swap2\n      sub\n      swap1\n      revert\n    tag_43:\n        /* \"send, transfer, call,/lec15.sol\":1623:1627  sent */\n      dup2\n        /* \"send, transfer, call,/lec15.sol\":1628:1652  outputFromCalledFunction */\n      dup2\n        /* \"send, transfer, call,/lec15.sol\":1616:1653  return(sent,outputFromCalledFunction) */\n      swap4\n      pop\n      swap4\n      pop\n      pop\n      pop\n        /* \"send, transfer, call,/lec15.sol\":1356:1661  function callWrong (address _safeAddress) public returns(bool,bytes memory) {\r... */\n      swap2\n      pop\n      swap2\n      jump\t// out\n        /* \"#utility.yul\":7:146   */\n    tag_46:\n        /* \"#utility.yul\":53:58   */\n      0x00\n        /* \"#utility.yul\":91:97   */\n      dup2\n        /* \"#utility.yul\":78:98   */\n      calldataload\n        /* \"#utility.yul\":69:98   */\n      swap1\n      pop\n        /* \"#utility.yul\":107:140   */\n      tag_48\n        /* \"#utility.yul\":134:139   */\n      dup2\n        /* \"#utility.yul\":107:140   */\n      tag_49\n      jump\t// in\n    tag_48:\n        /* \"#utility.yul\":7:146   */\n      swap3\n      swap2\n      pop\n      pop\n      jump\t// out\n        /* \"#utility.yul\":152:307   */\n    tag_50:\n        /* \"#utility.yul\":206:211   */\n      0x00\n        /* \"#utility.yul\":244:250   */\n      dup2\n        /* \"#utility.yul\":231:251   */\n      calldataload\n        /* \"#utility.yul\":222:251   */\n      swap1\n      pop\n        /* \"#utility.yul\":260:301   */\n      tag_52\n        /* \"#utility.yul\":295:300   */\n      dup2\n        /* \"#utility.yul\":260:301   */\n      tag_53\n      jump\t// in\n    tag_52:\n        /* \"#utility.yul\":152:307   */\n      swap3\n      swap2\n      pop\n      pop\n      jump\t// out\n        /* \"#utility.yul\":313:642   */\n    tag_11:\n        /* \"#utility.yul\":372:378   */\n      0x00\n        /* \"#utility.yul\":421:423   */\n      0x20\n        /* \"#utility.yul\":409:418   */\n      dup3\n        /* \"#utility.yul\":400:407   */\n      dup5\n        /* \"#utility.yul\":396:419   */\n      sub\n        /* \"#utility.yul\":392:424   */\n      slt\n        /* \"#utility.yul\":389:508   */\n      iszero\n      tag_55\n      jumpi\n        /* \"#utility.yul\":427:506   */\n      tag_56\n      tag_57\n      jump\t// in\n    tag_56:\n        /* \"#utility.yul\":389:508   */\n    tag_55:\n        /* \"#utility.yul\":547:548   */\n      0x00\n        /* \"#utility.yul\":572:625   */\n      tag_58\n        /* \"#utility.yul\":617:624   */\n      dup5\n        /* \"#utility.yul\":608:614   */\n      dup3\n        /* \"#utility.yul\":597:606   */\n      dup6\n        /* \"#utility.yul\":593:615   */\n      add\n        /* \"#utility.yul\":572:625   */\n      tag_46\n      jump\t// in\n    tag_58:\n        /* \"#utility.yul\":562:625   */\n      swap2\n      pop\n        /* \"#utility.yul\":518:635   */\n      pop\n        /* \"#utility.yul\":313:642   */\n      swap3\n      swap2\n      pop\n      pop\n      jump\t// out\n        /* \"#utility.yul\":648:993   */\n    tag_7:\n        /* \"#utility.yul\":715:721   */\n      0x00\n        /* \"#utility.yul\":764:766   */\n      0x20\n        /* \"#utility.yul\":752:761   */\n      dup3\n        /* \"#utility.yul\":743:750   */\n      dup5\n        /* \"#utility.yul\":739:762   */\n      sub\n        /* \"#utility.yul\":735:767   */\n      slt\n        /* \"#utility.yul\":732:851   */\n      iszero\n      tag_60\n      jumpi\n        /* \"#utility.yul\":770:849   */\n      tag_61\n      tag_57\n      jump\t// in\n    tag_61:\n        /* \"#utility.yul\":732:851   */\n    tag_60:\n        /* \"#utility.yul\":890:891   */\n      0x00\n        /* \"#utility.yul\":915:976   */\n      tag_62\n        /* \"#utility.yul\":968:975   */\n      dup5\n        /* \"#utility.yul\":959:965   */\n      dup3\n        /* \"#utility.yul\":948:957   */\n      dup6\n        /* \"#utility.yul\":944:966   */\n      add\n        /* \"#utility.yul\":915:976   */\n      tag_50\n      jump\t// in\n    tag_62:\n        /* \"#utility.yul\":905:976   */\n      swap2\n      pop\n        /* \"#utility.yul\":861:986   */\n      pop\n        /* \"#utility.yul\":648:993   */\n      swap3\n      swap2\n      pop\n      pop\n      jump\t// out\n        /* \"#utility.yul\":999:1108   */\n    tag_63:\n        /* \"#utility.yul\":1080:1101   */\n      tag_65\n        /* \"#utility.yul\":1095:1100   */\n      dup2\n        /* \"#utility.yul\":1080:1101   */\n      tag_66\n      jump\t// in\n    tag_65:\n        /* \"#utility.yul\":1075:1078   */\n      dup3\n        /* \"#utility.yul\":1068:1102   */\n      mstore\n        /* \"#utility.yul\":999:1108   */\n      pop\n      pop\n      jump\t// out\n        /* \"#utility.yul\":1114:1474   */\n    tag_67:\n        /* \"#utility.yul\":1200:1203   */\n      0x00\n        /* \"#utility.yul\":1228:1266   */\n      tag_69\n        /* \"#utility.yul\":1260:1265   */\n      dup3\n        /* \"#utility.yul\":1228:1266   */\n      tag_70\n      jump\t// in\n    tag_69:\n        /* \"#utility.yul\":1282:1352   */\n      tag_71\n        /* \"#utility.yul\":1345:1351   */\n      dup2\n        /* \"#utility.yul\":1340:1343   */\n      dup6\n        /* \"#utility.yul\":1282:1352   */\n      tag_72\n      jump\t// in\n    tag_71:\n        /* \"#utility.yul\":1275:1352   */\n      swap4\n      pop\n        /* \"#utility.yul\":1361:1413   */\n      tag_73\n        /* \"#utility.yul\":1406:1412   */\n      dup2\n        /* \"#utility.yul\":1401:1404   */\n      dup6\n        /* \"#utility.yul\":1394:1398   */\n      0x20\n        /* \"#utility.yul\":1387:1392   */\n      dup7\n        /* \"#utility.yul\":1383:1399   */\n      add\n        /* \"#utility.yul\":1361:1413   */\n      tag_74\n      jump\t// in\n    tag_73:\n        /* \"#utility.yul\":1438:1467   */\n      tag_75\n        /* \"#utility.yul\":1460:1466   */\n      dup2\n        /* \"#utility.yul\":1438:1467   */\n      tag_76\n      jump\t// in\n    tag_75:\n        /* \"#utility.yul\":1433:1436   */\n      dup5\n        /* \"#utility.yul\":1429:1468   */\n      add\n        /* \"#utility.yul\":1422:1468   */\n      swap2\n      pop\n        /* \"#utility.yul\":1204:1474   */\n      pop\n        /* \"#utility.yul\":1114:1474   */\n      swap3\n      swap2\n      pop\n      pop\n      jump\t// out\n        /* \"#utility.yul\":1480:1853   */\n    tag_77:\n        /* \"#utility.yul\":1584:1587   */\n      0x00\n        /* \"#utility.yul\":1612:1650   */\n      tag_79\n        /* \"#utility.yul\":1644:1649   */\n      dup3\n        /* \"#utility.yul\":1612:1650   */\n      tag_70\n      jump\t// in\n    tag_79:\n        /* \"#utility.yul\":1666:1754   */\n      tag_80\n        /* \"#utility.yul\":1747:1753   */\n      dup2\n        /* \"#utility.yul\":1742:1745   */\n      dup6\n        /* \"#utility.yul\":1666:1754   */\n      tag_81\n      jump\t// in\n    tag_80:\n        /* \"#utility.yul\":1659:1754   */\n      swap4\n      pop\n        /* \"#utility.yul\":1763:1815   */\n      tag_82\n        /* \"#utility.yul\":1808:1814   */\n      dup2\n        /* \"#utility.yul\":1803:1806   */\n      dup6\n        /* \"#utility.yul\":1796:1800   */\n      0x20\n        /* \"#utility.yul\":1789:1794   */\n      dup7\n        /* \"#utility.yul\":1785:1801   */\n      add\n        /* \"#utility.yul\":1763:1815   */\n      tag_74\n      jump\t// in\n    tag_82:\n        /* \"#utility.yul\":1840:1846   */\n      dup1\n        /* \"#utility.yul\":1835:1838   */\n      dup5\n        /* \"#utility.yul\":1831:1847   */\n      add\n        /* \"#utility.yul\":1824:1847   */\n      swap2\n      pop\n        /* \"#utility.yul\":1588:1853   */\n      pop\n        /* \"#utility.yul\":1480:1853   */\n      swap3\n      swap2\n      pop\n      pop\n      jump\t// out\n        /* \"#utility.yul\":1859:2225   */\n    tag_83:\n        /* \"#utility.yul\":2001:2004   */\n      0x00\n        /* \"#utility.yul\":2022:2089   */\n      tag_85\n        /* \"#utility.yul\":2086:2088   */\n      0x14\n        /* \"#utility.yul\":2081:2084   */\n      dup4\n        /* \"#utility.yul\":2022:2089   */\n      tag_86\n      jump\t// in\n    tag_85:\n        /* \"#utility.yul\":2015:2089   */\n      swap2\n      pop\n        /* \"#utility.yul\":2098:2191   */\n      tag_87\n        /* \"#utility.yul\":2187:2190   */\n      dup3\n        /* \"#utility.yul\":2098:2191   */\n      tag_88\n      jump\t// in\n    tag_87:\n        /* \"#utility.yul\":2216:2218   */\n      0x20\n        /* \"#utility.yul\":2211:2214   */\n      dup3\n        /* \"#utility.yul\":2207:2219   */\n      add\n        /* \"#utility.yul\":2200:2219   */\n      swap1\n      pop\n        /* \"#utility.yul\":1859:2225   */\n      swap2\n      swap1\n      pop\n      jump\t// out\n        /* \"#utility.yul\":2231:2596   */\n    tag_89:\n        /* \"#utility.yul\":2373:2376   */\n      0x00\n        /* \"#utility.yul\":2394:2460   */\n      tag_91\n        /* \"#utility.yul\":2458:2459   */\n      0x06\n        /* \"#utility.yul\":2453:2456   */\n      dup4\n        /* \"#utility.yul\":2394:2460   */\n      tag_86\n      jump\t// in\n    tag_91:\n        /* \"#utility.yul\":2387:2460   */\n      swap2\n      pop\n        /* \"#utility.yul\":2469:2562   */\n      tag_92\n        /* \"#utility.yul\":2558:2561   */\n      dup3\n        /* \"#utility.yul\":2469:2562   */\n      tag_93\n      jump\t// in\n    tag_92:\n        /* \"#utility.yul\":2587:2589   */\n      0x20\n        /* \"#utility.yul\":2582:2585   */\n      dup3\n        /* \"#utility.yul\":2578:2590   */\n      add\n        /* \"#utility.yul\":2571:2590   */\n      swap1\n      pop\n        /* \"#utility.yul\":2231:2596   */\n      swap2\n      swap1\n      pop\n      jump\t// out\n        /* \"#utility.yul\":2602:3000   */\n    tag_94:\n        /* \"#utility.yul\":2761:2764   */\n      0x00\n        /* \"#utility.yul\":2782:2865   */\n      tag_96\n        /* \"#utility.yul\":2863:2864   */\n      0x00\n        /* \"#utility.yul\":2858:2861   */\n      dup4\n        /* \"#utility.yul\":2782:2865   */\n      tag_81\n      jump\t// in\n    tag_96:\n        /* \"#utility.yul\":2775:2865   */\n      swap2\n      pop\n        /* \"#utility.yul\":2874:2967   */\n      tag_97\n        /* \"#utility.yul\":2963:2966   */\n      dup3\n        /* \"#utility.yul\":2874:2967   */\n      tag_98\n      jump\t// in\n    tag_97:\n        /* \"#utility.yul\":2992:2993   */\n      0x00\n        /* \"#utility.yul\":2987:2990   */\n      dup3\n        /* \"#utility.yul\":2983:2994   */\n      add\n        /* \"#utility.yul\":2976:2994   */\n      swap1\n      pop\n        /* \"#utility.yul\":2602:3000   */\n      swap2\n      swap1\n      pop\n      jump\t// out\n        /* \"#utility.yul\":3006:3277   */\n    tag_31:\n        /* \"#utility.yul\":3136:3139   */\n      0x00\n        /* \"#utility.yul\":3158:3251   */\n      tag_100\n        /* \"#utility.yul\":3247:3250   */\n      dup3\n        /* \"#utility.yul\":3238:3244   */\n      dup5\n        /* \"#utility.yul\":3158:3251   */\n      tag_77\n      jump\t// in\n    tag_100:\n        /* \"#utility.yul\":3151:3251   */\n      swap2\n      pop\n        /* \"#utility.yul\":3268:3271   */\n      dup2\n        /* \"#utility.yul\":3261:3271   */\n      swap1\n      pop\n        /* \"#utility.yul\":3006:3277   */\n      swap3\n      swap2\n      pop\n      pop\n      jump\t// out\n        /* \"#utility.yul\":3283:3662   */\n    tag_22:\n        /* \"#utility.yul\":3467:3470   */\n      0x00\n        /* \"#utility.yul\":3489:3636   */\n      tag_102\n        /* \"#utility.yul\":3632:3635   */\n      dup3\n        /* \"#utility.yul\":3489:3636   */\n      tag_94\n      jump\t// in\n    tag_102:\n        /* \"#utility.yul\":3482:3636   */\n      swap2\n      pop\n        /* \"#utility.yul\":3653:3656   */\n      dup2\n        /* \"#utility.yul\":3646:3656   */\n      swap1\n      pop\n        /* \"#utility.yul\":3283:3662   */\n      swap2\n      swap1\n      pop\n      jump\t// out\n        /* \"#utility.yul\":3668:4075   */\n    tag_14:\n        /* \"#utility.yul\":3801:3805   */\n      0x00\n        /* \"#utility.yul\":3839:3841   */\n      0x40\n        /* \"#utility.yul\":3828:3837   */\n      dup3\n        /* \"#utility.yul\":3824:3842   */\n      add\n        /* \"#utility.yul\":3816:3842   */\n      swap1\n      pop\n        /* \"#utility.yul\":3852:3917   */\n      tag_104\n        /* \"#utility.yul\":3914:3915   */\n      0x00\n        /* \"#utility.yul\":3903:3912   */\n      dup4\n        /* \"#utility.yul\":3899:3916   */\n      add\n        /* \"#utility.yul\":3890:3896   */\n      dup6\n        /* \"#utility.yul\":3852:3917   */\n      tag_63\n      jump\t// in\n    tag_104:\n        /* \"#utility.yul\":3964:3973   */\n      dup2\n        /* \"#utility.yul\":3958:3962   */\n      dup2\n        /* \"#utility.yul\":3954:3974   */\n      sub\n        /* \"#utility.yul\":3949:3951   */\n      0x20\n        /* \"#utility.yul\":3938:3947   */\n      dup4\n        /* \"#utility.yul\":3934:3952   */\n      add\n        /* \"#utility.yul\":3927:3975   */\n      mstore\n        /* \"#utility.yul\":3992:4068   */\n      tag_105\n        /* \"#utility.yul\":4063:4067   */\n      dup2\n        /* \"#utility.yul\":4054:4060   */\n      dup5\n        /* \"#utility.yul\":3992:4068   */\n      tag_67\n      jump\t// in\n    tag_105:\n        /* \"#utility.yul\":3984:4068   */\n      swap1\n      pop\n        /* \"#utility.yul\":3668:4075   */\n      swap4\n      swap3\n      pop\n      pop\n      pop\n      jump\t// out\n        /* \"#utility.yul\":4081:4500   */\n    tag_28:\n        /* \"#utility.yul\":4247:4251   */\n      0x00\n        /* \"#utility.yul\":4285:4287   */\n      0x20\n        /* \"#utility.yul\":4274:4283   */\n      dup3\n        /* \"#utility.yul\":4270:4288   */\n      add\n        /* \"#utility.yul\":4262:4288   */\n      swap1\n      pop\n        /* \"#utility.yul\":4334:4343   */\n      dup2\n        /* \"#utility.yul\":4328:4332   */\n      dup2\n        /* \"#utility.yul\":4324:4344   */\n      sub\n        /* \"#utility.yul\":4320:4321   */\n      0x00\n        /* \"#utility.yul\":4309:4318   */\n      dup4\n        /* \"#utility.yul\":4305:4322   */\n      add\n        /* \"#utility.yul\":4298:4345   */\n      mstore\n        /* \"#utility.yul\":4362:4493   */\n      tag_107\n        /* \"#utility.yul\":4488:4492   */\n      dup2\n        /* \"#utility.yul\":4362:4493   */\n      tag_83\n      jump\t// in\n    tag_107:\n        /* \"#utility.yul\":4354:4493   */\n      swap1\n      pop\n        /* \"#utility.yul\":4081:4500   */\n      swap2\n      swap1\n      pop\n      jump\t// out\n        /* \"#utility.yul\":4506:4925   */\n    tag_37:\n        /* \"#utility.yul\":4672:4676   */\n      0x00\n        /* \"#utility.yul\":4710:4712   */\n      0x20\n        /* \"#utility.yul\":4699:4708   */\n      dup3\n        /* \"#utility.yul\":4695:4713   */\n      add\n        /* \"#utility.yul\":4687:4713   */\n      swap1\n      pop\n        /* \"#utility.yul\":4759:4768   */\n      dup2\n        /* \"#utility.yul\":4753:4757   */\n      dup2\n        /* \"#utility.yul\":4749:4769   */\n      sub\n        /* \"#utility.yul\":4745:4746   */\n      0x00\n        /* \"#utility.yul\":4734:4743   */\n      dup4\n        /* \"#utility.yul\":4730:4747   */\n      add\n        /* \"#utility.yul\":4723:4770   */\n      mstore\n        /* \"#utility.yul\":4787:4918   */\n      tag_109\n        /* \"#utility.yul\":4913:4917   */\n      dup2\n        /* \"#utility.yul\":4787:4918   */\n      tag_89\n      jump\t// in\n    tag_109:\n        /* \"#utility.yul\":4779:4918   */\n      swap1\n      pop\n        /* \"#utility.yul\":4506:4925   */\n      swap2\n      swap1\n      pop\n      jump\t// out\n        /* \"#utility.yul\":5012:5110   */\n    tag_70:\n        /* \"#utility.yul\":5063:5069   */\n      0x00\n        /* \"#utility.yul\":5097:5102   */\n      dup2\n        /* \"#utility.yul\":5091:5103   */\n      mload\n        /* \"#utility.yul\":5081:5103   */\n      swap1\n      pop\n        /* \"#utility.yul\":5012:5110   */\n      swap2\n      swap1\n      pop\n      jump\t// out\n        /* \"#utility.yul\":5116:5284   */\n    tag_72:\n        /* \"#utility.yul\":5199:5210   */\n      0x00\n        /* \"#utility.yul\":5233:5239   */\n      dup3\n        /* \"#utility.yul\":5228:5231   */\n      dup3\n        /* \"#utility.yul\":5221:5240   */\n      mstore\n        /* \"#utility.yul\":5273:5277   */\n      0x20\n        /* \"#utility.yul\":5268:5271   */\n      dup3\n        /* \"#utility.yul\":5264:5278   */\n      add\n        /* \"#utility.yul\":5249:5278   */\n      swap1\n      pop\n        /* \"#utility.yul\":5116:5284   */\n      swap3\n      swap2\n      pop\n      pop\n      jump\t// out\n        /* \"#utility.yul\":5290:5437   */\n    tag_81:\n        /* \"#utility.yul\":5391:5402   */\n      0x00\n        /* \"#utility.yul\":5428:5431   */\n      dup2\n        /* \"#utility.yul\":5413:5431   */\n      swap1\n      pop\n        /* \"#utility.yul\":5290:5437   */\n      swap3\n      swap2\n      pop\n      pop\n      jump\t// out\n        /* \"#utility.yul\":5443:5612   */\n    tag_86:\n        /* \"#utility.yul\":5527:5538   */\n      0x00\n        /* \"#utility.yul\":5561:5567   */\n      dup3\n        /* \"#utility.yul\":5556:5559   */\n      dup3\n        /* \"#utility.yul\":5549:5568   */\n      mstore\n        /* \"#utility.yul\":5601:5605   */\n      0x20\n        /* \"#utility.yul\":5596:5599   */\n      dup3\n        /* \"#utility.yul\":5592:5606   */\n      add\n        /* \"#utility.yul\":5577:5606   */\n      swap1\n      pop\n        /* \"#utility.yul\":5443:5612   */\n      swap3\n      swap2\n      pop\n      pop\n      jump\t// out\n        /* \"#utility.yul\":5618:5714   */\n    tag_116:\n        /* \"#utility.yul\":5655:5662   */\n      0x00\n        /* \"#utility.yul\":5684:5708   */\n      tag_118\n        /* \"#utility.yul\":5702:5707   */\n      dup3\n        /* \"#utility.yul\":5684:5708   */\n      tag_119\n      jump\t// in\n    tag_118:\n        /* \"#utility.yul\":5673:5708   */\n      swap1\n      pop\n        /* \"#utility.yul\":5618:5714   */\n      swap2\n      swap1\n      pop\n      jump\t// out\n        /* \"#utility.yul\":5720:5824   */\n    tag_120:\n        /* \"#utility.yul\":5765:5772   */\n      0x00\n        /* \"#utility.yul\":5794:5818   */\n      tag_122\n        /* \"#utility.yul\":5812:5817   */\n      dup3\n        /* \"#utility.yul\":5794:5818   */\n      tag_119\n      jump\t// in\n    tag_122:\n        /* \"#utility.yul\":5783:5818   */\n      swap1\n      pop\n        /* \"#utility.yul\":5720:5824   */\n      swap2\n      swap1\n      pop\n      jump\t// out\n        /* \"#utility.yul\":5830:5920   */\n    tag_66:\n        /* \"#utility.yul\":5864:5871   */\n      0x00\n        /* \"#utility.yul\":5907:5912   */\n      dup2\n        /* \"#utility.yul\":5900:5913   */\n      iszero\n        /* \"#utility.yul\":5893:5914   */\n      iszero\n        /* \"#utility.yul\":5882:5914   */\n      swap1\n      pop\n        /* \"#utility.yul\":5830:5920   */\n      swap2\n      swap1\n      pop\n      jump\t// out\n        /* \"#utility.yul\":5926:6052   */\n    tag_119:\n        /* \"#utility.yul\":5963:5970   */\n      0x00\n        /* \"#utility.yul\":6003:6045   */\n      0xffffffffffffffffffffffffffffffffffffffff\n        /* \"#utility.yul\":5996:6001   */\n      dup3\n        /* \"#utility.yul\":5992:6046   */\n      and\n        /* \"#utility.yul\":5981:6046   */\n      swap1\n      pop\n        /* \"#utility.yul\":5926:6052   */\n      swap2\n      swap1\n      pop\n      jump\t// out\n        /* \"#utility.yul\":6058:6365   */\n    tag_74:\n        /* \"#utility.yul\":6126:6127   */\n      0x00\n        /* \"#utility.yul\":6136:6249   */\n    tag_126:\n        /* \"#utility.yul\":6150:6156   */\n      dup4\n        /* \"#utility.yul\":6147:6148   */\n      dup2\n        /* \"#utility.yul\":6144:6157   */\n      lt\n        /* \"#utility.yul\":6136:6249   */\n      iszero\n      tag_128\n      jumpi\n        /* \"#utility.yul\":6235:6236   */\n      dup1\n        /* \"#utility.yul\":6230:6233   */\n      dup3\n        /* \"#utility.yul\":6226:6237   */\n      add\n        /* \"#utility.yul\":6220:6238   */\n      mload\n        /* \"#utility.yul\":6216:6217   */\n      dup2\n        /* \"#utility.yul\":6211:6214   */\n      dup5\n        /* \"#utility.yul\":6207:6218   */\n      add\n        /* \"#utility.yul\":6200:6239   */\n      mstore\n        /* \"#utility.yul\":6172:6174   */\n      0x20\n        /* \"#utility.yul\":6169:6170   */\n      dup2\n        /* \"#utility.yul\":6165:6175   */\n      add\n        /* \"#utility.yul\":6160:6175   */\n      swap1\n      pop\n        /* \"#utility.yul\":6136:6249   */\n      jump(tag_126)\n    tag_128:\n        /* \"#utility.yul\":6267:6273   */\n      dup4\n        /* \"#utility.yul\":6264:6265   */\n      dup2\n        /* \"#utility.yul\":6261:6274   */\n      gt\n        /* \"#utility.yul\":6258:6359   */\n      iszero\n      tag_129\n      jumpi\n        /* \"#utility.yul\":6347:6348   */\n      0x00\n        /* \"#utility.yul\":6338:6344   */\n      dup5\n        /* \"#utility.yul\":6333:6336   */\n      dup5\n        /* \"#utility.yul\":6329:6345   */\n      add\n        /* \"#utility.yul\":6322:6349   */\n      mstore\n        /* \"#utility.yul\":6258:6359   */\n    tag_129:\n        /* \"#utility.yul\":6107:6365   */\n      pop\n        /* \"#utility.yul\":6058:6365   */\n      pop\n      pop\n      pop\n      jump\t// out\n        /* \"#utility.yul\":6494:6611   */\n    tag_57:\n        /* \"#utility.yul\":6603:6604   */\n      0x00\n        /* \"#utility.yul\":6600:6601   */\n      dup1\n        /* \"#utility.yul\":6593:6605   */\n      revert\n        /* \"#utility.yul\":6617:6719   */\n    tag_76:\n        /* \"#utility.yul\":6658:6664   */\n      0x00\n        /* \"#utility.yul\":6709:6711   */\n      0x1f\n        /* \"#utility.yul\":6705:6712   */\n      not\n        /* \"#utility.yul\":6700:6702   */\n      0x1f\n        /* \"#utility.yul\":6693:6698   */\n      dup4\n        /* \"#utility.yul\":6689:6703   */\n      add\n        /* \"#utility.yul\":6685:6713   */\n      and\n        /* \"#utility.yul\":6675:6713   */\n      swap1\n      pop\n        /* \"#utility.yul\":6617:6719   */\n      swap2\n      swap1\n      pop\n      jump\t// out\n        /* \"#utility.yul\":6725:6895   */\n    tag_88:\n        /* \"#utility.yul\":6865:6887   */\n      0x4661696c656420746f2073656e64204574686572000000000000000000000000\n        /* \"#utility.yul\":6861:6862   */\n      0x00\n        /* \"#utility.yul\":6853:6859   */\n      dup3\n        /* \"#utility.yul\":6849:6863   */\n      add\n        /* \"#utility.yul\":6842:6888   */\n      mstore\n        /* \"#utility.yul\":6725:6895   */\n      pop\n      jump\t// out\n        /* \"#utility.yul\":6901:7057   */\n    tag_93:\n        /* \"#utility.yul\":7041:7049   */\n      0x6661696c65640000000000000000000000000000000000000000000000000000\n        /* \"#utility.yul\":7037:7038   */\n      0x00\n        /* \"#utility.yul\":7029:7035   */\n      dup3\n        /* \"#utility.yul\":7025:7039   */\n      add\n        /* \"#utility.yul\":7018:7050   */\n      mstore\n        /* \"#utility.yul\":6901:7057   */\n      pop\n      jump\t// out\n        /* \"#utility.yul\":7063:7177   */\n    tag_98:\n      pop\n      jump\t// out\n        /* \"#utility.yul\":7183:7305   */\n    tag_49:\n        /* \"#utility.yul\":7256:7280   */\n      tag_138\n        /* \"#utility.yul\":7274:7279   */\n      dup2\n        /* \"#utility.yul\":7256:7280   */\n      tag_116\n      jump\t// in\n    tag_138:\n        /* \"#utility.yul\":7249:7254   */\n      dup2\n        /* \"#utility.yul\":7246:7281   */\n      eq\n        /* \"#utility.yul\":7236:7299   */\n      tag_139\n      jumpi\n        /* \"#utility.yul\":7295:7296   */\n      0x00\n        /* \"#utility.yul\":7292:7293   */\n      dup1\n        /* \"#utility.yul\":7285:7297   */\n      revert\n        /* \"#utility.yul\":7236:7299   */\n    tag_139:\n        /* \"#utility.yul\":7183:7305   */\n      pop\n      jump\t// out\n        /* \"#utility.yul\":7311:7449   */\n    tag_53:\n        /* \"#utility.yul\":7392:7424   */\n      tag_141\n        /* \"#utility.yul\":7418:7423   */\n      dup2\n        /* \"#utility.yul\":7392:7424   */\n      tag_120\n      jump\t// in\n    tag_141:\n        /* \"#utility.yul\":7385:7390   */\n      dup2\n        /* \"#utility.yul\":7382:7425   */\n      eq\n        /* \"#utility.yul\":7372:7443   */\n      tag_142\n      jumpi\n        /* \"#utility.yul\":7439:7440   */\n      0x00\n        /* \"#utility.yul\":7436:7437   */\n      dup1\n        /* \"#utility.yul\":7429:7441   */\n      revert\n        /* \"#utility.yul\":7372:7443   */\n    tag_142:\n        /* \"#utility.yul\":7311:7449   */\n      pop\n      jump\t// out\n\n    auxdata: 0xa264697066735822122074c0f54356bcfeca68ade9f585ec047093fcc2cbc8234e2a0ff06304810a4e3364736f6c63430008070033\n}\n",
				"bytecode": {
					"linkReferences": {},
					"object": "608060405234801561001057600080fd5b50610785806100206000396000f3fe6080604052600436106100345760003560e01c806375a4624d14610039578063a94952fe14610055578063b5d2657c14610086575b600080fd5b610053600480360381019061004e9190610450565b6100c4565b005b61006f600480360381019061006a9190610423565b610174565b60405161007d92919061058b565b60405180910390f35b34801561009257600080fd5b506100ad60048036038101906100a89190610423565b6102b7565b6040516100bb92919061058b565b60405180910390f35b60008173ffffffffffffffffffffffffffffffffffffffff16346040516100ea90610576565b60006040518083038185875af1925050503d8060008114610127576040519150601f19603f3d011682016040523d82523d6000602084013e61012c565b606091505b5050905080610170576040517f08c379a0000000000000000000000000000000000000000000000000000000008152600401610167906105bb565b60405180910390fd5b5050565b600060606000808473ffffffffffffffffffffffffffffffffffffffff16346040516024016040516020818303038152906040527f2c23d2b4000000000000000000000000000000000000000000000000000000007bffffffffffffffffffffffffffffffffffffffffffffffffffffffff19166020820180517bffffffffffffffffffffffffffffffffffffffffffffffffffffffff8381831617835250505050604051610223919061055f565b60006040518083038185875af1925050503d8060008114610260576040519150601f19603f3d011682016040523d82523d6000602084013e610265565b606091505b5091509150816102aa576040517f08c379a00000000000000000000000000000000000000000000000000000000081526004016102a1906105db565b60405180910390fd5b8181935093505050915091565b600060606000808473ffffffffffffffffffffffffffffffffffffffff166040516024016040516020818303038152906040527f2c23d2b4000000000000000000000000000000000000000000000000000000007bffffffffffffffffffffffffffffffffffffffffffffffffffffffff19166020820180517bffffffffffffffffffffffffffffffffffffffffffffffffffffffff8381831617835250505050604051610365919061055f565b6000604051808303816000865af19150503d80600081146103a2576040519150601f19603f3d011682016040523d82523d6000602084013e6103a7565b606091505b5091509150816103ec576040517f08c379a00000000000000000000000000000000000000000000000000000000081526004016103e3906105db565b60405180910390fd5b8181935093505050915091565b60008135905061040881610721565b92915050565b60008135905061041d81610738565b92915050565b600060208284031215610439576104386106b6565b5b6000610447848285016103f9565b91505092915050565b600060208284031215610466576104656106b6565b5b60006104748482850161040e565b91505092915050565b61048681610657565b82525050565b6000610497826105fb565b6104a18185610606565b93506104b1818560208601610683565b6104ba816106bb565b840191505092915050565b60006104d0826105fb565b6104da8185610617565b93506104ea818560208601610683565b80840191505092915050565b6000610503601483610622565b915061050e826106cc565b602082019050919050565b6000610526600683610622565b9150610531826106f5565b602082019050919050565b6000610549600083610617565b91506105548261071e565b600082019050919050565b600061056b82846104c5565b915081905092915050565b60006105818261053c565b9150819050919050565b60006040820190506105a0600083018561047d565b81810360208301526105b2818461048c565b90509392505050565b600060208201905081810360008301526105d4816104f6565b9050919050565b600060208201905081810360008301526105f481610519565b9050919050565b600081519050919050565b600082825260208201905092915050565b600081905092915050565b600082825260208201905092915050565b600061063e82610663565b9050919050565b600061065082610663565b9050919050565b60008115159050919050565b600073ffffffffffffffffffffffffffffffffffffffff82169050919050565b60005b838110156106a1578082015181840152602081019050610686565b838111156106b0576000848401525b50505050565b600080fd5b6000601f19601f8301169050919050565b7f4661696c656420746f2073656e64204574686572000000000000000000000000600082015250565b7f6661696c65640000000000000000000000000000000000000000000000000000600082015250565b50565b61072a81610633565b811461073557600080fd5b50565b61074181610645565b811461074c57600080fd5b5056fea264697066735822122074c0f54356bcfeca68ade9f585ec047093fcc2cbc8234e2a0ff06304810a4e3364736f6c63430008070033",
					"opcodes": "PUSH1 0x80 PUSH1 0x40 MSTORE CALLVALUE DUP1 ISZERO PUSH2 0x10 JUMPI PUSH1 0x0 DUP1 REVERT JUMPDEST POP PUSH2 0x785 DUP1 PUSH2 0x20 PUSH1 0x0 CODECOPY PUSH1 0x0 RETURN INVALID PUSH1 0x80 PUSH1 0x40 MSTORE PUSH1 0x4 CALLDATASIZE LT PUSH2 0x34 JUMPI PUSH1 0x0 CALLDATALOAD PUSH1 0xE0 SHR DUP1 PUSH4 0x75A4624D EQ PUSH2 0x39 JUMPI DUP1 PUSH4 0xA94952FE EQ PUSH2 0x55 JUMPI DUP1 PUSH4 0xB5D2657C EQ PUSH2 0x86 JUMPI JUMPDEST PUSH1 0x0 DUP1 REVERT JUMPDEST PUSH2 0x53 PUSH1 0x4 DUP1 CALLDATASIZE SUB DUP2 ADD SWAP1 PUSH2 0x4E SWAP2 SWAP1 PUSH2 0x450 JUMP JUMPDEST PUSH2 0xC4 JUMP JUMPDEST STOP JUMPDEST PUSH2 0x6F PUSH1 0x4 DUP1 CALLDATASIZE SUB DUP2 ADD SWAP1 PUSH2 0x6A SWAP2 SWAP1 PUSH2 0x423 JUMP JUMPDEST PUSH2 0x174 JUMP JUMPDEST PUSH1 0x40 MLOAD PUSH2 0x7D SWAP3 SWAP2 SWAP1 PUSH2 0x58B JUMP JUMPDEST PUSH1 0x40 MLOAD DUP1 SWAP2 SUB SWAP1 RETURN JUMPDEST CALLVALUE DUP1 ISZERO PUSH2 0x92 JUMPI PUSH1 0x0 DUP1 REVERT JUMPDEST POP PUSH2 0xAD PUSH1 0x4 DUP1 CALLDATASIZE SUB DUP2 ADD SWAP1 PUSH2 0xA8 SWAP2 SWAP1 PUSH2 0x423 JUMP JUMPDEST PUSH2 0x2B7 JUMP JUMPDEST PUSH1 0x40 MLOAD PUSH2 0xBB SWAP3 SWAP2 SWAP1 PUSH2 0x58B JUMP JUMPDEST PUSH1 0x40 MLOAD DUP1 SWAP2 SUB SWAP1 RETURN JUMPDEST PUSH1 0x0 DUP2 PUSH20 0xFFFFFFFFFFFFFFFFFFFFFFFFFFFFFFFFFFFFFFFF AND CALLVALUE PUSH1 0x40 MLOAD PUSH2 0xEA SWAP1 PUSH2 0x576 JUMP JUMPDEST PUSH1 0x0 PUSH1 0x40 MLOAD DUP1 DUP4 SUB DUP2 DUP6 DUP8 GAS CALL SWAP3 POP POP POP RETURNDATASIZE DUP1 PUSH1 0x0 DUP2 EQ PUSH2 0x127 JUMPI PUSH1 0x40 MLOAD SWAP2 POP PUSH1 0x1F NOT PUSH1 0x3F RETURNDATASIZE ADD AND DUP3 ADD PUSH1 0x40 MSTORE RETURNDATASIZE DUP3 MSTORE RETURNDATASIZE PUSH1 0x0 PUSH1 0x20 DUP5 ADD RETURNDATACOPY PUSH2 0x12C JUMP JUMPDEST PUSH1 0x60 SWAP2 POP JUMPDEST POP POP SWAP1 POP DUP1 PUSH2 0x170 JUMPI PUSH1 0x40 MLOAD PUSH32 0x8C379A000000000000000000000000000000000000000000000000000000000 DUP2 MSTORE PUSH1 0x4 ADD PUSH2 0x167 SWAP1 PUSH2 0x5BB JUMP JUMPDEST PUSH1 0x40 MLOAD DUP1 SWAP2 SUB SWAP1 REVERT JUMPDEST POP POP JUMP JUMPDEST PUSH1 0x0 PUSH1 0x60 PUSH1 0x0 DUP1 DUP5 PUSH20 0xFFFFFFFFFFFFFFFFFFFFFFFFFFFFFFFFFFFFFFFF AND CALLVALUE PUSH1 0x40 MLOAD PUSH1 0x24 ADD PUSH1 0x40 MLOAD PUSH1 0x20 DUP2 DUP4 SUB SUB DUP2 MSTORE SWAP1 PUSH1 0x40 MSTORE PUSH32 0x2C23D2B400000000000000000000000000000000000000000000000000000000 PUSH28 0xFFFFFFFFFFFFFFFFFFFFFFFFFFFFFFFFFFFFFFFFFFFFFFFFFFFFFFFF NOT AND PUSH1 0x20 DUP3 ADD DUP1 MLOAD PUSH28 0xFFFFFFFFFFFFFFFFFFFFFFFFFFFFFFFFFFFFFFFFFFFFFFFFFFFFFFFF DUP4 DUP2 DUP4 AND OR DUP4 MSTORE POP POP POP POP PUSH1 0x40 MLOAD PUSH2 0x223 SWAP2 SWAP1 PUSH2 0x55F JUMP JUMPDEST PUSH1 0x0 PUSH1 0x40 MLOAD DUP1 DUP4 SUB DUP2 DUP6 DUP8 GAS CALL SWAP3 POP POP POP RETURNDATASIZE DUP1 PUSH1 0x0 DUP2 EQ PUSH2 0x260 JUMPI PUSH1 0x40 MLOAD SWAP2 POP PUSH1 0x1F NOT PUSH1 0x3F RETURNDATASIZE ADD AND DUP3 ADD PUSH1 0x40 MSTORE RETURNDATASIZE DUP3 MSTORE RETURNDATASIZE PUSH1 0x0 PUSH1 0x20 DUP5 ADD RETURNDATACOPY PUSH2 0x265 JUMP JUMPDEST PUSH1 0x60 SWAP2 POP JUMPDEST POP SWAP2 POP SWAP2 POP DUP2 PUSH2 0x2AA JUMPI PUSH1 0x40 MLOAD PUSH32 0x8C379A000000000000000000000000000000000000000000000000000000000 DUP2 MSTORE PUSH1 0x4 ADD PUSH2 0x2A1 SWAP1 PUSH2 0x5DB JUMP JUMPDEST PUSH1 0x40 MLOAD DUP1 SWAP2 SUB SWAP1 REVERT JUMPDEST DUP2 DUP2 SWAP4 POP SWAP4 POP POP POP SWAP2 POP SWAP2 JUMP JUMPDEST PUSH1 0x0 PUSH1 0x60 PUSH1 0x0 DUP1 DUP5 PUSH20 0xFFFFFFFFFFFFFFFFFFFFFFFFFFFFFFFFFFFFFFFF AND PUSH1 0x40 MLOAD PUSH1 0x24 ADD PUSH1 0x40 MLOAD PUSH1 0x20 DUP2 DUP4 SUB SUB DUP2 MSTORE SWAP1 PUSH1 0x40 MSTORE PUSH32 0x2C23D2B400000000000000000000000000000000000000000000000000000000 PUSH28 0xFFFFFFFFFFFFFFFFFFFFFFFFFFFFFFFFFFFFFFFFFFFFFFFFFFFFFFFF NOT AND PUSH1 0x20 DUP3 ADD DUP1 MLOAD PUSH28 0xFFFFFFFFFFFFFFFFFFFFFFFFFFFFFFFFFFFFFFFFFFFFFFFFFFFFFFFF DUP4 DUP2 DUP4 AND OR DUP4 MSTORE POP POP POP POP PUSH1 0x40 MLOAD PUSH2 0x365 SWAP2 SWAP1 PUSH2 0x55F JUMP JUMPDEST PUSH1 0x0 PUSH1 0x40 MLOAD DUP1 DUP4 SUB DUP2 PUSH1 0x0 DUP7 GAS CALL SWAP2 POP POP RETURNDATASIZE DUP1 PUSH1 0x0 DUP2 EQ PUSH2 0x3A2 JUMPI PUSH1 0x40 MLOAD SWAP2 POP PUSH1 0x1F NOT PUSH1 0x3F RETURNDATASIZE ADD AND DUP3 ADD PUSH1 0x40 MSTORE RETURNDATASIZE DUP3 MSTORE RETURNDATASIZE PUSH1 0x0 PUSH1 0x20 DUP5 ADD RETURNDATACOPY PUSH2 0x3A7 JUMP JUMPDEST PUSH1 0x60 SWAP2 POP JUMPDEST POP SWAP2 POP SWAP2 POP DUP2 PUSH2 0x3EC JUMPI PUSH1 0x40 MLOAD PUSH32 0x8C379A000000000000000000000000000000000000000000000000000000000 DUP2 MSTORE PUSH1 0x4 ADD PUSH2 0x3E3 SWAP1 PUSH2 0x5DB JUMP JUMPDEST PUSH1 0x40 MLOAD DUP1 SWAP2 SUB SWAP1 REVERT JUMPDEST DUP2 DUP2 SWAP4 POP SWAP4 POP POP POP SWAP2 POP SWAP2 JUMP JUMPDEST PUSH1 0x0 DUP2 CALLDATALOAD SWAP1 POP PUSH2 0x408 DUP2 PUSH2 0x721 JUMP JUMPDEST SWAP3 SWAP2 POP POP JUMP JUMPDEST PUSH1 0x0 DUP2 CALLDATALOAD SWAP1 POP PUSH2 0x41D DUP2 PUSH2 0x738 JUMP JUMPDEST SWAP3 SWAP2 POP POP JUMP JUMPDEST PUSH1 0x0 PUSH1 0x20 DUP3 DUP5 SUB SLT ISZERO PUSH2 0x439 JUMPI PUSH2 0x438 PUSH2 0x6B6 JUMP JUMPDEST JUMPDEST PUSH1 0x0 PUSH2 0x447 DUP5 DUP3 DUP6 ADD PUSH2 0x3F9 JUMP JUMPDEST SWAP2 POP POP SWAP3 SWAP2 POP POP JUMP JUMPDEST PUSH1 0x0 PUSH1 0x20 DUP3 DUP5 SUB SLT ISZERO PUSH2 0x466 JUMPI PUSH2 0x465 PUSH2 0x6B6 JUMP JUMPDEST JUMPDEST PUSH1 0x0 PUSH2 0x474 DUP5 DUP3 DUP6 ADD PUSH2 0x40E JUMP JUMPDEST SWAP2 POP POP SWAP3 SWAP2 POP POP JUMP JUMPDEST PUSH2 0x486 DUP2 PUSH2 0x657 JUMP JUMPDEST DUP3 MSTORE POP POP JUMP JUMPDEST PUSH1 0x0 PUSH2 0x497 DUP3 PUSH2 0x5FB JUMP JUMPDEST PUSH2 0x4A1 DUP2 DUP6 PUSH2 0x606 JUMP JUMPDEST SWAP4 POP PUSH2 0x4B1 DUP2 DUP6 PUSH1 0x20 DUP7 ADD PUSH2 0x683 JUMP JUMPDEST PUSH2 0x4BA DUP2 PUSH2 0x6BB JUMP JUMPDEST DUP5 ADD SWAP2 POP POP SWAP3 SWAP2 POP POP JUMP JUMPDEST PUSH1 0x0 PUSH2 0x4D0 DUP3 PUSH2 0x5FB JUMP JUMPDEST PUSH2 0x4DA DUP2 DUP6 PUSH2 0x617 JUMP JUMPDEST SWAP4 POP PUSH2 0x4EA DUP2 DUP6 PUSH1 0x20 DUP7 ADD PUSH2 0x683 JUMP JUMPDEST DUP1 DUP5 ADD SWAP2 POP POP SWAP3 SWAP2 POP POP JUMP JUMPDEST PUSH1 0x0 PUSH2 0x503 PUSH1 0x14 DUP4 PUSH2 0x622 JUMP JUMPDEST SWAP2 POP PUSH2 0x50E DUP3 PUSH2 0x6CC JUMP JUMPDEST PUSH1 0x20 DUP3 ADD SWAP1 POP SWAP2 SWAP1 POP JUMP JUMPDEST PUSH1 0x0 PUSH2 0x526 PUSH1 0x6 DUP4 PUSH2 0x622 JUMP JUMPDEST SWAP2 POP PUSH2 0x531 DUP3 PUSH2 0x6F5 JUMP JUMPDEST PUSH1 0x20 DUP3 ADD SWAP1 POP SWAP2 SWAP1 POP JUMP JUMPDEST PUSH1 0x0 PUSH2 0x549 PUSH1 0x0 DUP4 PUSH2 0x617 JUMP JUMPDEST SWAP2 POP PUSH2 0x554 DUP3 PUSH2 0x71E JUMP JUMPDEST PUSH1 0x0 DUP3 ADD SWAP1 POP SWAP2 SWAP1 POP JUMP JUMPDEST PUSH1 0x0 PUSH2 0x56B DUP3 DUP5 PUSH2 0x4C5 JUMP JUMPDEST SWAP2 POP DUP2 SWAP1 POP SWAP3 SWAP2 POP POP JUMP JUMPDEST PUSH1 0x0 PUSH2 0x581 DUP3 PUSH2 0x53C JUMP JUMPDEST SWAP2 POP DUP2 SWAP1 POP SWAP2 SWAP1 POP JUMP JUMPDEST PUSH1 0x0 PUSH1 0x40 DUP3 ADD SWAP1 POP PUSH2 0x5A0 PUSH1 0x0 DUP4 ADD DUP6 PUSH2 0x47D JUMP JUMPDEST DUP2 DUP2 SUB PUSH1 0x20 DUP4 ADD MSTORE PUSH2 0x5B2 DUP2 DUP5 PUSH2 0x48C JUMP JUMPDEST SWAP1 POP SWAP4 SWAP3 POP POP POP JUMP JUMPDEST PUSH1 0x0 PUSH1 0x20 DUP3 ADD SWAP1 POP DUP2 DUP2 SUB PUSH1 0x0 DUP4 ADD MSTORE PUSH2 0x5D4 DUP2 PUSH2 0x4F6 JUMP JUMPDEST SWAP1 POP SWAP2 SWAP1 POP JUMP JUMPDEST PUSH1 0x0 PUSH1 0x20 DUP3 ADD SWAP1 POP DUP2 DUP2 SUB PUSH1 0x0 DUP4 ADD MSTORE PUSH2 0x5F4 DUP2 PUSH2 0x519 JUMP JUMPDEST SWAP1 POP SWAP2 SWAP1 POP JUMP JUMPDEST PUSH1 0x0 DUP2 MLOAD SWAP1 POP SWAP2 SWAP1 POP JUMP JUMPDEST PUSH1 0x0 DUP3 DUP3 MSTORE PUSH1 0x20 DUP3 ADD SWAP1 POP SWAP3 SWAP2 POP POP JUMP JUMPDEST PUSH1 0x0 DUP2 SWAP1 POP SWAP3 SWAP2 POP POP JUMP JUMPDEST PUSH1 0x0 DUP3 DUP3 MSTORE PUSH1 0x20 DUP3 ADD SWAP1 POP SWAP3 SWAP2 POP POP JUMP JUMPDEST PUSH1 0x0 PUSH2 0x63E DUP3 PUSH2 0x663 JUMP JUMPDEST SWAP1 POP SWAP2 SWAP1 POP JUMP JUMPDEST PUSH1 0x0 PUSH2 0x650 DUP3 PUSH2 0x663 JUMP JUMPDEST SWAP1 POP SWAP2 SWAP1 POP JUMP JUMPDEST PUSH1 0x0 DUP2 ISZERO ISZERO SWAP1 POP SWAP2 SWAP1 POP JUMP JUMPDEST PUSH1 0x0 PUSH20 0xFFFFFFFFFFFFFFFFFFFFFFFFFFFFFFFFFFFFFFFF DUP3 AND SWAP1 POP SWAP2 SWAP1 POP JUMP JUMPDEST PUSH1 0x0 JUMPDEST DUP4 DUP2 LT ISZERO PUSH2 0x6A1 JUMPI DUP1 DUP3 ADD MLOAD DUP2 DUP5 ADD MSTORE PUSH1 0x20 DUP2 ADD SWAP1 POP PUSH2 0x686 JUMP JUMPDEST DUP4 DUP2 GT ISZERO PUSH2 0x6B0 JUMPI PUSH1 0x0 DUP5 DUP5 ADD MSTORE JUMPDEST POP POP POP POP JUMP JUMPDEST PUSH1 0x0 DUP1 REVERT JUMPDEST PUSH1 0x0 PUSH1 0x1F NOT PUSH1 0x1F DUP4 ADD AND SWAP1 POP SWAP2 SWAP1 POP JUMP JUMPDEST PUSH32 0x4661696C656420746F2073656E64204574686572000000000000000000000000 PUSH1 0x0 DUP3 ADD MSTORE POP JUMP JUMPDEST PUSH32 0x6661696C65640000000000000000000000000000000000000000000000000000 PUSH1 0x0 DUP3 ADD MSTORE POP JUMP JUMPDEST POP JUMP JUMPDEST PUSH2 0x72A DUP2 PUSH2 0x633 JUMP JUMPDEST DUP2 EQ PUSH2 0x735 JUMPI PUSH1 0x0 DUP1 REVERT JUMPDEST POP JUMP JUMPDEST PUSH2 0x741 DUP2 PUSH2 0x645 JUMP JUMPDEST DUP2 EQ PUSH2 0x74C JUMPI PUSH1 0x0 DUP1 REVERT JUMPDEST POP JUMP INVALID LOG2 PUSH5 0x6970667358 0x22 SLT KECCAK256 PUSH21 0xC0F54356BCFECA68ADE9F585EC047093FCC2CBC823 0x4E 0x2A 0xF CREATE PUSH4 0x4810A4E CALLER PUSH5 0x736F6C6343 STOP ADDMOD SMOD STOP CALLER "
				},
				"gasEstimates": {
					"creation": {
						"codeDepositCost": "385000",
						"executionCost": "424",
						"totalCost": "385424"
					},
					"external": {
						"callNow(address)": "infinite",
						"callWrong(address)": "infinite",
						"callWrong2(address)": "infinite"
					}
				},
				"methodIdentifiers": {
					"callNow(address)": "75a4624d",
					"callWrong(address)": "b5d2657c",
					"callWrong2(address)": "a94952fe"
				}
			},
			"storageLayout": {
				"storage": [],
				"types": null
			},
			"userdoc": {
				"kind": "user",
				"methods": {},
				"version": 1
			}
		}
	}
}